{
  "_format": "hh-sol-artifact-1",
  "contractName": "SettlementV1",
  "sourceName": "SettlementV1.sol",
  "abi": [
    {
      "inputs": [
        {
          "internalType": "contract IOrderMixin",
          "name": "limitOrderProtocol",
          "type": "address"
        },
        {
          "internalType": "contract IERC20",
          "name": "token",
          "type": "address"
        }
      ],
      "stateMutability": "nonpayable",
      "type": "constructor"
    },
    {
      "inputs": [],
      "name": "AccessDenied",
      "type": "error"
    },
    {
      "inputs": [],
      "name": "FailedExternalCall",
      "type": "error"
    },
    {
      "inputs": [],
      "name": "ForceApproveFailed",
      "type": "error"
    },
    {
      "inputs": [],
      "name": "IncorrectCalldataParams",
      "type": "error"
    },
    {
      "inputs": [],
      "name": "NotEnoughCredit",
      "type": "error"
    },
    {
      "inputs": [],
      "name": "OnlyFeeBankAccess",
      "type": "error"
    },
    {
      "inputs": [],
      "name": "ResolverIsNotWhitelisted",
      "type": "error"
    },
    {
      "inputs": [],
      "name": "SafeTransferFailed",
      "type": "error"
    },
    {
      "inputs": [],
      "name": "WrongInteractionTarget",
      "type": "error"
    },
    {
      "inputs": [
        {
          "internalType": "address",
          "name": "account",
          "type": "address"
        }
      ],
      "name": "availableCredit",
      "outputs": [
        {
          "internalType": "uint256",
          "name": "",
          "type": "uint256"
        }
      ],
      "stateMutability": "view",
      "type": "function"
    },
    {
      "inputs": [
        {
          "internalType": "address",
          "name": "account",
          "type": "address"
        },
        {
          "internalType": "uint256",
          "name": "amount",
          "type": "uint256"
        }
      ],
      "name": "decreaseAvailableCredit",
      "outputs": [
        {
          "internalType": "uint256",
          "name": "allowance",
          "type": "uint256"
        }
      ],
      "stateMutability": "nonpayable",
      "type": "function"
    },
    {
      "inputs": [],
      "name": "feeBank",
      "outputs": [
        {
          "internalType": "contract IFeeBank",
          "name": "",
          "type": "address"
        }
      ],
      "stateMutability": "view",
      "type": "function"
    },
    {
      "inputs": [
        {
          "internalType": "address",
          "name": "taker",
          "type": "address"
        },
        {
          "internalType": "uint256",
          "name": "",
          "type": "uint256"
        },
        {
          "internalType": "uint256",
          "name": "takingAmount",
          "type": "uint256"
        },
        {
          "internalType": "bytes",
          "name": "interactiveData",
          "type": "bytes"
        }
      ],
      "name": "fillOrderInteraction",
      "outputs": [
        {
          "internalType": "uint256",
          "name": "result",
          "type": "uint256"
        }
      ],
      "stateMutability": "nonpayable",
      "type": "function"
    },
    {
      "inputs": [
        {
          "internalType": "address",
          "name": "account",
          "type": "address"
        },
        {
          "internalType": "uint256",
          "name": "amount",
          "type": "uint256"
        }
      ],
      "name": "increaseAvailableCredit",
      "outputs": [
        {
          "internalType": "uint256",
          "name": "allowance",
          "type": "uint256"
        }
      ],
      "stateMutability": "nonpayable",
      "type": "function"
    },
    {
      "inputs": [
        {
          "internalType": "bytes",
          "name": "data",
          "type": "bytes"
        }
      ],
      "name": "settleOrders",
      "outputs": [],
      "stateMutability": "nonpayable",
      "type": "function"
    }
  ],
  "bytecode": "0x60c060405234801561001057600080fd5b50604051620022c8380380620022c8833981016040819052610031916100c1565b803081336040516100419061009b565b6001600160a01b03938416815291831660208301529091166040820152606001604051809103906000f08015801561007d573d6000803e3d6000fd5b506001600160a01b039081166080529290921660a052506100fb9050565b611048806200128083390190565b6001600160a01b03811681146100be57600080fd5b50565b600080604083850312156100d457600080fd5b82516100df816100a9565b60208401519092506100f0816100a9565b809150509250929050565b60805160a0516111436200013d6000396000818161035b015281816106a4015261077f01526000818161010001528181610197015261026901526111436000f3fe608060405234801561001057600080fd5b50600436106100725760003560e01c806385eda2de1161005057806385eda2de146100e8578063af15d786146100fb578063ccee33d71461014757600080fd5b80630965d04b146100775780633ee5ef1f1461008c5780635886216f146100b2575b600080fd5b61008a610085366004610d52565b61015a565b005b61009f61009a366004610dbd565b61017d565b6040519081526020015b60405180910390f35b61009f6100c0366004610de7565b73ffffffffffffffffffffffffffffffffffffffff1660009081526020819052604090205490565b61009f6100f6366004610dbd565b61024f565b6101227f000000000000000000000000000000000000000000000000000000000000000081565b60405173ffffffffffffffffffffffffffffffffffffffff90911681526020016100a9565b61009f610155366004610e09565b6102f1565b60408051600080825260208201909252610179918491849133916106db565b5050565b60003373ffffffffffffffffffffffffffffffffffffffff7f000000000000000000000000000000000000000000000000000000000000000016146101ee576040517fa454419900000000000000000000000000000000000000000000000000000000815260040160405180910390fd5b5073ffffffffffffffffffffffffffffffffffffffff821660009081526020819052604090205461021f8282610ecf565b73ffffffffffffffffffffffffffffffffffffffff90931660009081526020819052604090208390555090919050565b60003373ffffffffffffffffffffffffffffffffffffffff7f000000000000000000000000000000000000000000000000000000000000000016146102c0576040517fa454419900000000000000000000000000000000000000000000000000000000815260040160405180910390fd5b5073ffffffffffffffffffffffffffffffffffffffff821660009081526020819052604090205461021f8282610ee8565b60008573ffffffffffffffffffffffffffffffffffffffff81163014610343576040517f4ca8886700000000000000000000000000000000000000000000000000000000815260040160405180910390fd5b3373ffffffffffffffffffffffffffffffffffffffff7f000000000000000000000000000000000000000000000000000000000000000016146103b2576040517f4ca8886700000000000000000000000000000000000000000000000000000000815260040160405180910390fd5b8284017fffffffffffffffffffffffffffffffffffffffffffffffffffffffffffffffe081810135918290037fffffffffffffffffffffffffffffffffffffffffffffffffffffffffffffff40810192918101919060018801908881037fffffffffffffffffffffffffffffffffffffffffffffffffffffffffffffff3f01907fffffffffffffffffffffffffffffffffffffffffffffffffffffffffffffff80810135906298968090610489907fffffffffffffffffffffffffffffffffffffffffffffffffffffffffffffffa0013582610ecf565b610493908d610efb565b61049d9190610f12565b97506000633b9aca006104bd63ffffffff60808a013560a01c168b610efb565b6104c79190610f12565b905060006104d6866040610ecf565b67ffffffffffffffff8111156104ee576104ee610e71565b6040519080825280601f01601f191660200182016040528015610518576020820181803683370190505b509050602081018688823786018381528a83016020909101527f01000000000000000000000000000000000000000000000000000000000000008c8c60008161056357610563610f4d565b9050013560f81c60f81b7effffffffffffffffffffffffffffffffffffffffffffffffffffffffffffff19160361064b576105a3602089013589356108a3565b60006105af8587610f7c565b60601c90503660006105c4876014818b610fc4565b915091508273ffffffffffffffffffffffffffffffffffffffff16631944799f6105ef8d6020013590565b8685856040518563ffffffff1660e01b81526004016106119493929190610fee565b600060405180830381600087803b15801561062b57600080fd5b505af115801561063f573d6000803e3d6000fd5b5050505050505061065d565b61065d858560208b01358b35856106db565b81156106885761068873ffffffffffffffffffffffffffffffffffffffff841660808a013584610936565b6106c973ffffffffffffffffffffffffffffffffffffffff84167f00000000000000000000000000000000000000000000000000000000000000008c61099d565b50505050505050505095945050505050565b843585016106e98185610a66565b61071f576040517f4b57606900000000000000000000000000000000000000000000000000000000815260040160405180910390fd5b600061072a82610b37565b905061074766038d7ea4c6800063ffffffff843560901c16610efb565b6107519085610ecf565b9350600061075e83610b70565b90506000845160a06107709190610ecf565b61077b906020610ecf565b90507f00000000000000000000000000000000000000000000000000000000000000006107b1565b8281848460045afa50505050565b60408a013560208101818c0135818d013560601c308114156014831017156107fd577f5b34bf890000000000000000000000000000000000000000000000000000000060005260046000fd5b506040517fe5d7bde60000000000000000000000000000000000000000000000000000000081528c8e600483013785820160048583010152818382010193508a60048501528b60248501526040890135604485015286606485015287608485015289516108718160208d0160a488016107a3565b84810160a40152600081878f016004018183895af1610893573d6000823e3d81fd5b5050505050505050505050505050565b80156101795773ffffffffffffffffffffffffffffffffffffffff821660009081526020819052604090205481811015610909576040517fa7fd379200000000000000000000000000000000000000000000000000000000815260040160405180910390fd5b73ffffffffffffffffffffffffffffffffffffffff92909216600090815260208190526040902091039055565b610962837fa9059cbb000000000000000000000000000000000000000000000000000000008484610cb5565b610998576040517ffb7f507900000000000000000000000000000000000000000000000000000000815260040160405180910390fd5b505050565b6109c9837f095ea7b3000000000000000000000000000000000000000000000000000000008484610cb5565b610998576109fa837f095ea7b300000000000000000000000000000000000000000000000000000000846000610cb5565b1580610a2f5750610a2d837f095ea7b3000000000000000000000000000000000000000000000000000000008484610cb5565b155b15610998576040517f19be9a9000000000000000000000000000000000000000000000000000000000815260040160405180910390fd5b60003681610a786101208601866110a8565b91509150600181830103803560001a6004820391506080811615610a9d576020820391505b813560e01c4211945060031c600f16841915610b2d578060180282035b80831115610b2b577fffffffffffffffffffffffffffffffffffffffffffffffffffffffffffffffe88301927fffffffffffffffffffffffffffffffffffffffffffffffffffffffffffffffec013560601c833560e01c888203610b24574210159650610b2b9050565b5050610aba565b505b5050505092915050565b60003681610b496101208501856110a8565b91509150600181830103803560001a60801615610b6857602081033593505b505050919050565b600062ffffff823560b081901c82169160e082901c918491610b969160c81c1683610ecf565b9050814211610ba85750909392505050565b804210610bba57506000949350505050565b366000610bcb6101208801886110a8565b915091506001818301036000813560001a6078811660031c6007821692506080821615610bf9576020840393505b6004816018020184039350505086868260050284035b80851115610c95577ffffffffffffffffffffffffffffffffffffffffffffffffffffffffffffffffb8501803560f01c9990990198947ffffffffffffffffffffffffffffffffffffffffffffffffffffffffffffffffd013560e81c428a1115610c8b57828a03428481038302908c03860201049b5050610c95565b9250889150610c0f565b5089610ca75780870342880383020499505b505050505050505050919050565b60006040518481528360048201528260248201526020600060448360008a5af19150508015610d01573d8015610cf757600160005114601f3d11169150610cff565b6000863b1191505b505b949350505050565b60008083601f840112610d1b57600080fd5b50813567ffffffffffffffff811115610d3357600080fd5b602083019150836020828501011115610d4b57600080fd5b9250929050565b60008060208385031215610d6557600080fd5b823567ffffffffffffffff811115610d7c57600080fd5b610d8885828601610d09565b90969095509350505050565b803573ffffffffffffffffffffffffffffffffffffffff81168114610db857600080fd5b919050565b60008060408385031215610dd057600080fd5b610dd983610d94565b946020939093013593505050565b600060208284031215610df957600080fd5b610e0282610d94565b9392505050565b600080600080600060808688031215610e2157600080fd5b610e2a86610d94565b94506020860135935060408601359250606086013567ffffffffffffffff811115610e5457600080fd5b610e6088828901610d09565b969995985093965092949392505050565b7f4e487b7100000000000000000000000000000000000000000000000000000000600052604160045260246000fd5b7f4e487b7100000000000000000000000000000000000000000000000000000000600052601160045260246000fd5b80820180821115610ee257610ee2610ea0565b92915050565b81810381811115610ee257610ee2610ea0565b8082028115828204841417610ee257610ee2610ea0565b600082610f48577f4e487b7100000000000000000000000000000000000000000000000000000000600052601260045260246000fd5b500490565b7f4e487b7100000000000000000000000000000000000000000000000000000000600052603260045260246000fd5b7fffffffffffffffffffffffffffffffffffffffff0000000000000000000000008135818116916014851015610fbc5780818660140360031b1b83161692505b505092915050565b60008085851115610fd457600080fd5b83861115610fe157600080fd5b5050820193919092039150565b73ffffffffffffffffffffffffffffffffffffffff8516815260006020606081840152855180606085015260005b818110156110385787810183015185820160800152820161101c565b506000608082860101527fffffffffffffffffffffffffffffffffffffffffffffffffffffffffffffffe0915081601f820116840190506080848203016040850152846080820152848660a0830137600060a0868301015260a082601f8701168201019250505095945050505050565b60008083357fffffffffffffffffffffffffffffffffffffffffffffffffffffffffffffffe18436030181126110dd57600080fd5b83018035915067ffffffffffffffff8211156110f857600080fd5b602001915036819003821315610d4b57600080fdfea26469706673582212203d85afe0def838d7432972596f81cedd8117e5f3d6e095f4947a8eaf06bf1a6864736f6c6343000811003360c06040523480156200001157600080fd5b5060405162001048380380620010488339810160408190526200003491620001ad565b6200003f3362000066565b6001600160a01b0380841660a05282166080526200005d81620000b6565b50505062000201565b600080546001600160a01b038381166001600160a01b0319831681178455604051919092169283917f8be0079c531659141344cd1fd0a4f28419497f9722a3daafe3b4186f6b6457e09190a35050565b620000c062000139565b6001600160a01b0381166200012b5760405162461bcd60e51b815260206004820152602660248201527f4f776e61626c653a206e6577206f776e657220697320746865207a65726f206160448201526564647265737360d01b60648201526084015b60405180910390fd5b620001368162000066565b50565b6000546001600160a01b03163314620001955760405162461bcd60e51b815260206004820181905260248201527f4f776e61626c653a2063616c6c6572206973206e6f7420746865206f776e6572604482015260640162000122565b565b6001600160a01b03811681146200013657600080fd5b600080600060608486031215620001c357600080fd5b8351620001d08162000197565b6020850151909350620001e38162000197565b6040850151909250620001f68162000197565b809150509250925092565b60805160a051610df7620002516000396000818161028b015281816103a0015281816105a9015261072b015260008181610207015281816104640152818161064801526106a00152610df76000f3fe608060405234801561001057600080fd5b50600436106100c95760003560e01c8063715018a611610081578063b6b55f251161005b578063b6b55f2514610185578063bfe9173414610198578063f2fde38b146101ab57600080fd5b8063715018a6146101405780638da5cb5b1461014a57806397a2cb641461017257600080fd5b80632f4f21e2116100b25780632f4f21e21461010757806332d323a51461011a5780635886216f1461012d57600080fd5b8063205c2878146100ce5780632e1a7d4d146100f4575b600080fd5b6100e16100dc366004610b1a565b6101be565b6040519081526020015b60405180910390f35b6100e1610102366004610b44565b6101d3565b6100e1610115366004610b1a565b6101df565b6100e1610128366004610ba6565b6101eb565b6100e161013b366004610c00565b610243565b6101486102f8565b005b60005460405173ffffffffffffffffffffffffffffffffffffffff90911681526020016100eb565b6100e1610180366004610c4a565b61030c565b6100e1610193366004610b44565b610491565b6100e16101a6366004610d2d565b61049d565b6101486101b9366004610c00565b6104b5565b60006101ca8383610571565b90505b92915050565b60006101cd3383610571565b60006101ca8383610684565b600061022e73ffffffffffffffffffffffffffffffffffffffff7f000000000000000000000000000000000000000000000000000000000000000016848461079a565b6102388585610684565b90505b949350505050565b6040517f5886216f00000000000000000000000000000000000000000000000000000000815273ffffffffffffffffffffffffffffffffffffffff82811660048301526000917f000000000000000000000000000000000000000000000000000000000000000090911690635886216f90602401602060405180830381865afa1580156102d4573d6000803e3d6000fd5b505050506040513d601f19601f820116820180604052508101906101cd9190610d79565b6103006107b6565b61030a6000610837565b565b60006103166107b6565b815160005b8181101561044957600084828151811061033757610337610d92565b60209081029190910181015173ffffffffffffffffffffffffffffffffffffffff8082166000818152600190945260408085205490517f5886216f00000000000000000000000000000000000000000000000000000000815260048101929092529294509192917f000000000000000000000000000000000000000000000000000000000000000090911690635886216f90602401602060405180830381865afa1580156103e9573d6000803e3d6000fd5b505050506040513d601f19601f8201168201806040525081019061040d9190610d79565b73ffffffffffffffffffffffffffffffffffffffff9093166000908152600160208190526040909120849055929091039490940193500161031b565b5061048b73ffffffffffffffffffffffffffffffffffffffff7f00000000000000000000000000000000000000000000000000000000000000001633846108ac565b50919050565b60006101cd3383610684565b60006104ab338585856101eb565b90505b9392505050565b6104bd6107b6565b73ffffffffffffffffffffffffffffffffffffffff8116610565576040517f08c379a000000000000000000000000000000000000000000000000000000000815260206004820152602660248201527f4f776e61626c653a206e6577206f776e657220697320746865207a65726f206160448201527f646472657373000000000000000000000000000000000000000000000000000060648201526084015b60405180910390fd5b61056e81610837565b50565b6040517f85eda2de000000000000000000000000000000000000000000000000000000008152336004820152602481018290526000907f000000000000000000000000000000000000000000000000000000000000000073ffffffffffffffffffffffffffffffffffffffff16906385eda2de906044016020604051808303816000875af1158015610607573d6000803e3d6000fd5b505050506040513d601f19601f8201168201806040525081019061062b9190610d79565b3360009081526001602052604090208054849003905590506101cd7f000000000000000000000000000000000000000000000000000000000000000073ffffffffffffffffffffffffffffffffffffffff1684846108ac565b60006106c873ffffffffffffffffffffffffffffffffffffffff7f00000000000000000000000000000000000000000000000000000000000000001633308561090e565b73ffffffffffffffffffffffffffffffffffffffff83811660008181526001602052604090819020805486019055517f3ee5ef1f0000000000000000000000000000000000000000000000000000000081526004810191909152602481018490527f000000000000000000000000000000000000000000000000000000000000000090911690633ee5ef1f906044016020604051808303816000875af1158015610776573d6000803e3d6000fd5b505050506040513d601f19601f820116820180604052508101906101ca9190610d79565b6107a58383836109ab565b6107b1576107b1610a51565b505050565b60005473ffffffffffffffffffffffffffffffffffffffff16331461030a576040517f08c379a000000000000000000000000000000000000000000000000000000000815260206004820181905260248201527f4f776e61626c653a2063616c6c6572206973206e6f7420746865206f776e6572604482015260640161055c565b6000805473ffffffffffffffffffffffffffffffffffffffff8381167fffffffffffffffffffffffff0000000000000000000000000000000000000000831681178455604051919092169283917f8be0079c531659141344cd1fd0a4f28419497f9722a3daafe3b4186f6b6457e09190a35050565b6108d8837fa9059cbb000000000000000000000000000000000000000000000000000000008484610a5d565b6107b1576040517ffb7f507900000000000000000000000000000000000000000000000000000000815260040160405180910390fd5b60006323b872dd60e01b905060006040518281528560048201528460248201528360448201526020600060648360008b5af1915050801561096c573d801561096257600160005114601f3d1116915061096a565b6000873b1191505b505b806109a3576040517ff405907100000000000000000000000000000000000000000000000000000000815260040160405180910390fd5b505050505050565b600060e08290036109e9576109e2847fd505accf000000000000000000000000000000000000000000000000000000008585610ab0565b90506104ae565b610100829003610a1f576109e2847f8fcbaf0c000000000000000000000000000000000000000000000000000000008585610ab0565b6040517f6827585700000000000000000000000000000000000000000000000000000000815260040160405180910390fd5b6040513d6000823e3d81fd5b60006040518481528360048201528260248201526020600060448360008a5af1915050801561023b573d8015610a9f57600160005114601f3d11169150610aa7565b6000863b1191505b50949350505050565b6000816004016040518581528385600483013760206000838360008b5af192505050801561023b573d8015610a9f57600160005114601f3d11169150610aa7565b803573ffffffffffffffffffffffffffffffffffffffff81168114610b1557600080fd5b919050565b60008060408385031215610b2d57600080fd5b610b3683610af1565b946020939093013593505050565b600060208284031215610b5657600080fd5b5035919050565b60008083601f840112610b6f57600080fd5b50813567ffffffffffffffff811115610b8757600080fd5b602083019150836020828501011115610b9f57600080fd5b9250929050565b60008060008060608587031215610bbc57600080fd5b610bc585610af1565b935060208501359250604085013567ffffffffffffffff811115610be857600080fd5b610bf487828801610b5d565b95989497509550505050565b600060208284031215610c1257600080fd5b6101ca82610af1565b7f4e487b7100000000000000000000000000000000000000000000000000000000600052604160045260246000fd5b60006020808385031215610c5d57600080fd5b823567ffffffffffffffff80821115610c7557600080fd5b818501915085601f830112610c8957600080fd5b813581811115610c9b57610c9b610c1b565b8060051b6040517fffffffffffffffffffffffffffffffffffffffffffffffffffffffffffffffe0603f83011681018181108582111715610cde57610cde610c1b565b604052918252848201925083810185019188831115610cfc57600080fd5b938501935b82851015610d2157610d1285610af1565b84529385019392850192610d01565b98975050505050505050565b600080600060408486031215610d4257600080fd5b83359250602084013567ffffffffffffffff811115610d6057600080fd5b610d6c86828701610b5d565b9497909650939450505050565b600060208284031215610d8b57600080fd5b5051919050565b7f4e487b7100000000000000000000000000000000000000000000000000000000600052603260045260246000fdfea264697066735822122079e400ea25a12686fb120107d9d3eef6eec02df300cbebb2c1ed5a9d34fca96664736f6c63430008110033",
  "linkReferences": {},
  "deployedLinkReferences": {}
}