{
  "address": "0xACCE5500001E226153D70A6D014CE9ddDc100d42",
  "abi": [
    {
      "inputs": [
        {
          "internalType": "string",
          "name": "name",
          "type": "string"
        },
        {
          "internalType": "string",
          "name": "symbol",
          "type": "string"
        },
        {
          "internalType": "address",
          "name": "owner",
          "type": "address"
        }
      ],
      "stateMutability": "nonpayable",
      "type": "constructor"
    },
    {
      "inputs": [],
      "name": "BadSignature",
      "type": "error"
    },
    {
      "inputs": [
        {
          "internalType": "address",
          "name": "sender",
          "type": "address"
        },
        {
          "internalType": "uint256",
          "name": "tokenId",
          "type": "uint256"
        },
        {
          "internalType": "address",
          "name": "owner",
          "type": "address"
        }
      ],
      "name": "ERC721IncorrectOwner",
      "type": "error"
    },
    {
      "inputs": [
        {
          "internalType": "address",
          "name": "operator",
          "type": "address"
        },
        {
          "internalType": "uint256",
          "name": "tokenId",
          "type": "uint256"
        }
      ],
      "name": "ERC721InsufficientApproval",
      "type": "error"
    },
    {
      "inputs": [
        {
          "internalType": "address",
          "name": "approver",
          "type": "address"
        }
      ],
      "name": "ERC721InvalidApprover",
      "type": "error"
    },
    {
      "inputs": [
        {
          "internalType": "address",
          "name": "operator",
          "type": "address"
        }
      ],
      "name": "ERC721InvalidOperator",
      "type": "error"
    },
    {
      "inputs": [
        {
          "internalType": "address",
          "name": "owner",
          "type": "address"
        }
      ],
      "name": "ERC721InvalidOwner",
      "type": "error"
    },
    {
      "inputs": [
        {
          "internalType": "address",
          "name": "receiver",
          "type": "address"
        }
      ],
      "name": "ERC721InvalidReceiver",
      "type": "error"
    },
    {
      "inputs": [
        {
          "internalType": "address",
          "name": "sender",
          "type": "address"
        }
      ],
      "name": "ERC721InvalidSender",
      "type": "error"
    },
    {
      "inputs": [
        {
          "internalType": "uint256",
          "name": "tokenId",
          "type": "uint256"
        }
      ],
      "name": "ERC721NonexistentToken",
      "type": "error"
    },
    {
      "inputs": [],
      "name": "OnlyOneNFTPerAddress",
      "type": "error"
    },
    {
      "inputs": [
        {
          "internalType": "address",
          "name": "owner",
          "type": "address"
        }
      ],
      "name": "OwnableInvalidOwner",
      "type": "error"
    },
    {
      "inputs": [
        {
          "internalType": "address",
          "name": "account",
          "type": "address"
        }
      ],
      "name": "OwnableUnauthorizedAccount",
      "type": "error"
    },
    {
      "anonymous": false,
      "inputs": [
        {
          "indexed": true,
          "internalType": "address",
          "name": "owner",
          "type": "address"
        },
        {
          "indexed": true,
          "internalType": "address",
          "name": "approved",
          "type": "address"
        },
        {
          "indexed": true,
          "internalType": "uint256",
          "name": "tokenId",
          "type": "uint256"
        }
      ],
      "name": "Approval",
      "type": "event"
    },
    {
      "anonymous": false,
      "inputs": [
        {
          "indexed": true,
          "internalType": "address",
          "name": "owner",
          "type": "address"
        },
        {
          "indexed": true,
          "internalType": "address",
          "name": "operator",
          "type": "address"
        },
        {
          "indexed": false,
          "internalType": "bool",
          "name": "approved",
          "type": "bool"
        }
      ],
      "name": "ApprovalForAll",
      "type": "event"
    },
    {
      "anonymous": false,
      "inputs": [
        {
          "indexed": true,
          "internalType": "address",
          "name": "previousOwner",
          "type": "address"
        },
        {
          "indexed": true,
          "internalType": "address",
          "name": "newOwner",
          "type": "address"
        }
      ],
      "name": "OwnershipTransferred",
      "type": "event"
    },
    {
      "anonymous": false,
      "inputs": [
        {
          "indexed": true,
          "internalType": "address",
          "name": "from",
          "type": "address"
        },
        {
          "indexed": true,
          "internalType": "address",
          "name": "to",
          "type": "address"
        },
        {
          "indexed": true,
          "internalType": "uint256",
          "name": "tokenId",
          "type": "uint256"
        }
      ],
      "name": "Transfer",
      "type": "event"
    },
    {
      "inputs": [
        {
          "internalType": "address",
          "name": "to",
          "type": "address"
        },
        {
          "internalType": "uint256",
          "name": "tokenId",
          "type": "uint256"
        }
      ],
      "name": "approve",
      "outputs": [],
      "stateMutability": "nonpayable",
      "type": "function"
    },
    {
      "inputs": [
        {
          "internalType": "address",
          "name": "owner",
          "type": "address"
        }
      ],
      "name": "balanceOf",
      "outputs": [
        {
          "internalType": "uint256",
          "name": "",
          "type": "uint256"
        }
      ],
      "stateMutability": "view",
      "type": "function"
    },
    {
      "inputs": [
        {
          "internalType": "uint256",
          "name": "tokenId",
          "type": "uint256"
        }
      ],
      "name": "burn",
      "outputs": [],
      "stateMutability": "nonpayable",
      "type": "function"
    },
    {
      "inputs": [
        {
          "internalType": "uint256",
          "name": "tokenId",
          "type": "uint256"
        }
      ],
      "name": "getApproved",
      "outputs": [
        {
          "internalType": "address",
          "name": "",
          "type": "address"
        }
      ],
      "stateMutability": "view",
      "type": "function"
    },
    {
      "inputs": [
        {
          "internalType": "address",
          "name": "owner",
          "type": "address"
        },
        {
          "internalType": "address",
          "name": "operator",
          "type": "address"
        }
      ],
      "name": "isApprovedForAll",
      "outputs": [
        {
          "internalType": "bool",
          "name": "",
          "type": "bool"
        }
      ],
      "stateMutability": "view",
      "type": "function"
    },
    {
      "inputs": [
        {
          "internalType": "address",
          "name": "to",
          "type": "address"
        },
        {
          "internalType": "uint256",
          "name": "tokenId",
          "type": "uint256"
        }
      ],
      "name": "mint",
      "outputs": [],
      "stateMutability": "nonpayable",
      "type": "function"
    },
    {
      "inputs": [
        {
          "internalType": "address",
          "name": "to",
          "type": "address"
        },
        {
          "internalType": "uint256",
          "name": "tokenId",
          "type": "uint256"
        },
        {
          "internalType": "bytes",
          "name": "signature",
          "type": "bytes"
        }
      ],
      "name": "mint",
      "outputs": [],
      "stateMutability": "nonpayable",
      "type": "function"
    },
    {
      "inputs": [],
      "name": "name",
      "outputs": [
        {
          "internalType": "string",
          "name": "",
          "type": "string"
        }
      ],
      "stateMutability": "view",
      "type": "function"
    },
    {
      "inputs": [
        {
          "internalType": "uint256",
          "name": "",
          "type": "uint256"
        }
      ],
      "name": "nonces",
      "outputs": [
        {
          "internalType": "uint256",
          "name": "",
          "type": "uint256"
        }
      ],
      "stateMutability": "view",
      "type": "function"
    },
    {
      "inputs": [],
      "name": "owner",
      "outputs": [
        {
          "internalType": "address",
          "name": "",
          "type": "address"
        }
      ],
      "stateMutability": "view",
      "type": "function"
    },
    {
      "inputs": [
        {
          "internalType": "uint256",
          "name": "tokenId",
          "type": "uint256"
        }
      ],
      "name": "ownerOf",
      "outputs": [
        {
          "internalType": "address",
          "name": "",
          "type": "address"
        }
      ],
      "stateMutability": "view",
      "type": "function"
    },
    {
      "inputs": [],
      "name": "renounceOwnership",
      "outputs": [],
      "stateMutability": "nonpayable",
      "type": "function"
    },
    {
      "inputs": [
        {
          "internalType": "address",
          "name": "from",
          "type": "address"
        },
        {
          "internalType": "address",
          "name": "to",
          "type": "address"
        },
        {
          "internalType": "uint256",
          "name": "tokenId",
          "type": "uint256"
        }
      ],
      "name": "safeTransferFrom",
      "outputs": [],
      "stateMutability": "nonpayable",
      "type": "function"
    },
    {
      "inputs": [
        {
          "internalType": "address",
          "name": "from",
          "type": "address"
        },
        {
          "internalType": "address",
          "name": "to",
          "type": "address"
        },
        {
          "internalType": "uint256",
          "name": "tokenId",
          "type": "uint256"
        },
        {
          "internalType": "bytes",
          "name": "data",
          "type": "bytes"
        }
      ],
      "name": "safeTransferFrom",
      "outputs": [],
      "stateMutability": "nonpayable",
      "type": "function"
    },
    {
      "inputs": [
        {
          "internalType": "address",
          "name": "operator",
          "type": "address"
        },
        {
          "internalType": "bool",
          "name": "approved",
          "type": "bool"
        }
      ],
      "name": "setApprovalForAll",
      "outputs": [],
      "stateMutability": "nonpayable",
      "type": "function"
    },
    {
      "inputs": [
        {
          "internalType": "bytes4",
          "name": "interfaceId",
          "type": "bytes4"
        }
      ],
      "name": "supportsInterface",
      "outputs": [
        {
          "internalType": "bool",
          "name": "",
          "type": "bool"
        }
      ],
      "stateMutability": "view",
      "type": "function"
    },
    {
      "inputs": [],
      "name": "symbol",
      "outputs": [
        {
          "internalType": "string",
          "name": "",
          "type": "string"
        }
      ],
      "stateMutability": "view",
      "type": "function"
    },
    {
      "inputs": [
        {
          "internalType": "uint256",
          "name": "tokenId",
          "type": "uint256"
        }
      ],
      "name": "tokenURI",
      "outputs": [
        {
          "internalType": "string",
          "name": "",
          "type": "string"
        }
      ],
      "stateMutability": "view",
      "type": "function"
    },
    {
      "inputs": [
        {
          "internalType": "address",
          "name": "from",
          "type": "address"
        },
        {
          "internalType": "address",
          "name": "to",
          "type": "address"
        },
        {
          "internalType": "uint256",
          "name": "tokenId",
          "type": "uint256"
        }
      ],
      "name": "transferFrom",
      "outputs": [],
      "stateMutability": "nonpayable",
      "type": "function"
    },
    {
      "inputs": [
        {
          "internalType": "address",
          "name": "from",
          "type": "address"
        },
        {
          "internalType": "address",
          "name": "to",
          "type": "address"
        },
        {
          "internalType": "uint256",
          "name": "tokenId",
          "type": "uint256"
        },
        {
          "internalType": "bytes",
          "name": "signature",
          "type": "bytes"
        }
      ],
      "name": "transferFrom",
      "outputs": [],
      "stateMutability": "nonpayable",
      "type": "function"
    },
    {
      "inputs": [
        {
          "internalType": "address",
          "name": "newOwner",
          "type": "address"
        }
      ],
      "name": "transferOwnership",
      "outputs": [],
      "stateMutability": "nonpayable",
      "type": "function"
    }
  ],
  "transactionHash": "0x06b326a87d9ef331426fc9274cfa2d5aeb97e49391d778fa7a3d1ae9c39645e5",
  "args": [
    "Resolver Access Token",
    "RES",
    "0x56E44874F624EbDE6efCc783eFD685f0FBDC6dcF"
  ],
  "numDeployments": 1,
  "bytecode": "0x60806040523462000364576200206e803803806200001d8162000368565b928339810190606081830312620003645780516001600160401b039190828111620003645783620000509183016200038e565b90602093848201518481116200036457604091620000709184016200038e565b9101516001600160a01b0380821691829003620003645781156200034c575f548260018060a01b03198216175f55167f8be0079c531659141344cd1fd0a4f28419497f9722a3daafe3b4186f6b6457e05f80a38151938385116200026a576001948554938685811c9516801562000341575b838610146200024b578190601f95868111620002ee575b5083908683116001146200028a575f926200027e575b50505f19600383901b1c191690861b1785555b81519384116200026a576002548581811c911680156200025f575b828210146200024b5783811162000202575b50809284116001146200019957509282939183925f946200018d575b50501b915f199060031b1c1916176002555b604051611c6f9081620003ff8239f35b015192505f806200016b565b919083601f19811660025f52845f20945f905b88838310620001e75750505010620001ce575b505050811b016002556200017d565b01515f1960f88460031b161c191690555f8080620001bf565b858701518855909601959485019487935090810190620001ac565b60025f52815f208480870160051c82019284881062000241575b0160051c019086905b828110620002355750506200014f565b5f815501869062000225565b925081926200021c565b634e487b7160e01b5f52602260045260245ffd5b90607f16906200013d565b634e487b7160e01b5f52604160045260245ffd5b015190505f806200010f565b90889350601f19831691845f52855f20925f5b87828210620002d75750508411620002be575b505050811b01855562000122565b01515f1960f88460031b161c191690555f8080620002b0565b8385015186558c979095019493840193016200029d565b909150875f52835f208680850160051c82019286861062000337575b918a91869594930160051c01915b82811062000328575050620000f9565b5f81558594508a910162000318565b925081926200030a565b94607f1694620000e2565b604051631e4fbdf760e01b81525f6004820152602490fd5b5f80fd5b6040519190601f01601f191682016001600160401b038111838210176200026a57604052565b919080601f84011215620003645782516001600160401b0381116200026a57602090620003c4601f8201601f1916830162000368565b9281845282828701011162000364575f5b818110620003ea5750825f9394955001015290565b8581018301518482018401528201620003d556fe608060409080825260049081361015610016575f80fd5b5f3560e01c90816301ffc9a7146110dd5750806306fdde0314610ff4578063081812fc14610f8e578063095ea7b314610e37578063141a468c14610df157806323b872dd14610dd257806340c10f1914610d8857806342842e0e14610d5d57806342966c6814610a4b5780636352211e146109f157806370a08231146109a7578063715018a61461090d5780638da5cb5b146108bc57806394d008ef146107ab57806395d89b4114610647578063a22cb46514610549578063ab67aa581461038e578063b88d4fde146102d6578063c87b56dd14610265578063e985e9c5146101eb5763f2fde38b14610107575f80fd5b346101e75760207ffffffffffffffffffffffffffffffffffffffffffffffffffffffffffffffffc3601126101e75761013e61122d565b906101476114d9565b73ffffffffffffffffffffffffffffffffffffffff8092169283156101b85750505f54827fffffffffffffffffffffffff00000000000000000000000000000000000000008216175f55167f8be0079c531659141344cd1fd0a4f28419497f9722a3daafe3b4186f6b6457e05f80a3005b905f60249251917f1e4fbdf7000000000000000000000000000000000000000000000000000000008352820152fd5b5f80fd5b82346101e757807ffffffffffffffffffffffffffffffffffffffffffffffffffffffffffffffffc3601126101e75760209061022561122d565b61022d611250565b9073ffffffffffffffffffffffffffffffffffffffff8091165f5260068452825f2091165f52825260ff815f20541690519015158152f35b5090346101e75760207ffffffffffffffffffffffffffffffffffffffffffffffffffffffffffffffffc3601126101e7576102a36102d2923561147a565b505f81516102b081611301565b528051906102bd82611301565b5f8252519182916020835260208301906111ea565b0390f35b5090346101e75760807ffffffffffffffffffffffffffffffffffffffffffffffffffffffffffffffffc3601126101e75761030f61122d565b610317611250565b604435916064359467ffffffffffffffff86116101e757366023870112156101e7578501356103516103488261138b565b9551958661134a565b80855236602482880101116101e7576020815f92602461038c9901838901378601015261037c6114d9565b610387838383611529565b611915565b005b5090346101e75760807ffffffffffffffffffffffffffffffffffffffffffffffffffffffffffffffffc3601126101e7576103c761122d565b6103cf611250565b906044359260643567ffffffffffffffff81116101e7576103f390369087016112d3565b90855f526007602052610510835f2080549061040e82611420565b905584519061049c826104708b60208301948c463088939192608895937fffffffffffffffffffffffffffffffffffffffff000000000000000000000000809360601b168652601486015260601b166034840152604883015260688201520190565b037fffffffffffffffffffffffffffffffffffffffffffffffffffffffffffffffe0810184528361134a565b6104ec603d875180936104dc60208301967f19457468657265756d205369676e6564204d6573736167653a0a3133360000008852518092858501906111c9565b810103601d81018452018261134a565b5190209273ffffffffffffffffffffffffffffffffffffffff92835f541694611847565b1603610521575061038c9350611529565b8490517f5cd5d233000000000000000000000000000000000000000000000000000000008152fd5b5090346101e757807ffffffffffffffffffffffffffffffffffffffffffffffffffffffffffffffffc3601126101e75761058161122d565b90602435918215158093036101e75773ffffffffffffffffffffffffffffffffffffffff169283156106195750335f526006602052805f20835f52602052805f207fffffffffffffffffffffffffffffffffffffffffffffffffffffffffffffff0081541660ff8416179055519081527f17307eab39ab6107e8899845ad3d59bd9653f200f220920489ca2b5937696c3160203392a3005b8360249251917f5b08ba18000000000000000000000000000000000000000000000000000000008352820152fd5b5090346101e7575f7ffffffffffffffffffffffffffffffffffffffffffffffffffffffffffffffffc3601126101e7578051905f906002549160018360011c90600185169485156107a1575b6020958684108114610775578388528794939291879082156107355750506001146106da575b50506102d292916106cb91038561134a565b519282849384528301906111ea565b9085925060025f527f405787fa12a823e0f2b7631cc41b3ba8828b3321ca811111fa75cd3aa3bb5ace915f925b82841061071d57505050820101816106cb6106b9565b8054848a018601528895508794909301928101610707565b7fffffffffffffffffffffffffffffffffffffffffffffffffffffffffffffff00168682015292151560051b850190920192508391506106cb90506106b9565b6022897f4e487b71000000000000000000000000000000000000000000000000000000005f525260245ffd5b91607f1691610693565b5090346101e75760607ffffffffffffffffffffffffffffffffffffffffffffffffffffffffffffffffc3601126101e7576107e461122d565b6024359160443567ffffffffffffffff81116101e75761080790369086016112d3565b90845f526007602052610884835f2080549061082282611420565b905584519061049c826104708a60208301948b463088939192608895937fffffffffffffffffffffffffffffffffffffffff000000000000000000000000809360601b168652601486015260601b166034840152604883015260688201520190565b16036108945761038c8383611605565b8390517f5cd5d233000000000000000000000000000000000000000000000000000000008152fd5b82346101e7575f7ffffffffffffffffffffffffffffffffffffffffffffffffffffffffffffffffc3601126101e75760209073ffffffffffffffffffffffffffffffffffffffff5f54169051908152f35b346101e7575f7ffffffffffffffffffffffffffffffffffffffffffffffffffffffffffffffffc3601126101e7576109436114d9565b5f73ffffffffffffffffffffffffffffffffffffffff81547fffffffffffffffffffffffff000000000000000000000000000000000000000081168355167f8be0079c531659141344cd1fd0a4f28419497f9722a3daafe3b4186f6b6457e08280a3005b82346101e75760207ffffffffffffffffffffffffffffffffffffffffffffffffffffffffffffffffc3601126101e7576020906109ea6109e561122d565b6113c5565b9051908152f35b5090346101e75760207ffffffffffffffffffffffffffffffffffffffffffffffffffffffffffffffffc3601126101e75773ffffffffffffffffffffffffffffffffffffffff610a436020933561147a565b915191168152f35b50346101e7576020807ffffffffffffffffffffffffffffffffffffffffffffffffffffffffffffffffc3601126101e75781359073ffffffffffffffffffffffffffffffffffffffff805f541633145f14610baa575f839182825260038452868220541660038115948515610b3f575b848452528682207fffffffffffffffffffffffff000000000000000000000000000000000000000081541690557fddf252ad1be2c89b69c2b068fc378daa952ba7f163c4a11628f55a4df523b3ef8280a4610b1257005b60249251917f7e273289000000000000000000000000000000000000000000000000000000008352820152fd5b610b76855f52600560205260405f207fffffffffffffffffffffffff00000000000000000000000000000000000000008154169055565b8284528781528884207fffffffffffffffffffffffffffffffffffffffffffffffffffffffffffffffff8154019055610abb565b91929390835f526003815282825f205416923315159081610c92575b50506003905f949584610c27575b508585525282207fffffffffffffffffffffffff000000000000000000000000000000000000000081541690557fddf252ad1be2c89b69c2b068fc378daa952ba7f163c4a11628f55a4df523b3ef8280a4005b610c5e875f52600560205260405f207fffffffffffffffffffffffff00000000000000000000000000000000000000008154169055565b84865281528285207fffffffffffffffffffffffffffffffffffffffffffffffffffffffffffffffff81540190555f610bd4565b81610d0e575b5015610ca5575f80610bc6565b50929190610cda5760249251917f7e273289000000000000000000000000000000000000000000000000000000008352820152fd5b60449251917f177e802f00000000000000000000000000000000000000000000000000000000835233908301526024820152fd5b33851491508115610d3f575b8115610d28575b505f610c98565b9050845f52600582523390835f205416145f610d21565b9050835f5260068252825f20335f52825260ff835f20541690610d1a565b82346101e75761038c90610d7036611273565b91925192610d7d84611301565b5f845261037c6114d9565b82346101e7577ffffffffffffffffffffffffffffffffffffffffffffffffffffffffffffffffc3601126101e75761038c610dc161122d565b610dc96114d9565b60243590611605565b346101e75761038c610de336611273565b91610dec6114d9565b611529565b5090346101e75760207ffffffffffffffffffffffffffffffffffffffffffffffffffffffffffffffffc3601126101e757602091355f5260078252805f20549051908152f35b5090346101e757807ffffffffffffffffffffffffffffffffffffffffffffffffffffffffffffffffc3601126101e757610e6f61122d565b9160243590610e7d8261147a565b9033151580610f6e575b80610f39575b610f095750819073ffffffffffffffffffffffffffffffffffffffff809516948591167f8c5be1e5ebec7d5bd14f71427d1e84f3dd0314c0f7b2291e5b200ac8c7c3b9255f80a45f5260056020525f20907fffffffffffffffffffffffff00000000000000000000000000000000000000008254161790555f80f35b6024908451907fa9fbf51f0000000000000000000000000000000000000000000000000000000082523390820152fd5b5073ffffffffffffffffffffffffffffffffffffffff82165f526006602052835f20335f5260205260ff845f20541615610e8d565b503373ffffffffffffffffffffffffffffffffffffffff83161415610e87565b5090346101e75760207ffffffffffffffffffffffffffffffffffffffffffffffffffffffffffffffffc3601126101e75760209135610fcc8161147a565b505f526005825273ffffffffffffffffffffffffffffffffffffffff815f2054169051908152f35b5090346101e7575f7ffffffffffffffffffffffffffffffffffffffffffffffffffffffffffffffffc3601126101e7578051905f90600191600154928360011c90600185169485156110d3575b6020958684108114610775578388528794939291879082156107355750506001146110785750506102d292916106cb91038561134a565b9085925060015f527fb10e2d527612073b26eecdfd717e6a320cf44b4afac2b0732d9fcbe2b7fa0cf6915f925b8284106110bb57505050820101816106cb6106b9565b8054848a0186015288955087949093019281016110a5565b91607f1691611041565b82346101e75760207ffffffffffffffffffffffffffffffffffffffffffffffffffffffffffffffffc3601126101e75735907fffffffff0000000000000000000000000000000000000000000000000000000082168092036101e757817f80ac58cd000000000000000000000000000000000000000000000000000000006020931490811561119f575b8115611175575b5015158152f35b7f01ffc9a7000000000000000000000000000000000000000000000000000000009150148361116e565b7f5b5e139f0000000000000000000000000000000000000000000000000000000081149150611167565b5f5b8381106111da5750505f910152565b81810151838201526020016111cb565b907fffffffffffffffffffffffffffffffffffffffffffffffffffffffffffffffe0601f602093611226815180928187528780880191016111c9565b0116010190565b6004359073ffffffffffffffffffffffffffffffffffffffff821682036101e757565b6024359073ffffffffffffffffffffffffffffffffffffffff821682036101e757565b7ffffffffffffffffffffffffffffffffffffffffffffffffffffffffffffffffc60609101126101e75773ffffffffffffffffffffffffffffffffffffffff9060043582811681036101e7579160243590811681036101e7579060443590565b9181601f840112156101e75782359167ffffffffffffffff83116101e757602083818601950101116101e757565b6020810190811067ffffffffffffffff82111761131d57604052565b7f4e487b71000000000000000000000000000000000000000000000000000000005f52604160045260245ffd5b90601f7fffffffffffffffffffffffffffffffffffffffffffffffffffffffffffffffe0910116810190811067ffffffffffffffff82111761131d57604052565b67ffffffffffffffff811161131d57601f017fffffffffffffffffffffffffffffffffffffffffffffffffffffffffffffffe01660200190565b73ffffffffffffffffffffffffffffffffffffffff1680156113f0575f52600460205260405f205490565b60246040517f89c62b640000000000000000000000000000000000000000000000000000000081525f6004820152fd5b7fffffffffffffffffffffffffffffffffffffffffffffffffffffffffffffffff811461144d5760010190565b7f4e487b71000000000000000000000000000000000000000000000000000000005f52601160045260245ffd5b805f52600360205273ffffffffffffffffffffffffffffffffffffffff60405f2054169081156114a8575090565b602490604051907f7e2732890000000000000000000000000000000000000000000000000000000082526004820152fd5b73ffffffffffffffffffffffffffffffffffffffff5f541633036114f957565b60246040517f118cdaa7000000000000000000000000000000000000000000000000000000008152336004820152fd5b9073ffffffffffffffffffffffffffffffffffffffff90818116156115d557611553848392611ad6565b16918261158b57602484604051907f7e2732890000000000000000000000000000000000000000000000000000000082526004820152fd5b169182820361159957505050565b60649350604051927f64283d7b000000000000000000000000000000000000000000000000000000008452600484015260248301526044820152fd5b60246040517f64a0ae920000000000000000000000000000000000000000000000000000000081525f6004820152fd5b90604090815161161481611301565b5f815273ffffffffffffffffffffffffffffffffffffffff93848116948515611818576116418483611ad6565b166117e9573b611652575b50505050565b906116a994918351907f150b7a0200000000000000000000000000000000000000000000000000000000928383523360048401525f60248401526044830152608060648301528180602098899360848301906111ea565b03815f895af15f9181611791575b5061172b575050503d5f14611724573d6116d08161138b565b906116dd8351928361134a565b81523d5f8583013e5b8051938461171e576024848451907f64a0ae920000000000000000000000000000000000000000000000000000000082526004820152fd5b84925001fd5b60606116e6565b7fffffffff000000000000000000000000000000000000000000000000000000009192955016036117615750505f80808061164c565b6024925051907f64a0ae920000000000000000000000000000000000000000000000000000000082526004820152fd5b9091508681813d83116117e2575b6117a9818361134a565b810103126101e757517fffffffff00000000000000000000000000000000000000000000000000000000811681036101e757905f6116b7565b503d61179f565b602484517f73c6ac6e0000000000000000000000000000000000000000000000000000000081525f6004820152fd5b602485517f64a0ae920000000000000000000000000000000000000000000000000000000081525f6004820152fd5b6040515f949390929083604182146118fc57506040146118b757505f9150815b61186f575050565b7f7fffffffffffffffffffffffffffffff5d576e7357a4501ddfe92f46681b20a160608301511061189e575050565b6020929350816080915f935282805260015afa505f5190565b7f7fffffffffffffffffffffffffffffffffffffffffffffffffffffffffffffff8160208086940135918260ff1c601b01828601526040850137166060820152611867565b9160408092508101355f1a602084015281830137611867565b9192813b6119235750505050565b9061199594929173ffffffffffffffffffffffffffffffffffffffff80921694604051927f150b7a0200000000000000000000000000000000000000000000000000000000948585523360048601521660248401526044830152608060648301528180602097889360848301906111ea565b03815f885af15f9181611a7e575b50611a18575050503d5f14611a11573d6119bc8161138b565b906119ca604051928361134a565b81523d5f8483013e5b80519283611a0c57602483604051907f64a0ae920000000000000000000000000000000000000000000000000000000082526004820152fd5b019050fd5b60606119d3565b7fffffffff00000000000000000000000000000000000000000000000000000000919294501603611a4d57505f80808061164c565b602490604051907f64a0ae920000000000000000000000000000000000000000000000000000000082526004820152fd5b9091508581813d8311611acf575b611a96818361134a565b810103126101e757517fffffffff00000000000000000000000000000000000000000000000000000000811681036101e757905f6119a3565b503d611a8c565b9073ffffffffffffffffffffffffffffffffffffffff8083169081151580948195611c27575b50611bfd57825f52600360205260405f2054169283611b8f575b611b77575b815f52600360205260405f20817fffffffffffffffffffffffff0000000000000000000000000000000000000000825416179055827fddf252ad1be2c89b69c2b068fc378daa952ba7f163c4a11628f55a4df523b3ef5f80a490565b805f52600460205260405f2060018154019055611b1b565b611bc6835f52600560205260405f207fffffffffffffffffffffffff00000000000000000000000000000000000000008154169055565b835f52600460205260405f207fffffffffffffffffffffffffffffffffffffffffffffffffffffffffffffffff8154019055611b16565b60046040517f6cb75e3f000000000000000000000000000000000000000000000000000000008152fd5b611c3191506113c5565b15155f611afc56fea2646970667358221220c1793061033b4526fe29ac8c4bc7a953ed5f1eb3519de5c54b56bef2235d262564736f6c63430008170033"
}