{
  "address": "0x0A7dc9fE4F8a45C783bab0C137884caf34e4BF1F",
  "abi": [
    {
      "inputs": [
        {
          "internalType": "contract IERC20Pods",
          "name": "farmableToken_",
          "type": "address"
        },
        {
          "internalType": "contract IERC20",
          "name": "rewardsToken_",
          "type": "address"
        }
      ],
      "stateMutability": "nonpayable",
      "type": "constructor"
    },
    {
      "inputs": [],
      "name": "AccessDenied",
      "type": "error"
    },
    {
      "inputs": [],
      "name": "AmountTooLarge",
      "type": "error"
    },
    {
      "inputs": [],
      "name": "CheckpointBeforeStarted",
      "type": "error"
    },
    {
      "inputs": [],
      "name": "DurationTooLarge",
      "type": "error"
    },
    {
      "inputs": [],
      "name": "SameDistributor",
      "type": "error"
    },
    {
      "inputs": [],
      "name": "ZeroDuration",
      "type": "error"
    },
    {
      "inputs": [],
      "name": "ZeroFarmableTokenAddress",
      "type": "error"
    },
    {
      "inputs": [],
      "name": "ZeroRewardsTokenAddress",
      "type": "error"
    },
    {
      "anonymous": false,
      "inputs": [
        {
          "indexed": false,
          "internalType": "address",
          "name": "oldDistributor",
          "type": "address"
        },
        {
          "indexed": false,
          "internalType": "address",
          "name": "newDistributor",
          "type": "address"
        }
      ],
      "name": "DistributorChanged",
      "type": "event"
    },
    {
      "anonymous": false,
      "inputs": [
        {
          "indexed": true,
          "internalType": "address",
          "name": "previousOwner",
          "type": "address"
        },
        {
          "indexed": true,
          "internalType": "address",
          "name": "newOwner",
          "type": "address"
        }
      ],
      "name": "OwnershipTransferred",
      "type": "event"
    },
    {
      "anonymous": false,
      "inputs": [
        {
          "indexed": false,
          "internalType": "uint256",
          "name": "reward",
          "type": "uint256"
        },
        {
          "indexed": false,
          "internalType": "uint256",
          "name": "duration",
          "type": "uint256"
        }
      ],
      "name": "RewardAdded",
      "type": "event"
    },
    {
      "inputs": [],
      "name": "claim",
      "outputs": [],
      "stateMutability": "nonpayable",
      "type": "function"
    },
    {
      "inputs": [],
      "name": "distributor",
      "outputs": [
        {
          "internalType": "address",
          "name": "",
          "type": "address"
        }
      ],
      "stateMutability": "view",
      "type": "function"
    },
    {
      "inputs": [],
      "name": "farmableToken",
      "outputs": [
        {
          "internalType": "contract IERC20Pods",
          "name": "",
          "type": "address"
        }
      ],
      "stateMutability": "view",
      "type": "function"
    },
    {
      "inputs": [
        {
          "internalType": "address",
          "name": "account",
          "type": "address"
        }
      ],
      "name": "farmed",
      "outputs": [
        {
          "internalType": "uint256",
          "name": "",
          "type": "uint256"
        }
      ],
      "stateMutability": "view",
      "type": "function"
    },
    {
      "inputs": [],
      "name": "getFarmInfo",
      "outputs": [
        {
          "components": [
            {
              "internalType": "uint40",
              "name": "finished",
              "type": "uint40"
            },
            {
              "internalType": "uint32",
              "name": "duration",
              "type": "uint32"
            },
            {
              "internalType": "uint184",
              "name": "reward",
              "type": "uint184"
            }
          ],
          "internalType": "struct FarmAccounting.Info",
          "name": "",
          "type": "tuple"
        }
      ],
      "stateMutability": "view",
      "type": "function"
    },
    {
      "inputs": [],
      "name": "owner",
      "outputs": [
        {
          "internalType": "address",
          "name": "",
          "type": "address"
        }
      ],
      "stateMutability": "view",
      "type": "function"
    },
    {
      "inputs": [],
      "name": "renounceOwnership",
      "outputs": [],
      "stateMutability": "nonpayable",
      "type": "function"
    },
    {
      "inputs": [
        {
          "internalType": "contract IERC20",
          "name": "token",
          "type": "address"
        },
        {
          "internalType": "uint256",
          "name": "amount",
          "type": "uint256"
        }
      ],
      "name": "rescueFunds",
      "outputs": [],
      "stateMutability": "nonpayable",
      "type": "function"
    },
    {
      "inputs": [],
      "name": "rewardsToken",
      "outputs": [
        {
          "internalType": "contract IERC20",
          "name": "",
          "type": "address"
        }
      ],
      "stateMutability": "view",
      "type": "function"
    },
    {
      "inputs": [
        {
          "internalType": "address",
          "name": "distributor_",
          "type": "address"
        }
      ],
      "name": "setDistributor",
      "outputs": [],
      "stateMutability": "nonpayable",
      "type": "function"
    },
    {
      "inputs": [
        {
          "internalType": "uint256",
          "name": "amount",
          "type": "uint256"
        },
        {
          "internalType": "uint256",
          "name": "period",
          "type": "uint256"
        }
      ],
      "name": "startFarming",
      "outputs": [],
      "stateMutability": "nonpayable",
      "type": "function"
    },
    {
      "inputs": [],
      "name": "token",
      "outputs": [
        {
          "internalType": "address",
          "name": "",
          "type": "address"
        }
      ],
      "stateMutability": "view",
      "type": "function"
    },
    {
      "inputs": [],
      "name": "totalSupply",
      "outputs": [
        {
          "internalType": "uint256",
          "name": "",
          "type": "uint256"
        }
      ],
      "stateMutability": "view",
      "type": "function"
    },
    {
      "inputs": [
        {
          "internalType": "address",
          "name": "newOwner",
          "type": "address"
        }
      ],
      "name": "transferOwnership",
      "outputs": [],
      "stateMutability": "nonpayable",
      "type": "function"
    },
    {
      "inputs": [
        {
          "internalType": "address",
          "name": "from",
          "type": "address"
        },
        {
          "internalType": "address",
          "name": "to",
          "type": "address"
        },
        {
          "internalType": "uint256",
          "name": "amount",
          "type": "uint256"
        }
      ],
      "name": "updateBalances",
      "outputs": [],
      "stateMutability": "nonpayable",
      "type": "function"
    }
  ],
  "transactionHash": "0x61b54cf219a24164b300ee484f3234410a16e058c2e500cfd587fe07714a3a32",
  "args": [
    "0xac99a675d8Ec24FbaeFc4A4f64d8b9ee3b2c7C3e",
    "0xABDdf13D8f984646bf7108ac77c6Ce6FFfA3Bd6F"
  ],
  "numDeployments": 1,
  "solcInputHash": "f189a4c1fcfa564bf340fec5a2399bed",
  "bytecode": "0x60e06040523480156200001157600080fd5b5060405162001d8638038062001d8683398101604081905262000034916200011d565b6001600160a01b0382166080526200004c33620000b4565b6001600160a01b038216620000745760405163d0af4eb760e01b815260040160405180910390fd5b6001600160a01b0381166200009c576040516330c1035b60e21b815260040160405180910390fd5b6001600160a01b0391821660a0521660c0526200015c565b600080546001600160a01b038381166001600160a01b0319831681178455604051919092169283917f8be0079c531659141344cd1fd0a4f28419497f9722a3daafe3b4186f6b6457e09190a35050565b6001600160a01b03811681146200011a57600080fd5b50565b600080604083850312156200013157600080fd5b82516200013e8162000104565b6020840151909250620001518162000104565b809150509250929050565b60805160a05160c051611bd7620001af600039600081816102d50152818161054e01526105e40152600081816101da01528181610387015261046d01526000818161030f01526108630152611bd76000f3fe608060405234801561001057600080fd5b50600436106100f55760003560e01c806375619ab511610097578063bfe1092811610066578063bfe10928146102b0578063d1af0c7d146102d0578063f2fde38b146102f7578063fc0c546a1461030a57600080fd5b806375619ab51461025957806378e3214f1461026c5780637a1f1aa91461027f5780638da5cb5b1461029257600080fd5b80634216f972116100d35780634216f972146102215780634e71d92d14610234578063702612221461023e578063715018a61461025157600080fd5b806309434f28146100fa57806318160ddd146101c357806340282e99146101d5575b600080fd5b6101766040805160608101825260008082526020820181905291810191909152506040805160608101825260035464ffffffffff8116825265010000000000810463ffffffff1660208301526901000000000000000000900476ffffffffffffffffffffffffffffffffffffffffffffff169181019190915290565b60408051825164ffffffffff16815260208084015163ffffffff16908201529181015176ffffffffffffffffffffffffffffffffffffffffffffff16908201526060015b60405180910390f35b6002545b6040519081526020016101ba565b6101fc7f000000000000000000000000000000000000000000000000000000000000000081565b60405173ffffffffffffffffffffffffffffffffffffffff90911681526020016101ba565b6101c761022f3660046118b7565b610337565b61023c610436565b005b61023c61024c3660046118d4565b610579565b61023c61068a565b61023c6102673660046118b7565b61069e565b61023c61027a3660046118f6565b610795565b61023c61028d366004611922565b61084b565b60005473ffffffffffffffffffffffffffffffffffffffff166101fc565b6001546101fc9073ffffffffffffffffffffffffffffffffffffffff1681565b6101fc7f000000000000000000000000000000000000000000000000000000000000000081565b61023c6103053660046118b7565b610962565b6101fc7f000000000000000000000000000000000000000000000000000000000000000081565b60025490565b6040517f3466a88600000000000000000000000000000000000000000000000000000000815230600482015273ffffffffffffffffffffffffffffffffffffffff828116602483015260009182917f00000000000000000000000000000000000000000000000000000000000000001690633466a88690604401602060405180830381865afa1580156103ce573d6000803e3d6000fd5b505050506040513d601f19601f820116820180604052508101906103f29190611963565b905061042f838261042860408051808201825261188d815260006020918201528151808301909252610331825260039082015290565b9190610a1e565b9392505050565b6040517f3466a8860000000000000000000000000000000000000000000000000000000081523060048201523360248201526000907f000000000000000000000000000000000000000000000000000000000000000073ffffffffffffffffffffffffffffffffffffffff1690633466a88690604401602060405180830381865afa1580156104c9573d6000803e3d6000fd5b505050506040513d601f19601f820116820180604052508101906104ed9190611963565b9050600061052c338361052560408051808201825261188d815260006020918201528151808301909252610331825260039082015290565b9190610a46565b905080156105755761057573ffffffffffffffffffffffffffffffffffffffff7f0000000000000000000000000000000000000000000000000000000000000000163383610a92565b5050565b60015473ffffffffffffffffffffffffffffffffffffffff1633146105ca576040517f4ca8886700000000000000000000000000000000000000000000000000000000815260040160405180910390fd5b61060c73ffffffffffffffffffffffffffffffffffffffff7f000000000000000000000000000000000000000000000000000000000000000016333085610b66565b6000610649838361064260408051808201825261188d815260006020918201528151808301909252610331825260039082015290565b9190610bca565b60408051828152602081018590529192507f6c07ee05dcf262f13abf9d87b846ee789d2f90fe991d495acd7d7fc109ee1f55910160405180910390a1505050565b610692610c55565b61069c6000610cd6565b565b6106a6610c55565b60015473ffffffffffffffffffffffffffffffffffffffff9081169082168190036106fd576040517f8750ee9000000000000000000000000000000000000000000000000000000000815260040160405180910390fd5b6040805173ffffffffffffffffffffffffffffffffffffffff8084168252841660208201527fa9f739537fc57540bed0a44e33e27baa63290d865cc15f0f16cf17d38c998a4d910160405180910390a150600180547fffffffffffffffffffffffff00000000000000000000000000000000000000001673ffffffffffffffffffffffffffffffffffffffff92909216919091179055565b60015473ffffffffffffffffffffffffffffffffffffffff1633146107e6576040517f4ca8886700000000000000000000000000000000000000000000000000000000815260040160405180910390fd5b73ffffffffffffffffffffffffffffffffffffffff8216610824576001546105759073ffffffffffffffffffffffffffffffffffffffff1682610d4b565b6001546105759073ffffffffffffffffffffffffffffffffffffffff848116911683610a92565b3373ffffffffffffffffffffffffffffffffffffffff7f000000000000000000000000000000000000000000000000000000000000000016146108ba576040517f4ca8886700000000000000000000000000000000000000000000000000000000815260040160405180910390fd5b6108f78383836108ef60408051808201825261188d815260006020918201528151808301909252610331825260039082015290565b929190610ea5565b73ffffffffffffffffffffffffffffffffffffffff831661092a57806002600082825461092491906119ab565b90915550505b73ffffffffffffffffffffffffffffffffffffffff821661095d57806002600082825461095791906119be565b90915550505b505050565b61096a610c55565b73ffffffffffffffffffffffffffffffffffffffff8116610a12576040517f08c379a000000000000000000000000000000000000000000000000000000000815260206004820152602660248201527f4f776e61626c653a206e6577206f776e657220697320746865207a65726f206160448201527f646472657373000000000000000000000000000000000000000000000000000060648201526084015b60405180910390fd5b610a1b81610cd6565b50565b6000610a3e8383610a2e87610ec5565b6020880151600101929190610eed565b949350505050565b600080610a54856020015190565b90506000610a6186610ec5565b9050610a7260018301868684610eed565b92508215610a8957610a8960018301868684610f3d565b50509392505050565b60405173ffffffffffffffffffffffffffffffffffffffff831660248201526044810182905261095d9084907fa9059cbb00000000000000000000000000000000000000000000000000000000906064015b604080517fffffffffffffffffffffffffffffffffffffffffffffffffffffffffffffffe08184030181529190526020810180517bffffffffffffffffffffffffffffffffffffffffffffffffffffffff167fffffffff0000000000000000000000000000000000000000000000000000000090931692909217909152610f76565b60405173ffffffffffffffffffffffffffffffffffffffff80851660248301528316604482015260648101829052610bc49085907f23b872dd0000000000000000000000000000000000000000000000000000000090608401610ae4565b50505050565b600080610bd8856020015190565b9050610c41610be686610ec5565b600183019064ffffffffff42167affffffffffffffffffffffffffffffffffffffffffffffffffffff90911665010000000000027fffffffffffffffffffffffffffffffffffffffffffffffffffffff000000000016179055565b610c4c818585611082565b95945050505050565b60005473ffffffffffffffffffffffffffffffffffffffff16331461069c576040517f08c379a000000000000000000000000000000000000000000000000000000000815260206004820181905260248201527f4f776e61626c653a2063616c6c6572206973206e6f7420746865206f776e65726044820152606401610a09565b6000805473ffffffffffffffffffffffffffffffffffffffff8381167fffffffffffffffffffffffff0000000000000000000000000000000000000000831681178455604051919092169283917f8be0079c531659141344cd1fd0a4f28419497f9722a3daafe3b4186f6b6457e09190a35050565b80471015610db5576040517f08c379a000000000000000000000000000000000000000000000000000000000815260206004820152601d60248201527f416464726573733a20696e73756666696369656e742062616c616e63650000006044820152606401610a09565b60008273ffffffffffffffffffffffffffffffffffffffff168260405160006040518083038185875af1925050503d8060008114610e0f576040519150601f19603f3d011682016040523d82523d6000602084013e610e14565b606091505b505090508061095d576040517f08c379a000000000000000000000000000000000000000000000000000000000815260206004820152603a60248201527f416464726573733a20756e61626c6520746f2073656e642076616c75652c207260448201527f6563697069656e74206d617920686176652072657665727465640000000000006064820152608401610a09565b610bc4838383610eb488610ec5565b6020890151600101939291906112c2565b6000610ee78261141e611451610edc866020015190565b6001019291906114e6565b92915050565b73ffffffffffffffffffffffffffffffffffffffff83166000908152600185016020526040812054670de0b6b3a764000090610f2984866119d1565b610f3391906119e8565b610c4c9190611a3e565b610f4781836119d1565b73ffffffffffffffffffffffffffffffffffffffff909316600090815260019094016020525050604090912055565b6000610fd8826040518060400160405280602081526020017f5361666545524332303a206c6f772d6c6576656c2063616c6c206661696c65648152508573ffffffffffffffffffffffffffffffffffffffff166115739092919063ffffffff16565b80519091501561095d5780806020019051810190610ff69190611a79565b61095d576040517f08c379a000000000000000000000000000000000000000000000000000000000815260206004820152602a60248201527f5361666545524332303a204552433230206f7065726174696f6e20646964206e60448201527f6f742073756363656564000000000000000000000000000000000000000000006064820152608401610a09565b6000816000036110be576040517f68d5686e00000000000000000000000000000000000000000000000000000000815260040160405180910390fd5b63ffffffff8211156110fc576040517f426a107300000000000000000000000000000000000000000000000000000000815260040160405180910390fd5b710b7abc627050305adf14a3d9e40000000000831115611148576040517f0625040100000000000000000000000000000000000000000000000000000000815260040160405180910390fd5b60408051606081018252855464ffffffffff811680835265010000000000820463ffffffff166020840152690100000000000000000090910476ffffffffffffffffffffffffffffffffffffffffffffff16928201929092529042101561121b57670de0b6b3a76400006111dc82836020015163ffffffff1684600001516111d09190611a9b565b64ffffffffff16611582565b6111e69190611a3e565b816040015176ffffffffffffffffffffffffffffffffffffffffffffff1661120e91906119be565b61121890856119ab565b93505b61122583426119ab565b855464ffffffffff908116690100000000000000000076ffffffffffffffffffffffffffffffffffffffffffffff8816027fffffffffffffffffffffffffffffffffffffffffffffff00000000ffffffffff16176501000000000063ffffffff9690961695909502949094177fffffffffffffffffffffffffffffffffffffffffffffffffffffff00000000001693169290921790935550919050565b73ffffffffffffffffffffffffffffffffffffffff8481161590841615831580159061131a57508473ffffffffffffffffffffffffffffffffffffffff168673ffffffffffffffffffffffffffffffffffffffff1614155b156114155781806113285750805b15611381577fffffffffffffffffffffffffffffffffffffffffffffffffffffff0000000000650100000000007affffffffffffffffffffffffffffffffffffffffffffffffffffff851602164264ffffffffff161787555b600061138d84866119d1565b9050826113d15773ffffffffffffffffffffffffffffffffffffffff87166000908152600189016020526040812080548392906113cb9084906119e8565b90915550505b816114135773ffffffffffffffffffffffffffffffffffffffff861660009081526001890160205260408120805483929061140d908490611ab9565b90915550505b505b50505050505050565b60008061143f836040805180820190915261188d8152600060208201525090565b905061042f816000015163ffffffff16565b600080611472846040805180820190915261188d8152600060208201525090565b9050610a3e83611483836020015190565b60408051606081018252915464ffffffffff8116835265010000000000810463ffffffff9081166020850152690100000000000000000090910476ffffffffffffffffffffffffffffffffffffffffffffff169183019190915290919061158216565b835460009064ffffffffff8116906501000000000090047affffffffffffffffffffffffffffffffffffffffffffffffffffff16428214611569576000611530878763ffffffff16565b905080156115675760008161154989868963ffffffff16565b8161155657611556611a0f565b04905061156381846119ab565b9250505b505b9695505050505050565b6060610a3e848460008561167f565b6000826020015163ffffffff16836000015161159e9190611a9b565b64ffffffffff168210156115de576040517f92f7283100000000000000000000000000000000000000000000000000000000815260040160405180910390fd5b602083015163ffffffff1615610ee757600061160583856000015164ffffffffff16611798565b61161a42866000015164ffffffffff16611798565b61162491906119be565b9050836020015163ffffffff16670de0b6b3a7640000856040015176ffffffffffffffffffffffffffffffffffffffffffffff168361166391906119d1565b61166d91906119d1565b6116779190611a3e565b915050610ee7565b606082471015611711576040517f08c379a000000000000000000000000000000000000000000000000000000000815260206004820152602660248201527f416464726573733a20696e73756666696369656e742062616c616e636520666f60448201527f722063616c6c00000000000000000000000000000000000000000000000000006064820152608401610a09565b6000808673ffffffffffffffffffffffffffffffffffffffff16858760405161173a9190611b05565b60006040518083038185875af1925050503d8060008114611777576040519150601f19603f3d011682016040523d82523d6000602084013e61177c565b606091505b509150915061178d878383876117ae565b979650505050505050565b60008183106117a7578161042f565b5090919050565b6060831561184457825160000361183d5773ffffffffffffffffffffffffffffffffffffffff85163b61183d576040517f08c379a000000000000000000000000000000000000000000000000000000000815260206004820152601d60248201527f416464726573733a2063616c6c20746f206e6f6e2d636f6e74726163740000006044820152606401610a09565b5081610a3e565b610a3e83838151156118595781518083602001fd5b806040517f08c379a0000000000000000000000000000000000000000000000000000000008152600401610a099190611b21565b61069c611b72565b73ffffffffffffffffffffffffffffffffffffffff81168114610a1b57600080fd5b6000602082840312156118c957600080fd5b813561042f81611895565b600080604083850312156118e757600080fd5b50508035926020909101359150565b6000806040838503121561190957600080fd5b823561191481611895565b946020939093013593505050565b60008060006060848603121561193757600080fd5b833561194281611895565b9250602084013561195281611895565b929592945050506040919091013590565b60006020828403121561197557600080fd5b5051919050565b7f4e487b7100000000000000000000000000000000000000000000000000000000600052601160045260246000fd5b80820180821115610ee757610ee761197c565b81810381811115610ee757610ee761197c565b8082028115828204841417610ee757610ee761197c565b8181036000831280158383131683831282161715611a0857611a0861197c565b5092915050565b7f4e487b7100000000000000000000000000000000000000000000000000000000600052601260045260246000fd5b600082611a74577f4e487b7100000000000000000000000000000000000000000000000000000000600052601260045260246000fd5b500490565b600060208284031215611a8b57600080fd5b8151801515811461042f57600080fd5b64ffffffffff828116828216039080821115611a0857611a0861197c565b8082018281126000831280158216821582161715611ad957611ad961197c565b505092915050565b60005b83811015611afc578181015183820152602001611ae4565b50506000910152565b60008251611b17818460208701611ae1565b9190910192915050565b6020815260008251806020840152611b40816040850160208701611ae1565b601f017fffffffffffffffffffffffffffffffffffffffffffffffffffffffffffffffe0169190910160400192915050565b7f4e487b7100000000000000000000000000000000000000000000000000000000600052605160045260246000fdfea2646970667358221220c3d078467cc61a409f575920403c196a890d3a9812f881a465ba39f40f1e205264736f6c63430008110033",
  "devdoc": {
    "kind": "dev",
    "methods": {
      "owner()": {
        "details": "Returns the address of the current owner."
      },
      "renounceOwnership()": {
        "details": "Leaves the contract without owner. It will not be possible to call `onlyOwner` functions anymore. Can only be called by the current owner. NOTE: Renouncing ownership will leave the contract without an owner, thereby removing any functionality that is only available to the owner."
      },
      "transferOwnership(address)": {
        "details": "Transfers ownership of the contract to a new account (`newOwner`). Can only be called by the current owner."
      }
    },
    "version": 1
  },
  "userdoc": {
    "kind": "user",
    "methods": {},
    "version": 1
  },
  "storageLayout": {
    "storage": [
      {
        "astId": 8309,
        "contract": "@1inch/farming/contracts/FarmingPod.sol:FarmingPod",
        "label": "_owner",
        "offset": 0,
        "slot": "0",
        "type": "t_address"
      },
      {
        "astId": 2139,
        "contract": "@1inch/farming/contracts/FarmingPod.sol:FarmingPod",
        "label": "distributor",
        "offset": 0,
        "slot": "1",
        "type": "t_address"
      },
      {
        "astId": 2141,
        "contract": "@1inch/farming/contracts/FarmingPod.sol:FarmingPod",
        "label": "_totalSupply",
        "offset": 0,
        "slot": "2",
        "type": "t_uint256"
      },
      {
        "astId": 2144,
        "contract": "@1inch/farming/contracts/FarmingPod.sol:FarmingPod",
        "label": "_farm",
        "offset": 0,
        "slot": "3",
        "type": "t_struct(Data)1814_storage"
      }
    ],
    "types": {
      "t_address": {
        "encoding": "inplace",
        "label": "address",
        "numberOfBytes": "20"
      },
      "t_int256": {
        "encoding": "inplace",
        "label": "int256",
        "numberOfBytes": "32"
      },
      "t_mapping(t_address,t_int256)": {
        "encoding": "mapping",
        "key": "t_address",
        "label": "mapping(address => int256)",
        "numberOfBytes": "32",
        "value": "t_int256"
      },
      "t_struct(Data)1814_storage": {
        "encoding": "inplace",
        "label": "struct FarmingLib.Data",
        "members": [
          {
            "astId": 1810,
            "contract": "@1inch/farming/contracts/FarmingPod.sol:FarmingPod",
            "label": "farmInfo",
            "offset": 0,
            "slot": "0",
            "type": "t_struct(Info)2466_storage"
          },
          {
            "astId": 1813,
            "contract": "@1inch/farming/contracts/FarmingPod.sol:FarmingPod",
            "label": "userInfo",
            "offset": 0,
            "slot": "1",
            "type": "t_struct(Info)2634_storage"
          }
        ],
        "numberOfBytes": "96"
      },
      "t_struct(Info)2466_storage": {
        "encoding": "inplace",
        "label": "struct FarmAccounting.Info",
        "members": [
          {
            "astId": 2461,
            "contract": "@1inch/farming/contracts/FarmingPod.sol:FarmingPod",
            "label": "finished",
            "offset": 0,
            "slot": "0",
            "type": "t_uint40"
          },
          {
            "astId": 2463,
            "contract": "@1inch/farming/contracts/FarmingPod.sol:FarmingPod",
            "label": "duration",
            "offset": 5,
            "slot": "0",
            "type": "t_uint32"
          },
          {
            "astId": 2465,
            "contract": "@1inch/farming/contracts/FarmingPod.sol:FarmingPod",
            "label": "reward",
            "offset": 9,
            "slot": "0",
            "type": "t_uint184"
          }
        ],
        "numberOfBytes": "32"
      },
      "t_struct(Info)2634_storage": {
        "encoding": "inplace",
        "label": "struct UserAccounting.Info",
        "members": [
          {
            "astId": 2627,
            "contract": "@1inch/farming/contracts/FarmingPod.sol:FarmingPod",
            "label": "checkpoint",
            "offset": 0,
            "slot": "0",
            "type": "t_uint40"
          },
          {
            "astId": 2629,
            "contract": "@1inch/farming/contracts/FarmingPod.sol:FarmingPod",
            "label": "farmedPerTokenStored",
            "offset": 5,
            "slot": "0",
            "type": "t_uint216"
          },
          {
            "astId": 2633,
            "contract": "@1inch/farming/contracts/FarmingPod.sol:FarmingPod",
            "label": "corrections",
            "offset": 0,
            "slot": "1",
            "type": "t_mapping(t_address,t_int256)"
          }
        ],
        "numberOfBytes": "64"
      },
      "t_uint184": {
        "encoding": "inplace",
        "label": "uint184",
        "numberOfBytes": "23"
      },
      "t_uint216": {
        "encoding": "inplace",
        "label": "uint216",
        "numberOfBytes": "27"
      },
      "t_uint256": {
        "encoding": "inplace",
        "label": "uint256",
        "numberOfBytes": "32"
      },
      "t_uint32": {
        "encoding": "inplace",
        "label": "uint32",
        "numberOfBytes": "4"
      },
      "t_uint40": {
        "encoding": "inplace",
        "label": "uint40",
        "numberOfBytes": "5"
      }
    }
  }
}