{
  "address": "0x94fF2b6E997bafA6FcC54355a671aDC7Ee27d9da",
  "abi": [
    {
      "inputs": [
        {
          "internalType": "contract IERC20",
          "name": "oneInch_",
          "type": "address"
        },
        {
          "internalType": "uint256",
          "name": "expBase_",
          "type": "uint256"
        },
        {
          "internalType": "uint256",
          "name": "podsLimit",
          "type": "uint256"
        }
      ],
      "stateMutability": "nonpayable",
      "type": "constructor"
    },
    {
      "inputs": [],
      "name": "ApproveDisabled",
      "type": "error"
    },
    {
      "inputs": [],
      "name": "IndexOutOfBounds",
      "type": "error"
    },
    {
      "inputs": [],
      "name": "InsufficientGas",
      "type": "error"
    },
    {
      "inputs": [],
      "name": "InvalidPodAddress",
      "type": "error"
    },
    {
      "inputs": [],
      "name": "LockTimeLessMinLock",
      "type": "error"
    },
    {
      "inputs": [],
      "name": "LockTimeMoreMaxLock",
      "type": "error"
    },
    {
      "inputs": [],
      "name": "LossIsTooBig",
      "type": "error"
    },
    {
      "inputs": [],
      "name": "MaxLossIsNotMet",
      "type": "error"
    },
    {
      "inputs": [],
      "name": "MaxLossOverflow",
      "type": "error"
    },
    {
      "inputs": [],
      "name": "MinReturnIsNotMet",
      "type": "error"
    },
    {
      "inputs": [],
      "name": "OutputArrayTooSmall",
      "type": "error"
    },
    {
      "inputs": [],
      "name": "PodAlreadyAdded",
      "type": "error"
    },
    {
      "inputs": [],
      "name": "PodNotFound",
      "type": "error"
    },
    {
      "inputs": [],
      "name": "PodsLimitReachedForAccount",
      "type": "error"
    },
    {
      "inputs": [],
      "name": "PopFromEmptyArray",
      "type": "error"
    },
    {
      "inputs": [],
      "name": "ReentrantCall",
      "type": "error"
    },
    {
      "inputs": [],
      "name": "RescueAmountIsTooLarge",
      "type": "error"
    },
    {
      "inputs": [],
      "name": "SafePermitBadLength",
      "type": "error"
    },
    {
      "inputs": [],
      "name": "SafeTransferFailed",
      "type": "error"
    },
    {
      "inputs": [],
      "name": "SafeTransferFromFailed",
      "type": "error"
    },
    {
      "inputs": [],
      "name": "StakeUnlocked",
      "type": "error"
    },
    {
      "inputs": [],
      "name": "TransferDisabled",
      "type": "error"
    },
    {
      "inputs": [],
      "name": "UnlockTimeHasNotCome",
      "type": "error"
    },
    {
      "anonymous": false,
      "inputs": [
        {
          "indexed": true,
          "internalType": "address",
          "name": "owner",
          "type": "address"
        },
        {
          "indexed": true,
          "internalType": "address",
          "name": "spender",
          "type": "address"
        },
        {
          "indexed": false,
          "internalType": "uint256",
          "name": "value",
          "type": "uint256"
        }
      ],
      "name": "Approval",
      "type": "event"
    },
    {
      "anonymous": false,
      "inputs": [
        {
          "indexed": false,
          "internalType": "bool",
          "name": "status",
          "type": "bool"
        }
      ],
      "name": "EmergencyExitSet",
      "type": "event"
    },
    {
      "anonymous": false,
      "inputs": [
        {
          "indexed": false,
          "internalType": "address",
          "name": "receiver",
          "type": "address"
        }
      ],
      "name": "FeeReceiverSet",
      "type": "event"
    },
    {
      "anonymous": false,
      "inputs": [
        {
          "indexed": false,
          "internalType": "uint256",
          "name": "ratio",
          "type": "uint256"
        }
      ],
      "name": "MaxLossRatioSet",
      "type": "event"
    },
    {
      "anonymous": false,
      "inputs": [
        {
          "indexed": true,
          "internalType": "address",
          "name": "previousOwner",
          "type": "address"
        },
        {
          "indexed": true,
          "internalType": "address",
          "name": "newOwner",
          "type": "address"
        }
      ],
      "name": "OwnershipTransferred",
      "type": "event"
    },
    {
      "anonymous": false,
      "inputs": [
        {
          "indexed": true,
          "internalType": "address",
          "name": "from",
          "type": "address"
        },
        {
          "indexed": true,
          "internalType": "address",
          "name": "to",
          "type": "address"
        },
        {
          "indexed": false,
          "internalType": "uint256",
          "name": "value",
          "type": "uint256"
        }
      ],
      "name": "Transfer",
      "type": "event"
    },
    {
      "inputs": [],
      "name": "MAX_LOCK_PERIOD",
      "outputs": [
        {
          "internalType": "uint256",
          "name": "",
          "type": "uint256"
        }
      ],
      "stateMutability": "view",
      "type": "function"
    },
    {
      "inputs": [],
      "name": "MIN_LOCK_PERIOD",
      "outputs": [
        {
          "internalType": "uint256",
          "name": "",
          "type": "uint256"
        }
      ],
      "stateMutability": "view",
      "type": "function"
    },
    {
      "inputs": [
        {
          "internalType": "address",
          "name": "pod",
          "type": "address"
        }
      ],
      "name": "addPod",
      "outputs": [],
      "stateMutability": "nonpayable",
      "type": "function"
    },
    {
      "inputs": [
        {
          "internalType": "address",
          "name": "owner",
          "type": "address"
        },
        {
          "internalType": "address",
          "name": "spender",
          "type": "address"
        }
      ],
      "name": "allowance",
      "outputs": [
        {
          "internalType": "uint256",
          "name": "",
          "type": "uint256"
        }
      ],
      "stateMutability": "view",
      "type": "function"
    },
    {
      "inputs": [
        {
          "internalType": "address",
          "name": "",
          "type": "address"
        },
        {
          "internalType": "uint256",
          "name": "",
          "type": "uint256"
        }
      ],
      "name": "approve",
      "outputs": [
        {
          "internalType": "bool",
          "name": "",
          "type": "bool"
        }
      ],
      "stateMutability": "pure",
      "type": "function"
    },
    {
      "inputs": [
        {
          "internalType": "address",
          "name": "account",
          "type": "address"
        }
      ],
      "name": "balanceOf",
      "outputs": [
        {
          "internalType": "uint256",
          "name": "",
          "type": "uint256"
        }
      ],
      "stateMutability": "view",
      "type": "function"
    },
    {
      "inputs": [],
      "name": "decimals",
      "outputs": [
        {
          "internalType": "uint8",
          "name": "",
          "type": "uint8"
        }
      ],
      "stateMutability": "view",
      "type": "function"
    },
    {
      "inputs": [
        {
          "internalType": "address",
          "name": "",
          "type": "address"
        },
        {
          "internalType": "uint256",
          "name": "",
          "type": "uint256"
        }
      ],
      "name": "decreaseAllowance",
      "outputs": [
        {
          "internalType": "bool",
          "name": "",
          "type": "bool"
        }
      ],
      "stateMutability": "pure",
      "type": "function"
    },
    {
      "inputs": [
        {
          "internalType": "uint256",
          "name": "amount",
          "type": "uint256"
        },
        {
          "internalType": "uint256",
          "name": "duration",
          "type": "uint256"
        }
      ],
      "name": "deposit",
      "outputs": [],
      "stateMutability": "nonpayable",
      "type": "function"
    },
    {
      "inputs": [
        {
          "internalType": "address",
          "name": "account",
          "type": "address"
        },
        {
          "internalType": "uint256",
          "name": "amount",
          "type": "uint256"
        }
      ],
      "name": "depositFor",
      "outputs": [],
      "stateMutability": "nonpayable",
      "type": "function"
    },
    {
      "inputs": [
        {
          "internalType": "address",
          "name": "account",
          "type": "address"
        },
        {
          "internalType": "uint256",
          "name": "amount",
          "type": "uint256"
        },
        {
          "internalType": "bytes",
          "name": "permit",
          "type": "bytes"
        }
      ],
      "name": "depositForWithPermit",
      "outputs": [],
      "stateMutability": "nonpayable",
      "type": "function"
    },
    {
      "inputs": [
        {
          "internalType": "uint256",
          "name": "amount",
          "type": "uint256"
        },
        {
          "internalType": "uint256",
          "name": "duration",
          "type": "uint256"
        },
        {
          "internalType": "bytes",
          "name": "permit",
          "type": "bytes"
        }
      ],
      "name": "depositWithPermit",
      "outputs": [],
      "stateMutability": "nonpayable",
      "type": "function"
    },
    {
      "inputs": [
        {
          "internalType": "address",
          "name": "",
          "type": "address"
        }
      ],
      "name": "depositors",
      "outputs": [
        {
          "internalType": "uint40",
          "name": "unlockTime",
          "type": "uint40"
        },
        {
          "internalType": "uint216",
          "name": "amount",
          "type": "uint216"
        }
      ],
      "stateMutability": "view",
      "type": "function"
    },
    {
      "inputs": [
        {
          "internalType": "address",
          "name": "account",
          "type": "address"
        }
      ],
      "name": "earlyWithdrawLoss",
      "outputs": [
        {
          "internalType": "uint256",
          "name": "loss",
          "type": "uint256"
        },
        {
          "internalType": "uint256",
          "name": "ret",
          "type": "uint256"
        }
      ],
      "stateMutability": "view",
      "type": "function"
    },
    {
      "inputs": [
        {
          "internalType": "address",
          "name": "to",
          "type": "address"
        },
        {
          "internalType": "uint256",
          "name": "minReturn",
          "type": "uint256"
        },
        {
          "internalType": "uint256",
          "name": "maxLoss",
          "type": "uint256"
        }
      ],
      "name": "earlyWithdrawTo",
      "outputs": [],
      "stateMutability": "nonpayable",
      "type": "function"
    },
    {
      "inputs": [],
      "name": "emergencyExit",
      "outputs": [
        {
          "internalType": "bool",
          "name": "",
          "type": "bool"
        }
      ],
      "stateMutability": "view",
      "type": "function"
    },
    {
      "inputs": [],
      "name": "expBase",
      "outputs": [
        {
          "internalType": "uint256",
          "name": "",
          "type": "uint256"
        }
      ],
      "stateMutability": "view",
      "type": "function"
    },
    {
      "inputs": [],
      "name": "feeReceiver",
      "outputs": [
        {
          "internalType": "address",
          "name": "",
          "type": "address"
        }
      ],
      "stateMutability": "view",
      "type": "function"
    },
    {
      "inputs": [
        {
          "internalType": "address",
          "name": "account",
          "type": "address"
        },
        {
          "internalType": "address",
          "name": "pod",
          "type": "address"
        }
      ],
      "name": "hasPod",
      "outputs": [
        {
          "internalType": "bool",
          "name": "",
          "type": "bool"
        }
      ],
      "stateMutability": "view",
      "type": "function"
    },
    {
      "inputs": [
        {
          "internalType": "address",
          "name": "",
          "type": "address"
        },
        {
          "internalType": "uint256",
          "name": "",
          "type": "uint256"
        }
      ],
      "name": "increaseAllowance",
      "outputs": [
        {
          "internalType": "bool",
          "name": "",
          "type": "bool"
        }
      ],
      "stateMutability": "pure",
      "type": "function"
    },
    {
      "inputs": [],
      "name": "maxLossRatio",
      "outputs": [
        {
          "internalType": "uint256",
          "name": "",
          "type": "uint256"
        }
      ],
      "stateMutability": "view",
      "type": "function"
    },
    {
      "inputs": [],
      "name": "name",
      "outputs": [
        {
          "internalType": "string",
          "name": "",
          "type": "string"
        }
      ],
      "stateMutability": "view",
      "type": "function"
    },
    {
      "inputs": [],
      "name": "oneInch",
      "outputs": [
        {
          "internalType": "contract IERC20",
          "name": "",
          "type": "address"
        }
      ],
      "stateMutability": "view",
      "type": "function"
    },
    {
      "inputs": [],
      "name": "origin",
      "outputs": [
        {
          "internalType": "uint256",
          "name": "",
          "type": "uint256"
        }
      ],
      "stateMutability": "view",
      "type": "function"
    },
    {
      "inputs": [],
      "name": "owner",
      "outputs": [
        {
          "internalType": "address",
          "name": "",
          "type": "address"
        }
      ],
      "stateMutability": "view",
      "type": "function"
    },
    {
      "inputs": [
        {
          "internalType": "address",
          "name": "account",
          "type": "address"
        },
        {
          "internalType": "uint256",
          "name": "index",
          "type": "uint256"
        }
      ],
      "name": "podAt",
      "outputs": [
        {
          "internalType": "address",
          "name": "",
          "type": "address"
        }
      ],
      "stateMutability": "view",
      "type": "function"
    },
    {
      "inputs": [
        {
          "internalType": "address",
          "name": "pod",
          "type": "address"
        },
        {
          "internalType": "address",
          "name": "account",
          "type": "address"
        }
      ],
      "name": "podBalanceOf",
      "outputs": [
        {
          "internalType": "uint256",
          "name": "",
          "type": "uint256"
        }
      ],
      "stateMutability": "view",
      "type": "function"
    },
    {
      "inputs": [],
      "name": "podCallGasLimit",
      "outputs": [
        {
          "internalType": "uint256",
          "name": "",
          "type": "uint256"
        }
      ],
      "stateMutability": "view",
      "type": "function"
    },
    {
      "inputs": [
        {
          "internalType": "address",
          "name": "account",
          "type": "address"
        }
      ],
      "name": "pods",
      "outputs": [
        {
          "internalType": "address[]",
          "name": "",
          "type": "address[]"
        }
      ],
      "stateMutability": "view",
      "type": "function"
    },
    {
      "inputs": [
        {
          "internalType": "address",
          "name": "account",
          "type": "address"
        }
      ],
      "name": "podsCount",
      "outputs": [
        {
          "internalType": "uint256",
          "name": "",
          "type": "uint256"
        }
      ],
      "stateMutability": "view",
      "type": "function"
    },
    {
      "inputs": [],
      "name": "podsLimit",
      "outputs": [
        {
          "internalType": "uint256",
          "name": "",
          "type": "uint256"
        }
      ],
      "stateMutability": "view",
      "type": "function"
    },
    {
      "inputs": [],
      "name": "removeAllPods",
      "outputs": [],
      "stateMutability": "nonpayable",
      "type": "function"
    },
    {
      "inputs": [
        {
          "internalType": "address",
          "name": "pod",
          "type": "address"
        }
      ],
      "name": "removePod",
      "outputs": [],
      "stateMutability": "nonpayable",
      "type": "function"
    },
    {
      "inputs": [],
      "name": "renounceOwnership",
      "outputs": [],
      "stateMutability": "nonpayable",
      "type": "function"
    },
    {
      "inputs": [
        {
          "internalType": "contract IERC20",
          "name": "token",
          "type": "address"
        },
        {
          "internalType": "uint256",
          "name": "amount",
          "type": "uint256"
        }
      ],
      "name": "rescueFunds",
      "outputs": [],
      "stateMutability": "nonpayable",
      "type": "function"
    },
    {
      "inputs": [
        {
          "internalType": "bool",
          "name": "_emergencyExit",
          "type": "bool"
        }
      ],
      "name": "setEmergencyExit",
      "outputs": [],
      "stateMutability": "nonpayable",
      "type": "function"
    },
    {
      "inputs": [
        {
          "internalType": "address",
          "name": "feeReceiver_",
          "type": "address"
        }
      ],
      "name": "setFeeReceiver",
      "outputs": [],
      "stateMutability": "nonpayable",
      "type": "function"
    },
    {
      "inputs": [
        {
          "internalType": "uint256",
          "name": "maxLossRatio_",
          "type": "uint256"
        }
      ],
      "name": "setMaxLossRatio",
      "outputs": [],
      "stateMutability": "nonpayable",
      "type": "function"
    },
    {
      "inputs": [],
      "name": "symbol",
      "outputs": [
        {
          "internalType": "string",
          "name": "",
          "type": "string"
        }
      ],
      "stateMutability": "view",
      "type": "function"
    },
    {
      "inputs": [],
      "name": "totalDeposits",
      "outputs": [
        {
          "internalType": "uint256",
          "name": "",
          "type": "uint256"
        }
      ],
      "stateMutability": "view",
      "type": "function"
    },
    {
      "inputs": [],
      "name": "totalSupply",
      "outputs": [
        {
          "internalType": "uint256",
          "name": "",
          "type": "uint256"
        }
      ],
      "stateMutability": "view",
      "type": "function"
    },
    {
      "inputs": [
        {
          "internalType": "address",
          "name": "",
          "type": "address"
        },
        {
          "internalType": "uint256",
          "name": "",
          "type": "uint256"
        }
      ],
      "name": "transfer",
      "outputs": [
        {
          "internalType": "bool",
          "name": "",
          "type": "bool"
        }
      ],
      "stateMutability": "pure",
      "type": "function"
    },
    {
      "inputs": [
        {
          "internalType": "address",
          "name": "",
          "type": "address"
        },
        {
          "internalType": "address",
          "name": "",
          "type": "address"
        },
        {
          "internalType": "uint256",
          "name": "",
          "type": "uint256"
        }
      ],
      "name": "transferFrom",
      "outputs": [
        {
          "internalType": "bool",
          "name": "",
          "type": "bool"
        }
      ],
      "stateMutability": "pure",
      "type": "function"
    },
    {
      "inputs": [
        {
          "internalType": "address",
          "name": "newOwner",
          "type": "address"
        }
      ],
      "name": "transferOwnership",
      "outputs": [],
      "stateMutability": "nonpayable",
      "type": "function"
    },
    {
      "inputs": [
        {
          "internalType": "uint256",
          "name": "balance",
          "type": "uint256"
        }
      ],
      "name": "votingPower",
      "outputs": [
        {
          "internalType": "uint256",
          "name": "",
          "type": "uint256"
        }
      ],
      "stateMutability": "view",
      "type": "function"
    },
    {
      "inputs": [
        {
          "internalType": "uint256",
          "name": "balance",
          "type": "uint256"
        },
        {
          "internalType": "uint256",
          "name": "timestamp",
          "type": "uint256"
        }
      ],
      "name": "votingPowerAt",
      "outputs": [
        {
          "internalType": "uint256",
          "name": "",
          "type": "uint256"
        }
      ],
      "stateMutability": "view",
      "type": "function"
    },
    {
      "inputs": [
        {
          "internalType": "address",
          "name": "account",
          "type": "address"
        }
      ],
      "name": "votingPowerOf",
      "outputs": [
        {
          "internalType": "uint256",
          "name": "",
          "type": "uint256"
        }
      ],
      "stateMutability": "view",
      "type": "function"
    },
    {
      "inputs": [
        {
          "internalType": "address",
          "name": "account",
          "type": "address"
        },
        {
          "internalType": "uint256",
          "name": "timestamp",
          "type": "uint256"
        }
      ],
      "name": "votingPowerOfAt",
      "outputs": [
        {
          "internalType": "uint256",
          "name": "",
          "type": "uint256"
        }
      ],
      "stateMutability": "view",
      "type": "function"
    },
    {
      "inputs": [],
      "name": "withdraw",
      "outputs": [],
      "stateMutability": "nonpayable",
      "type": "function"
    },
    {
      "inputs": [
        {
          "internalType": "address",
          "name": "to",
          "type": "address"
        }
      ],
      "name": "withdrawTo",
      "outputs": [],
      "stateMutability": "nonpayable",
      "type": "function"
    }
  ],
  "transactionHash": "0xa0d514d64b485a197b2e84734b8281c096295464582a6abe28d8c0c1a806ef73",
  "args": [
    "0x6BeEeA043cf3f6d28879ED4EE902dB9CC285dA16",
    "999999981746376586",
    "5"
  ],
  "numDeployments": 1,
  "solcInputHash": "d839e03293cde708725ae8a906f59264",
  "bytecode": "0x6104e06040523480156200001257600080fd5b50604051620048f3380380620048f38339810160408190526200003591620005d9565b81428262030d406040518060400160405280600d81526020016c0a6e8c2d6d2dcce4062929c869609b1b815250604051806040016040528060078152602001660e6e862929c86960cb1b8152508160039081620000939190620006c3565b506004620000a28282620006c3565b505050608082905260a0819052620000c7600562000581602090811b6200139317901c565b50620000d590503362000587565b60c081905260e0829052610100829052670de0b6b3a7640000620000fa83806200078f565b620001069190620007bb565b610120819052670de0b6b3a7640000906200012290806200078f565b6200012e9190620007bb565b610140819052670de0b6b3a7640000906200014a90806200078f565b620001569190620007bb565b610160819052670de0b6b3a7640000906200017290806200078f565b6200017e9190620007bb565b610180819052670de0b6b3a7640000906200019a90806200078f565b620001a69190620007bb565b6101a0819052670de0b6b3a764000090620001c290806200078f565b620001ce9190620007bb565b6101c0819052670de0b6b3a764000090620001ea90806200078f565b620001f69190620007bb565b6101e0819052670de0b6b3a7640000906200021290806200078f565b6200021e9190620007bb565b610200819052670de0b6b3a7640000906200023a90806200078f565b620002469190620007bb565b610220819052670de0b6b3a7640000906200026290806200078f565b6200026e9190620007bb565b610240819052670de0b6b3a7640000906200028a90806200078f565b620002969190620007bb565b610260819052670de0b6b3a764000090620002b290806200078f565b620002be9190620007bb565b610280819052670de0b6b3a764000090620002da90806200078f565b620002e69190620007bb565b6102a0819052670de0b6b3a7640000906200030290806200078f565b6200030e9190620007bb565b6102c0819052670de0b6b3a7640000906200032a90806200078f565b620003369190620007bb565b6102e0819052670de0b6b3a7640000906200035290806200078f565b6200035e9190620007bb565b610300819052670de0b6b3a7640000906200037a90806200078f565b620003869190620007bb565b610320819052670de0b6b3a764000090620003a290806200078f565b620003ae9190620007bb565b610340819052670de0b6b3a764000090620003ca90806200078f565b620003d69190620007bb565b610360819052670de0b6b3a764000090620003f290806200078f565b620003fe9190620007bb565b610380819052670de0b6b3a7640000906200041a90806200078f565b620004269190620007bb565b6103a0819052670de0b6b3a7640000906200044290806200078f565b6200044e9190620007bb565b6103c0819052670de0b6b3a7640000906200046a90806200078f565b620004769190620007bb565b6103e0819052670de0b6b3a7640000906200049290806200078f565b6200049e9190620007bb565b610400819052670de0b6b3a764000090620004ba90806200078f565b620004c69190620007bb565b610420819052670de0b6b3a764000090620004e290806200078f565b620004ee9190620007bb565b610440819052670de0b6b3a7640000906200050a90806200078f565b620005169190620007bb565b610460819052670de0b6b3a7640000906200053290806200078f565b6200053e9190620007bb565b610480819052670de0b6b3a7640000906200055a90806200078f565b620005669190620007bb565b6104a052505050506001600160a01b03166104c052620007de565b60019055565b600780546001600160a01b038381166001600160a01b0319831681179093556040519116919082907f8be0079c531659141344cd1fd0a4f28419497f9722a3daafe3b4186f6b6457e090600090a35050565b600080600060608486031215620005ef57600080fd5b83516001600160a01b03811681146200060757600080fd5b602085015160409095015190969495509392505050565b634e487b7160e01b600052604160045260246000fd5b600181811c908216806200064957607f821691505b6020821081036200066a57634e487b7160e01b600052602260045260246000fd5b50919050565b601f821115620006be57600081815260208120601f850160051c81016020861015620006995750805b601f850160051c820191505b81811015620006ba57828155600101620006a5565b5050505b505050565b81516001600160401b03811115620006df57620006df6200061e565b620006f781620006f0845462000634565b8462000670565b602080601f8311600181146200072f5760008415620007165750858301515b600019600386901b1c1916600185901b178555620006ba565b600085815260208120601f198616915b8281101562000760578886015182559484019460019091019084016200073f565b50858210156200077f5787850151600019600388901b60f8161c191681555b5050505050600190811b01905550565b8082028115828204841417620007b557634e487b7160e01b600052601160045260246000fd5b92915050565b600082620007d957634e487b7160e01b600052601260045260246000fd5b500490565b60805160a05160c05160e05161010051610120516101405161016051610180516101a0516101c0516101e05161020051610220516102405161026051610280516102a0516102c0516102e05161030051610320516103405161036051610380516103a0516103c0516103e05161040051610420516104405161046051610480516104a0516104c051613e6062000a9360003960008181610340015281816109a101528181610d0201528181610d6901528181610deb01528181610f630152818161131a0152818161135f01526116cf0152600081816120ea0152612e250152600081816120ae0152612ddc0152600081816120720152612d930152600081816120360152612d4a015260008181611ffa0152612d01015260008181611fbe0152612cb8015260008181611f820152612c6f015260008181611f470152612c27015260008181611f0c0152612bdf015260008181611ed10152612b97015260008181611e960152612b4f015260008181611e5b0152612b07015260008181611e200152612abf015260008181611de50152612a77015260008181611daa0152612a2f015260008181611d7001526129e8015260008181611d3601526129a1015260008181611cfc015261295a015260008181611cc20152612913015260008181611c8801526128cc015260008181611c4e0152612885015260008181611c14015261283e015260008181611bda01526127f7015260008181611ba101526127b1015260008181611b68015261276b015260008181611b2f0152612725015260008181611af601526126df015260008181611abd0152612699015260008181611a840152612653015260008181611a4b015261260d015260006106610152600081816105d501528181611a1601526125e1015260008181610604015261257b0152600081816104de01526118470152613e606000f3fe608060405234801561001057600080fd5b50600436106103365760003560e01c806378e3214f116101b2578063ada6f64b116100f9578063eed75f6d116100a2578063f55401621161007c578063f55401621461079d578063f55f545c146107a8578063f9a92d82146107c8578063fe8f8a00146107db57600080fd5b8063eed75f6d146106ef578063efdcd97414610777578063f2fde38b1461078a57600080fd5b8063bcc3f3bd116100d3578063bcc3f3bd14610683578063dd62ed3e14610696578063e2bbb158146106dc57600080fd5b8063ada6f64b14610634578063b3f006741461063c578063bca9c3fc1461065c57600080fd5b806391cc59611161015b578063a44282dc11610135578063a44282dc146105ff578063a457c2d7146103a1578063a9059cbb1461062657600080fd5b806391cc5961146105bd578063938b5f32146105d057806395d89b41146105f757600080fd5b8063893c37f21161018c578063893c37f2146105795780638da031df1461058c5780638da5cb5b1461059f57600080fd5b806378e3214f1461054a5780637a3e60e91461055d5780637d8820971461057057600080fd5b806339509351116102815780635641ec031161022a57806370a082311161020457806370a0823114610509578063715018a61461051c57806372b0d90c1461052457806372c4a9271461053757600080fd5b80635641ec03146104cc57806366b0dede146104d95780636ee93d5b1461050057600080fd5b8063457b3d021161025b578063457b3d021461047e57806345ee0755146104a6578063538db923146104b957600080fd5b806339509351146103a15780633ccfd60b1461046357806340f99a941461046b57600080fd5b80632bf3c442116102e357806332d323a5116102bd57806332d323a5146104335780633466a88614610446578063385dc3df1461045957600080fd5b80632bf3c442146103fe5780632f4f21e214610411578063313ce5671461042457600080fd5b806318160ddd1161031457806318160ddd146103c4578063222d6b4d146103d657806323b872dd146103eb57600080fd5b8063045c08d51461033b57806306fdde031461038c578063095ea7b3146103a1575b600080fd5b6103627f000000000000000000000000000000000000000000000000000000000000000081565b60405173ffffffffffffffffffffffffffffffffffffffff90911681526020015b60405180910390f35b6103946107ee565b604051610383919061393f565b6103b46103af3660046139cd565b610880565b6040519015158152602001610383565b6002545b604051908152602001610383565b6103e96103e43660046139f9565b6108b4565b005b6103b46103f9366004613a16565b6108c1565b6103e961040c366004613a57565b6108f5565b6103e961041f3660046139cd565b610977565b60405160128152602001610383565b6103e9610441366004613ab9565b610987565b6103c8610454366004613b15565b6109da565b6103c86201518081565b6103e9610a68565b6103626104793660046139cd565b610a73565b61049161048c3660046139f9565b610aab565b60408051928352602083019190915201610383565b6103e96104b4366004613b4e565b610b14565b6103e96104c73660046139f9565b610b7b565b600a546103b49060ff1681565b6103c87f000000000000000000000000000000000000000000000000000000000000000081565b6103c8600b5481565b6103c86105173660046139f9565b610b85565b6103e9610bfa565b6103e96105323660046139f9565b610c0c565b6103c8610545366004613a57565b610d2e565b6103e96105583660046139cd565b610d3a565b6103c861056b3660046139f9565b610ecf565b6103c860095481565b6103c8610587366004613b70565b610efd565b6103b461059a366004613b15565b610f09565b60075473ffffffffffffffffffffffffffffffffffffffff16610362565b6103e96105cb366004613b92565b610f49565b6103c87f000000000000000000000000000000000000000000000000000000000000000081565b610394610f95565b6103c87f000000000000000000000000000000000000000000000000000000000000000081565b6103b46103f93660046139cd565b6103e9610fa4565b600c546103629073ffffffffffffffffffffffffffffffffffffffff1681565b6103c87f000000000000000000000000000000000000000000000000000000000000000081565b6103c86106913660046139f9565b610fad565b6103c86106a4366004613b15565b73ffffffffffffffffffffffffffffffffffffffff918216600090815260016020908152604080832093909416825291909152205490565b6103e96106ea366004613b70565b610fc1565b61073e6106fd3660046139f9565b60086020526000908152604090205464ffffffffff8116906501000000000090047affffffffffffffffffffffffffffffffffffffffffffffffffffff1682565b6040805164ffffffffff90931683527affffffffffffffffffffffffffffffffffffffffffffffffffffff909116602083015201610383565b6103e96107853660046139f9565b610fcc565b6103e96107983660046139f9565b611047565b6103c8630784ce0081565b6107bb6107b63660046139f9565b611100565b6040516103839190613bcd565b6103c86107d63660046139cd565b611131565b6103e96107e9366004613c27565b611145565b6060600380546107fd90613c5c565b80601f016020809104026020016040519081016040528092919081815260200182805461082990613c5c565b80156108765780601f1061084b57610100808354040283529160200191610876565b820191906000526020600020905b81548152906001019060200180831161085957829003601f168201915b5050505050905090565b60006040517feb60c2c400000000000000000000000000000000000000000000000000000000815260040160405180910390fd5b6108be3382611399565b50565b60006040517fa24e573d00000000000000000000000000000000000000000000000000000000815260040160405180910390fd5b6108fd61141e565b633b9aca0081111561093b576040517f127187c400000000000000000000000000000000000000000000000000000000815260040160405180910390fd5b600b8190556040518181527fb7ef30419c4279919b88c08358f54054ad06e4887402f596cade1f36366b3dc0906020015b60405180910390a150565b6109838282600061149f565b5050565b6109c873ffffffffffffffffffffffffffffffffffffffff7f0000000000000000000000000000000000000000000000000000000000000000168383611700565b6109d48484600061149f565b50505050565b600060056109e9815460021490565b15610a20576040517f37ed32e800000000000000000000000000000000000000000000000000000000815260040160405180910390fd5b610a2a8385610f09565b15610a5c5773ffffffffffffffffffffffffffffffffffffffff83166000908152602081905260409020549150610a61565b600091505b5092915050565b610a7133610c0c565b565b73ffffffffffffffffffffffffffffffffffffffff82166000908152600660205260408120610aa29083611717565b90505b92915050565b73ffffffffffffffffffffffffffffffffffffffff81166000908152600860205260408120548190610b0b906501000000000090047affffffffffffffffffffffffffffffffffffffffffffffffffffff16610b0685610b85565b61172b565b91509150915091565b610b1c61141e565b600a80547fffffffffffffffffffffffffffffffffffffffffffffffffffffffffffffff00168215159081179091556040519081527fd08802d021f2c722117c801562fe018651ae10fc4e9d8ae97f1041028c1f99269060200161096c565b6108be338261176e565b60006005610b94815460021490565b15610bcb576040517f37ed32e800000000000000000000000000000000000000000000000000000000815260040160405180910390fd5b73ffffffffffffffffffffffffffffffffffffffff831660009081526020819052604090205491505b50919050565b610c0261141e565b610a7160006118c8565b3360009081526008602090815260409182902082518084019093525464ffffffffff811683526501000000000090047affffffffffffffffffffffffffffffffffffffffffffffffffffff1690820152600a5460ff16158015610c765750805164ffffffffff1642105b15610cad576040517fa379d44200000000000000000000000000000000000000000000000000000000815260040160405180910390fd5b60208101517affffffffffffffffffffffffffffffffffffffffffffffffffffff168015610d2957610ce88282610ce333610b85565b61193f565b610d2973ffffffffffffffffffffffffffffffffffffffff7f00000000000000000000000000000000000000000000000000000000000000001684836119b1565b505050565b6000610aa58242611a13565b610d4261141e565b73ffffffffffffffffffffffffffffffffffffffff8216610d67576109833382612115565b7f000000000000000000000000000000000000000000000000000000000000000073ffffffffffffffffffffffffffffffffffffffff168273ffffffffffffffffffffffffffffffffffffffff1603610eae576009546040517f70a082310000000000000000000000000000000000000000000000000000000081523060048201527f000000000000000000000000000000000000000000000000000000000000000073ffffffffffffffffffffffffffffffffffffffff16906370a0823190602401602060405180830381865afa158015610e47573d6000803e3d6000fd5b505050506040513d601f19601f82011682018060405250810190610e6b9190613ca9565b610e759190613cf1565b811115610eae576040517f0a86380300000000000000000000000000000000000000000000000000000000815260040160405180910390fd5b61098373ffffffffffffffffffffffffffffffffffffffff831633836119b1565b73ffffffffffffffffffffffffffffffffffffffff81166000908152600660205260408120610aa59061226f565b6000610aa28383611a13565b73ffffffffffffffffffffffffffffffffffffffff8281166000908152600660209081526040808320938516835260019093019052908120541515610aa2565b610f8a73ffffffffffffffffffffffffffffffffffffffff7f0000000000000000000000000000000000000000000000000000000000000000168383611700565b6109d433858561149f565b6060600480546107fd90613c5c565b610a7133612286565b6000610aa5610fbb83610b85565b42611a13565b61098333838361149f565b610fd461141e565b600c80547fffffffffffffffffffffffff00000000000000000000000000000000000000001673ffffffffffffffffffffffffffffffffffffffff83169081179091556040519081527fbdf37c276f641820b141429d245add2552b4118c0866e5a78638e3de5ef18d9d9060200161096c565b61104f61141e565b73ffffffffffffffffffffffffffffffffffffffff81166110f7576040517f08c379a000000000000000000000000000000000000000000000000000000000815260206004820152602660248201527f4f776e61626c653a206e6577206f776e657220697320746865207a65726f206160448201527f646472657373000000000000000000000000000000000000000000000000000060648201526084015b60405180910390fd5b6108be816118c8565b73ffffffffffffffffffffffffffffffffffffffff81166000908152600660205260409020606090610aa590612391565b6000610aa261113f84610b85565b83611a13565b3360009081526008602090815260409182902082518084019093525464ffffffffff811683526501000000000090047affffffffffffffffffffffffffffffffffffffffffffffffffffff1690820152600a5460ff16806111ae5750805164ffffffffff164210155b156111e5576040517f6717a45500000000000000000000000000000000000000000000000000000000815260040160405180910390fd5b60208101517affffffffffffffffffffffffffffffffffffffffffffffffffffff16801561138c57600061121833610b85565b9050600080611227848461172b565b9150915086811015611265576040517f0169e60f00000000000000000000000000000000000000000000000000000000815260040160405180910390fd5b8582111561129f576040517fa7f1d0c200000000000000000000000000000000000000000000000000000000815260040160405180910390fd5b633b9aca00600b54856112b29190613d04565b6112bc9190613d4a565b8211156112f5576040517f1a5ffec600000000000000000000000000000000000000000000000000000000815260040160405180910390fd5b61130085858561193f565b61134173ffffffffffffffffffffffffffffffffffffffff7f00000000000000000000000000000000000000000000000000000000000000001689836119b1565b600c546113889073ffffffffffffffffffffffffffffffffffffffff7f000000000000000000000000000000000000000000000000000000000000000081169116846119b1565b5050505b5050505050565b60019055565b73ffffffffffffffffffffffffffffffffffffffff821660009081526006602052604090206113c890826123fe565b6113fe576040517f826fbca300000000000000000000000000000000000000000000000000000000815260040160405180910390fd5b600061140983610b85565b90508015610d2957610d298284600084612519565b60075473ffffffffffffffffffffffffffffffffffffffff163314610a71576040517f08c379a000000000000000000000000000000000000000000000000000000000815260206004820181905260248201527f4f776e61626c653a2063616c6c6572206973206e6f7420746865206f776e657260448201526064016110ee565b73ffffffffffffffffffffffffffffffffffffffff8316600090815260086020908152604080832081518083019092525464ffffffffff8116808352650100000000009091047affffffffffffffffffffffffffffffffffffffffffffffffffffff16928201929092529190839061151790426125c8565b6115219190613d85565b9050600061152f4283613cf1565b90506201518081101561156e576040517f2639cc7700000000000000000000000000000000000000000000000000000000815260040160405180910390fd5b630784ce008111156115ac576040517f2f5cdab600000000000000000000000000000000000000000000000000000000815260040160405180910390fd5b60006115b787610b85565b600a6115ef8887602001517affffffffffffffffffffffffffffffffffffffffffffffffffffff166115e99190613d85565b866125de565b6115f99190613d4a565b6116039190613cf1565b64ffffffffff841685526020850180519192508791611623908390613d98565b7affffffffffffffffffffffffffffffffffffffffffffffffffffff90811690915273ffffffffffffffffffffffffffffffffffffffff891660009081526008602090815260408220885191890151909316650100000000000264ffffffffff909116179091556009805489935090919061169f908490613d85565b909155506116af90508782612e5c565b85156116f7576116f773ffffffffffffffffffffffffffffffffffffffff7f000000000000000000000000000000000000000000000000000000000000000016333089612f57565b50505050505050565b61170b838383612ff4565b610d2957610d296130a1565b600081815260208390526040812054610aa2565b600080600961173a8442611a13565b6117449086613cf1565b61174f90600a613d04565b6117599190613d4a565b90506117658185613cf1565b91509250929050565b73ffffffffffffffffffffffffffffffffffffffff81166117bb576040517f960357e400000000000000000000000000000000000000000000000000000000815260040160405180910390fd5b73ffffffffffffffffffffffffffffffffffffffff821660009081526006602052604090206117ea90826130ad565b611820576040517fcbdb297300000000000000000000000000000000000000000000000000000000815260040160405180910390fd5b73ffffffffffffffffffffffffffffffffffffffff821660009081526006602052604090207f0000000000000000000000000000000000000000000000000000000000000000906118709061226f565b11156118a8576040517fc87e91a600000000000000000000000000000000000000000000000000000000815260040160405180910390fd5b60006118b383610b85565b90508015610d2957610d298260008584612519565b6007805473ffffffffffffffffffffffffffffffffffffffff8381167fffffffffffffffffffffffff0000000000000000000000000000000000000000831681179093556040519116919082907f8be0079c531659141344cd1fd0a4f28419497f9722a3daafe3b4186f6b6457e090600090a35050565b81600960008282546119519190613cf1565b9091555050600060208085018281523380845260089092526040909220855192517affffffffffffffffffffffffffffffffffffffffffffffffffffff16650100000000000264ffffffffff90931692909217909155610d29908261311e565b6119dd837fa9059cbb0000000000000000000000000000000000000000000000000000000084846132e9565b610d29576040517ffb7f507900000000000000000000000000000000000000000000000000000000815260040160405180910390fd5b817f000000000000000000000000000000000000000000000000000000000000000082036001811615611a7057670de0b6b3a76400007f000000000000000000000000000000000000000000000000000000000000000083020491505b6002811615611aa957670de0b6b3a76400007f000000000000000000000000000000000000000000000000000000000000000083020491505b6004811615611ae257670de0b6b3a76400007f000000000000000000000000000000000000000000000000000000000000000083020491505b6008811615611b1b57670de0b6b3a76400007f000000000000000000000000000000000000000000000000000000000000000083020491505b6010811615611b5457670de0b6b3a76400007f000000000000000000000000000000000000000000000000000000000000000083020491505b6020811615611b8d57670de0b6b3a76400007f000000000000000000000000000000000000000000000000000000000000000083020491505b6040811615611bc657670de0b6b3a76400007f000000000000000000000000000000000000000000000000000000000000000083020491505b6080811615611bff57670de0b6b3a76400007f000000000000000000000000000000000000000000000000000000000000000083020491505b610100811615611c3957670de0b6b3a76400007f000000000000000000000000000000000000000000000000000000000000000083020491505b610200811615611c7357670de0b6b3a76400007f000000000000000000000000000000000000000000000000000000000000000083020491505b610400811615611cad57670de0b6b3a76400007f000000000000000000000000000000000000000000000000000000000000000083020491505b610800811615611ce757670de0b6b3a76400007f000000000000000000000000000000000000000000000000000000000000000083020491505b611000811615611d2157670de0b6b3a76400007f000000000000000000000000000000000000000000000000000000000000000083020491505b612000811615611d5b57670de0b6b3a76400007f000000000000000000000000000000000000000000000000000000000000000083020491505b614000811615611d9557670de0b6b3a76400007f000000000000000000000000000000000000000000000000000000000000000083020491505b618000811615611dcf57670de0b6b3a76400007f000000000000000000000000000000000000000000000000000000000000000083020491505b62010000811615611e0a57670de0b6b3a76400007f000000000000000000000000000000000000000000000000000000000000000083020491505b62020000811615611e4557670de0b6b3a76400007f000000000000000000000000000000000000000000000000000000000000000083020491505b62040000811615611e8057670de0b6b3a76400007f000000000000000000000000000000000000000000000000000000000000000083020491505b62080000811615611ebb57670de0b6b3a76400007f000000000000000000000000000000000000000000000000000000000000000083020491505b62100000811615611ef657670de0b6b3a76400007f000000000000000000000000000000000000000000000000000000000000000083020491505b62200000811615611f3157670de0b6b3a76400007f000000000000000000000000000000000000000000000000000000000000000083020491505b62400000811615611f6c57670de0b6b3a76400007f000000000000000000000000000000000000000000000000000000000000000083020491505b62800000811615611fa757670de0b6b3a76400007f000000000000000000000000000000000000000000000000000000000000000083020491505b6301000000811615611fe357670de0b6b3a76400007f000000000000000000000000000000000000000000000000000000000000000083020491505b630200000081161561201f57670de0b6b3a76400007f000000000000000000000000000000000000000000000000000000000000000083020491505b630400000081161561205b57670de0b6b3a76400007f000000000000000000000000000000000000000000000000000000000000000083020491505b630800000081161561209757670de0b6b3a76400007f000000000000000000000000000000000000000000000000000000000000000083020491505b63100000008116156120d357670de0b6b3a76400007f000000000000000000000000000000000000000000000000000000000000000083020491505b6320000000811615610a6157670de0b6b3a76400007f000000000000000000000000000000000000000000000000000000000000000083025b04949350505050565b8047101561217f576040517f08c379a000000000000000000000000000000000000000000000000000000000815260206004820152601d60248201527f416464726573733a20696e73756666696369656e742062616c616e636500000060448201526064016110ee565b60008273ffffffffffffffffffffffffffffffffffffffff168260405160006040518083038185875af1925050503d80600081146121d9576040519150601f19603f3d011682016040523d82523d6000602084013e6121de565b606091505b5050905080610d29576040517f08c379a000000000000000000000000000000000000000000000000000000000815260206004820152603a60248201527f416464726573733a20756e61626c6520746f2073656e642076616c75652c207260448201527f6563697069656e74206d6179206861766520726576657274656400000000000060648201526084016110ee565b60008080526020829052604081205460a01c610aa5565b73ffffffffffffffffffffffffffffffffffffffff811660009081526006602052604081206122b490612391565b905060006122c183610b85565b82519091505b80156109d45781156122fc576122fc8360018303815181106122eb576122eb613dcc565b602002602001015185600085612519565b61236983600183038151811061231457612314613dcc565b6020026020010151600660008773ffffffffffffffffffffffffffffffffffffffff1673ffffffffffffffffffffffffffffffffffffffff1681526020019081526020016000206123fe90919063ffffffff16565b507fffffffffffffffffffffffffffffffffffffffffffffffffffffffffffffffff016122c7565b60008080526020829052604090205460609060a081901c67ffffffffffffffff8111156123c0576123c0613dfb565b6040519080825280602002602001820160405280156123e9578160200160208202803683370190505b5091506123f783838361333d565b5050919050565b73ffffffffffffffffffffffffffffffffffffffff81166000908152600183016020526040812054808203612437576000915050610aa5565b60008080526020859052604090205460a01c8110156124e3576000808052602085905260408082205460a01c7fffffffffffffffffffffffffffffffffffffffffffffffffffffffffffffffff01825281205490506124b9857fffffffffffffffffffffffffffffffffffffffffffffffffffffffffffffffff840183613426565b73ffffffffffffffffffffffffffffffffffffffff16600090815260018501602052604090208190555b6124ec846134d8565b505073ffffffffffffffffffffffffffffffffffffffff1660009081526001918201602052604081205590565b604080517f7a1f1aa900000000000000000000000000000000000000000000000000000000808252600482018690526024820185905260448201849052917f1c26714c00000000000000000000000000000000000000000000000000000000917f0000000000000000000000000000000000000000000000000000000000000000918290603f5a020410156125b2578260005260046000fd5b60008060648360008c87f1505050505050505050565b60008183116125d75781610aa2565b5090919050565b817f000000000000000000000000000000000000000000000000000000000000000082036001811615612648577f000000000000000000000000000000000000000000000000000000000000000082670de0b6b3a7640000028161264457612644613d1b565b0491505b600281161561268e577f000000000000000000000000000000000000000000000000000000000000000082670de0b6b3a7640000028161268a5761268a613d1b565b0491505b60048116156126d4577f000000000000000000000000000000000000000000000000000000000000000082670de0b6b3a764000002816126d0576126d0613d1b565b0491505b600881161561271a577f000000000000000000000000000000000000000000000000000000000000000082670de0b6b3a7640000028161271657612716613d1b565b0491505b6010811615612760577f000000000000000000000000000000000000000000000000000000000000000082670de0b6b3a7640000028161275c5761275c613d1b565b0491505b60208116156127a6577f000000000000000000000000000000000000000000000000000000000000000082670de0b6b3a764000002816127a2576127a2613d1b565b0491505b60408116156127ec577f000000000000000000000000000000000000000000000000000000000000000082670de0b6b3a764000002816127e8576127e8613d1b565b0491505b6080811615612832577f000000000000000000000000000000000000000000000000000000000000000082670de0b6b3a7640000028161282e5761282e613d1b565b0491505b610100811615612879577f000000000000000000000000000000000000000000000000000000000000000082670de0b6b3a7640000028161287557612875613d1b565b0491505b6102008116156128c0577f000000000000000000000000000000000000000000000000000000000000000082670de0b6b3a764000002816128bc576128bc613d1b565b0491505b610400811615612907577f000000000000000000000000000000000000000000000000000000000000000082670de0b6b3a7640000028161290357612903613d1b565b0491505b61080081161561294e577f000000000000000000000000000000000000000000000000000000000000000082670de0b6b3a7640000028161294a5761294a613d1b565b0491505b611000811615612995577f000000000000000000000000000000000000000000000000000000000000000082670de0b6b3a7640000028161299157612991613d1b565b0491505b6120008116156129dc577f000000000000000000000000000000000000000000000000000000000000000082670de0b6b3a764000002816129d8576129d8613d1b565b0491505b614000811615612a23577f000000000000000000000000000000000000000000000000000000000000000082670de0b6b3a76400000281612a1f57612a1f613d1b565b0491505b618000811615612a6a577f000000000000000000000000000000000000000000000000000000000000000082670de0b6b3a76400000281612a6657612a66613d1b565b0491505b62010000811615612ab2577f000000000000000000000000000000000000000000000000000000000000000082670de0b6b3a76400000281612aae57612aae613d1b565b0491505b62020000811615612afa577f000000000000000000000000000000000000000000000000000000000000000082670de0b6b3a76400000281612af657612af6613d1b565b0491505b62040000811615612b42577f000000000000000000000000000000000000000000000000000000000000000082670de0b6b3a76400000281612b3e57612b3e613d1b565b0491505b62080000811615612b8a577f000000000000000000000000000000000000000000000000000000000000000082670de0b6b3a76400000281612b8657612b86613d1b565b0491505b62100000811615612bd2577f000000000000000000000000000000000000000000000000000000000000000082670de0b6b3a76400000281612bce57612bce613d1b565b0491505b62200000811615612c1a577f000000000000000000000000000000000000000000000000000000000000000082670de0b6b3a76400000281612c1657612c16613d1b565b0491505b62400000811615612c62577f000000000000000000000000000000000000000000000000000000000000000082670de0b6b3a76400000281612c5e57612c5e613d1b565b0491505b62800000811615612caa577f000000000000000000000000000000000000000000000000000000000000000082670de0b6b3a76400000281612ca657612ca6613d1b565b0491505b6301000000811615612cf3577f000000000000000000000000000000000000000000000000000000000000000082670de0b6b3a76400000281612cef57612cef613d1b565b0491505b6302000000811615612d3c577f000000000000000000000000000000000000000000000000000000000000000082670de0b6b3a76400000281612d3857612d38613d1b565b0491505b6304000000811615612d85577f000000000000000000000000000000000000000000000000000000000000000082670de0b6b3a76400000281612d8157612d81613d1b565b0491505b6308000000811615612dce577f000000000000000000000000000000000000000000000000000000000000000082670de0b6b3a76400000281612dca57612dca613d1b565b0491505b6310000000811615612e17577f000000000000000000000000000000000000000000000000000000000000000082670de0b6b3a76400000281612e1357612e13613d1b565b0491505b6320000000811615610a61577f000000000000000000000000000000000000000000000000000000000000000082670de0b6b3a7640000028161210c5761210c613d1b565b73ffffffffffffffffffffffffffffffffffffffff8216612ed9576040517f08c379a000000000000000000000000000000000000000000000000000000000815260206004820152601f60248201527f45524332303a206d696e7420746f20746865207a65726f20616464726573730060448201526064016110ee565b8060026000828254612eeb9190613d85565b909155505073ffffffffffffffffffffffffffffffffffffffff8216600081815260208181526040808320805486019055518481527fddf252ad1be2c89b69c2b068fc378daa952ba7f163c4a11628f55a4df523b3ef910160405180910390a36109836000838361359a565b60006323b872dd60e01b905060006040518281528560048201528460248201528360448201526020600060648360008b5af19150508015612fb5573d8015612fab57600160005114601f3d11169150612fb3565b6000873b1191505b505b80612fec576040517ff405907100000000000000000000000000000000000000000000000000000000815260040160405180910390fd5b505050505050565b600060e08290036130325761302b847fd505accf0000000000000000000000000000000000000000000000000000000085856137d6565b905061309a565b6101008290036130685761302b847f8fcbaf0c0000000000000000000000000000000000000000000000000000000085856137d6565b6040517f6827585700000000000000000000000000000000000000000000000000000000815260040160405180910390fd5b9392505050565b6040513d6000823e3d81fd5b73ffffffffffffffffffffffffffffffffffffffff81166000908152600183016020526040812054156130e257506000610aa5565b6130ec8383613817565b73ffffffffffffffffffffffffffffffffffffffff929092166000908152600193840160205260409020919091555090565b73ffffffffffffffffffffffffffffffffffffffff82166131c1576040517f08c379a000000000000000000000000000000000000000000000000000000000815260206004820152602160248201527f45524332303a206275726e2066726f6d20746865207a65726f2061646472657360448201527f730000000000000000000000000000000000000000000000000000000000000060648201526084016110ee565b73ffffffffffffffffffffffffffffffffffffffff821660009081526020819052604090205481811015613277576040517f08c379a000000000000000000000000000000000000000000000000000000000815260206004820152602260248201527f45524332303a206275726e20616d6f756e7420657863656564732062616c616e60448201527f636500000000000000000000000000000000000000000000000000000000000060648201526084016110ee565b73ffffffffffffffffffffffffffffffffffffffff83166000818152602081815260408083208686039055600280548790039055518581529192917fddf252ad1be2c89b69c2b068fc378daa952ba7f163c4a11628f55a4df523b3ef910160405180910390a3610d298360008461359a565b60006040518481528360048201528260248201526020600060448360008a5af19150508015613335573d801561332b57600160005114601f3d11169150613333565b6000863b1191505b505b949350505050565b815160609060a083901c90811115613381576040517ff9a99b2500000000000000000000000000000000000000000000000000000000815260040160405180910390fd5b801561341d57828460008151811061339b5761339b613dcc565b73ffffffffffffffffffffffffffffffffffffffff9092166020928302919091019091015260015b8181101561341b5760008181526020879052604090205485518690839081106133ee576133ee613dcc565b73ffffffffffffffffffffffffffffffffffffffff909216602092830291909101909101526001016133c3565b505b50919392505050565b60008080526020849052604090205460a01c808310613471576040517f4e23d03500000000000000000000000000000000000000000000000000000000815260040160405180910390fd5b826000036134ab57600080805260208590526040902060a082901b73ffffffffffffffffffffffffffffffffffffffff84161790556109d4565b600083815260208590526040902073ffffffffffffffffffffffffffffffffffffffff8316905550505050565b6000808052602082905260408120549060a082901c90819003613527576040517f06a2af9e00000000000000000000000000000000000000000000000000000000815260040160405180910390fd5b7fffffffffffffffffffffffffffffffffffffffffffffffffffffffffffffffff81016000908152602084905260408120556001811115610d295760008080526020849052604090207fffffffffffffffffffffffff000000000000000000000000000000000000000083019055505050565b60056135a5816138df565b6000821180156135e157508273ffffffffffffffffffffffffffffffffffffffff168473ffffffffffffffffffffffffffffffffffffffff1614155b156137cd5773ffffffffffffffffffffffffffffffffffffffff8416600090815260066020526040812061361490612391565b73ffffffffffffffffffffffffffffffffffffffff851660009081526006602052604081209192509061364690612391565b825181519192509060005b8281101561375357600085828151811061366d5761366d613dcc565b6020026020010151905060005b838110156137355785818151811061369457613694613dcc565b602002602001015173ffffffffffffffffffffffffffffffffffffffff168273ffffffffffffffffffffffffffffffffffffffff160361372d576136da828c8c8c612519565b60008682815181106136ee576136ee613dcc565b602002602001019073ffffffffffffffffffffffffffffffffffffffff16908173ffffffffffffffffffffffffffffffffffffffff1681525050613735565b60010161367a565b83810361374957613749828c60008c612519565b5050600101613651565b5060005b818110156137c757600084828151811061377357613773613dcc565b60200260200101519050600073ffffffffffffffffffffffffffffffffffffffff168173ffffffffffffffffffffffffffffffffffffffff16146137be576137be8160008b8b612519565b50600101613757565b50505050505b600181556109d4565b6000816004016040518581528385600483013760206000838360008b5af1925050508015613335573d801561332b57600160005114601f3d11169150613333565b60008080526020839052604081205460a081901c80830361388c57600080805260208690526040902074ffffffffffffffffffffffffffffffffffffffffff7401000000000000000000000000000000000000000073ffffffffffffffffffffffffffffffffffffffff8716011690556138d4565b6000808052602086905260408082207401000000000000000000000000000000000000000085019055828252902073ffffffffffffffffffffffffffffffffffffffff851690555b600101949350505050565b80547ffffffffffffffffffffffffffffffffffffffffffffffffffffffffffffffffe01613939576040517f37ed32e800000000000000000000000000000000000000000000000000000000815260040160405180910390fd5b60029055565b600060208083528351808285015260005b8181101561396c57858101830151858201604001528201613950565b5060006040828601015260407fffffffffffffffffffffffffffffffffffffffffffffffffffffffffffffffe0601f8301168501019250505092915050565b73ffffffffffffffffffffffffffffffffffffffff811681146108be57600080fd5b600080604083850312156139e057600080fd5b82356139eb816139ab565b946020939093013593505050565b600060208284031215613a0b57600080fd5b813561309a816139ab565b600080600060608486031215613a2b57600080fd5b8335613a36816139ab565b92506020840135613a46816139ab565b929592945050506040919091013590565b600060208284031215613a6957600080fd5b5035919050565b60008083601f840112613a8257600080fd5b50813567ffffffffffffffff811115613a9a57600080fd5b602083019150836020828501011115613ab257600080fd5b9250929050565b60008060008060608587031215613acf57600080fd5b8435613ada816139ab565b935060208501359250604085013567ffffffffffffffff811115613afd57600080fd5b613b0987828801613a70565b95989497509550505050565b60008060408385031215613b2857600080fd5b8235613b33816139ab565b91506020830135613b43816139ab565b809150509250929050565b600060208284031215613b6057600080fd5b8135801515811461309a57600080fd5b60008060408385031215613b8357600080fd5b50508035926020909101359150565b60008060008060608587031215613ba857600080fd5b8435935060208501359250604085013567ffffffffffffffff811115613afd57600080fd5b6020808252825182820181905260009190848201906040850190845b81811015613c1b57835173ffffffffffffffffffffffffffffffffffffffff1683529284019291840191600101613be9565b50909695505050505050565b600080600060608486031215613c3c57600080fd5b8335613c47816139ab565b95602085013595506040909401359392505050565b600181811c90821680613c7057607f821691505b602082108103610bf4577f4e487b7100000000000000000000000000000000000000000000000000000000600052602260045260246000fd5b600060208284031215613cbb57600080fd5b5051919050565b7f4e487b7100000000000000000000000000000000000000000000000000000000600052601160045260246000fd5b81810381811115610aa557610aa5613cc2565b8082028115828204841417610aa557610aa5613cc2565b7f4e487b7100000000000000000000000000000000000000000000000000000000600052601260045260246000fd5b600082613d80577f4e487b7100000000000000000000000000000000000000000000000000000000600052601260045260246000fd5b500490565b80820180821115610aa557610aa5613cc2565b7affffffffffffffffffffffffffffffffffffffffffffffffffffff818116838216019080821115610a6157610a61613cc2565b7f4e487b7100000000000000000000000000000000000000000000000000000000600052603260045260246000fd5b7f4e487b7100000000000000000000000000000000000000000000000000000000600052604160045260246000fdfea2646970667358221220ed65332f83fad38522c7543b2b551d9ea085be93f64194c7c672e6ef62b5b4d764736f6c63430008110033",
  "devdoc": {
    "kind": "dev",
    "methods": {
      "allowance(address,address)": {
        "details": "See {IERC20-allowance}."
      },
      "decimals()": {
        "details": "Returns the number of decimals used to get its user representation. For example, if `decimals` equals `2`, a balance of `505` tokens should be displayed to a user as `5.05` (`505 / 10 ** 2`). Tokens usually opt for a value of 18, imitating the relationship between Ether and Wei. This is the value {ERC20} uses, unless this function is overridden; NOTE: This information is only used for _display_ purposes: it in no way affects any of the arithmetic of the contract, including {IERC20-balanceOf} and {IERC20-transfer}."
      },
      "name()": {
        "details": "Returns the name of the token."
      },
      "owner()": {
        "details": "Returns the address of the current owner."
      },
      "renounceOwnership()": {
        "details": "Leaves the contract without owner. It will not be possible to call `onlyOwner` functions anymore. Can only be called by the current owner. NOTE: Renouncing ownership will leave the contract without an owner, thereby removing any functionality that is only available to the owner."
      },
      "symbol()": {
        "details": "Returns the symbol of the token, usually a shorter version of the name."
      },
      "totalSupply()": {
        "details": "See {IERC20-totalSupply}."
      },
      "transferOwnership(address)": {
        "details": "Transfers ownership of the contract to a new account (`newOwner`). Can only be called by the current owner."
      },
      "votingPowerOf(address)": {
        "details": "we assume that voting power is a function of balance that preserves order"
      }
    },
    "version": 1
  },
  "userdoc": {
    "kind": "user",
    "methods": {},
    "version": 1
  },
  "storageLayout": {
    "storage": [
      {
        "astId": 8441,
        "contract": "contracts/St1inch.sol:St1inch",
        "label": "_balances",
        "offset": 0,
        "slot": "0",
        "type": "t_mapping(t_address,t_uint256)"
      },
      {
        "astId": 8447,
        "contract": "contracts/St1inch.sol:St1inch",
        "label": "_allowances",
        "offset": 0,
        "slot": "1",
        "type": "t_mapping(t_address,t_mapping(t_address,t_uint256))"
      },
      {
        "astId": 8449,
        "contract": "contracts/St1inch.sol:St1inch",
        "label": "_totalSupply",
        "offset": 0,
        "slot": "2",
        "type": "t_uint256"
      },
      {
        "astId": 8451,
        "contract": "contracts/St1inch.sol:St1inch",
        "label": "_name",
        "offset": 0,
        "slot": "3",
        "type": "t_string_storage"
      },
      {
        "astId": 8453,
        "contract": "contracts/St1inch.sol:St1inch",
        "label": "_symbol",
        "offset": 0,
        "slot": "4",
        "type": "t_string_storage"
      },
      {
        "astId": 861,
        "contract": "contracts/St1inch.sol:St1inch",
        "label": "_guard",
        "offset": 0,
        "slot": "5",
        "type": "t_struct(Data)1520_storage"
      },
      {
        "astId": 866,
        "contract": "contracts/St1inch.sol:St1inch",
        "label": "_pods",
        "offset": 0,
        "slot": "6",
        "type": "t_mapping(t_address,t_struct(Data)6905_storage)"
      },
      {
        "astId": 8306,
        "contract": "contracts/St1inch.sol:St1inch",
        "label": "_owner",
        "offset": 0,
        "slot": "7",
        "type": "t_address"
      },
      {
        "astId": 12638,
        "contract": "contracts/St1inch.sol:St1inch",
        "label": "depositors",
        "offset": 0,
        "slot": "8",
        "type": "t_mapping(t_address,t_struct(Depositor)12633_storage)"
      },
      {
        "astId": 12640,
        "contract": "contracts/St1inch.sol:St1inch",
        "label": "totalDeposits",
        "offset": 0,
        "slot": "9",
        "type": "t_uint256"
      },
      {
        "astId": 12642,
        "contract": "contracts/St1inch.sol:St1inch",
        "label": "emergencyExit",
        "offset": 0,
        "slot": "10",
        "type": "t_bool"
      },
      {
        "astId": 12644,
        "contract": "contracts/St1inch.sol:St1inch",
        "label": "maxLossRatio",
        "offset": 0,
        "slot": "11",
        "type": "t_uint256"
      },
      {
        "astId": 12646,
        "contract": "contracts/St1inch.sol:St1inch",
        "label": "feeReceiver",
        "offset": 0,
        "slot": "12",
        "type": "t_address"
      }
    ],
    "types": {
      "t_address": {
        "encoding": "inplace",
        "label": "address",
        "numberOfBytes": "20"
      },
      "t_bool": {
        "encoding": "inplace",
        "label": "bool",
        "numberOfBytes": "1"
      },
      "t_mapping(t_address,t_mapping(t_address,t_uint256))": {
        "encoding": "mapping",
        "key": "t_address",
        "label": "mapping(address => mapping(address => uint256))",
        "numberOfBytes": "32",
        "value": "t_mapping(t_address,t_uint256)"
      },
      "t_mapping(t_address,t_struct(Data)6905_storage)": {
        "encoding": "mapping",
        "key": "t_address",
        "label": "mapping(address => struct AddressSet.Data)",
        "numberOfBytes": "32",
        "value": "t_struct(Data)6905_storage"
      },
      "t_mapping(t_address,t_struct(Depositor)12633_storage)": {
        "encoding": "mapping",
        "key": "t_address",
        "label": "mapping(address => struct St1inch.Depositor)",
        "numberOfBytes": "32",
        "value": "t_struct(Depositor)12633_storage"
      },
      "t_mapping(t_address,t_uint256)": {
        "encoding": "mapping",
        "key": "t_address",
        "label": "mapping(address => uint256)",
        "numberOfBytes": "32",
        "value": "t_uint256"
      },
      "t_mapping(t_uint256,t_uint256)": {
        "encoding": "mapping",
        "key": "t_uint256",
        "label": "mapping(uint256 => uint256)",
        "numberOfBytes": "32",
        "value": "t_uint256"
      },
      "t_string_storage": {
        "encoding": "bytes",
        "label": "string",
        "numberOfBytes": "32"
      },
      "t_struct(Data)1520_storage": {
        "encoding": "inplace",
        "label": "struct ReentrancyGuardLib.Data",
        "members": [
          {
            "astId": 1519,
            "contract": "contracts/St1inch.sol:St1inch",
            "label": "_status",
            "offset": 0,
            "slot": "0",
            "type": "t_uint256"
          }
        ],
        "numberOfBytes": "32"
      },
      "t_struct(Data)6523_storage": {
        "encoding": "inplace",
        "label": "struct AddressArray.Data",
        "members": [
          {
            "astId": 6522,
            "contract": "contracts/St1inch.sol:St1inch",
            "label": "_raw",
            "offset": 0,
            "slot": "0",
            "type": "t_mapping(t_uint256,t_uint256)"
          }
        ],
        "numberOfBytes": "32"
      },
      "t_struct(Data)6905_storage": {
        "encoding": "inplace",
        "label": "struct AddressSet.Data",
        "members": [
          {
            "astId": 6900,
            "contract": "contracts/St1inch.sol:St1inch",
            "label": "items",
            "offset": 0,
            "slot": "0",
            "type": "t_struct(Data)6523_storage"
          },
          {
            "astId": 6904,
            "contract": "contracts/St1inch.sol:St1inch",
            "label": "lookup",
            "offset": 0,
            "slot": "1",
            "type": "t_mapping(t_address,t_uint256)"
          }
        ],
        "numberOfBytes": "64"
      },
      "t_struct(Depositor)12633_storage": {
        "encoding": "inplace",
        "label": "struct St1inch.Depositor",
        "members": [
          {
            "astId": 12630,
            "contract": "contracts/St1inch.sol:St1inch",
            "label": "unlockTime",
            "offset": 0,
            "slot": "0",
            "type": "t_uint40"
          },
          {
            "astId": 12632,
            "contract": "contracts/St1inch.sol:St1inch",
            "label": "amount",
            "offset": 5,
            "slot": "0",
            "type": "t_uint216"
          }
        ],
        "numberOfBytes": "32"
      },
      "t_uint216": {
        "encoding": "inplace",
        "label": "uint216",
        "numberOfBytes": "27"
      },
      "t_uint256": {
        "encoding": "inplace",
        "label": "uint256",
        "numberOfBytes": "32"
      },
      "t_uint40": {
        "encoding": "inplace",
        "label": "uint40",
        "numberOfBytes": "5"
      }
    }
  }
}