{
  "address": "0x3f1b5DA783c0303e04867c6dF0533181d4a4a5E1",
  "abi": [
    {
      "inputs": [
        {
          "internalType": "contract IRewardableDelegationPod",
          "name": "delegation_",
          "type": "address"
        }
      ],
      "stateMutability": "nonpayable",
      "type": "constructor"
    },
    {
      "inputs": [],
      "name": "NotRegisteredDelegatee",
      "type": "error"
    },
    {
      "inputs": [],
      "name": "delegation",
      "outputs": [
        {
          "internalType": "contract IRewardableDelegationPod",
          "name": "",
          "type": "address"
        }
      ],
      "stateMutability": "view",
      "type": "function"
    },
    {
      "inputs": [
        {
          "internalType": "address",
          "name": "",
          "type": "address"
        }
      ],
      "name": "getUrl",
      "outputs": [
        {
          "internalType": "string",
          "name": "",
          "type": "string"
        }
      ],
      "stateMutability": "view",
      "type": "function"
    },
    {
      "inputs": [
        {
          "internalType": "string",
          "name": "url",
          "type": "string"
        }
      ],
      "name": "setResolverUrl",
      "outputs": [],
      "stateMutability": "nonpayable",
      "type": "function"
    }
  ],
  "transactionHash": "0x25f409f6b86fadb53a4a5466d60e9dfdcb31f3e7ea144f2d7e842cad34c87eff",
  "args": [
    "0x6b0905BAe84443A7DACEfA910a64DCA811Cbf453"
  ],
  "numDeployments": 1,
  "solcInputHash": "dd84ca0b270bfd2388f56fc3484732b3",
  "bytecode": "0x60a060405234801561001057600080fd5b5060405161067b38038061067b83398101604081905261002f91610040565b6001600160a01b0316608052610070565b60006020828403121561005257600080fd5b81516001600160a01b038116811461006957600080fd5b9392505050565b6080516105ea610091600039600081816060015261011201526105ea6000f3fe608060405234801561001057600080fd5b50600436106100415760003560e01c80639340fbf314610046578063df5cf7231461005b578063e92cde21146100ac575b600080fd5b610059610054366004610285565b6100cc565b005b6100827f000000000000000000000000000000000000000000000000000000000000000081565b60405173ffffffffffffffffffffffffffffffffffffffff90911681526020015b60405180910390f35b6100bf6100ba36600461031c565b6101eb565b6040516100a39190610340565b6040517f0840605a00000000000000000000000000000000000000000000000000000000815233600482015260009073ffffffffffffffffffffffffffffffffffffffff7f00000000000000000000000000000000000000000000000000000000000000001690630840605a906024016020604051808303816000875af115801561015b573d6000803e3d6000fd5b505050506040513d601f19601f8201168201806040525081019061017f91906103ac565b73ffffffffffffffffffffffffffffffffffffffff16036101cc576040517fccd4942000000000000000000000000000000000000000000000000000000000815260040160405180910390fd5b3360009081526020819052604090206101e6828483610499565b505050565b60006020819052908152604090208054610204906103f8565b80601f0160208091040260200160405190810160405280929190818152602001828054610230906103f8565b801561027d5780601f106102525761010080835404028352916020019161027d565b820191906000526020600020905b81548152906001019060200180831161026057829003601f168201915b505050505081565b6000806020838503121561029857600080fd5b823567ffffffffffffffff808211156102b057600080fd5b818501915085601f8301126102c457600080fd5b8135818111156102d357600080fd5b8660208285010111156102e557600080fd5b60209290920196919550909350505050565b73ffffffffffffffffffffffffffffffffffffffff8116811461031957600080fd5b50565b60006020828403121561032e57600080fd5b8135610339816102f7565b9392505050565b600060208083528351808285015260005b8181101561036d57858101830151858201604001528201610351565b5060006040828601015260407fffffffffffffffffffffffffffffffffffffffffffffffffffffffffffffffe0601f8301168501019250505092915050565b6000602082840312156103be57600080fd5b8151610339816102f7565b7f4e487b7100000000000000000000000000000000000000000000000000000000600052604160045260246000fd5b600181811c9082168061040c57607f821691505b602082108103610445577f4e487b7100000000000000000000000000000000000000000000000000000000600052602260045260246000fd5b50919050565b601f8211156101e657600081815260208120601f850160051c810160208610156104725750805b601f850160051c820191505b818110156104915782815560010161047e565b505050505050565b67ffffffffffffffff8311156104b1576104b16103c9565b6104c5836104bf83546103f8565b8361044b565b6000601f84116001811461051757600085156104e15750838201355b7fffffffffffffffffffffffffffffffffffffffffffffffffffffffffffffffff600387901b1c1916600186901b1783556105ad565b6000838152602090207fffffffffffffffffffffffffffffffffffffffffffffffffffffffffffffffe0861690835b828110156105665786850135825560209485019460019092019101610546565b50868210156105a1577fffffffffffffffffffffffffffffffffffffffffffffffffffffffffffffffff60f88860031b161c19848701351681555b505060018560011b0183555b505050505056fea2646970667358221220eed7975c8ae795f44c9f206d5dc00af813cb2aee0cf53bbd6d77cb89c4a56c5f64736f6c63430008110033",
  "devdoc": {
    "kind": "dev",
    "methods": {},
    "version": 1
  },
  "userdoc": {
    "kind": "user",
    "methods": {},
    "version": 1
  },
  "storageLayout": {
    "storage": [
      {
        "astId": 14222,
        "contract": "contracts/helpers/ResolverMetadata.sol:ResolverMetadata",
        "label": "getUrl",
        "offset": 0,
        "slot": "0",
        "type": "t_mapping(t_address,t_string_storage)"
      }
    ],
    "types": {
      "t_address": {
        "encoding": "inplace",
        "label": "address",
        "numberOfBytes": "20"
      },
      "t_mapping(t_address,t_string_storage)": {
        "encoding": "mapping",
        "key": "t_address",
        "label": "mapping(address => string)",
        "numberOfBytes": "32",
        "value": "t_string_storage"
      },
      "t_string_storage": {
        "encoding": "bytes",
        "label": "string",
        "numberOfBytes": "32"
      }
    }
  }
}