{
  "address": "0x6b0905BAe84443A7DACEfA910a64DCA811Cbf453",
  "abi": [
    {
      "inputs": [
        {
          "internalType": "string",
          "name": "name_",
          "type": "string"
        },
        {
          "internalType": "string",
          "name": "symbol_",
          "type": "string"
        },
        {
          "internalType": "contract St1inch",
          "name": "st1inch",
          "type": "address"
        }
      ],
      "stateMutability": "nonpayable",
      "type": "constructor"
    },
    {
      "inputs": [],
      "name": "AccessDenied",
      "type": "error"
    },
    {
      "inputs": [],
      "name": "AlreadyRegistered",
      "type": "error"
    },
    {
      "inputs": [],
      "name": "ApproveDisabled",
      "type": "error"
    },
    {
      "inputs": [],
      "name": "DefaultFarmTokenMismatch",
      "type": "error"
    },
    {
      "inputs": [],
      "name": "NotRegisteredDelegatee",
      "type": "error"
    },
    {
      "inputs": [],
      "name": "TransferDisabled",
      "type": "error"
    },
    {
      "anonymous": false,
      "inputs": [
        {
          "indexed": true,
          "internalType": "address",
          "name": "owner",
          "type": "address"
        },
        {
          "indexed": true,
          "internalType": "address",
          "name": "spender",
          "type": "address"
        },
        {
          "indexed": false,
          "internalType": "uint256",
          "name": "value",
          "type": "uint256"
        }
      ],
      "name": "Approval",
      "type": "event"
    },
    {
      "anonymous": false,
      "inputs": [
        {
          "indexed": false,
          "internalType": "address",
          "name": "defaultFarm",
          "type": "address"
        }
      ],
      "name": "DefaultFarmSet",
      "type": "event"
    },
    {
      "anonymous": false,
      "inputs": [
        {
          "indexed": false,
          "internalType": "address",
          "name": "account",
          "type": "address"
        },
        {
          "indexed": false,
          "internalType": "address",
          "name": "delegatee",
          "type": "address"
        }
      ],
      "name": "Delegated",
      "type": "event"
    },
    {
      "anonymous": false,
      "inputs": [
        {
          "indexed": false,
          "internalType": "address",
          "name": "delegatee",
          "type": "address"
        }
      ],
      "name": "RegisterDelegatee",
      "type": "event"
    },
    {
      "anonymous": false,
      "inputs": [
        {
          "indexed": true,
          "internalType": "address",
          "name": "from",
          "type": "address"
        },
        {
          "indexed": true,
          "internalType": "address",
          "name": "to",
          "type": "address"
        },
        {
          "indexed": false,
          "internalType": "uint256",
          "name": "value",
          "type": "uint256"
        }
      ],
      "name": "Transfer",
      "type": "event"
    },
    {
      "inputs": [
        {
          "internalType": "address",
          "name": "owner",
          "type": "address"
        },
        {
          "internalType": "address",
          "name": "spender",
          "type": "address"
        }
      ],
      "name": "allowance",
      "outputs": [
        {
          "internalType": "uint256",
          "name": "",
          "type": "uint256"
        }
      ],
      "stateMutability": "view",
      "type": "function"
    },
    {
      "inputs": [
        {
          "internalType": "address",
          "name": "",
          "type": "address"
        },
        {
          "internalType": "uint256",
          "name": "",
          "type": "uint256"
        }
      ],
      "name": "approve",
      "outputs": [
        {
          "internalType": "bool",
          "name": "",
          "type": "bool"
        }
      ],
      "stateMutability": "pure",
      "type": "function"
    },
    {
      "inputs": [
        {
          "internalType": "address",
          "name": "account",
          "type": "address"
        }
      ],
      "name": "balanceOf",
      "outputs": [
        {
          "internalType": "uint256",
          "name": "",
          "type": "uint256"
        }
      ],
      "stateMutability": "view",
      "type": "function"
    },
    {
      "inputs": [],
      "name": "decimals",
      "outputs": [
        {
          "internalType": "uint8",
          "name": "",
          "type": "uint8"
        }
      ],
      "stateMutability": "view",
      "type": "function"
    },
    {
      "inputs": [
        {
          "internalType": "address",
          "name": "",
          "type": "address"
        },
        {
          "internalType": "uint256",
          "name": "",
          "type": "uint256"
        }
      ],
      "name": "decreaseAllowance",
      "outputs": [
        {
          "internalType": "bool",
          "name": "",
          "type": "bool"
        }
      ],
      "stateMutability": "pure",
      "type": "function"
    },
    {
      "inputs": [
        {
          "internalType": "address",
          "name": "",
          "type": "address"
        }
      ],
      "name": "defaultFarms",
      "outputs": [
        {
          "internalType": "address",
          "name": "",
          "type": "address"
        }
      ],
      "stateMutability": "view",
      "type": "function"
    },
    {
      "inputs": [
        {
          "internalType": "address",
          "name": "delegatee",
          "type": "address"
        }
      ],
      "name": "delegate",
      "outputs": [],
      "stateMutability": "nonpayable",
      "type": "function"
    },
    {
      "inputs": [
        {
          "internalType": "address",
          "name": "",
          "type": "address"
        }
      ],
      "name": "delegated",
      "outputs": [
        {
          "internalType": "address",
          "name": "",
          "type": "address"
        }
      ],
      "stateMutability": "view",
      "type": "function"
    },
    {
      "inputs": [],
      "name": "expBase",
      "outputs": [
        {
          "internalType": "uint256",
          "name": "",
          "type": "uint256"
        }
      ],
      "stateMutability": "view",
      "type": "function"
    },
    {
      "inputs": [
        {
          "internalType": "address",
          "name": "",
          "type": "address"
        },
        {
          "internalType": "uint256",
          "name": "",
          "type": "uint256"
        }
      ],
      "name": "increaseAllowance",
      "outputs": [
        {
          "internalType": "bool",
          "name": "",
          "type": "bool"
        }
      ],
      "stateMutability": "pure",
      "type": "function"
    },
    {
      "inputs": [],
      "name": "name",
      "outputs": [
        {
          "internalType": "string",
          "name": "",
          "type": "string"
        }
      ],
      "stateMutability": "view",
      "type": "function"
    },
    {
      "inputs": [],
      "name": "origin",
      "outputs": [
        {
          "internalType": "uint256",
          "name": "",
          "type": "uint256"
        }
      ],
      "stateMutability": "view",
      "type": "function"
    },
    {
      "inputs": [
        {
          "internalType": "string",
          "name": "name",
          "type": "string"
        },
        {
          "internalType": "string",
          "name": "symbol",
          "type": "string"
        },
        {
          "internalType": "uint256",
          "name": "maxUserFarms",
          "type": "uint256"
        }
      ],
      "name": "register",
      "outputs": [
        {
          "internalType": "contract IDelegatedShare",
          "name": "shareToken",
          "type": "address"
        }
      ],
      "stateMutability": "nonpayable",
      "type": "function"
    },
    {
      "inputs": [
        {
          "internalType": "address",
          "name": "",
          "type": "address"
        }
      ],
      "name": "registration",
      "outputs": [
        {
          "internalType": "contract IDelegatedShare",
          "name": "",
          "type": "address"
        }
      ],
      "stateMutability": "view",
      "type": "function"
    },
    {
      "inputs": [
        {
          "internalType": "address",
          "name": "farm",
          "type": "address"
        }
      ],
      "name": "setDefaultFarm",
      "outputs": [],
      "stateMutability": "nonpayable",
      "type": "function"
    },
    {
      "inputs": [],
      "name": "symbol",
      "outputs": [
        {
          "internalType": "string",
          "name": "",
          "type": "string"
        }
      ],
      "stateMutability": "view",
      "type": "function"
    },
    {
      "inputs": [],
      "name": "token",
      "outputs": [
        {
          "internalType": "address",
          "name": "",
          "type": "address"
        }
      ],
      "stateMutability": "view",
      "type": "function"
    },
    {
      "inputs": [],
      "name": "totalSupply",
      "outputs": [
        {
          "internalType": "uint256",
          "name": "",
          "type": "uint256"
        }
      ],
      "stateMutability": "view",
      "type": "function"
    },
    {
      "inputs": [
        {
          "internalType": "address",
          "name": "",
          "type": "address"
        },
        {
          "internalType": "uint256",
          "name": "",
          "type": "uint256"
        }
      ],
      "name": "transfer",
      "outputs": [
        {
          "internalType": "bool",
          "name": "",
          "type": "bool"
        }
      ],
      "stateMutability": "pure",
      "type": "function"
    },
    {
      "inputs": [
        {
          "internalType": "address",
          "name": "",
          "type": "address"
        },
        {
          "internalType": "address",
          "name": "",
          "type": "address"
        },
        {
          "internalType": "uint256",
          "name": "",
          "type": "uint256"
        }
      ],
      "name": "transferFrom",
      "outputs": [
        {
          "internalType": "bool",
          "name": "",
          "type": "bool"
        }
      ],
      "stateMutability": "pure",
      "type": "function"
    },
    {
      "inputs": [
        {
          "internalType": "address",
          "name": "from",
          "type": "address"
        },
        {
          "internalType": "address",
          "name": "to",
          "type": "address"
        },
        {
          "internalType": "uint256",
          "name": "amount",
          "type": "uint256"
        }
      ],
      "name": "updateBalances",
      "outputs": [],
      "stateMutability": "nonpayable",
      "type": "function"
    },
    {
      "inputs": [
        {
          "internalType": "address",
          "name": "account",
          "type": "address"
        }
      ],
      "name": "votingPowerOf",
      "outputs": [
        {
          "internalType": "uint256",
          "name": "",
          "type": "uint256"
        }
      ],
      "stateMutability": "view",
      "type": "function"
    }
  ],
  "transactionHash": "0x8ddfc46f961ea51d0527e87b4ba5920fa79ca1f11d71d281ad6daa523b89b83d",
  "args": [
    "Rewardable",
    "RWD",
    "0x977E05968Ea1Fe146AafED3e89D72Bd77fD0ba65"
  ],
  "numDeployments": 1,
  "solcInputHash": "681208ab6c77f596f792c0cef49df803",
  "bytecode": "0x6104a06040523480156200001257600080fd5b50604051620048133803806200481383398101604081905262000035916200069f565b806001600160a01b031663bca9c3fc6040518163ffffffff1660e01b8152600401602060405180830381865afa15801562000074573d6000803e3d6000fd5b505050506040513d601f19601f820116820180604052508101906200009a91906200072c565b816001600160a01b031663938b5f326040518163ffffffff1660e01b8152600401602060405180830381865afa158015620000d9573d6000803e3d6000fd5b505050506040513d601f19601f82011682018060405250810190620000ff91906200072c565b6001600160a01b03831660805284848482828282826003620001228382620007d5565b506004620001318282620007d5565b50505060a087905250505060c085905250505060e0829052670de0b6b3a76400006200015e8380620008a1565b6200016a9190620008cd565b610100819052670de0b6b3a764000090620001869080620008a1565b620001929190620008cd565b610120819052670de0b6b3a764000090620001ae9080620008a1565b620001ba9190620008cd565b610140819052670de0b6b3a764000090620001d69080620008a1565b620001e29190620008cd565b610160819052670de0b6b3a764000090620001fe9080620008a1565b6200020a9190620008cd565b610180819052670de0b6b3a764000090620002269080620008a1565b620002329190620008cd565b6101a0819052670de0b6b3a7640000906200024e9080620008a1565b6200025a9190620008cd565b6101c0819052670de0b6b3a764000090620002769080620008a1565b620002829190620008cd565b6101e0819052670de0b6b3a7640000906200029e9080620008a1565b620002aa9190620008cd565b610200819052670de0b6b3a764000090620002c69080620008a1565b620002d29190620008cd565b610220819052670de0b6b3a764000090620002ee9080620008a1565b620002fa9190620008cd565b610240819052670de0b6b3a764000090620003169080620008a1565b620003229190620008cd565b610260819052670de0b6b3a7640000906200033e9080620008a1565b6200034a9190620008cd565b610280819052670de0b6b3a764000090620003669080620008a1565b620003729190620008cd565b6102a0819052670de0b6b3a7640000906200038e9080620008a1565b6200039a9190620008cd565b6102c0819052670de0b6b3a764000090620003b69080620008a1565b620003c29190620008cd565b6102e0819052670de0b6b3a764000090620003de9080620008a1565b620003ea9190620008cd565b610300819052670de0b6b3a764000090620004069080620008a1565b620004129190620008cd565b610320819052670de0b6b3a7640000906200042e9080620008a1565b6200043a9190620008cd565b610340819052670de0b6b3a764000090620004569080620008a1565b620004629190620008cd565b610360819052670de0b6b3a7640000906200047e9080620008a1565b6200048a9190620008cd565b610380819052670de0b6b3a764000090620004a69080620008a1565b620004b29190620008cd565b6103a0819052670de0b6b3a764000090620004ce9080620008a1565b620004da9190620008cd565b6103c0819052670de0b6b3a764000090620004f69080620008a1565b620005029190620008cd565b6103e0819052670de0b6b3a7640000906200051e9080620008a1565b6200052a9190620008cd565b610400819052670de0b6b3a764000090620005469080620008a1565b620005529190620008cd565b610420819052670de0b6b3a7640000906200056e9080620008a1565b6200057a9190620008cd565b610440819052670de0b6b3a764000090620005969080620008a1565b620005a29190620008cd565b610460819052670de0b6b3a764000090620005be9080620008a1565b620005ca9190620008cd565b6104805250620008f09350505050565b634e487b7160e01b600052604160045260246000fd5b600082601f8301126200060257600080fd5b81516001600160401b03808211156200061f576200061f620005da565b604051601f8301601f19908116603f011681019082821181831017156200064a576200064a620005da565b816040528381526020925086838588010111156200066757600080fd5b600091505b838210156200068b57858201830151818301840152908201906200066c565b600093810190920192909252949350505050565b600080600060608486031215620006b557600080fd5b83516001600160401b0380821115620006cd57600080fd5b620006db87838801620005f0565b94506020860151915080821115620006f257600080fd5b506200070186828701620005f0565b604086015190935090506001600160a01b03811681146200072157600080fd5b809150509250925092565b6000602082840312156200073f57600080fd5b5051919050565b600181811c908216806200075b57607f821691505b6020821081036200077c57634e487b7160e01b600052602260045260246000fd5b50919050565b601f821115620007d057600081815260208120601f850160051c81016020861015620007ab5750805b601f850160051c820191505b81811015620007cc57828155600101620007b7565b5050505b505050565b81516001600160401b03811115620007f157620007f1620005da565b620008098162000802845462000746565b8462000782565b602080601f831160018114620008415760008415620008285750858301515b600019600386901b1c1916600185901b178555620007cc565b600085815260208120601f198616915b82811015620008725788860151825594840194600190910190840162000851565b5085821015620008915787850151600019600388901b60f8161c191681555b5050505050600190811b01905550565b8082028115828204841417620008c757634e487b7160e01b600052601160045260246000fd5b92915050565b600082620008eb57634e487b7160e01b600052601260045260246000fd5b500490565b60805160a05160c05160e05161010051610120516101405161016051610180516101a0516101c0516101e05161020051610220516102405161026051610280516102a0516102c0516102e05161030051610320516103405161036051610380516103a0516103c0516103e0516104005161042051610440516104605161048051613d9562000a7e60003960006115780152600061153b015260006114fe015260006114c101526000611484015260006114470152600061140a015260006113ce01526000611392015260006113560152600061131a015260006112de015260006112a2015260006112660152600061122a015260006111ef015260006111b4015260006111790152600061113e01526000611103015260006110c80152600061108d015260006110520152600061101801526000610fde01526000610fa401526000610f6a01526000610f3001526000610ef601526000610ebc0152600061038b01526000818161030f0152610e86015260008181610463015281816108fb0152610c610152613d956000f3fe60806040523480156200001157600080fd5b5060043610620001a15760003560e01c8063938b5f3211620000e9578063bca9c3fc1162000097578063e8a60558116200006e578063e8a60558146200040d578063f3598ad91462000424578063fc0c546a146200045d57600080fd5b8063bca9c3fc1462000385578063bcc3f3bd14620003ad578063dd62ed3e14620003c457600080fd5b8063a457c2d711620000cc578063a457c2d71462000227578063a9059cbb146200033b578063b04807ec146200034c57600080fd5b8063938b5f32146200030957806395d89b41146200033157600080fd5b8063313ce56711620001535780635c19a95c116200012a5780635c19a95c14620002a257806370a0823114620002b95780637a1f1aa914620002f257600080fd5b8063313ce56714620002795780633950935114620002275780633c3f3c23146200028957600080fd5b8063095ea7b31162000188578063095ea7b3146200022757806318160ddd146200024f57806323b872dd146200026257600080fd5b806306fdde0314620001a65780630840605a14620001c8575b600080fd5b620001b062000485565b604051620001bf919062001bf7565b60405180910390f35b62000201620001d936600462001c39565b60066020526000908152604090205473ffffffffffffffffffffffffffffffffffffffff1681565b60405173ffffffffffffffffffffffffffffffffffffffff9091168152602001620001bf565b6200023e6200023836600462001c59565b6200051f565b6040519015158152602001620001bf565b6002545b604051908152602001620001bf565b6200023e6200027336600462001c88565b62000553565b60405160128152602001620001bf565b620002a06200029a36600462001c39565b62000587565b005b620002a0620002b336600462001c39565b62000782565b62000253620002ca36600462001c39565b73ffffffffffffffffffffffffffffffffffffffff1660009081526020819052604090205490565b620002a06200030336600462001c88565b620008e3565b620002537f000000000000000000000000000000000000000000000000000000000000000081565b620001b062000a01565b6200023e6200027336600462001c59565b620002016200035d36600462001c39565b60076020526000908152604090205473ffffffffffffffffffffffffffffffffffffffff1681565b620002537f000000000000000000000000000000000000000000000000000000000000000081565b62000253620003be36600462001c39565b62000a12565b62000253620003d536600462001cce565b73ffffffffffffffffffffffffffffffffffffffff918216600090815260016020908152604080832093909416825291909152205490565b620002016200041e36600462001dee565b62000a4a565b620002016200043536600462001c39565b60056020526000908152604090205473ffffffffffffffffffffffffffffffffffffffff1681565b620002017f000000000000000000000000000000000000000000000000000000000000000081565b606060038054620004969062001e62565b80601f0160208091040260200160405190810160405280929190818152602001828054620004c49062001e62565b8015620005155780601f10620004e95761010080835404028352916020019162000515565b820191906000526020600020905b815481529060010190602001808311620004f757829003601f168201915b5050505050905090565b60006040517feb60c2c400000000000000000000000000000000000000000000000000000000815260040160405180910390fd5b60006040517fa24e573d00000000000000000000000000000000000000000000000000000000815260040160405180910390fd5b3360009081526006602052604090205473ffffffffffffffffffffffffffffffffffffffff16620005e4576040517fccd4942000000000000000000000000000000000000000000000000000000000815260040160405180910390fd5b73ffffffffffffffffffffffffffffffffffffffff811615801590620006c35750336000908152600660209081526040918290205482517ffc0c546a000000000000000000000000000000000000000000000000000000008152925173ffffffffffffffffffffffffffffffffffffffff918216939185169263fc0c546a92600480820193918290030181865afa15801562000684573d6000803e3d6000fd5b505050506040513d601f19601f82011682018060405250810190620006aa919062001eb7565b73ffffffffffffffffffffffffffffffffffffffff1614155b15620006fb576040517fb599ae3000000000000000000000000000000000000000000000000000000000815260040160405180910390fd5b3360009081526007602090815260409182902080547fffffffffffffffffffffffff00000000000000000000000000000000000000001673ffffffffffffffffffffffffffffffffffffffff851690811790915591519182527fdd367fa3b0132bc9c4680deca3d4565375dda9ed37c98f8321370efe4594785a910160405180910390a150565b73ffffffffffffffffffffffffffffffffffffffff8082166000818152600660205260409020549091169015801590620007d0575073ffffffffffffffffffffffffffffffffffffffff8116155b1562000808576040517fccd4942000000000000000000000000000000000000000000000000000000000815260040160405180910390fd5b620008138262000b70565b73ffffffffffffffffffffffffffffffffffffffff8281166000908152600760205260409020541615620008df5773ffffffffffffffffffffffffffffffffffffffff828116600090815260076020526040908190205490517ff70f6a9a00000000000000000000000000000000000000000000000000000000815233600482015290821660248201529082169063f70f6a9a90604401600060405180830381600087803b158015620008c557600080fd5b505af1158015620008da573d6000803e3d6000fd5b505050505b5050565b3373ffffffffffffffffffffffffffffffffffffffff7f0000000000000000000000000000000000000000000000000000000000000000161462000953576040517f4ca8886700000000000000000000000000000000000000000000000000000000815260040160405180910390fd5b620009fc838373ffffffffffffffffffffffffffffffffffffffff821615620009a45773ffffffffffffffffffffffffffffffffffffffff80871660009081526005602052604090205416620009a7565b60005b73ffffffffffffffffffffffffffffffffffffffff861615620009f25773ffffffffffffffffffffffffffffffffffffffff80871660009081526005602052604090205416620009f5565b60005b8562000cf7565b505050565b606060048054620004969062001e62565b73ffffffffffffffffffffffffffffffffffffffff811660009081526020819052604081205462000a44904262000e83565b92915050565b3360009081526006602052604081205473ffffffffffffffffffffffffffffffffffffffff161562000aa8576040517f3a81d6fc00000000000000000000000000000000000000000000000000000000815260040160405180910390fd5b83838360405162000ab99062001b83565b62000ac79392919062001ed7565b604051809103906000f08015801562000ae4573d6000803e3d6000fd5b503360008181526006602090815260409182902080547fffffffffffffffffffffffff00000000000000000000000000000000000000001673ffffffffffffffffffffffffffffffffffffffff861617905590519182529192507fb2bd819aacce2076359caf6d49d9ac5252134cffdffe026bf4ad781dc3847790910160405180910390a19392505050565b3360009081526005602052604090205473ffffffffffffffffffffffffffffffffffffffff9081169082168114620008df573360008181526005602090815260409182902080547fffffffffffffffffffffffff00000000000000000000000000000000000000001673ffffffffffffffffffffffffffffffffffffffff87169081179091558251938452908301527f4bc154dd35d6a5cb9206482ecb473cdbf2473006d6bce728b9cc0741bcc59ea2910160405180910390a16040517f3466a8860000000000000000000000000000000000000000000000000000000081523060048201523360248201526000907f000000000000000000000000000000000000000000000000000000000000000073ffffffffffffffffffffffffffffffffffffffff1690633466a88690604401602060405180830381865afa15801562000cbe573d6000803e3d6000fd5b505050506040513d601f19601f8201168201806040525081019062000ce4919062001f11565b90508015620009fc57620009fc33338486855b62000d068585858585620015a4565b73ffffffffffffffffffffffffffffffffffffffff83161562000dc15773ffffffffffffffffffffffffffffffffffffffff838116600090815260066020526040908190205490517f9dc29fac000000000000000000000000000000000000000000000000000000008152878316600482015260248101849052911690639dc29fac90604401600060405180830381600087803b15801562000da757600080fd5b505af115801562000dbc573d6000803e3d6000fd5b505050505b73ffffffffffffffffffffffffffffffffffffffff82161562000e7c5773ffffffffffffffffffffffffffffffffffffffff828116600090815260066020526040908190205490517f40c10f190000000000000000000000000000000000000000000000000000000081528683166004820152602481018490529116906340c10f1990604401600060405180830381600087803b15801562000e6257600080fd5b505af115801562000e77573d6000803e3d6000fd5b505050505b5050505050565b817f00000000000000000000000000000000000000000000000000000000000000008203600181161562000ee157670de0b6b3a76400007f000000000000000000000000000000000000000000000000000000000000000083020491505b600281161562000f1b57670de0b6b3a76400007f000000000000000000000000000000000000000000000000000000000000000083020491505b600481161562000f5557670de0b6b3a76400007f000000000000000000000000000000000000000000000000000000000000000083020491505b600881161562000f8f57670de0b6b3a76400007f000000000000000000000000000000000000000000000000000000000000000083020491505b601081161562000fc957670de0b6b3a76400007f000000000000000000000000000000000000000000000000000000000000000083020491505b60208116156200100357670de0b6b3a76400007f000000000000000000000000000000000000000000000000000000000000000083020491505b60408116156200103d57670de0b6b3a76400007f000000000000000000000000000000000000000000000000000000000000000083020491505b60808116156200107757670de0b6b3a76400007f000000000000000000000000000000000000000000000000000000000000000083020491505b610100811615620010b257670de0b6b3a76400007f000000000000000000000000000000000000000000000000000000000000000083020491505b610200811615620010ed57670de0b6b3a76400007f000000000000000000000000000000000000000000000000000000000000000083020491505b6104008116156200112857670de0b6b3a76400007f000000000000000000000000000000000000000000000000000000000000000083020491505b6108008116156200116357670de0b6b3a76400007f000000000000000000000000000000000000000000000000000000000000000083020491505b6110008116156200119e57670de0b6b3a76400007f000000000000000000000000000000000000000000000000000000000000000083020491505b612000811615620011d957670de0b6b3a76400007f000000000000000000000000000000000000000000000000000000000000000083020491505b6140008116156200121457670de0b6b3a76400007f000000000000000000000000000000000000000000000000000000000000000083020491505b6180008116156200124f57670de0b6b3a76400007f000000000000000000000000000000000000000000000000000000000000000083020491505b620100008116156200128b57670de0b6b3a76400007f000000000000000000000000000000000000000000000000000000000000000083020491505b62020000811615620012c757670de0b6b3a76400007f000000000000000000000000000000000000000000000000000000000000000083020491505b620400008116156200130357670de0b6b3a76400007f000000000000000000000000000000000000000000000000000000000000000083020491505b620800008116156200133f57670de0b6b3a76400007f000000000000000000000000000000000000000000000000000000000000000083020491505b621000008116156200137b57670de0b6b3a76400007f000000000000000000000000000000000000000000000000000000000000000083020491505b62200000811615620013b757670de0b6b3a76400007f000000000000000000000000000000000000000000000000000000000000000083020491505b62400000811615620013f357670de0b6b3a76400007f000000000000000000000000000000000000000000000000000000000000000083020491505b628000008116156200142f57670de0b6b3a76400007f000000000000000000000000000000000000000000000000000000000000000083020491505b63010000008116156200146c57670de0b6b3a76400007f000000000000000000000000000000000000000000000000000000000000000083020491505b6302000000811615620014a957670de0b6b3a76400007f000000000000000000000000000000000000000000000000000000000000000083020491505b6304000000811615620014e657670de0b6b3a76400007f000000000000000000000000000000000000000000000000000000000000000083020491505b63080000008116156200152357670de0b6b3a76400007f000000000000000000000000000000000000000000000000000000000000000083020491505b63100000008116156200156057670de0b6b3a76400007f000000000000000000000000000000000000000000000000000000000000000083020491505b63200000008116156200159d57670de0b6b3a76400007f000000000000000000000000000000000000000000000000000000000000000083020491505b5092915050565b8173ffffffffffffffffffffffffffffffffffffffff168373ffffffffffffffffffffffffffffffffffffffff1614158015620015e15750600081115b1562000e7c5773ffffffffffffffffffffffffffffffffffffffff831662001615576200160f82826200164a565b62000e7c565b73ffffffffffffffffffffffffffffffffffffffff82166200163d576200160f838262001745565b62000e7c8383836200190d565b73ffffffffffffffffffffffffffffffffffffffff8216620016cd576040517f08c379a000000000000000000000000000000000000000000000000000000000815260206004820152601f60248201527f45524332303a206d696e7420746f20746865207a65726f20616464726573730060448201526064015b60405180910390fd5b8060026000828254620016e1919062001f2b565b909155505073ffffffffffffffffffffffffffffffffffffffff8216600081815260208181526040808320805486019055518481527fddf252ad1be2c89b69c2b068fc378daa952ba7f163c4a11628f55a4df523b3ef910160405180910390a35050565b73ffffffffffffffffffffffffffffffffffffffff8216620017ea576040517f08c379a000000000000000000000000000000000000000000000000000000000815260206004820152602160248201527f45524332303a206275726e2066726f6d20746865207a65726f2061646472657360448201527f73000000000000000000000000000000000000000000000000000000000000006064820152608401620016c4565b73ffffffffffffffffffffffffffffffffffffffff821660009081526020819052604090205481811015620018a2576040517f08c379a000000000000000000000000000000000000000000000000000000000815260206004820152602260248201527f45524332303a206275726e20616d6f756e7420657863656564732062616c616e60448201527f63650000000000000000000000000000000000000000000000000000000000006064820152608401620016c4565b73ffffffffffffffffffffffffffffffffffffffff83166000818152602081815260408083208686039055600280548790039055518581529192917fddf252ad1be2c89b69c2b068fc378daa952ba7f163c4a11628f55a4df523b3ef910160405180910390a3505050565b73ffffffffffffffffffffffffffffffffffffffff8316620019b2576040517f08c379a000000000000000000000000000000000000000000000000000000000815260206004820152602560248201527f45524332303a207472616e736665722066726f6d20746865207a65726f20616460448201527f64726573730000000000000000000000000000000000000000000000000000006064820152608401620016c4565b73ffffffffffffffffffffffffffffffffffffffff821662001a57576040517f08c379a000000000000000000000000000000000000000000000000000000000815260206004820152602360248201527f45524332303a207472616e7366657220746f20746865207a65726f206164647260448201527f65737300000000000000000000000000000000000000000000000000000000006064820152608401620016c4565b73ffffffffffffffffffffffffffffffffffffffff83166000908152602081905260409020548181101562001b0f576040517f08c379a000000000000000000000000000000000000000000000000000000000815260206004820152602660248201527f45524332303a207472616e7366657220616d6f756e742065786365656473206260448201527f616c616e636500000000000000000000000000000000000000000000000000006064820152608401620016c4565b73ffffffffffffffffffffffffffffffffffffffff848116600081815260208181526040808320878703905593871680835291849020805487019055925185815290927fddf252ad1be2c89b69c2b068fc378daa952ba7f163c4a11628f55a4df523b3ef910160405180910390a350505050565b611df98062001f6783390190565b6000815180845260005b8181101562001bb95760208185018101518683018201520162001b9b565b5060006020828601015260207fffffffffffffffffffffffffffffffffffffffffffffffffffffffffffffffe0601f83011685010191505092915050565b60208152600062001c0c602083018462001b91565b9392505050565b73ffffffffffffffffffffffffffffffffffffffff8116811462001c3657600080fd5b50565b60006020828403121562001c4c57600080fd5b813562001c0c8162001c13565b6000806040838503121562001c6d57600080fd5b823562001c7a8162001c13565b946020939093013593505050565b60008060006060848603121562001c9e57600080fd5b833562001cab8162001c13565b9250602084013562001cbd8162001c13565b929592945050506040919091013590565b6000806040838503121562001ce257600080fd5b823562001cef8162001c13565b9150602083013562001d018162001c13565b809150509250929050565b7f4e487b7100000000000000000000000000000000000000000000000000000000600052604160045260246000fd5b600082601f83011262001d4d57600080fd5b813567ffffffffffffffff8082111562001d6b5762001d6b62001d0c565b604051601f83017fffffffffffffffffffffffffffffffffffffffffffffffffffffffffffffffe0908116603f0116810190828211818310171562001db45762001db462001d0c565b8160405283815286602085880101111562001dce57600080fd5b836020870160208301376000602085830101528094505050505092915050565b60008060006060848603121562001e0457600080fd5b833567ffffffffffffffff8082111562001e1d57600080fd5b62001e2b8783880162001d3b565b9450602086013591508082111562001e4257600080fd5b5062001e518682870162001d3b565b925050604084013590509250925092565b600181811c9082168062001e7757607f821691505b60208210810362001eb1577f4e487b7100000000000000000000000000000000000000000000000000000000600052602260045260246000fd5b50919050565b60006020828403121562001eca57600080fd5b815162001c0c8162001c13565b60608152600062001eec606083018662001b91565b828103602084015262001f00818662001b91565b915050826040830152949350505050565b60006020828403121562001f2457600080fd5b5051919050565b8082018082111562000a44577f4e487b7100000000000000000000000000000000000000000000000000000000600052601160045260246000fdfe60c06040523480156200001157600080fd5b5060405162001df938038062001df98339810160408190526200003491620001b1565b80620186a084846003620000498382620002b3565b506004620000588282620002b3565b505050608082905260a08190526200007d600562000094602090811b6200083b17901c565b506200008b9050336200009a565b5050506200037f565b60019055565b600780546001600160a01b038381166001600160a01b0319831681179093556040519116919082907f8be0079c531659141344cd1fd0a4f28419497f9722a3daafe3b4186f6b6457e090600090a35050565b634e487b7160e01b600052604160045260246000fd5b600082601f8301126200011457600080fd5b81516001600160401b0380821115620001315762000131620000ec565b604051601f8301601f19908116603f011681019082821181831017156200015c576200015c620000ec565b816040528381526020925086838588010111156200017957600080fd5b600091505b838210156200019d57858201830151818301840152908201906200017e565b600093810190920192909252949350505050565b600080600060608486031215620001c757600080fd5b83516001600160401b0380821115620001df57600080fd5b620001ed8783880162000102565b945060208601519150808211156200020457600080fd5b50620002138682870162000102565b925050604084015190509250925092565b600181811c908216806200023957607f821691505b6020821081036200025a57634e487b7160e01b600052602260045260246000fd5b50919050565b601f821115620002ae57600081815260208120601f850160051c81016020861015620002895750805b601f850160051c820191505b81811015620002aa5782815560010162000295565b5050505b505050565b81516001600160401b03811115620002cf57620002cf620000ec565b620002e781620002e0845462000224565b8462000260565b602080601f8311600181146200031f5760008415620003065750858301515b600019600386901b1c1916600185901b178555620002aa565b600085815260208120601f198616915b8281101562000350578886015182559484019460019091019084016200032f565b50858210156200036f5787850151600019600388901b60f8161c191681555b5050505050600190811b01905550565b60805160a051611a46620003b36000396000818161035f01526111090152600081816102be0152610b340152611a466000f3fe608060405234801561001057600080fd5b50600436106101b95760003560e01c8063715018a6116100f9578063a457c2d711610097578063dd62ed3e11610071578063dd62ed3e14610397578063f2fde38b146103dd578063f55f545c146103f0578063f70f6a9a1461041057600080fd5b8063a457c2d7146101dc578063a9059cbb14610381578063ada6f64b1461038f57600080fd5b80638da5cb5b116100d35780638da5cb5b1461032157806395d89b411461033f5780639dc29fac14610347578063a44282dc1461035a57600080fd5b8063715018a6146102f35780637a3e60e9146102fb5780638da031df1461030e57600080fd5b80633466a8861161016657806340f99a941161014057806340f99a941461026e578063538db923146102a657806366b0dede146102b957806370a08231146102e057600080fd5b80633466a8861461024857806339509351146101dc57806340c10f191461025b57600080fd5b8063222d6b4d11610197578063222d6b4d1461021157806323b872dd14610226578063313ce5671461023957600080fd5b806306fdde03146101be578063095ea7b3146101dc57806318160ddd146101ff575b600080fd5b6101c6610423565b6040516101d39190611788565b60405180910390f35b6101ef6101ea36600461181d565b6104b5565b60405190151581526020016101d3565b6002545b6040519081526020016101d3565b61022461021f366004611847565b6104e9565b005b6101ef610234366004611862565b6104f6565b604051601281526020016101d3565b61020361025636600461189e565b61052a565b61022461026936600461181d565b6105b8565b61028161027c36600461181d565b6105ce565b60405173ffffffffffffffffffffffffffffffffffffffff90911681526020016101d3565b6102246102b4366004611847565b610606565b6102037f000000000000000000000000000000000000000000000000000000000000000081565b6102036102ee366004611847565b610610565b610224610685565b610203610309366004611847565b610699565b6101ef61031c36600461189e565b6106c7565b60075473ffffffffffffffffffffffffffffffffffffffff16610281565b6101c6610707565b61022461035536600461181d565b610716565b6102037f000000000000000000000000000000000000000000000000000000000000000081565b6101ef61023436600461181d565b610224610728565b6102036103a536600461189e565b73ffffffffffffffffffffffffffffffffffffffff918216600090815260016020908152604080832093909416825291909152205490565b6102246103eb366004611847565b610731565b6104036103fe366004611847565b6107ea565b6040516101d391906118d1565b61022461041e36600461189e565b61081b565b6060600380546104329061192b565b80601f016020809104026020016040519081016040528092919081815260200182805461045e9061192b565b80156104ab5780601f10610480576101008083540402835291602001916104ab565b820191906000526020600020905b81548152906001019060200180831161048e57829003601f168201915b5050505050905090565b60006040517feb60c2c400000000000000000000000000000000000000000000000000000000815260040160405180910390fd5b6104f33382610841565b50565b60006040517fa24e573d00000000000000000000000000000000000000000000000000000000815260040160405180910390fd5b60006005610539815460021490565b15610570576040517f37ed32e800000000000000000000000000000000000000000000000000000000815260040160405180910390fd5b61057a83856106c7565b156105ac5773ffffffffffffffffffffffffffffffffffffffff831660009081526020819052604090205491506105b1565b600091505b5092915050565b6105c06108cb565b6105ca828261094c565b5050565b73ffffffffffffffffffffffffffffffffffffffff821660009081526006602052604081206105fd9083610a47565b90505b92915050565b6104f33382610a5b565b6000600561061f815460021490565b15610656576040517f37ed32e800000000000000000000000000000000000000000000000000000000815260040160405180910390fd5b73ffffffffffffffffffffffffffffffffffffffff831660009081526020819052604090205491505b50919050565b61068d6108cb565b6106976000610bb5565b565b73ffffffffffffffffffffffffffffffffffffffff8116600090815260066020526040812061060090610c2c565b73ffffffffffffffffffffffffffffffffffffffff82811660009081526006602090815260408083209385168352600190930190529081205415156105fd565b6060600480546104329061192b565b61071e6108cb565b6105ca8282610c43565b61069733610e0e565b6107396108cb565b73ffffffffffffffffffffffffffffffffffffffff81166107e1576040517f08c379a000000000000000000000000000000000000000000000000000000000815260206004820152602660248201527f4f776e61626c653a206e6577206f776e657220697320746865207a65726f206160448201527f646472657373000000000000000000000000000000000000000000000000000060648201526084015b60405180910390fd5b6104f381610bb5565b73ffffffffffffffffffffffffffffffffffffffff8116600090815260066020526040902060609061060090610f1f565b6108236108cb565b61082d82826106c7565b6105ca576105ca8282610a5b565b60019055565b73ffffffffffffffffffffffffffffffffffffffff821660009081526006602052604090206108709082610f8c565b6108a6576040517f826fbca300000000000000000000000000000000000000000000000000000000815260040160405180910390fd5b60006108b183610610565b905080156108c6576108c682846000846110a7565b505050565b60075473ffffffffffffffffffffffffffffffffffffffff163314610697576040517f08c379a000000000000000000000000000000000000000000000000000000000815260206004820181905260248201527f4f776e61626c653a2063616c6c6572206973206e6f7420746865206f776e657260448201526064016107d8565b73ffffffffffffffffffffffffffffffffffffffff82166109c9576040517f08c379a000000000000000000000000000000000000000000000000000000000815260206004820152601f60248201527f45524332303a206d696e7420746f20746865207a65726f20616464726573730060448201526064016107d8565b80600260008282546109db9190611978565b909155505073ffffffffffffffffffffffffffffffffffffffff8216600081815260208181526040808320805486019055518481527fddf252ad1be2c89b69c2b068fc378daa952ba7f163c4a11628f55a4df523b3ef910160405180910390a36105ca60008383611156565b6000818152602083905260408120546105fd565b73ffffffffffffffffffffffffffffffffffffffff8116610aa8576040517f960357e400000000000000000000000000000000000000000000000000000000815260040160405180910390fd5b73ffffffffffffffffffffffffffffffffffffffff82166000908152600660205260409020610ad79082611392565b610b0d576040517fcbdb297300000000000000000000000000000000000000000000000000000000815260040160405180910390fd5b73ffffffffffffffffffffffffffffffffffffffff821660009081526006602052604090207f000000000000000000000000000000000000000000000000000000000000000090610b5d90610c2c565b1115610b95576040517fc87e91a600000000000000000000000000000000000000000000000000000000815260040160405180910390fd5b6000610ba083610610565b905080156108c6576108c682600085846110a7565b6007805473ffffffffffffffffffffffffffffffffffffffff8381167fffffffffffffffffffffffff0000000000000000000000000000000000000000831681179093556040519116919082907f8be0079c531659141344cd1fd0a4f28419497f9722a3daafe3b4186f6b6457e090600090a35050565b60008080526020829052604081205460a01c610600565b73ffffffffffffffffffffffffffffffffffffffff8216610ce6576040517f08c379a000000000000000000000000000000000000000000000000000000000815260206004820152602160248201527f45524332303a206275726e2066726f6d20746865207a65726f2061646472657360448201527f730000000000000000000000000000000000000000000000000000000000000060648201526084016107d8565b73ffffffffffffffffffffffffffffffffffffffff821660009081526020819052604090205481811015610d9c576040517f08c379a000000000000000000000000000000000000000000000000000000000815260206004820152602260248201527f45524332303a206275726e20616d6f756e7420657863656564732062616c616e60448201527f636500000000000000000000000000000000000000000000000000000000000060648201526084016107d8565b73ffffffffffffffffffffffffffffffffffffffff83166000818152602081815260408083208686039055600280548790039055518581529192917fddf252ad1be2c89b69c2b068fc378daa952ba7f163c4a11628f55a4df523b3ef910160405180910390a36108c683600084611156565b73ffffffffffffffffffffffffffffffffffffffff81166000908152600660205260408120610e3c90610f1f565b90506000610e4983610610565b82519091505b8015610f19578115610e8457610e84836001830381518110610e7357610e736119b2565b6020026020010151856000856110a7565b610ef1836001830381518110610e9c57610e9c6119b2565b6020026020010151600660008773ffffffffffffffffffffffffffffffffffffffff1673ffffffffffffffffffffffffffffffffffffffff168152602001908152602001600020610f8c90919063ffffffff16565b507fffffffffffffffffffffffffffffffffffffffffffffffffffffffffffffffff01610e4f565b50505050565b60008080526020829052604090205460609060a081901c67ffffffffffffffff811115610f4e57610f4e6119e1565b604051908082528060200260200182016040528015610f77578160200160208202803683370190505b509150610f85838383611403565b5050919050565b73ffffffffffffffffffffffffffffffffffffffff81166000908152600183016020526040812054808203610fc5576000915050610600565b60008080526020859052604090205460a01c811015611071576000808052602085905260408082205460a01c7fffffffffffffffffffffffffffffffffffffffffffffffffffffffffffffffff0182528120549050611047857fffffffffffffffffffffffffffffffffffffffffffffffffffffffffffffffff8401836114ec565b73ffffffffffffffffffffffffffffffffffffffff16600090815260018501602052604090208190555b61107a8461159e565b505073ffffffffffffffffffffffffffffffffffffffff1660009081526001918201602052604081205590565b604080517f7a1f1aa900000000000000000000000000000000000000000000000000000000808252600482018690526024820185905260448201849052917f1c26714c00000000000000000000000000000000000000000000000000000000917f0000000000000000000000000000000000000000000000000000000000000000918290603f5a02041015611140578260005260046000fd5b60008060648360008c87f1505050505050505050565b600561116181611660565b60008211801561119d57508273ffffffffffffffffffffffffffffffffffffffff168473ffffffffffffffffffffffffffffffffffffffff1614155b156113895773ffffffffffffffffffffffffffffffffffffffff841660009081526006602052604081206111d090610f1f565b73ffffffffffffffffffffffffffffffffffffffff851660009081526006602052604081209192509061120290610f1f565b825181519192509060005b8281101561130f576000858281518110611229576112296119b2565b6020026020010151905060005b838110156112f157858181518110611250576112506119b2565b602002602001015173ffffffffffffffffffffffffffffffffffffffff168273ffffffffffffffffffffffffffffffffffffffff16036112e957611296828c8c8c6110a7565b60008682815181106112aa576112aa6119b2565b602002602001019073ffffffffffffffffffffffffffffffffffffffff16908173ffffffffffffffffffffffffffffffffffffffff16815250506112f1565b600101611236565b83810361130557611305828c60008c6110a7565b505060010161120d565b5060005b8181101561138357600084828151811061132f5761132f6119b2565b60200260200101519050600073ffffffffffffffffffffffffffffffffffffffff168173ffffffffffffffffffffffffffffffffffffffff161461137a5761137a8160008b8b6110a7565b50600101611313565b50505050505b60018155610f19565b73ffffffffffffffffffffffffffffffffffffffff81166000908152600183016020526040812054156113c757506000610600565b6113d183836116c0565b73ffffffffffffffffffffffffffffffffffffffff929092166000908152600193840160205260409020919091555090565b815160609060a083901c90811115611447576040517ff9a99b2500000000000000000000000000000000000000000000000000000000815260040160405180910390fd5b80156114e3578284600081518110611461576114616119b2565b73ffffffffffffffffffffffffffffffffffffffff9092166020928302919091019091015260015b818110156114e15760008181526020879052604090205485518690839081106114b4576114b46119b2565b73ffffffffffffffffffffffffffffffffffffffff90921660209283029190910190910152600101611489565b505b50919392505050565b60008080526020849052604090205460a01c808310611537576040517f4e23d03500000000000000000000000000000000000000000000000000000000815260040160405180910390fd5b8260000361157157600080805260208590526040902060a082901b73ffffffffffffffffffffffffffffffffffffffff8416179055610f19565b600083815260208590526040902073ffffffffffffffffffffffffffffffffffffffff8316905550505050565b6000808052602082905260408120549060a082901c908190036115ed576040517f06a2af9e00000000000000000000000000000000000000000000000000000000815260040160405180910390fd5b7fffffffffffffffffffffffffffffffffffffffffffffffffffffffffffffffff810160009081526020849052604081205560018111156108c65760008080526020849052604090207fffffffffffffffffffffffff000000000000000000000000000000000000000083019055505050565b80547ffffffffffffffffffffffffffffffffffffffffffffffffffffffffffffffffe016116ba576040517f37ed32e800000000000000000000000000000000000000000000000000000000815260040160405180910390fd5b60029055565b60008080526020839052604081205460a081901c80830361173557600080805260208690526040902074ffffffffffffffffffffffffffffffffffffffffff7401000000000000000000000000000000000000000073ffffffffffffffffffffffffffffffffffffffff87160116905561177d565b6000808052602086905260408082207401000000000000000000000000000000000000000085019055828252902073ffffffffffffffffffffffffffffffffffffffff851690555b600101949350505050565b600060208083528351808285015260005b818110156117b557858101830151858201604001528201611799565b5060006040828601015260407fffffffffffffffffffffffffffffffffffffffffffffffffffffffffffffffe0601f8301168501019250505092915050565b803573ffffffffffffffffffffffffffffffffffffffff8116811461181857600080fd5b919050565b6000806040838503121561183057600080fd5b611839836117f4565b946020939093013593505050565b60006020828403121561185957600080fd5b6105fd826117f4565b60008060006060848603121561187757600080fd5b611880846117f4565b925061188e602085016117f4565b9150604084013590509250925092565b600080604083850312156118b157600080fd5b6118ba836117f4565b91506118c8602084016117f4565b90509250929050565b6020808252825182820181905260009190848201906040850190845b8181101561191f57835173ffffffffffffffffffffffffffffffffffffffff16835292840192918401916001016118ed565b50909695505050505050565b600181811c9082168061193f57607f821691505b60208210810361067f577f4e487b7100000000000000000000000000000000000000000000000000000000600052602260045260246000fd5b80820180821115610600577f4e487b7100000000000000000000000000000000000000000000000000000000600052601160045260246000fd5b7f4e487b7100000000000000000000000000000000000000000000000000000000600052603260045260246000fd5b7f4e487b7100000000000000000000000000000000000000000000000000000000600052604160045260246000fdfea26469706673582212202b26910d92e7e5941f6887645e91ecf6722d321d4fcc0021674fa85b280109af64736f6c63430008110033a2646970667358221220b45049567294110be0ad7d86a448f5ebc125ff725ea46c25bfc25d92d75ad5d164736f6c63430008110033",
  "devdoc": {
    "kind": "dev",
    "methods": {
      "allowance(address,address)": {
        "details": "See {IERC20-allowance}."
      },
      "balanceOf(address)": {
        "details": "See {IERC20-balanceOf}."
      },
      "decimals()": {
        "details": "Returns the number of decimals used to get its user representation. For example, if `decimals` equals `2`, a balance of `505` tokens should be displayed to a user as `5.05` (`505 / 10 ** 2`). Tokens usually opt for a value of 18, imitating the relationship between Ether and Wei. This is the value {ERC20} uses, unless this function is overridden; NOTE: This information is only used for _display_ purposes: it in no way affects any of the arithmetic of the contract, including {IERC20-balanceOf} and {IERC20-transfer}."
      },
      "name()": {
        "details": "Returns the name of the token."
      },
      "symbol()": {
        "details": "Returns the symbol of the token, usually a shorter version of the name."
      },
      "totalSupply()": {
        "details": "See {IERC20-totalSupply}."
      },
      "votingPowerOf(address)": {
        "details": "we assume that voting power is a function of balance that preserves order"
      }
    },
    "version": 1
  },
  "userdoc": {
    "kind": "user",
    "methods": {},
    "version": 1
  },
  "storageLayout": {
    "storage": [
      {
        "astId": 2654,
        "contract": "contracts/RewardableDelegationPodWithVotingPower.sol:RewardableDelegationPodWithVotingPower",
        "label": "_balances",
        "offset": 0,
        "slot": "0",
        "type": "t_mapping(t_address,t_uint256)"
      },
      {
        "astId": 2660,
        "contract": "contracts/RewardableDelegationPodWithVotingPower.sol:RewardableDelegationPodWithVotingPower",
        "label": "_allowances",
        "offset": 0,
        "slot": "1",
        "type": "t_mapping(t_address,t_mapping(t_address,t_uint256))"
      },
      {
        "astId": 2662,
        "contract": "contracts/RewardableDelegationPodWithVotingPower.sol:RewardableDelegationPodWithVotingPower",
        "label": "_totalSupply",
        "offset": 0,
        "slot": "2",
        "type": "t_uint256"
      },
      {
        "astId": 2664,
        "contract": "contracts/RewardableDelegationPodWithVotingPower.sol:RewardableDelegationPodWithVotingPower",
        "label": "_name",
        "offset": 0,
        "slot": "3",
        "type": "t_string_storage"
      },
      {
        "astId": 2666,
        "contract": "contracts/RewardableDelegationPodWithVotingPower.sol:RewardableDelegationPodWithVotingPower",
        "label": "_symbol",
        "offset": 0,
        "slot": "4",
        "type": "t_string_storage"
      },
      {
        "astId": 19,
        "contract": "contracts/RewardableDelegationPodWithVotingPower.sol:RewardableDelegationPodWithVotingPower",
        "label": "delegated",
        "offset": 0,
        "slot": "5",
        "type": "t_mapping(t_address,t_address)"
      },
      {
        "astId": 465,
        "contract": "contracts/RewardableDelegationPodWithVotingPower.sol:RewardableDelegationPodWithVotingPower",
        "label": "registration",
        "offset": 0,
        "slot": "6",
        "type": "t_mapping(t_address,t_contract(IDelegatedShare)752)"
      },
      {
        "astId": 469,
        "contract": "contracts/RewardableDelegationPodWithVotingPower.sol:RewardableDelegationPodWithVotingPower",
        "label": "defaultFarms",
        "offset": 0,
        "slot": "7",
        "type": "t_mapping(t_address,t_address)"
      }
    ],
    "types": {
      "t_address": {
        "encoding": "inplace",
        "label": "address",
        "numberOfBytes": "20"
      },
      "t_contract(IDelegatedShare)752": {
        "encoding": "inplace",
        "label": "contract IDelegatedShare",
        "numberOfBytes": "20"
      },
      "t_mapping(t_address,t_address)": {
        "encoding": "mapping",
        "key": "t_address",
        "label": "mapping(address => address)",
        "numberOfBytes": "32",
        "value": "t_address"
      },
      "t_mapping(t_address,t_contract(IDelegatedShare)752)": {
        "encoding": "mapping",
        "key": "t_address",
        "label": "mapping(address => contract IDelegatedShare)",
        "numberOfBytes": "32",
        "value": "t_contract(IDelegatedShare)752"
      },
      "t_mapping(t_address,t_mapping(t_address,t_uint256))": {
        "encoding": "mapping",
        "key": "t_address",
        "label": "mapping(address => mapping(address => uint256))",
        "numberOfBytes": "32",
        "value": "t_mapping(t_address,t_uint256)"
      },
      "t_mapping(t_address,t_uint256)": {
        "encoding": "mapping",
        "key": "t_address",
        "label": "mapping(address => uint256)",
        "numberOfBytes": "32",
        "value": "t_uint256"
      },
      "t_string_storage": {
        "encoding": "bytes",
        "label": "string",
        "numberOfBytes": "32"
      },
      "t_uint256": {
        "encoding": "inplace",
        "label": "uint256",
        "numberOfBytes": "32"
      }
    }
  }
}