{
  "address": "0x977E05968Ea1Fe146AafED3e89D72Bd77fD0ba65",
  "abi": [
    {
      "inputs": [
        {
          "internalType": "contract IERC20",
          "name": "oneInch_",
          "type": "address"
        },
        {
          "internalType": "uint256",
          "name": "expBase_",
          "type": "uint256"
        },
        {
          "internalType": "uint256",
          "name": "podsLimit",
          "type": "uint256"
        }
      ],
      "stateMutability": "nonpayable",
      "type": "constructor"
    },
    {
      "inputs": [],
      "name": "ApproveDisabled",
      "type": "error"
    },
    {
      "inputs": [],
      "name": "DefaultFarmTokenMismatch",
      "type": "error"
    },
    {
      "inputs": [],
      "name": "ExpBaseTooBig",
      "type": "error"
    },
    {
      "inputs": [],
      "name": "ExpBaseTooSmall",
      "type": "error"
    },
    {
      "inputs": [],
      "name": "IndexOutOfBounds",
      "type": "error"
    },
    {
      "inputs": [],
      "name": "InsufficientGas",
      "type": "error"
    },
    {
      "inputs": [],
      "name": "InvalidPodAddress",
      "type": "error"
    },
    {
      "inputs": [],
      "name": "LockTimeLessMinLock",
      "type": "error"
    },
    {
      "inputs": [],
      "name": "LockTimeMoreMaxLock",
      "type": "error"
    },
    {
      "inputs": [],
      "name": "LossIsTooBig",
      "type": "error"
    },
    {
      "inputs": [],
      "name": "MaxLossIsNotMet",
      "type": "error"
    },
    {
      "inputs": [],
      "name": "MaxLossOverflow",
      "type": "error"
    },
    {
      "inputs": [],
      "name": "MinReturnIsNotMet",
      "type": "error"
    },
    {
      "inputs": [],
      "name": "OutputArrayTooSmall",
      "type": "error"
    },
    {
      "inputs": [],
      "name": "PodAlreadyAdded",
      "type": "error"
    },
    {
      "inputs": [],
      "name": "PodNotFound",
      "type": "error"
    },
    {
      "inputs": [],
      "name": "PodsLimitReachedForAccount",
      "type": "error"
    },
    {
      "inputs": [],
      "name": "PopFromEmptyArray",
      "type": "error"
    },
    {
      "inputs": [],
      "name": "ReentrantCall",
      "type": "error"
    },
    {
      "inputs": [],
      "name": "RescueAmountIsTooLarge",
      "type": "error"
    },
    {
      "inputs": [],
      "name": "SafePermitBadLength",
      "type": "error"
    },
    {
      "inputs": [],
      "name": "SafeTransferFailed",
      "type": "error"
    },
    {
      "inputs": [],
      "name": "SafeTransferFromFailed",
      "type": "error"
    },
    {
      "inputs": [],
      "name": "StakeUnlocked",
      "type": "error"
    },
    {
      "inputs": [],
      "name": "TransferDisabled",
      "type": "error"
    },
    {
      "inputs": [],
      "name": "UnlockTimeHasNotCome",
      "type": "error"
    },
    {
      "anonymous": false,
      "inputs": [
        {
          "indexed": true,
          "internalType": "address",
          "name": "owner",
          "type": "address"
        },
        {
          "indexed": true,
          "internalType": "address",
          "name": "spender",
          "type": "address"
        },
        {
          "indexed": false,
          "internalType": "uint256",
          "name": "value",
          "type": "uint256"
        }
      ],
      "name": "Approval",
      "type": "event"
    },
    {
      "anonymous": false,
      "inputs": [
        {
          "indexed": false,
          "internalType": "address",
          "name": "defaultFarm",
          "type": "address"
        }
      ],
      "name": "DefaultFarmSet",
      "type": "event"
    },
    {
      "anonymous": false,
      "inputs": [
        {
          "indexed": false,
          "internalType": "bool",
          "name": "status",
          "type": "bool"
        }
      ],
      "name": "EmergencyExitSet",
      "type": "event"
    },
    {
      "anonymous": false,
      "inputs": [
        {
          "indexed": false,
          "internalType": "address",
          "name": "receiver",
          "type": "address"
        }
      ],
      "name": "FeeReceiverSet",
      "type": "event"
    },
    {
      "anonymous": false,
      "inputs": [
        {
          "indexed": false,
          "internalType": "uint256",
          "name": "ratio",
          "type": "uint256"
        }
      ],
      "name": "MaxLossRatioSet",
      "type": "event"
    },
    {
      "anonymous": false,
      "inputs": [
        {
          "indexed": true,
          "internalType": "address",
          "name": "previousOwner",
          "type": "address"
        },
        {
          "indexed": true,
          "internalType": "address",
          "name": "newOwner",
          "type": "address"
        }
      ],
      "name": "OwnershipTransferred",
      "type": "event"
    },
    {
      "anonymous": false,
      "inputs": [
        {
          "indexed": true,
          "internalType": "address",
          "name": "from",
          "type": "address"
        },
        {
          "indexed": true,
          "internalType": "address",
          "name": "to",
          "type": "address"
        },
        {
          "indexed": false,
          "internalType": "uint256",
          "name": "value",
          "type": "uint256"
        }
      ],
      "name": "Transfer",
      "type": "event"
    },
    {
      "inputs": [],
      "name": "MAX_LOCK_PERIOD",
      "outputs": [
        {
          "internalType": "uint256",
          "name": "",
          "type": "uint256"
        }
      ],
      "stateMutability": "view",
      "type": "function"
    },
    {
      "inputs": [],
      "name": "MIN_LOCK_PERIOD",
      "outputs": [
        {
          "internalType": "uint256",
          "name": "",
          "type": "uint256"
        }
      ],
      "stateMutability": "view",
      "type": "function"
    },
    {
      "inputs": [
        {
          "internalType": "address",
          "name": "pod",
          "type": "address"
        }
      ],
      "name": "addPod",
      "outputs": [],
      "stateMutability": "nonpayable",
      "type": "function"
    },
    {
      "inputs": [
        {
          "internalType": "address",
          "name": "owner",
          "type": "address"
        },
        {
          "internalType": "address",
          "name": "spender",
          "type": "address"
        }
      ],
      "name": "allowance",
      "outputs": [
        {
          "internalType": "uint256",
          "name": "",
          "type": "uint256"
        }
      ],
      "stateMutability": "view",
      "type": "function"
    },
    {
      "inputs": [
        {
          "internalType": "address",
          "name": "",
          "type": "address"
        },
        {
          "internalType": "uint256",
          "name": "",
          "type": "uint256"
        }
      ],
      "name": "approve",
      "outputs": [
        {
          "internalType": "bool",
          "name": "",
          "type": "bool"
        }
      ],
      "stateMutability": "pure",
      "type": "function"
    },
    {
      "inputs": [
        {
          "internalType": "address",
          "name": "account",
          "type": "address"
        }
      ],
      "name": "balanceOf",
      "outputs": [
        {
          "internalType": "uint256",
          "name": "",
          "type": "uint256"
        }
      ],
      "stateMutability": "view",
      "type": "function"
    },
    {
      "inputs": [],
      "name": "decimals",
      "outputs": [
        {
          "internalType": "uint8",
          "name": "",
          "type": "uint8"
        }
      ],
      "stateMutability": "view",
      "type": "function"
    },
    {
      "inputs": [
        {
          "internalType": "address",
          "name": "",
          "type": "address"
        },
        {
          "internalType": "uint256",
          "name": "",
          "type": "uint256"
        }
      ],
      "name": "decreaseAllowance",
      "outputs": [
        {
          "internalType": "bool",
          "name": "",
          "type": "bool"
        }
      ],
      "stateMutability": "pure",
      "type": "function"
    },
    {
      "inputs": [],
      "name": "defaultFarm",
      "outputs": [
        {
          "internalType": "address",
          "name": "",
          "type": "address"
        }
      ],
      "stateMutability": "view",
      "type": "function"
    },
    {
      "inputs": [
        {
          "internalType": "uint256",
          "name": "amount",
          "type": "uint256"
        },
        {
          "internalType": "uint256",
          "name": "duration",
          "type": "uint256"
        }
      ],
      "name": "deposit",
      "outputs": [],
      "stateMutability": "nonpayable",
      "type": "function"
    },
    {
      "inputs": [
        {
          "internalType": "address",
          "name": "account",
          "type": "address"
        },
        {
          "internalType": "uint256",
          "name": "amount",
          "type": "uint256"
        }
      ],
      "name": "depositFor",
      "outputs": [],
      "stateMutability": "nonpayable",
      "type": "function"
    },
    {
      "inputs": [
        {
          "internalType": "address",
          "name": "account",
          "type": "address"
        },
        {
          "internalType": "uint256",
          "name": "amount",
          "type": "uint256"
        },
        {
          "internalType": "bytes",
          "name": "permit",
          "type": "bytes"
        }
      ],
      "name": "depositForWithPermit",
      "outputs": [],
      "stateMutability": "nonpayable",
      "type": "function"
    },
    {
      "inputs": [
        {
          "internalType": "uint256",
          "name": "amount",
          "type": "uint256"
        },
        {
          "internalType": "uint256",
          "name": "duration",
          "type": "uint256"
        },
        {
          "internalType": "bytes",
          "name": "permit",
          "type": "bytes"
        }
      ],
      "name": "depositWithPermit",
      "outputs": [],
      "stateMutability": "nonpayable",
      "type": "function"
    },
    {
      "inputs": [
        {
          "internalType": "address",
          "name": "",
          "type": "address"
        }
      ],
      "name": "depositors",
      "outputs": [
        {
          "internalType": "uint40",
          "name": "unlockTime",
          "type": "uint40"
        },
        {
          "internalType": "uint216",
          "name": "amount",
          "type": "uint216"
        }
      ],
      "stateMutability": "view",
      "type": "function"
    },
    {
      "inputs": [
        {
          "internalType": "uint256",
          "name": "minReturn",
          "type": "uint256"
        },
        {
          "internalType": "uint256",
          "name": "maxLoss",
          "type": "uint256"
        }
      ],
      "name": "earlyWithdraw",
      "outputs": [],
      "stateMutability": "nonpayable",
      "type": "function"
    },
    {
      "inputs": [
        {
          "internalType": "address",
          "name": "account",
          "type": "address"
        }
      ],
      "name": "earlyWithdrawLoss",
      "outputs": [
        {
          "internalType": "uint256",
          "name": "loss",
          "type": "uint256"
        },
        {
          "internalType": "uint256",
          "name": "ret",
          "type": "uint256"
        },
        {
          "internalType": "bool",
          "name": "canWithdraw",
          "type": "bool"
        }
      ],
      "stateMutability": "view",
      "type": "function"
    },
    {
      "inputs": [
        {
          "internalType": "address",
          "name": "to",
          "type": "address"
        },
        {
          "internalType": "uint256",
          "name": "minReturn",
          "type": "uint256"
        },
        {
          "internalType": "uint256",
          "name": "maxLoss",
          "type": "uint256"
        }
      ],
      "name": "earlyWithdrawTo",
      "outputs": [],
      "stateMutability": "nonpayable",
      "type": "function"
    },
    {
      "inputs": [],
      "name": "emergencyExit",
      "outputs": [
        {
          "internalType": "bool",
          "name": "",
          "type": "bool"
        }
      ],
      "stateMutability": "view",
      "type": "function"
    },
    {
      "inputs": [],
      "name": "expBase",
      "outputs": [
        {
          "internalType": "uint256",
          "name": "",
          "type": "uint256"
        }
      ],
      "stateMutability": "view",
      "type": "function"
    },
    {
      "inputs": [],
      "name": "feeReceiver",
      "outputs": [
        {
          "internalType": "address",
          "name": "",
          "type": "address"
        }
      ],
      "stateMutability": "view",
      "type": "function"
    },
    {
      "inputs": [
        {
          "internalType": "address",
          "name": "account",
          "type": "address"
        },
        {
          "internalType": "address",
          "name": "pod",
          "type": "address"
        }
      ],
      "name": "hasPod",
      "outputs": [
        {
          "internalType": "bool",
          "name": "",
          "type": "bool"
        }
      ],
      "stateMutability": "view",
      "type": "function"
    },
    {
      "inputs": [
        {
          "internalType": "address",
          "name": "",
          "type": "address"
        },
        {
          "internalType": "uint256",
          "name": "",
          "type": "uint256"
        }
      ],
      "name": "increaseAllowance",
      "outputs": [
        {
          "internalType": "bool",
          "name": "",
          "type": "bool"
        }
      ],
      "stateMutability": "pure",
      "type": "function"
    },
    {
      "inputs": [],
      "name": "maxLossRatio",
      "outputs": [
        {
          "internalType": "uint256",
          "name": "",
          "type": "uint256"
        }
      ],
      "stateMutability": "view",
      "type": "function"
    },
    {
      "inputs": [],
      "name": "name",
      "outputs": [
        {
          "internalType": "string",
          "name": "",
          "type": "string"
        }
      ],
      "stateMutability": "view",
      "type": "function"
    },
    {
      "inputs": [],
      "name": "oneInch",
      "outputs": [
        {
          "internalType": "contract IERC20",
          "name": "",
          "type": "address"
        }
      ],
      "stateMutability": "view",
      "type": "function"
    },
    {
      "inputs": [],
      "name": "origin",
      "outputs": [
        {
          "internalType": "uint256",
          "name": "",
          "type": "uint256"
        }
      ],
      "stateMutability": "view",
      "type": "function"
    },
    {
      "inputs": [],
      "name": "owner",
      "outputs": [
        {
          "internalType": "address",
          "name": "",
          "type": "address"
        }
      ],
      "stateMutability": "view",
      "type": "function"
    },
    {
      "inputs": [
        {
          "internalType": "address",
          "name": "account",
          "type": "address"
        },
        {
          "internalType": "uint256",
          "name": "index",
          "type": "uint256"
        }
      ],
      "name": "podAt",
      "outputs": [
        {
          "internalType": "address",
          "name": "",
          "type": "address"
        }
      ],
      "stateMutability": "view",
      "type": "function"
    },
    {
      "inputs": [
        {
          "internalType": "address",
          "name": "pod",
          "type": "address"
        },
        {
          "internalType": "address",
          "name": "account",
          "type": "address"
        }
      ],
      "name": "podBalanceOf",
      "outputs": [
        {
          "internalType": "uint256",
          "name": "",
          "type": "uint256"
        }
      ],
      "stateMutability": "view",
      "type": "function"
    },
    {
      "inputs": [],
      "name": "podCallGasLimit",
      "outputs": [
        {
          "internalType": "uint256",
          "name": "",
          "type": "uint256"
        }
      ],
      "stateMutability": "view",
      "type": "function"
    },
    {
      "inputs": [
        {
          "internalType": "address",
          "name": "account",
          "type": "address"
        }
      ],
      "name": "pods",
      "outputs": [
        {
          "internalType": "address[]",
          "name": "",
          "type": "address[]"
        }
      ],
      "stateMutability": "view",
      "type": "function"
    },
    {
      "inputs": [
        {
          "internalType": "address",
          "name": "account",
          "type": "address"
        }
      ],
      "name": "podsCount",
      "outputs": [
        {
          "internalType": "uint256",
          "name": "",
          "type": "uint256"
        }
      ],
      "stateMutability": "view",
      "type": "function"
    },
    {
      "inputs": [],
      "name": "podsLimit",
      "outputs": [
        {
          "internalType": "uint256",
          "name": "",
          "type": "uint256"
        }
      ],
      "stateMutability": "view",
      "type": "function"
    },
    {
      "inputs": [],
      "name": "removeAllPods",
      "outputs": [],
      "stateMutability": "nonpayable",
      "type": "function"
    },
    {
      "inputs": [
        {
          "internalType": "address",
          "name": "pod",
          "type": "address"
        }
      ],
      "name": "removePod",
      "outputs": [],
      "stateMutability": "nonpayable",
      "type": "function"
    },
    {
      "inputs": [],
      "name": "renounceOwnership",
      "outputs": [],
      "stateMutability": "nonpayable",
      "type": "function"
    },
    {
      "inputs": [
        {
          "internalType": "contract IERC20",
          "name": "token",
          "type": "address"
        },
        {
          "internalType": "uint256",
          "name": "amount",
          "type": "uint256"
        }
      ],
      "name": "rescueFunds",
      "outputs": [],
      "stateMutability": "nonpayable",
      "type": "function"
    },
    {
      "inputs": [
        {
          "internalType": "address",
          "name": "defaultFarm_",
          "type": "address"
        }
      ],
      "name": "setDefaultFarm",
      "outputs": [],
      "stateMutability": "nonpayable",
      "type": "function"
    },
    {
      "inputs": [
        {
          "internalType": "bool",
          "name": "_emergencyExit",
          "type": "bool"
        }
      ],
      "name": "setEmergencyExit",
      "outputs": [],
      "stateMutability": "nonpayable",
      "type": "function"
    },
    {
      "inputs": [
        {
          "internalType": "address",
          "name": "feeReceiver_",
          "type": "address"
        }
      ],
      "name": "setFeeReceiver",
      "outputs": [],
      "stateMutability": "nonpayable",
      "type": "function"
    },
    {
      "inputs": [
        {
          "internalType": "uint256",
          "name": "maxLossRatio_",
          "type": "uint256"
        }
      ],
      "name": "setMaxLossRatio",
      "outputs": [],
      "stateMutability": "nonpayable",
      "type": "function"
    },
    {
      "inputs": [],
      "name": "symbol",
      "outputs": [
        {
          "internalType": "string",
          "name": "",
          "type": "string"
        }
      ],
      "stateMutability": "view",
      "type": "function"
    },
    {
      "inputs": [],
      "name": "totalDeposits",
      "outputs": [
        {
          "internalType": "uint256",
          "name": "",
          "type": "uint256"
        }
      ],
      "stateMutability": "view",
      "type": "function"
    },
    {
      "inputs": [],
      "name": "totalSupply",
      "outputs": [
        {
          "internalType": "uint256",
          "name": "",
          "type": "uint256"
        }
      ],
      "stateMutability": "view",
      "type": "function"
    },
    {
      "inputs": [
        {
          "internalType": "address",
          "name": "",
          "type": "address"
        },
        {
          "internalType": "uint256",
          "name": "",
          "type": "uint256"
        }
      ],
      "name": "transfer",
      "outputs": [
        {
          "internalType": "bool",
          "name": "",
          "type": "bool"
        }
      ],
      "stateMutability": "pure",
      "type": "function"
    },
    {
      "inputs": [
        {
          "internalType": "address",
          "name": "",
          "type": "address"
        },
        {
          "internalType": "address",
          "name": "",
          "type": "address"
        },
        {
          "internalType": "uint256",
          "name": "",
          "type": "uint256"
        }
      ],
      "name": "transferFrom",
      "outputs": [
        {
          "internalType": "bool",
          "name": "",
          "type": "bool"
        }
      ],
      "stateMutability": "pure",
      "type": "function"
    },
    {
      "inputs": [
        {
          "internalType": "address",
          "name": "newOwner",
          "type": "address"
        }
      ],
      "name": "transferOwnership",
      "outputs": [],
      "stateMutability": "nonpayable",
      "type": "function"
    },
    {
      "inputs": [
        {
          "internalType": "uint256",
          "name": "balance",
          "type": "uint256"
        }
      ],
      "name": "votingPower",
      "outputs": [
        {
          "internalType": "uint256",
          "name": "",
          "type": "uint256"
        }
      ],
      "stateMutability": "view",
      "type": "function"
    },
    {
      "inputs": [
        {
          "internalType": "uint256",
          "name": "balance",
          "type": "uint256"
        },
        {
          "internalType": "uint256",
          "name": "timestamp",
          "type": "uint256"
        }
      ],
      "name": "votingPowerAt",
      "outputs": [
        {
          "internalType": "uint256",
          "name": "",
          "type": "uint256"
        }
      ],
      "stateMutability": "view",
      "type": "function"
    },
    {
      "inputs": [
        {
          "internalType": "address",
          "name": "account",
          "type": "address"
        }
      ],
      "name": "votingPowerOf",
      "outputs": [
        {
          "internalType": "uint256",
          "name": "",
          "type": "uint256"
        }
      ],
      "stateMutability": "view",
      "type": "function"
    },
    {
      "inputs": [
        {
          "internalType": "address",
          "name": "account",
          "type": "address"
        },
        {
          "internalType": "uint256",
          "name": "timestamp",
          "type": "uint256"
        }
      ],
      "name": "votingPowerOfAt",
      "outputs": [
        {
          "internalType": "uint256",
          "name": "",
          "type": "uint256"
        }
      ],
      "stateMutability": "view",
      "type": "function"
    },
    {
      "inputs": [],
      "name": "withdraw",
      "outputs": [],
      "stateMutability": "nonpayable",
      "type": "function"
    },
    {
      "inputs": [
        {
          "internalType": "address",
          "name": "to",
          "type": "address"
        }
      ],
      "name": "withdrawTo",
      "outputs": [],
      "stateMutability": "nonpayable",
      "type": "function"
    }
  ],
  "transactionHash": "0x41b2c8d112297c2cbae69b2b76d011e3cbc1f9ade0611140cc68a3201d96437d",
  "args": [
    "0x444D750777671c547B09c84823d9A53ea29f4F17",
    "999999952502977513",
    "5"
  ],
  "numDeployments": 1,
  "solcInputHash": "681208ab6c77f596f792c0cef49df803",
  "bytecode": "0x6104e06040523480156200001257600080fd5b506040516200521738038062005217833981016040819052620000359162000c04565b81428262030d406040518060400160405280600d81526020016c0a6e8c2d6d2dcce4062929c869609b1b815250604051806040016040528060078152602001660e6e862929c86960cb1b815250816003908162000093919062000cee565b506004620000a2828262000cee565b505050608082905260a0819052620000c760056200062d602090811b620015a617901c565b50620000d590503362000633565b60c081905260e0829052610100829052670de0b6b3a7640000620000fa838062000dd0565b62000106919062000e00565b610120819052670de0b6b3a76400009062000122908062000dd0565b6200012e919062000e00565b610140819052670de0b6b3a7640000906200014a908062000dd0565b62000156919062000e00565b610160819052670de0b6b3a76400009062000172908062000dd0565b6200017e919062000e00565b610180819052670de0b6b3a7640000906200019a908062000dd0565b620001a6919062000e00565b6101a0819052670de0b6b3a764000090620001c2908062000dd0565b620001ce919062000e00565b6101c0819052670de0b6b3a764000090620001ea908062000dd0565b620001f6919062000e00565b6101e0819052670de0b6b3a76400009062000212908062000dd0565b6200021e919062000e00565b610200819052670de0b6b3a7640000906200023a908062000dd0565b62000246919062000e00565b610220819052670de0b6b3a76400009062000262908062000dd0565b6200026e919062000e00565b610240819052670de0b6b3a7640000906200028a908062000dd0565b62000296919062000e00565b610260819052670de0b6b3a764000090620002b2908062000dd0565b620002be919062000e00565b610280819052670de0b6b3a764000090620002da908062000dd0565b620002e6919062000e00565b6102a0819052670de0b6b3a76400009062000302908062000dd0565b6200030e919062000e00565b6102c0819052670de0b6b3a7640000906200032a908062000dd0565b62000336919062000e00565b6102e0819052670de0b6b3a76400009062000352908062000dd0565b6200035e919062000e00565b610300819052670de0b6b3a7640000906200037a908062000dd0565b62000386919062000e00565b610320819052670de0b6b3a764000090620003a2908062000dd0565b620003ae919062000e00565b610340819052670de0b6b3a764000090620003ca908062000dd0565b620003d6919062000e00565b610360819052670de0b6b3a764000090620003f2908062000dd0565b620003fe919062000e00565b610380819052670de0b6b3a7640000906200041a908062000dd0565b62000426919062000e00565b6103a0819052670de0b6b3a76400009062000442908062000dd0565b6200044e919062000e00565b6103c0819052670de0b6b3a7640000906200046a908062000dd0565b62000476919062000e00565b6103e0819052670de0b6b3a76400009062000492908062000dd0565b6200049e919062000e00565b610400819052670de0b6b3a764000090620004ba908062000dd0565b620004c6919062000e00565b610420819052670de0b6b3a764000090620004e2908062000dd0565b620004ee919062000e00565b610440819052670de0b6b3a7640000906200050a908062000dd0565b62000516919062000e00565b610460819052670de0b6b3a76400009062000532908062000dd0565b6200053e919062000e00565b610480819052670de0b6b3a7640000906200055a908062000dd0565b62000566919062000e00565b6104a05250670de0b6b3a76400009050601462000593826200058d6303c267004262000e23565b62000685565b6200059f919062000dd0565b1015620005bf5760405163296c644f60e11b815260040160405180910390fd5b670de0b6b3a76400006014620005ec82620005df6303c267004262000e23565b6200058d90600162000e23565b620005f8919062000dd0565b11156200061857604051631f92e21f60e31b815260040160405180910390fd5b50506001600160a01b03166104c05262000e39565b60019055565b600780546001600160a01b038381166001600160a01b0319831681179093556040519116919082907f8be0079c531659141344cd1fd0a4f28419497f9722a3daafe3b4186f6b6457e090600090a35050565b60c051829082036001811615620006b957670de0b6b3a764000061010051830281620006b557620006b562000dea565b0491505b6002811615620006e657670de0b6b3a764000061012051830281620006e257620006e262000dea565b0491505b60048116156200071357670de0b6b3a7640000610140518302816200070f576200070f62000dea565b0491505b60088116156200074057670de0b6b3a7640000610160518302816200073c576200073c62000dea565b0491505b60108116156200076d57670de0b6b3a76400006101805183028162000769576200076962000dea565b0491505b60208116156200079a57670de0b6b3a76400006101a05183028162000796576200079662000dea565b0491505b6040811615620007c757670de0b6b3a76400006101c051830281620007c357620007c362000dea565b0491505b6080811615620007f457670de0b6b3a76400006101e051830281620007f057620007f062000dea565b0491505b6101008116156200082257670de0b6b3a7640000610200518302816200081e576200081e62000dea565b0491505b6102008116156200085057670de0b6b3a7640000610220518302816200084c576200084c62000dea565b0491505b6104008116156200087e57670de0b6b3a7640000610240518302816200087a576200087a62000dea565b0491505b610800811615620008ac57670de0b6b3a764000061026051830281620008a857620008a862000dea565b0491505b611000811615620008da57670de0b6b3a764000061028051830281620008d657620008d662000dea565b0491505b6120008116156200090857670de0b6b3a76400006102a05183028162000904576200090462000dea565b0491505b6140008116156200093657670de0b6b3a76400006102c05183028162000932576200093262000dea565b0491505b6180008116156200096457670de0b6b3a76400006102e05183028162000960576200096062000dea565b0491505b620100008116156200099357670de0b6b3a7640000610300518302816200098f576200098f62000dea565b0491505b62020000811615620009c257670de0b6b3a764000061032051830281620009be57620009be62000dea565b0491505b62040000811615620009f157670de0b6b3a764000061034051830281620009ed57620009ed62000dea565b0491505b6208000081161562000a2057670de0b6b3a76400006103605183028162000a1c5762000a1c62000dea565b0491505b6210000081161562000a4f57670de0b6b3a76400006103805183028162000a4b5762000a4b62000dea565b0491505b6220000081161562000a7e57670de0b6b3a76400006103a05183028162000a7a5762000a7a62000dea565b0491505b6240000081161562000aad57670de0b6b3a76400006103c05183028162000aa95762000aa962000dea565b0491505b6280000081161562000adc57670de0b6b3a76400006103e05183028162000ad85762000ad862000dea565b0491505b630100000081161562000b0c57670de0b6b3a76400006104005183028162000b085762000b0862000dea565b0491505b630200000081161562000b3c57670de0b6b3a76400006104205183028162000b385762000b3862000dea565b0491505b630400000081161562000b6c57670de0b6b3a76400006104405183028162000b685762000b6862000dea565b0491505b630800000081161562000b9c57670de0b6b3a76400006104605183028162000b985762000b9862000dea565b0491505b631000000081161562000bcc57670de0b6b3a76400006104805183028162000bc85762000bc862000dea565b0491505b632000000081161562000bfc57670de0b6b3a76400006104a05183028162000bf85762000bf862000dea565b0491505b505b92915050565b60008060006060848603121562000c1a57600080fd5b83516001600160a01b038116811462000c3257600080fd5b602085015160409095015190969495509392505050565b634e487b7160e01b600052604160045260246000fd5b600181811c9082168062000c7457607f821691505b60208210810362000c9557634e487b7160e01b600052602260045260246000fd5b50919050565b601f82111562000ce957600081815260208120601f850160051c8101602086101562000cc45750805b601f850160051c820191505b8181101562000ce55782815560010162000cd0565b5050505b505050565b81516001600160401b0381111562000d0a5762000d0a62000c49565b62000d228162000d1b845462000c5f565b8462000c9b565b602080601f83116001811462000d5a576000841562000d415750858301515b600019600386901b1c1916600185901b17855562000ce5565b600085815260208120601f198616915b8281101562000d8b5788860151825594840194600190910190840162000d6a565b508582101562000daa5787850151600019600388901b60f8161c191681555b5050505050600190811b01905550565b634e487b7160e01b600052601160045260246000fd5b808202811582820484141762000bfe5762000bfe62000dba565b634e487b7160e01b600052601260045260246000fd5b60008262000e1e57634e487b7160e01b600052601260045260246000fd5b500490565b8082018082111562000bfe5762000bfe62000dba565b60805160a05160c05160e05161010051610120516101405161016051610180516101a0516101c0516101e05161020051610220516102405161026051610280516102a0516102c0516102e05161030051610320516103405161036051610380516103a0516103c0516103e05161040051610420516104405161046051610480516104a0516104c051614129620010ee6000396000818161036101528181610a1001528181610f0a01528181610f7101528181610ff3015281816111760152818161152d0152818161157201526118e201526000818161238701526130c201526000818161234b015261307901526000818161230f01526130300152600081816122d30152612fe70152600081816122970152612f9e01526000818161225b0152612f5501526000818161221f0152612f0c0152600081816121e40152612ec40152600081816121a90152612e7c01526000818161216e0152612e340152600081816121330152612dec0152600081816120f80152612da40152600081816120bd0152612d5c0152600081816120820152612d140152600081816120470152612ccc01526000818161200d0152612c85015260008181611fd30152612c3e015260008181611f990152612bf7015260008181611f5f0152612bb0015260008181611f250152612b69015260008181611eeb0152612b22015260008181611eb10152612adb015260008181611e770152612a94015260008181611e3e0152612a4e015260008181611e050152612a08015260008181611dcc01526129c2015260008181611d93015261297c015260008181611d5a0152612936015260008181611d2101526128f0015260008181611ce801526128aa015260006106d001526000818161064401528181611cb3015261287e015260008181610673015261281801526000818161053a0152611acb01526141296000f3fe608060405234801561001057600080fd5b50600436106103575760003560e01c806372c4a927116101c8578063a9059cbb11610104578063eed75f6d116100a2578063f55401621161007c578063f55401621461080c578063f55f545c14610817578063f9a92d8214610837578063fe8f8a001461084a57600080fd5b8063eed75f6d1461075e578063efdcd974146107e6578063f2fde38b146107f957600080fd5b8063bca9c3fc116100de578063bca9c3fc146106cb578063bcc3f3bd146106f2578063dd62ed3e14610705578063e2bbb1581461074b57600080fd5b8063a9059cbb14610695578063ada6f64b146106a3578063b3f00674146106ab57600080fd5b80638da031df11610171578063938b5f321161014b578063938b5f321461063f57806395d89b4114610666578063a44282dc1461066e578063a457c2d7146103e257600080fd5b80638da031df146105fb5780638da5cb5b1461060e57806391cc59611461062c57600080fd5b80637aebdce6116101a25780637aebdce6146105cc5780637d882097146105df578063893c37f2146105e857600080fd5b806372c4a9271461059357806378e3214f146105a65780637a3e60e9146105b957600080fd5b80633950935111610297578063538db923116102405780636ee93d5b1161021a5780636ee93d5b1461055c57806370a0823114610565578063715018a61461057857806372b0d90c1461058057600080fd5b8063538db923146105155780635641ec031461052857806366b0dede1461053557600080fd5b806340f99a941161027157806340f99a94146104bf578063457b3d02146104d257806345ee07551461050257600080fd5b806339509351146103e25780633c3f3c23146104a45780633ccfd60b146104b757600080fd5b806323b872dd11610304578063313ce567116102de578063313ce5671461046557806332d323a5146104745780633466a88614610487578063385dc3df1461049a57600080fd5b806323b872dd1461042c5780632bf3c4421461043f5780632f4f21e21461045257600080fd5b8063095ea7b311610335578063095ea7b3146103e257806318160ddd14610405578063222d6b4d1461041757600080fd5b8063045c08d51461035c57806306fdde03146103ad57806307d6686a146103c2575b600080fd5b6103837f000000000000000000000000000000000000000000000000000000000000000081565b60405173ffffffffffffffffffffffffffffffffffffffff90911681526020015b60405180910390f35b6103b561085d565b6040516103a49190613beb565b600d546103839073ffffffffffffffffffffffffffffffffffffffff1681565b6103f56103f0366004613c79565b6108ef565b60405190151581526020016103a4565b6002545b6040519081526020016103a4565b61042a610425366004613ca5565b610923565b005b6103f561043a366004613cc2565b610930565b61042a61044d366004613d03565b610964565b61042a610460366004613c79565b6109e6565b604051601281526020016103a4565b61042a610482366004613d65565b6109f6565b610409610495366004613dc1565b610a49565b61040962278d0081565b61042a6104b2366004613ca5565b610ad7565b61042a610c48565b6103836104cd366004613c79565b610c53565b6104e56104e0366004613ca5565b610c8b565b6040805193845260208401929092521515908201526060016103a4565b61042a610510366004613dfa565b610d1c565b61042a610523366004613ca5565b610d83565b600a546103f59060ff1681565b6104097f000000000000000000000000000000000000000000000000000000000000000081565b610409600b5481565b610409610573366004613ca5565b610d8d565b61042a610e02565b61042a61058e366004613ca5565b610e14565b6104096105a1366004613d03565b610f36565b61042a6105b4366004613c79565b610f42565b6104096105c7366004613ca5565b6110d7565b61042a6105da366004613e1c565b611105565b61040960095481565b6104096105f6366004613e1c565b611110565b6103f5610609366004613dc1565b61111c565b60075473ffffffffffffffffffffffffffffffffffffffff16610383565b61042a61063a366004613e3e565b61115c565b6104097f000000000000000000000000000000000000000000000000000000000000000081565b6103b56111a8565b6104097f000000000000000000000000000000000000000000000000000000000000000081565b6103f561043a366004613c79565b61042a6111b7565b600c546103839073ffffffffffffffffffffffffffffffffffffffff1681565b6104097f000000000000000000000000000000000000000000000000000000000000000081565b610409610700366004613ca5565b6111c0565b610409610713366004613dc1565b73ffffffffffffffffffffffffffffffffffffffff918216600090815260016020908152604080832093909416825291909152205490565b61042a610759366004613e1c565b6111d4565b6107ad61076c366004613ca5565b60086020526000908152604090205464ffffffffff8116906501000000000090047affffffffffffffffffffffffffffffffffffffffffffffffffffff1682565b6040805164ffffffffff90931683527affffffffffffffffffffffffffffffffffffffffffffffffffffff9091166020830152016103a4565b61042a6107f4366004613ca5565b6111df565b61042a610807366004613ca5565b61125a565b6104096303c2670081565b61082a610825366004613ca5565b611313565b6040516103a49190613e79565b610409610845366004613c79565b611344565b61042a610858366004613ed3565b611358565b60606003805461086c90613f08565b80601f016020809104026020016040519081016040528092919081815260200182805461089890613f08565b80156108e55780601f106108ba576101008083540402835291602001916108e5565b820191906000526020600020905b8154815290600101906020018083116108c857829003601f168201915b5050505050905090565b60006040517feb60c2c400000000000000000000000000000000000000000000000000000000815260040160405180910390fd5b61092d33826115ac565b50565b60006040517fa24e573d00000000000000000000000000000000000000000000000000000000815260040160405180910390fd5b61096c611631565b633b9aca008111156109aa576040517f127187c400000000000000000000000000000000000000000000000000000000815260040160405180910390fd5b600b8190556040518181527fb7ef30419c4279919b88c08358f54054ad06e4887402f596cade1f36366b3dc0906020015b60405180910390a150565b6109f2828260006116b2565b5050565b610a3773ffffffffffffffffffffffffffffffffffffffff7f0000000000000000000000000000000000000000000000000000000000000000168383611984565b610a43848460006116b2565b50505050565b60006005610a58815460021490565b15610a8f576040517f37ed32e800000000000000000000000000000000000000000000000000000000815260040160405180910390fd5b610a99838561111c565b15610acb5773ffffffffffffffffffffffffffffffffffffffff83166000908152602081905260409020549150610ad0565b600091505b5092915050565b610adf611631565b73ffffffffffffffffffffffffffffffffffffffff811615801590610b9e57503073ffffffffffffffffffffffffffffffffffffffff168173ffffffffffffffffffffffffffffffffffffffff1663fc0c546a6040518163ffffffff1660e01b8152600401602060405180830381865afa158015610b61573d6000803e3d6000fd5b505050506040513d601f19601f82011682018060405250810190610b859190613f55565b73ffffffffffffffffffffffffffffffffffffffff1614155b15610bd5576040517fb599ae3000000000000000000000000000000000000000000000000000000000815260040160405180910390fd5b600d80547fffffffffffffffffffffffff00000000000000000000000000000000000000001673ffffffffffffffffffffffffffffffffffffffff83169081179091556040519081527fdd367fa3b0132bc9c4680deca3d4565375dda9ed37c98f8321370efe4594785a906020016109db565b610c5133610e14565b565b73ffffffffffffffffffffffffffffffffffffffff82166000908152600660205260408120610c82908361199b565b90505b92915050565b73ffffffffffffffffffffffffffffffffffffffff8116600090815260086020526040812054819081906501000000000090047affffffffffffffffffffffffffffffffffffffffffffffffffffff16610ced81610ce887610d8d565b6119af565b600b549195509350633b9aca0090610d059083613fa1565b610d0f9190613fe7565b8411159150509193909250565b610d24611631565b600a80547fffffffffffffffffffffffffffffffffffffffffffffffffffffffffffffff00168215159081179091556040519081527fd08802d021f2c722117c801562fe018651ae10fc4e9d8ae97f1041028c1f9926906020016109db565b61092d33826119f2565b60006005610d9c815460021490565b15610dd3576040517f37ed32e800000000000000000000000000000000000000000000000000000000815260040160405180910390fd5b73ffffffffffffffffffffffffffffffffffffffff831660009081526020819052604090205491505b50919050565b610e0a611631565b610c516000611b4c565b3360009081526008602090815260409182902082518084019093525464ffffffffff811683526501000000000090047affffffffffffffffffffffffffffffffffffffffffffffffffffff1690820152600a5460ff16158015610e7e5750805164ffffffffff1642105b15610eb5576040517fa379d44200000000000000000000000000000000000000000000000000000000815260040160405180910390fd5b60208101517affffffffffffffffffffffffffffffffffffffffffffffffffffff168015610f3157610ef08282610eeb33610d8d565b611bc3565b610f3173ffffffffffffffffffffffffffffffffffffffff7f0000000000000000000000000000000000000000000000000000000000000000168483611c4e565b505050565b6000610c858242611cb0565b610f4a611631565b73ffffffffffffffffffffffffffffffffffffffff8216610f6f576109f233826123b2565b7f000000000000000000000000000000000000000000000000000000000000000073ffffffffffffffffffffffffffffffffffffffff168273ffffffffffffffffffffffffffffffffffffffff16036110b6576009546040517f70a082310000000000000000000000000000000000000000000000000000000081523060048201527f000000000000000000000000000000000000000000000000000000000000000073ffffffffffffffffffffffffffffffffffffffff16906370a0823190602401602060405180830381865afa15801561104f573d6000803e3d6000fd5b505050506040513d601f19601f820116820180604052508101906110739190614022565b61107d919061403b565b8111156110b6576040517f0a86380300000000000000000000000000000000000000000000000000000000815260040160405180910390fd5b6109f273ffffffffffffffffffffffffffffffffffffffff83163383611c4e565b73ffffffffffffffffffffffffffffffffffffffff81166000908152600660205260408120610c859061250c565b6109f2338383611358565b6000610c828383611cb0565b73ffffffffffffffffffffffffffffffffffffffff8281166000908152600660209081526040808320938516835260019093019052908120541515610c82565b61119d73ffffffffffffffffffffffffffffffffffffffff7f0000000000000000000000000000000000000000000000000000000000000000168383611984565b610a433385856116b2565b60606004805461086c90613f08565b610c5133612523565b6000610c856111ce83610d8d565b42611cb0565b6109f23383836116b2565b6111e7611631565b600c80547fffffffffffffffffffffffff00000000000000000000000000000000000000001673ffffffffffffffffffffffffffffffffffffffff83169081179091556040519081527fbdf37c276f641820b141429d245add2552b4118c0866e5a78638e3de5ef18d9d906020016109db565b611262611631565b73ffffffffffffffffffffffffffffffffffffffff811661130a576040517f08c379a000000000000000000000000000000000000000000000000000000000815260206004820152602660248201527f4f776e61626c653a206e6577206f776e657220697320746865207a65726f206160448201527f646472657373000000000000000000000000000000000000000000000000000060648201526084015b60405180910390fd5b61092d81611b4c565b73ffffffffffffffffffffffffffffffffffffffff81166000908152600660205260409020606090610c859061262e565b6000610c8261135284610d8d565b83611cb0565b3360009081526008602090815260409182902082518084019093525464ffffffffff811683526501000000000090047affffffffffffffffffffffffffffffffffffffffffffffffffffff1690820152600a5460ff16806113c15750805164ffffffffff164210155b156113f8576040517f6717a45500000000000000000000000000000000000000000000000000000000815260040160405180910390fd5b60208101517affffffffffffffffffffffffffffffffffffffffffffffffffffff16801561159f57600061142b33610d8d565b905060008061143a84846119af565b9150915086811015611478576040517f0169e60f00000000000000000000000000000000000000000000000000000000815260040160405180910390fd5b858211156114b2576040517fa7f1d0c200000000000000000000000000000000000000000000000000000000815260040160405180910390fd5b633b9aca00600b54856114c59190613fa1565b6114cf9190613fe7565b821115611508576040517f1a5ffec600000000000000000000000000000000000000000000000000000000815260040160405180910390fd5b611513858585611bc3565b61155473ffffffffffffffffffffffffffffffffffffffff7f0000000000000000000000000000000000000000000000000000000000000000168983611c4e565b600c5461159b9073ffffffffffffffffffffffffffffffffffffffff7f00000000000000000000000000000000000000000000000000000000000000008116911684611c4e565b5050505b5050505050565b60019055565b73ffffffffffffffffffffffffffffffffffffffff821660009081526006602052604090206115db908261269b565b611611576040517f826fbca300000000000000000000000000000000000000000000000000000000815260040160405180910390fd5b600061161c83610d8d565b90508015610f3157610f3182846000846127b6565b60075473ffffffffffffffffffffffffffffffffffffffff163314610c51576040517f08c379a000000000000000000000000000000000000000000000000000000000815260206004820181905260248201527f4f776e61626c653a2063616c6c6572206973206e6f7420746865206f776e65726044820152606401611301565b73ffffffffffffffffffffffffffffffffffffffff8316600090815260086020908152604080832081518083019092525464ffffffffff8116808352650100000000009091047affffffffffffffffffffffffffffffffffffffffffffffffffffff16928201929092529190839061172a9042612865565b611734919061404e565b90506000611742428361403b565b905062278d00811015611781576040517f2639cc7700000000000000000000000000000000000000000000000000000000815260040160405180910390fd5b6303c267008111156117bf576040517f2f5cdab600000000000000000000000000000000000000000000000000000000815260040160405180910390fd5b60006117ca87610d8d565b60146118028887602001517affffffffffffffffffffffffffffffffffffffffffffffffffffff166117fc919061404e565b8661287b565b61180c9190613fe7565b611816919061403b565b64ffffffffff841685526020850180519192508791611836908390614061565b7affffffffffffffffffffffffffffffffffffffffffffffffffffff90811690915273ffffffffffffffffffffffffffffffffffffffff891660009081526008602090815260408220885191890151909316650100000000000264ffffffffff90911617909155600980548993509091906118b290849061404e565b909155506118c2905087826130f9565b851561190a5761190a73ffffffffffffffffffffffffffffffffffffffff7f0000000000000000000000000000000000000000000000000000000000000000163330896131f4565b600d5473ffffffffffffffffffffffffffffffffffffffff16158015906119525750600d5461195090889073ffffffffffffffffffffffffffffffffffffffff1661111c565b155b1561197b57600d5461197b90889073ffffffffffffffffffffffffffffffffffffffff166119f2565b50505050505050565b61198f838383613291565b610f3157610f3161333e565b600081815260208390526040812054610c82565b600080605f6119be8442611cb0565b6119c8908661403b565b6119d3906064613fa1565b6119dd9190613fe7565b90506119e9818561403b565b91509250929050565b73ffffffffffffffffffffffffffffffffffffffff8116611a3f576040517f960357e400000000000000000000000000000000000000000000000000000000815260040160405180910390fd5b73ffffffffffffffffffffffffffffffffffffffff82166000908152600660205260409020611a6e908261334a565b611aa4576040517fcbdb297300000000000000000000000000000000000000000000000000000000815260040160405180910390fd5b73ffffffffffffffffffffffffffffffffffffffff821660009081526006602052604090207f000000000000000000000000000000000000000000000000000000000000000090611af49061250c565b1115611b2c576040517fc87e91a600000000000000000000000000000000000000000000000000000000815260040160405180910390fd5b6000611b3783610d8d565b90508015610f3157610f3182600085846127b6565b6007805473ffffffffffffffffffffffffffffffffffffffff8381167fffffffffffffffffffffffff0000000000000000000000000000000000000000831681179093556040519116919082907f8be0079c531659141344cd1fd0a4f28419497f9722a3daafe3b4186f6b6457e090600090a35050565b8160096000828254611bd5919061403b565b9091555050600060208401528251611bf49064ffffffffff16426133bb565b64ffffffffff90811684523360008181526008602090815260409091208651918701517affffffffffffffffffffffffffffffffffffffffffffffffffffff1665010000000000029190931617909155610f3190826133ca565b611c7a837fa9059cbb000000000000000000000000000000000000000000000000000000008484613595565b610f31576040517ffb7f507900000000000000000000000000000000000000000000000000000000815260040160405180910390fd5b817f000000000000000000000000000000000000000000000000000000000000000082036001811615611d0d57670de0b6b3a76400007f000000000000000000000000000000000000000000000000000000000000000083020491505b6002811615611d4657670de0b6b3a76400007f000000000000000000000000000000000000000000000000000000000000000083020491505b6004811615611d7f57670de0b6b3a76400007f000000000000000000000000000000000000000000000000000000000000000083020491505b6008811615611db857670de0b6b3a76400007f000000000000000000000000000000000000000000000000000000000000000083020491505b6010811615611df157670de0b6b3a76400007f000000000000000000000000000000000000000000000000000000000000000083020491505b6020811615611e2a57670de0b6b3a76400007f000000000000000000000000000000000000000000000000000000000000000083020491505b6040811615611e6357670de0b6b3a76400007f000000000000000000000000000000000000000000000000000000000000000083020491505b6080811615611e9c57670de0b6b3a76400007f000000000000000000000000000000000000000000000000000000000000000083020491505b610100811615611ed657670de0b6b3a76400007f000000000000000000000000000000000000000000000000000000000000000083020491505b610200811615611f1057670de0b6b3a76400007f000000000000000000000000000000000000000000000000000000000000000083020491505b610400811615611f4a57670de0b6b3a76400007f000000000000000000000000000000000000000000000000000000000000000083020491505b610800811615611f8457670de0b6b3a76400007f000000000000000000000000000000000000000000000000000000000000000083020491505b611000811615611fbe57670de0b6b3a76400007f000000000000000000000000000000000000000000000000000000000000000083020491505b612000811615611ff857670de0b6b3a76400007f000000000000000000000000000000000000000000000000000000000000000083020491505b61400081161561203257670de0b6b3a76400007f000000000000000000000000000000000000000000000000000000000000000083020491505b61800081161561206c57670de0b6b3a76400007f000000000000000000000000000000000000000000000000000000000000000083020491505b620100008116156120a757670de0b6b3a76400007f000000000000000000000000000000000000000000000000000000000000000083020491505b620200008116156120e257670de0b6b3a76400007f000000000000000000000000000000000000000000000000000000000000000083020491505b6204000081161561211d57670de0b6b3a76400007f000000000000000000000000000000000000000000000000000000000000000083020491505b6208000081161561215857670de0b6b3a76400007f000000000000000000000000000000000000000000000000000000000000000083020491505b6210000081161561219357670de0b6b3a76400007f000000000000000000000000000000000000000000000000000000000000000083020491505b622000008116156121ce57670de0b6b3a76400007f000000000000000000000000000000000000000000000000000000000000000083020491505b6240000081161561220957670de0b6b3a76400007f000000000000000000000000000000000000000000000000000000000000000083020491505b6280000081161561224457670de0b6b3a76400007f000000000000000000000000000000000000000000000000000000000000000083020491505b630100000081161561228057670de0b6b3a76400007f000000000000000000000000000000000000000000000000000000000000000083020491505b63020000008116156122bc57670de0b6b3a76400007f000000000000000000000000000000000000000000000000000000000000000083020491505b63040000008116156122f857670de0b6b3a76400007f000000000000000000000000000000000000000000000000000000000000000083020491505b630800000081161561233457670de0b6b3a76400007f000000000000000000000000000000000000000000000000000000000000000083020491505b631000000081161561237057670de0b6b3a76400007f000000000000000000000000000000000000000000000000000000000000000083020491505b6320000000811615610ad057670de0b6b3a76400007f000000000000000000000000000000000000000000000000000000000000000083025b04949350505050565b8047101561241c576040517f08c379a000000000000000000000000000000000000000000000000000000000815260206004820152601d60248201527f416464726573733a20696e73756666696369656e742062616c616e63650000006044820152606401611301565b60008273ffffffffffffffffffffffffffffffffffffffff168260405160006040518083038185875af1925050503d8060008114612476576040519150601f19603f3d011682016040523d82523d6000602084013e61247b565b606091505b5050905080610f31576040517f08c379a000000000000000000000000000000000000000000000000000000000815260206004820152603a60248201527f416464726573733a20756e61626c6520746f2073656e642076616c75652c207260448201527f6563697069656e74206d617920686176652072657665727465640000000000006064820152608401611301565b60008080526020829052604081205460a01c610c85565b73ffffffffffffffffffffffffffffffffffffffff811660009081526006602052604081206125519061262e565b9050600061255e83610d8d565b82519091505b8015610a435781156125995761259983600183038151811061258857612588614095565b6020026020010151856000856127b6565b6126068360018303815181106125b1576125b1614095565b6020026020010151600660008773ffffffffffffffffffffffffffffffffffffffff1673ffffffffffffffffffffffffffffffffffffffff16815260200190815260200160002061269b90919063ffffffff16565b507fffffffffffffffffffffffffffffffffffffffffffffffffffffffffffffffff01612564565b60008080526020829052604090205460609060a081901c67ffffffffffffffff81111561265d5761265d6140c4565b604051908082528060200260200182016040528015612686578160200160208202803683370190505b5091506126948383836135e9565b5050919050565b73ffffffffffffffffffffffffffffffffffffffff811660009081526001830160205260408120548082036126d4576000915050610c85565b60008080526020859052604090205460a01c811015612780576000808052602085905260408082205460a01c7fffffffffffffffffffffffffffffffffffffffffffffffffffffffffffffffff0182528120549050612756857fffffffffffffffffffffffffffffffffffffffffffffffffffffffffffffffff8401836136d2565b73ffffffffffffffffffffffffffffffffffffffff16600090815260018501602052604090208190555b61278984613784565b505073ffffffffffffffffffffffffffffffffffffffff1660009081526001918201602052604081205590565b604080517f7a1f1aa900000000000000000000000000000000000000000000000000000000808252600482018690526024820185905260448201849052917f1c26714c00000000000000000000000000000000000000000000000000000000917f0000000000000000000000000000000000000000000000000000000000000000918290603f5a0204101561284f578260005260046000fd5b60008060648360008c87f1505050505050505050565b60008183116128745781610c82565b5090919050565b817f0000000000000000000000000000000000000000000000000000000000000000820360018116156128e5577f000000000000000000000000000000000000000000000000000000000000000082670de0b6b3a764000002816128e1576128e1613fb8565b0491505b600281161561292b577f000000000000000000000000000000000000000000000000000000000000000082670de0b6b3a7640000028161292757612927613fb8565b0491505b6004811615612971577f000000000000000000000000000000000000000000000000000000000000000082670de0b6b3a7640000028161296d5761296d613fb8565b0491505b60088116156129b7577f000000000000000000000000000000000000000000000000000000000000000082670de0b6b3a764000002816129b3576129b3613fb8565b0491505b60108116156129fd577f000000000000000000000000000000000000000000000000000000000000000082670de0b6b3a764000002816129f9576129f9613fb8565b0491505b6020811615612a43577f000000000000000000000000000000000000000000000000000000000000000082670de0b6b3a76400000281612a3f57612a3f613fb8565b0491505b6040811615612a89577f000000000000000000000000000000000000000000000000000000000000000082670de0b6b3a76400000281612a8557612a85613fb8565b0491505b6080811615612acf577f000000000000000000000000000000000000000000000000000000000000000082670de0b6b3a76400000281612acb57612acb613fb8565b0491505b610100811615612b16577f000000000000000000000000000000000000000000000000000000000000000082670de0b6b3a76400000281612b1257612b12613fb8565b0491505b610200811615612b5d577f000000000000000000000000000000000000000000000000000000000000000082670de0b6b3a76400000281612b5957612b59613fb8565b0491505b610400811615612ba4577f000000000000000000000000000000000000000000000000000000000000000082670de0b6b3a76400000281612ba057612ba0613fb8565b0491505b610800811615612beb577f000000000000000000000000000000000000000000000000000000000000000082670de0b6b3a76400000281612be757612be7613fb8565b0491505b611000811615612c32577f000000000000000000000000000000000000000000000000000000000000000082670de0b6b3a76400000281612c2e57612c2e613fb8565b0491505b612000811615612c79577f000000000000000000000000000000000000000000000000000000000000000082670de0b6b3a76400000281612c7557612c75613fb8565b0491505b614000811615612cc0577f000000000000000000000000000000000000000000000000000000000000000082670de0b6b3a76400000281612cbc57612cbc613fb8565b0491505b618000811615612d07577f000000000000000000000000000000000000000000000000000000000000000082670de0b6b3a76400000281612d0357612d03613fb8565b0491505b62010000811615612d4f577f000000000000000000000000000000000000000000000000000000000000000082670de0b6b3a76400000281612d4b57612d4b613fb8565b0491505b62020000811615612d97577f000000000000000000000000000000000000000000000000000000000000000082670de0b6b3a76400000281612d9357612d93613fb8565b0491505b62040000811615612ddf577f000000000000000000000000000000000000000000000000000000000000000082670de0b6b3a76400000281612ddb57612ddb613fb8565b0491505b62080000811615612e27577f000000000000000000000000000000000000000000000000000000000000000082670de0b6b3a76400000281612e2357612e23613fb8565b0491505b62100000811615612e6f577f000000000000000000000000000000000000000000000000000000000000000082670de0b6b3a76400000281612e6b57612e6b613fb8565b0491505b62200000811615612eb7577f000000000000000000000000000000000000000000000000000000000000000082670de0b6b3a76400000281612eb357612eb3613fb8565b0491505b62400000811615612eff577f000000000000000000000000000000000000000000000000000000000000000082670de0b6b3a76400000281612efb57612efb613fb8565b0491505b62800000811615612f47577f000000000000000000000000000000000000000000000000000000000000000082670de0b6b3a76400000281612f4357612f43613fb8565b0491505b6301000000811615612f90577f000000000000000000000000000000000000000000000000000000000000000082670de0b6b3a76400000281612f8c57612f8c613fb8565b0491505b6302000000811615612fd9577f000000000000000000000000000000000000000000000000000000000000000082670de0b6b3a76400000281612fd557612fd5613fb8565b0491505b6304000000811615613022577f000000000000000000000000000000000000000000000000000000000000000082670de0b6b3a7640000028161301e5761301e613fb8565b0491505b630800000081161561306b577f000000000000000000000000000000000000000000000000000000000000000082670de0b6b3a7640000028161306757613067613fb8565b0491505b63100000008116156130b4577f000000000000000000000000000000000000000000000000000000000000000082670de0b6b3a764000002816130b0576130b0613fb8565b0491505b6320000000811615610ad0577f000000000000000000000000000000000000000000000000000000000000000082670de0b6b3a764000002816123a9576123a9613fb8565b73ffffffffffffffffffffffffffffffffffffffff8216613176576040517f08c379a000000000000000000000000000000000000000000000000000000000815260206004820152601f60248201527f45524332303a206d696e7420746f20746865207a65726f2061646472657373006044820152606401611301565b8060026000828254613188919061404e565b909155505073ffffffffffffffffffffffffffffffffffffffff8216600081815260208181526040808320805486019055518481527fddf252ad1be2c89b69c2b068fc378daa952ba7f163c4a11628f55a4df523b3ef910160405180910390a36109f260008383613846565b60006323b872dd60e01b905060006040518281528560048201528460248201528360448201526020600060648360008b5af19150508015613252573d801561324857600160005114601f3d11169150613250565b6000873b1191505b505b80613289576040517ff405907100000000000000000000000000000000000000000000000000000000815260040160405180910390fd5b505050505050565b600060e08290036132cf576132c8847fd505accf000000000000000000000000000000000000000000000000000000008585613a82565b9050613337565b610100829003613305576132c8847f8fcbaf0c000000000000000000000000000000000000000000000000000000008585613a82565b6040517f6827585700000000000000000000000000000000000000000000000000000000815260040160405180910390fd5b9392505050565b6040513d6000823e3d81fd5b73ffffffffffffffffffffffffffffffffffffffff811660009081526001830160205260408120541561337f57506000610c85565b6133898383613ac3565b73ffffffffffffffffffffffffffffffffffffffff929092166000908152600193840160205260409020919091555090565b60008183106128745781610c82565b73ffffffffffffffffffffffffffffffffffffffff821661346d576040517f08c379a000000000000000000000000000000000000000000000000000000000815260206004820152602160248201527f45524332303a206275726e2066726f6d20746865207a65726f2061646472657360448201527f73000000000000000000000000000000000000000000000000000000000000006064820152608401611301565b73ffffffffffffffffffffffffffffffffffffffff821660009081526020819052604090205481811015613523576040517f08c379a000000000000000000000000000000000000000000000000000000000815260206004820152602260248201527f45524332303a206275726e20616d6f756e7420657863656564732062616c616e60448201527f63650000000000000000000000000000000000000000000000000000000000006064820152608401611301565b73ffffffffffffffffffffffffffffffffffffffff83166000818152602081815260408083208686039055600280548790039055518581529192917fddf252ad1be2c89b69c2b068fc378daa952ba7f163c4a11628f55a4df523b3ef910160405180910390a3610f3183600084613846565b60006040518481528360048201528260248201526020600060448360008a5af191505080156135e1573d80156135d757600160005114601f3d111691506135df565b6000863b1191505b505b949350505050565b815160609060a083901c9081111561362d576040517ff9a99b2500000000000000000000000000000000000000000000000000000000815260040160405180910390fd5b80156136c957828460008151811061364757613647614095565b73ffffffffffffffffffffffffffffffffffffffff9092166020928302919091019091015260015b818110156136c757600081815260208790526040902054855186908390811061369a5761369a614095565b73ffffffffffffffffffffffffffffffffffffffff9092166020928302919091019091015260010161366f565b505b50919392505050565b60008080526020849052604090205460a01c80831061371d576040517f4e23d03500000000000000000000000000000000000000000000000000000000815260040160405180910390fd5b8260000361375757600080805260208590526040902060a082901b73ffffffffffffffffffffffffffffffffffffffff8416179055610a43565b600083815260208590526040902073ffffffffffffffffffffffffffffffffffffffff8316905550505050565b6000808052602082905260408120549060a082901c908190036137d3576040517f06a2af9e00000000000000000000000000000000000000000000000000000000815260040160405180910390fd5b7fffffffffffffffffffffffffffffffffffffffffffffffffffffffffffffffff81016000908152602084905260408120556001811115610f315760008080526020849052604090207fffffffffffffffffffffffff000000000000000000000000000000000000000083019055505050565b600561385181613b8b565b60008211801561388d57508273ffffffffffffffffffffffffffffffffffffffff168473ffffffffffffffffffffffffffffffffffffffff1614155b15613a795773ffffffffffffffffffffffffffffffffffffffff841660009081526006602052604081206138c09061262e565b73ffffffffffffffffffffffffffffffffffffffff85166000908152600660205260408120919250906138f29061262e565b825181519192509060005b828110156139ff57600085828151811061391957613919614095565b6020026020010151905060005b838110156139e15785818151811061394057613940614095565b602002602001015173ffffffffffffffffffffffffffffffffffffffff168273ffffffffffffffffffffffffffffffffffffffff16036139d957613986828c8c8c6127b6565b600086828151811061399a5761399a614095565b602002602001019073ffffffffffffffffffffffffffffffffffffffff16908173ffffffffffffffffffffffffffffffffffffffff16815250506139e1565b600101613926565b8381036139f5576139f5828c60008c6127b6565b50506001016138fd565b5060005b81811015613a73576000848281518110613a1f57613a1f614095565b60200260200101519050600073ffffffffffffffffffffffffffffffffffffffff168173ffffffffffffffffffffffffffffffffffffffff1614613a6a57613a6a8160008b8b6127b6565b50600101613a03565b50505050505b60018155610a43565b6000816004016040518581528385600483013760206000838360008b5af19250505080156135e1573d80156135d757600160005114601f3d111691506135df565b60008080526020839052604081205460a081901c808303613b3857600080805260208690526040902074ffffffffffffffffffffffffffffffffffffffffff7401000000000000000000000000000000000000000073ffffffffffffffffffffffffffffffffffffffff871601169055613b80565b6000808052602086905260408082207401000000000000000000000000000000000000000085019055828252902073ffffffffffffffffffffffffffffffffffffffff851690555b600101949350505050565b80547ffffffffffffffffffffffffffffffffffffffffffffffffffffffffffffffffe01613be5576040517f37ed32e800000000000000000000000000000000000000000000000000000000815260040160405180910390fd5b60029055565b600060208083528351808285015260005b81811015613c1857858101830151858201604001528201613bfc565b5060006040828601015260407fffffffffffffffffffffffffffffffffffffffffffffffffffffffffffffffe0601f8301168501019250505092915050565b73ffffffffffffffffffffffffffffffffffffffff8116811461092d57600080fd5b60008060408385031215613c8c57600080fd5b8235613c9781613c57565b946020939093013593505050565b600060208284031215613cb757600080fd5b813561333781613c57565b600080600060608486031215613cd757600080fd5b8335613ce281613c57565b92506020840135613cf281613c57565b929592945050506040919091013590565b600060208284031215613d1557600080fd5b5035919050565b60008083601f840112613d2e57600080fd5b50813567ffffffffffffffff811115613d4657600080fd5b602083019150836020828501011115613d5e57600080fd5b9250929050565b60008060008060608587031215613d7b57600080fd5b8435613d8681613c57565b935060208501359250604085013567ffffffffffffffff811115613da957600080fd5b613db587828801613d1c565b95989497509550505050565b60008060408385031215613dd457600080fd5b8235613ddf81613c57565b91506020830135613def81613c57565b809150509250929050565b600060208284031215613e0c57600080fd5b8135801515811461333757600080fd5b60008060408385031215613e2f57600080fd5b50508035926020909101359150565b60008060008060608587031215613e5457600080fd5b8435935060208501359250604085013567ffffffffffffffff811115613da957600080fd5b6020808252825182820181905260009190848201906040850190845b81811015613ec757835173ffffffffffffffffffffffffffffffffffffffff1683529284019291840191600101613e95565b50909695505050505050565b600080600060608486031215613ee857600080fd5b8335613ef381613c57565b95602085013595506040909401359392505050565b600181811c90821680613f1c57607f821691505b602082108103610dfc577f4e487b7100000000000000000000000000000000000000000000000000000000600052602260045260246000fd5b600060208284031215613f6757600080fd5b815161333781613c57565b7f4e487b7100000000000000000000000000000000000000000000000000000000600052601160045260246000fd5b8082028115828204841417610c8557610c85613f72565b7f4e487b7100000000000000000000000000000000000000000000000000000000600052601260045260246000fd5b60008261401d577f4e487b7100000000000000000000000000000000000000000000000000000000600052601260045260246000fd5b500490565b60006020828403121561403457600080fd5b5051919050565b81810381811115610c8557610c85613f72565b80820180821115610c8557610c85613f72565b7affffffffffffffffffffffffffffffffffffffffffffffffffffff818116838216019080821115610ad057610ad0613f72565b7f4e487b7100000000000000000000000000000000000000000000000000000000600052603260045260246000fd5b7f4e487b7100000000000000000000000000000000000000000000000000000000600052604160045260246000fdfea2646970667358221220522156a0f5ca9dbaafc49b25fcc9e40e3f0ba0472e48165b36c84b3b0ce2aef464736f6c63430008110033",
  "devdoc": {
    "kind": "dev",
    "methods": {
      "allowance(address,address)": {
        "details": "See {IERC20-allowance}."
      },
      "decimals()": {
        "details": "Returns the number of decimals used to get its user representation. For example, if `decimals` equals `2`, a balance of `505` tokens should be displayed to a user as `5.05` (`505 / 10 ** 2`). Tokens usually opt for a value of 18, imitating the relationship between Ether and Wei. This is the value {ERC20} uses, unless this function is overridden; NOTE: This information is only used for _display_ purposes: it in no way affects any of the arithmetic of the contract, including {IERC20-balanceOf} and {IERC20-transfer}."
      },
      "name()": {
        "details": "Returns the name of the token."
      },
      "owner()": {
        "details": "Returns the address of the current owner."
      },
      "renounceOwnership()": {
        "details": "Leaves the contract without owner. It will not be possible to call `onlyOwner` functions anymore. Can only be called by the current owner. NOTE: Renouncing ownership will leave the contract without an owner, thereby removing any functionality that is only available to the owner."
      },
      "symbol()": {
        "details": "Returns the symbol of the token, usually a shorter version of the name."
      },
      "totalSupply()": {
        "details": "See {IERC20-totalSupply}."
      },
      "transferOwnership(address)": {
        "details": "Transfers ownership of the contract to a new account (`newOwner`). Can only be called by the current owner."
      },
      "votingPowerOf(address)": {
        "details": "we assume that voting power is a function of balance that preserves order"
      }
    },
    "version": 1
  },
  "userdoc": {
    "kind": "user",
    "methods": {},
    "version": 1
  },
  "storageLayout": {
    "storage": [
      {
        "astId": 2654,
        "contract": "contracts/St1inch.sol:St1inch",
        "label": "_balances",
        "offset": 0,
        "slot": "0",
        "type": "t_mapping(t_address,t_uint256)"
      },
      {
        "astId": 2660,
        "contract": "contracts/St1inch.sol:St1inch",
        "label": "_allowances",
        "offset": 0,
        "slot": "1",
        "type": "t_mapping(t_address,t_mapping(t_address,t_uint256))"
      },
      {
        "astId": 2662,
        "contract": "contracts/St1inch.sol:St1inch",
        "label": "_totalSupply",
        "offset": 0,
        "slot": "2",
        "type": "t_uint256"
      },
      {
        "astId": 2664,
        "contract": "contracts/St1inch.sol:St1inch",
        "label": "_name",
        "offset": 0,
        "slot": "3",
        "type": "t_string_storage"
      },
      {
        "astId": 2666,
        "contract": "contracts/St1inch.sol:St1inch",
        "label": "_symbol",
        "offset": 0,
        "slot": "4",
        "type": "t_string_storage"
      },
      {
        "astId": 861,
        "contract": "contracts/St1inch.sol:St1inch",
        "label": "_guard",
        "offset": 0,
        "slot": "5",
        "type": "t_struct(Data)1520_storage"
      },
      {
        "astId": 866,
        "contract": "contracts/St1inch.sol:St1inch",
        "label": "_pods",
        "offset": 0,
        "slot": "6",
        "type": "t_mapping(t_address,t_struct(Data)2040_storage)"
      },
      {
        "astId": 2533,
        "contract": "contracts/St1inch.sol:St1inch",
        "label": "_owner",
        "offset": 0,
        "slot": "7",
        "type": "t_address"
      },
      {
        "astId": 4790,
        "contract": "contracts/St1inch.sol:St1inch",
        "label": "depositors",
        "offset": 0,
        "slot": "8",
        "type": "t_mapping(t_address,t_struct(Depositor)4785_storage)"
      },
      {
        "astId": 4792,
        "contract": "contracts/St1inch.sol:St1inch",
        "label": "totalDeposits",
        "offset": 0,
        "slot": "9",
        "type": "t_uint256"
      },
      {
        "astId": 4794,
        "contract": "contracts/St1inch.sol:St1inch",
        "label": "emergencyExit",
        "offset": 0,
        "slot": "10",
        "type": "t_bool"
      },
      {
        "astId": 4796,
        "contract": "contracts/St1inch.sol:St1inch",
        "label": "maxLossRatio",
        "offset": 0,
        "slot": "11",
        "type": "t_uint256"
      },
      {
        "astId": 4798,
        "contract": "contracts/St1inch.sol:St1inch",
        "label": "feeReceiver",
        "offset": 0,
        "slot": "12",
        "type": "t_address"
      },
      {
        "astId": 4800,
        "contract": "contracts/St1inch.sol:St1inch",
        "label": "defaultFarm",
        "offset": 0,
        "slot": "13",
        "type": "t_address"
      }
    ],
    "types": {
      "t_address": {
        "encoding": "inplace",
        "label": "address",
        "numberOfBytes": "20"
      },
      "t_bool": {
        "encoding": "inplace",
        "label": "bool",
        "numberOfBytes": "1"
      },
      "t_mapping(t_address,t_mapping(t_address,t_uint256))": {
        "encoding": "mapping",
        "key": "t_address",
        "label": "mapping(address => mapping(address => uint256))",
        "numberOfBytes": "32",
        "value": "t_mapping(t_address,t_uint256)"
      },
      "t_mapping(t_address,t_struct(Data)2040_storage)": {
        "encoding": "mapping",
        "key": "t_address",
        "label": "mapping(address => struct AddressSet.Data)",
        "numberOfBytes": "32",
        "value": "t_struct(Data)2040_storage"
      },
      "t_mapping(t_address,t_struct(Depositor)4785_storage)": {
        "encoding": "mapping",
        "key": "t_address",
        "label": "mapping(address => struct St1inch.Depositor)",
        "numberOfBytes": "32",
        "value": "t_struct(Depositor)4785_storage"
      },
      "t_mapping(t_address,t_uint256)": {
        "encoding": "mapping",
        "key": "t_address",
        "label": "mapping(address => uint256)",
        "numberOfBytes": "32",
        "value": "t_uint256"
      },
      "t_mapping(t_uint256,t_uint256)": {
        "encoding": "mapping",
        "key": "t_uint256",
        "label": "mapping(uint256 => uint256)",
        "numberOfBytes": "32",
        "value": "t_uint256"
      },
      "t_string_storage": {
        "encoding": "bytes",
        "label": "string",
        "numberOfBytes": "32"
      },
      "t_struct(Data)1520_storage": {
        "encoding": "inplace",
        "label": "struct ReentrancyGuardLib.Data",
        "members": [
          {
            "astId": 1519,
            "contract": "contracts/St1inch.sol:St1inch",
            "label": "_status",
            "offset": 0,
            "slot": "0",
            "type": "t_uint256"
          }
        ],
        "numberOfBytes": "32"
      },
      "t_struct(Data)1658_storage": {
        "encoding": "inplace",
        "label": "struct AddressArray.Data",
        "members": [
          {
            "astId": 1657,
            "contract": "contracts/St1inch.sol:St1inch",
            "label": "_raw",
            "offset": 0,
            "slot": "0",
            "type": "t_mapping(t_uint256,t_uint256)"
          }
        ],
        "numberOfBytes": "32"
      },
      "t_struct(Data)2040_storage": {
        "encoding": "inplace",
        "label": "struct AddressSet.Data",
        "members": [
          {
            "astId": 2035,
            "contract": "contracts/St1inch.sol:St1inch",
            "label": "items",
            "offset": 0,
            "slot": "0",
            "type": "t_struct(Data)1658_storage"
          },
          {
            "astId": 2039,
            "contract": "contracts/St1inch.sol:St1inch",
            "label": "lookup",
            "offset": 0,
            "slot": "1",
            "type": "t_mapping(t_address,t_uint256)"
          }
        ],
        "numberOfBytes": "64"
      },
      "t_struct(Depositor)4785_storage": {
        "encoding": "inplace",
        "label": "struct St1inch.Depositor",
        "members": [
          {
            "astId": 4782,
            "contract": "contracts/St1inch.sol:St1inch",
            "label": "unlockTime",
            "offset": 0,
            "slot": "0",
            "type": "t_uint40"
          },
          {
            "astId": 4784,
            "contract": "contracts/St1inch.sol:St1inch",
            "label": "amount",
            "offset": 5,
            "slot": "0",
            "type": "t_uint216"
          }
        ],
        "numberOfBytes": "32"
      },
      "t_uint216": {
        "encoding": "inplace",
        "label": "uint216",
        "numberOfBytes": "27"
      },
      "t_uint256": {
        "encoding": "inplace",
        "label": "uint256",
        "numberOfBytes": "32"
      },
      "t_uint40": {
        "encoding": "inplace",
        "label": "uint40",
        "numberOfBytes": "5"
      }
    }
  }
}