{
  "address": "0x761CB6aF627084a33294cF463FF9A7366C2eA92D",
  "abi": [
    {
      "inputs": [
        {
          "internalType": "contract IVotable",
          "name": "token_",
          "type": "address"
        },
        {
          "internalType": "uint256",
          "name": "resolverThreshold_",
          "type": "uint256"
        },
        {
          "internalType": "uint256",
          "name": "whitelistLimit_",
          "type": "uint256"
        }
      ],
      "stateMutability": "nonpayable",
      "type": "constructor"
    },
    {
      "inputs": [],
      "name": "AlreadyRegistered",
      "type": "error"
    },
    {
      "inputs": [],
      "name": "BalanceLessThanThreshold",
      "type": "error"
    },
    {
      "inputs": [],
      "name": "ETHTransferFailed",
      "type": "error"
    },
    {
      "inputs": [],
      "name": "IndexOutOfBounds",
      "type": "error"
    },
    {
      "inputs": [],
      "name": "InsufficientBalance",
      "type": "error"
    },
    {
      "inputs": [],
      "name": "NotEnoughBalance",
      "type": "error"
    },
    {
      "inputs": [],
      "name": "NotWhitelisted",
      "type": "error"
    },
    {
      "inputs": [],
      "name": "OutputArrayTooSmall",
      "type": "error"
    },
    {
      "inputs": [],
      "name": "PopFromEmptyArray",
      "type": "error"
    },
    {
      "inputs": [],
      "name": "SafeTransferFailed",
      "type": "error"
    },
    {
      "anonymous": false,
      "inputs": [
        {
          "indexed": true,
          "internalType": "address",
          "name": "previousOwner",
          "type": "address"
        },
        {
          "indexed": true,
          "internalType": "address",
          "name": "newOwner",
          "type": "address"
        }
      ],
      "name": "OwnershipTransferred",
      "type": "event"
    },
    {
      "anonymous": false,
      "inputs": [
        {
          "indexed": false,
          "internalType": "address",
          "name": "promoter",
          "type": "address"
        },
        {
          "indexed": false,
          "internalType": "uint256",
          "name": "chainId",
          "type": "uint256"
        },
        {
          "indexed": false,
          "internalType": "address",
          "name": "promotee",
          "type": "address"
        }
      ],
      "name": "Promotion",
      "type": "event"
    },
    {
      "anonymous": false,
      "inputs": [
        {
          "indexed": false,
          "internalType": "address",
          "name": "addr",
          "type": "address"
        }
      ],
      "name": "Registered",
      "type": "event"
    },
    {
      "anonymous": false,
      "inputs": [
        {
          "indexed": false,
          "internalType": "uint256",
          "name": "resolverThreshold",
          "type": "uint256"
        }
      ],
      "name": "ResolverThresholdSet",
      "type": "event"
    },
    {
      "anonymous": false,
      "inputs": [
        {
          "indexed": false,
          "internalType": "address",
          "name": "addr",
          "type": "address"
        }
      ],
      "name": "Unregistered",
      "type": "event"
    },
    {
      "anonymous": false,
      "inputs": [
        {
          "indexed": false,
          "internalType": "uint256",
          "name": "whitelistLimit",
          "type": "uint256"
        }
      ],
      "name": "WhitelistLimitSet",
      "type": "event"
    },
    {
      "inputs": [],
      "name": "clean",
      "outputs": [],
      "stateMutability": "nonpayable",
      "type": "function"
    },
    {
      "inputs": [
        {
          "internalType": "uint256",
          "name": "chainId",
          "type": "uint256"
        }
      ],
      "name": "getPromotees",
      "outputs": [
        {
          "internalType": "address[]",
          "name": "promotees",
          "type": "address[]"
        }
      ],
      "stateMutability": "view",
      "type": "function"
    },
    {
      "inputs": [],
      "name": "getWhitelist",
      "outputs": [
        {
          "internalType": "address[]",
          "name": "",
          "type": "address[]"
        }
      ],
      "stateMutability": "view",
      "type": "function"
    },
    {
      "inputs": [],
      "name": "owner",
      "outputs": [
        {
          "internalType": "address",
          "name": "",
          "type": "address"
        }
      ],
      "stateMutability": "view",
      "type": "function"
    },
    {
      "inputs": [
        {
          "internalType": "uint256",
          "name": "chainId",
          "type": "uint256"
        },
        {
          "internalType": "address",
          "name": "promotee",
          "type": "address"
        }
      ],
      "name": "promote",
      "outputs": [],
      "stateMutability": "nonpayable",
      "type": "function"
    },
    {
      "inputs": [
        {
          "internalType": "address",
          "name": "",
          "type": "address"
        },
        {
          "internalType": "uint256",
          "name": "",
          "type": "uint256"
        }
      ],
      "name": "promotions",
      "outputs": [
        {
          "internalType": "address",
          "name": "",
          "type": "address"
        }
      ],
      "stateMutability": "view",
      "type": "function"
    },
    {
      "inputs": [],
      "name": "register",
      "outputs": [],
      "stateMutability": "nonpayable",
      "type": "function"
    },
    {
      "inputs": [],
      "name": "renounceOwnership",
      "outputs": [],
      "stateMutability": "nonpayable",
      "type": "function"
    },
    {
      "inputs": [
        {
          "internalType": "contract IERC20",
          "name": "token_",
          "type": "address"
        },
        {
          "internalType": "uint256",
          "name": "amount",
          "type": "uint256"
        }
      ],
      "name": "rescueFunds",
      "outputs": [],
      "stateMutability": "nonpayable",
      "type": "function"
    },
    {
      "inputs": [],
      "name": "resolverThreshold",
      "outputs": [
        {
          "internalType": "uint256",
          "name": "",
          "type": "uint256"
        }
      ],
      "stateMutability": "view",
      "type": "function"
    },
    {
      "inputs": [
        {
          "internalType": "uint256",
          "name": "resolverThreshold_",
          "type": "uint256"
        }
      ],
      "name": "setResolverThreshold",
      "outputs": [],
      "stateMutability": "nonpayable",
      "type": "function"
    },
    {
      "inputs": [
        {
          "internalType": "uint256",
          "name": "whitelistLimit_",
          "type": "uint256"
        }
      ],
      "name": "setWhitelistLimit",
      "outputs": [],
      "stateMutability": "nonpayable",
      "type": "function"
    },
    {
      "inputs": [],
      "name": "token",
      "outputs": [
        {
          "internalType": "contract IVotable",
          "name": "",
          "type": "address"
        }
      ],
      "stateMutability": "view",
      "type": "function"
    },
    {
      "inputs": [
        {
          "internalType": "address",
          "name": "newOwner",
          "type": "address"
        }
      ],
      "name": "transferOwnership",
      "outputs": [],
      "stateMutability": "nonpayable",
      "type": "function"
    },
    {
      "inputs": [],
      "name": "whitelistLimit",
      "outputs": [
        {
          "internalType": "uint256",
          "name": "",
          "type": "uint256"
        }
      ],
      "stateMutability": "view",
      "type": "function"
    }
  ],
  "transactionHash": "0x27e7e4707ec1d65e4cac61d4623601c291e4d7d38d6c0591e750fdf5b9a788d9",
  "args": [
    "0x6b0905BAe84443A7DACEfA910a64DCA811Cbf453",
    "100000000000000000",
    "5"
  ],
  "numDeployments": 1,
  "solcInputHash": "dd84ca0b270bfd2388f56fc3484732b3",
  "bytecode": "0x60a06040523480156200001157600080fd5b5060405162001a8238038062001a8283398101604081905262000034916200012d565b6200003f336200006b565b6001600160a01b0383166080526200005782620000bb565b6200006281620000f7565b50505062000172565b600080546001600160a01b038381166001600160a01b0319831681178455604051919092169283917f8be0079c531659141344cd1fd0a4f28419497f9722a3daafe3b4186f6b6457e09190a35050565b60028190556040518181527fb51788a67c010f6b744a03da1a32541fab962da32125c5019bb804e24fc61a14906020015b60405180910390a150565b60038190556040518181527fafde81f0daa09442c2fecab15f71e1abbb253d0cd187744a78d180f0e675493c90602001620000ec565b6000806000606084860312156200014357600080fd5b83516001600160a01b03811681146200015b57600080fd5b602085015160409095015190969495509392505050565b6080516118d1620001b1600039600081816102410152818161029c0152818161039f015281816104840152818161093c0152610ded01526118d16000f3fe608060405234801561001057600080fd5b50600436106100f55760003560e01c8063b55e8ca911610097578063f204bdb911610066578063f204bdb914610216578063f2fde38b14610229578063fc0c546a1461023c578063fc4333cd1461026357600080fd5b8063b55e8ca9146101c8578063d01f63f5146101db578063d2521ae8146101f0578063e5136e941461020357600080fd5b8063302150e5116100d3578063302150e514610186578063715018a61461018f57806378e3214f146101975780638da5cb5b146101aa57600080fd5b80631aa3a008146100fa5780632af05166146101045780632c01097a1461016f575b600080fd5b61010261026b565b005b6101456101123660046116be565b600160209081526000928352604080842090915290825290205473ffffffffffffffffffffffffffffffffffffffff1681565b60405173ffffffffffffffffffffffffffffffffffffffff90911681526020015b60405180910390f35b61017860025481565b604051908152602001610166565b61017860035481565b6101026105e7565b6101026101a53660046116be565b6105fb565b60005473ffffffffffffffffffffffffffffffffffffffff16610145565b6101026101d63660046116ea565b610628565b6101e361063c565b6040516101669190611703565b6101026101fe3660046116ea565b61064d565b6101e36102113660046116ea565b610688565b61010261022436600461175d565b610774565b61010261023736600461178d565b610810565b6101457f000000000000000000000000000000000000000000000000000000000000000081565b6101026108c9565b6002546040517fbcc3f3bd0000000000000000000000000000000000000000000000000000000081523360048201527f000000000000000000000000000000000000000000000000000000000000000073ffffffffffffffffffffffffffffffffffffffff169063bcc3f3bd90602401602060405180830381865afa1580156102f8573d6000803e3d6000fd5b505050506040513d601f19601f8201168201806040525081019061031c91906117aa565b1015610354576040517f63bd63ba00000000000000000000000000000000000000000000000000000000815260040160405180910390fd5b600061036060046109ed565b9050600354810361056f576040517f70a082310000000000000000000000000000000000000000000000000000000081523360048201819052906000907f000000000000000000000000000000000000000000000000000000000000000073ffffffffffffffffffffffffffffffffffffffff16906370a0823190602401602060405180830381865afa1580156103fb573d6000803e3d6000fd5b505050506040513d601f19601f8201168201806040525081019061041f91906117aa565b905060005b83811015610513576000610439600483610a06565b6040517f70a0823100000000000000000000000000000000000000000000000000000000815273ffffffffffffffffffffffffffffffffffffffff80831660048301529192506000917f000000000000000000000000000000000000000000000000000000000000000016906370a0823190602401602060405180830381865afa1580156104cb573d6000803e3d6000fd5b505050506040513d601f19601f820116820180604052508101906104ef91906117aa565b905083811015610500578194508093505b50508061050c906117f2565b9050610424565b503373ffffffffffffffffffffffffffffffffffffffff831603610563576040517fad3a8b9e00000000000000000000000000000000000000000000000000000000815260040160405180910390fd5b61056c82610a1d565b50505b61057a600433610a6f565b6105b0576040517f3a81d6fc00000000000000000000000000000000000000000000000000000000815260040160405180910390fd5b6040513381527f2d3734a8e47ac8316e500ac231c90a6e1848ca2285f40d07eaa52005e4b3a0e9906020015b60405180910390a150565b6105ef610ae0565b6105f96000610b61565b565b610603610ae0565b61062473ffffffffffffffffffffffffffffffffffffffff83163383610bd6565b5050565b610630610ae0565b61063981610ced565b50565b60606106486004610d22565b905090565b610655610ae0565b600061066160046109ed565b90508082101561067f5761067f600461067a848461182a565b610d88565b6106248261111e565b60606106946004610d22565b805190915060005b8181101561076d57600160008483815181106106ba576106ba61183d565b602002602001015173ffffffffffffffffffffffffffffffffffffffff1673ffffffffffffffffffffffffffffffffffffffff168152602001908152602001600020600085815260200190815260200160002060009054906101000a900473ffffffffffffffffffffffffffffffffffffffff168382815181106107405761074061183d565b73ffffffffffffffffffffffffffffffffffffffff9092166020928302919091019091015260010161069c565b5050919050565b33600081815260016020908152604080832086845282529182902080547fffffffffffffffffffffffff00000000000000000000000000000000000000001673ffffffffffffffffffffffffffffffffffffffff86169081179091558251938452908301859052908201527fb863cf86b291171e4b0332ea12b59af030f98a2c74a6d51effaf1109ae4c7f1e9060600160405180910390a15050565b610818610ae0565b73ffffffffffffffffffffffffffffffffffffffff81166108c0576040517f08c379a000000000000000000000000000000000000000000000000000000000815260206004820152602660248201527f4f776e61626c653a206e6577206f776e657220697320746865207a65726f206160448201527f646472657373000000000000000000000000000000000000000000000000000060648201526084015b60405180910390fd5b61063981610b61565b60006108d560046109ed565b905060005b818110156106245760006108ef600483610a06565b6002546040517fbcc3f3bd00000000000000000000000000000000000000000000000000000000815273ffffffffffffffffffffffffffffffffffffffff808416600483015292935090917f0000000000000000000000000000000000000000000000000000000000000000169063bcc3f3bd90602401602060405180830381865afa158015610983573d6000803e3d6000fd5b505050506040513d601f19601f820116820180604052508101906109a791906117aa565b10156109e0576109b681610a1d565b7fffffffffffffffffffffffffffffffffffffffffffffffffffffffffffffffff909201916109e7565b6001909101905b506108da565b60008080526020829052604081205460a01c5b92915050565b6000818152602083905260408120545b9392505050565b610a28600482611153565b5060405173ffffffffffffffffffffffffffffffffffffffff821681527f75cd6de711483e11488a1cd9b66172abccb9e5c19572f92015a7880f0c8c0edc906020016105dc565b73ffffffffffffffffffffffffffffffffffffffff8116600090815260018301602052604081205415610aa457506000610a00565b610aae838361126e565b73ffffffffffffffffffffffffffffffffffffffff929092166000908152600193840160205260409020919091555090565b60005473ffffffffffffffffffffffffffffffffffffffff1633146105f9576040517f08c379a000000000000000000000000000000000000000000000000000000000815260206004820181905260248201527f4f776e61626c653a2063616c6c6572206973206e6f7420746865206f776e657260448201526064016108b7565b6000805473ffffffffffffffffffffffffffffffffffffffff8381167fffffffffffffffffffffffff0000000000000000000000000000000000000000831681178455604051919092169283917f8be0079c531659141344cd1fd0a4f28419497f9722a3daafe3b4186f6b6457e09190a35050565b8015610ce857610be583611336565b15610cc75780471015610c24576040517ff4d678b800000000000000000000000000000000000000000000000000000000815260040160405180910390fd5b60405160009073ffffffffffffffffffffffffffffffffffffffff84169061138890849084818181858888f193505050503d8060008114610c81576040519150601f19603f3d011682016040523d82523d6000602084013e610c86565b606091505b5050905080610cc1576040517fb12d13eb00000000000000000000000000000000000000000000000000000000815260040160405180910390fd5b50505050565b610ce873ffffffffffffffffffffffffffffffffffffffff84168383611389565b505050565b60028190556040518181527fb51788a67c010f6b744a03da1a32541fab962da32125c5019bb804e24fc61a14906020016105dc565b60008080526020829052604090205460609060a081901c67ffffffffffffffff811115610d5157610d5161186c565b604051908082528060200260200182016040528015610d7a578160200160208202803683370190505b50915061076d8383836113eb565b600080610d9484610d22565b805190915060008167ffffffffffffffff811115610db457610db461186c565b604051908082528060200260200182016040528015610ddd578160200160208202803683370190505b50905060005b82811015610f28577f000000000000000000000000000000000000000000000000000000000000000073ffffffffffffffffffffffffffffffffffffffff166370a08231858381518110610e3957610e3961183d565b60200260200101516040518263ffffffff1660e01b8152600401610e79919073ffffffffffffffffffffffffffffffffffffffff91909116815260200190565b602060405180830381865afa158015610e96573d6000803e3d6000fd5b505050506040513d601f19601f82011682018060405250810190610eba91906117aa565b828281518110610ecc57610ecc61183d565b602002602001018181525050818581518110610eea57610eea61183d565b6020026020010151828281518110610f0457610f0461183d565b60200260200101511115610f16578094505b80610f20816117f2565b915050610de3565b50845b828110156110d557818581518110610f4557610f4561183d565b6020026020010151828281518110610f5f57610f5f61183d565b6020026020010151116110c357838581518110610f7e57610f7e61183d565b6020026020010151848281518110610f9857610f9861183d565b6020026020010151858381518110610fb257610fb261183d565b60200260200101868881518110610fcb57610fcb61183d565b73ffffffffffffffffffffffffffffffffffffffff93841660209182029290920101529116905281518290869081106110065761100661183d565b60200260200101518282815181106110205761102061183d565b602002602001015183838151811061103a5761103a61183d565b602002602001018488815181106110535761105361183d565b6020908102919091010191909152526000945060015b868110156110c1578286815181106110835761108361183d565b602002602001015183828151811061109d5761109d61183d565b602002602001015111156110af578095505b806110b9816117f2565b915050611069565b505b806110cd816117f2565b915050610f2b565b5060005b85811015611115576111038482815181106110f6576110f661183d565b6020026020010151610a1d565b8061110d816117f2565b9150506110d9565b50505050505050565b60038190556040518181527fafde81f0daa09442c2fecab15f71e1abbb253d0cd187744a78d180f0e675493c906020016105dc565b73ffffffffffffffffffffffffffffffffffffffff8116600090815260018301602052604081205480820361118c576000915050610a00565b60008080526020859052604090205460a01c811015611238576000808052602085905260408082205460a01c7fffffffffffffffffffffffffffffffffffffffffffffffffffffffffffffffff018252812054905061120e857fffffffffffffffffffffffffffffffffffffffffffffffffffffffffffffffff8401836114d4565b73ffffffffffffffffffffffffffffffffffffffff16600090815260018501602052604090208190555b61124184611586565b505073ffffffffffffffffffffffffffffffffffffffff1660009081526001918201602052604081205590565b60008080526020839052604081205460a081901c8083036112e357600080805260208690526040902074ffffffffffffffffffffffffffffffffffffffffff7401000000000000000000000000000000000000000073ffffffffffffffffffffffffffffffffffffffff87160116905561132b565b6000808052602086905260408082207401000000000000000000000000000000000000000085019055828252902073ffffffffffffffffffffffffffffffffffffffff851690555b600101949350505050565b600073ffffffffffffffffffffffffffffffffffffffff82161580610a00575073ffffffffffffffffffffffffffffffffffffffff821673eeeeeeeeeeeeeeeeeeeeeeeeeeeeeeeeeeeeeeee1492915050565b6113b5837fa9059cbb000000000000000000000000000000000000000000000000000000008484611648565b610ce8576040517ffb7f507900000000000000000000000000000000000000000000000000000000815260040160405180910390fd5b815160609060a083901c9081111561142f576040517ff9a99b2500000000000000000000000000000000000000000000000000000000815260040160405180910390fd5b80156114cb5782846000815181106114495761144961183d565b73ffffffffffffffffffffffffffffffffffffffff9092166020928302919091019091015260015b818110156114c957600081815260208790526040902054855186908390811061149c5761149c61183d565b73ffffffffffffffffffffffffffffffffffffffff90921660209283029190910190910152600101611471565b505b50919392505050565b60008080526020849052604090205460a01c80831061151f576040517f4e23d03500000000000000000000000000000000000000000000000000000000815260040160405180910390fd5b8260000361155957600080805260208590526040902060a082901b73ffffffffffffffffffffffffffffffffffffffff8416179055610cc1565b600083815260208590526040902073ffffffffffffffffffffffffffffffffffffffff8316905550505050565b6000808052602082905260408120549060a082901c908190036115d5576040517f06a2af9e00000000000000000000000000000000000000000000000000000000815260040160405180910390fd5b7fffffffffffffffffffffffffffffffffffffffffffffffffffffffffffffffff81016000908152602084905260408120556001811115610ce85760008080526020849052604090207fffffffffffffffffffffffff000000000000000000000000000000000000000083019055505050565b60006040518481528360048201528260248201526020600060448360008a5af19150508015611694573d801561168a57600160005114601f3d11169150611692565b6000863b1191505b505b949350505050565b73ffffffffffffffffffffffffffffffffffffffff8116811461063957600080fd5b600080604083850312156116d157600080fd5b82356116dc8161169c565b946020939093013593505050565b6000602082840312156116fc57600080fd5b5035919050565b6020808252825182820181905260009190848201906040850190845b8181101561175157835173ffffffffffffffffffffffffffffffffffffffff168352928401929184019160010161171f565b50909695505050505050565b6000806040838503121561177057600080fd5b8235915060208301356117828161169c565b809150509250929050565b60006020828403121561179f57600080fd5b8135610a168161169c565b6000602082840312156117bc57600080fd5b5051919050565b7f4e487b7100000000000000000000000000000000000000000000000000000000600052601160045260246000fd5b60007fffffffffffffffffffffffffffffffffffffffffffffffffffffffffffffffff8203611823576118236117c3565b5060010190565b81810381811115610a0057610a006117c3565b7f4e487b7100000000000000000000000000000000000000000000000000000000600052603260045260246000fd5b7f4e487b7100000000000000000000000000000000000000000000000000000000600052604160045260246000fdfea2646970667358221220a88fb4080cc4bdf9406bb4f95af733ca8828bc85af8b7a806add1f220bd2622164736f6c63430008110033",
  "devdoc": {
    "kind": "dev",
    "methods": {
      "owner()": {
        "details": "Returns the address of the current owner."
      },
      "renounceOwnership()": {
        "details": "Leaves the contract without owner. It will not be possible to call `onlyOwner` functions anymore. Can only be called by the current owner. NOTE: Renouncing ownership will leave the contract without an owner, thereby removing any functionality that is only available to the owner."
      },
      "transferOwnership(address)": {
        "details": "Transfers ownership of the contract to a new account (`newOwner`). Can only be called by the current owner."
      }
    },
    "title": "Contract with trades resolvers whitelist",
    "version": 1
  },
  "userdoc": {
    "kind": "user",
    "methods": {},
    "version": 1
  },
  "storageLayout": {
    "storage": [
      {
        "astId": 8309,
        "contract": "contracts/WhitelistRegistry.sol:WhitelistRegistry",
        "label": "_owner",
        "offset": 0,
        "slot": "0",
        "type": "t_address"
      },
      {
        "astId": 13642,
        "contract": "contracts/WhitelistRegistry.sol:WhitelistRegistry",
        "label": "promotions",
        "offset": 0,
        "slot": "1",
        "type": "t_mapping(t_address,t_mapping(t_uint256,t_address))"
      },
      {
        "astId": 13644,
        "contract": "contracts/WhitelistRegistry.sol:WhitelistRegistry",
        "label": "resolverThreshold",
        "offset": 0,
        "slot": "2",
        "type": "t_uint256"
      },
      {
        "astId": 13646,
        "contract": "contracts/WhitelistRegistry.sol:WhitelistRegistry",
        "label": "whitelistLimit",
        "offset": 0,
        "slot": "3",
        "type": "t_uint256"
      },
      {
        "astId": 13649,
        "contract": "contracts/WhitelistRegistry.sol:WhitelistRegistry",
        "label": "_whitelist",
        "offset": 0,
        "slot": "4",
        "type": "t_struct(Data)6905_storage"
      }
    ],
    "types": {
      "t_address": {
        "encoding": "inplace",
        "label": "address",
        "numberOfBytes": "20"
      },
      "t_mapping(t_address,t_mapping(t_uint256,t_address))": {
        "encoding": "mapping",
        "key": "t_address",
        "label": "mapping(address => mapping(uint256 => address))",
        "numberOfBytes": "32",
        "value": "t_mapping(t_uint256,t_address)"
      },
      "t_mapping(t_address,t_uint256)": {
        "encoding": "mapping",
        "key": "t_address",
        "label": "mapping(address => uint256)",
        "numberOfBytes": "32",
        "value": "t_uint256"
      },
      "t_mapping(t_uint256,t_address)": {
        "encoding": "mapping",
        "key": "t_uint256",
        "label": "mapping(uint256 => address)",
        "numberOfBytes": "32",
        "value": "t_address"
      },
      "t_mapping(t_uint256,t_uint256)": {
        "encoding": "mapping",
        "key": "t_uint256",
        "label": "mapping(uint256 => uint256)",
        "numberOfBytes": "32",
        "value": "t_uint256"
      },
      "t_struct(Data)6523_storage": {
        "encoding": "inplace",
        "label": "struct AddressArray.Data",
        "members": [
          {
            "astId": 6522,
            "contract": "contracts/WhitelistRegistry.sol:WhitelistRegistry",
            "label": "_raw",
            "offset": 0,
            "slot": "0",
            "type": "t_mapping(t_uint256,t_uint256)"
          }
        ],
        "numberOfBytes": "32"
      },
      "t_struct(Data)6905_storage": {
        "encoding": "inplace",
        "label": "struct AddressSet.Data",
        "members": [
          {
            "astId": 6900,
            "contract": "contracts/WhitelistRegistry.sol:WhitelistRegistry",
            "label": "items",
            "offset": 0,
            "slot": "0",
            "type": "t_struct(Data)6523_storage"
          },
          {
            "astId": 6904,
            "contract": "contracts/WhitelistRegistry.sol:WhitelistRegistry",
            "label": "lookup",
            "offset": 0,
            "slot": "1",
            "type": "t_mapping(t_address,t_uint256)"
          }
        ],
        "numberOfBytes": "64"
      },
      "t_uint256": {
        "encoding": "inplace",
        "label": "uint256",
        "numberOfBytes": "32"
      }
    }
  }
}