{
  "address": "0xAccE550000863572B867E661647CD7D97b72C507",
  "abi": [
    {
      "inputs": [
        {
          "internalType": "string",
          "name": "name",
          "type": "string"
        },
        {
          "internalType": "string",
          "name": "symbol",
          "type": "string"
        },
        {
          "internalType": "string",
          "name": "version",
          "type": "string"
        },
        {
          "internalType": "address",
          "name": "owner",
          "type": "address"
        }
      ],
      "stateMutability": "nonpayable",
      "type": "constructor"
    },
    {
      "inputs": [],
      "name": "BadSignature",
      "type": "error"
    },
    {
      "inputs": [
        {
          "internalType": "address",
          "name": "sender",
          "type": "address"
        },
        {
          "internalType": "uint256",
          "name": "tokenId",
          "type": "uint256"
        },
        {
          "internalType": "address",
          "name": "owner",
          "type": "address"
        }
      ],
      "name": "ERC721IncorrectOwner",
      "type": "error"
    },
    {
      "inputs": [
        {
          "internalType": "address",
          "name": "operator",
          "type": "address"
        },
        {
          "internalType": "uint256",
          "name": "tokenId",
          "type": "uint256"
        }
      ],
      "name": "ERC721InsufficientApproval",
      "type": "error"
    },
    {
      "inputs": [
        {
          "internalType": "address",
          "name": "approver",
          "type": "address"
        }
      ],
      "name": "ERC721InvalidApprover",
      "type": "error"
    },
    {
      "inputs": [
        {
          "internalType": "address",
          "name": "operator",
          "type": "address"
        }
      ],
      "name": "ERC721InvalidOperator",
      "type": "error"
    },
    {
      "inputs": [
        {
          "internalType": "address",
          "name": "owner",
          "type": "address"
        }
      ],
      "name": "ERC721InvalidOwner",
      "type": "error"
    },
    {
      "inputs": [
        {
          "internalType": "address",
          "name": "receiver",
          "type": "address"
        }
      ],
      "name": "ERC721InvalidReceiver",
      "type": "error"
    },
    {
      "inputs": [
        {
          "internalType": "address",
          "name": "sender",
          "type": "address"
        }
      ],
      "name": "ERC721InvalidSender",
      "type": "error"
    },
    {
      "inputs": [
        {
          "internalType": "uint256",
          "name": "tokenId",
          "type": "uint256"
        }
      ],
      "name": "ERC721NonexistentToken",
      "type": "error"
    },
    {
      "inputs": [],
      "name": "InvalidShortString",
      "type": "error"
    },
    {
      "inputs": [],
      "name": "OnlyOneNFTPerAddress",
      "type": "error"
    },
    {
      "inputs": [
        {
          "internalType": "address",
          "name": "owner",
          "type": "address"
        }
      ],
      "name": "OwnableInvalidOwner",
      "type": "error"
    },
    {
      "inputs": [
        {
          "internalType": "address",
          "name": "account",
          "type": "address"
        }
      ],
      "name": "OwnableUnauthorizedAccount",
      "type": "error"
    },
    {
      "inputs": [],
      "name": "SignatureExpired",
      "type": "error"
    },
    {
      "inputs": [
        {
          "internalType": "string",
          "name": "str",
          "type": "string"
        }
      ],
      "name": "StringTooLong",
      "type": "error"
    },
    {
      "anonymous": false,
      "inputs": [
        {
          "indexed": true,
          "internalType": "address",
          "name": "owner",
          "type": "address"
        },
        {
          "indexed": true,
          "internalType": "address",
          "name": "approved",
          "type": "address"
        },
        {
          "indexed": true,
          "internalType": "uint256",
          "name": "tokenId",
          "type": "uint256"
        }
      ],
      "name": "Approval",
      "type": "event"
    },
    {
      "anonymous": false,
      "inputs": [
        {
          "indexed": true,
          "internalType": "address",
          "name": "owner",
          "type": "address"
        },
        {
          "indexed": true,
          "internalType": "address",
          "name": "operator",
          "type": "address"
        },
        {
          "indexed": false,
          "internalType": "bool",
          "name": "approved",
          "type": "bool"
        }
      ],
      "name": "ApprovalForAll",
      "type": "event"
    },
    {
      "anonymous": false,
      "inputs": [],
      "name": "EIP712DomainChanged",
      "type": "event"
    },
    {
      "anonymous": false,
      "inputs": [
        {
          "indexed": true,
          "internalType": "address",
          "name": "previousOwner",
          "type": "address"
        },
        {
          "indexed": true,
          "internalType": "address",
          "name": "newOwner",
          "type": "address"
        }
      ],
      "name": "OwnershipTransferred",
      "type": "event"
    },
    {
      "anonymous": false,
      "inputs": [
        {
          "indexed": true,
          "internalType": "address",
          "name": "from",
          "type": "address"
        },
        {
          "indexed": true,
          "internalType": "address",
          "name": "to",
          "type": "address"
        },
        {
          "indexed": true,
          "internalType": "uint256",
          "name": "tokenId",
          "type": "uint256"
        }
      ],
      "name": "Transfer",
      "type": "event"
    },
    {
      "inputs": [],
      "name": "MINT_TYPEHASH",
      "outputs": [
        {
          "internalType": "bytes32",
          "name": "",
          "type": "bytes32"
        }
      ],
      "stateMutability": "view",
      "type": "function"
    },
    {
      "inputs": [],
      "name": "TRANSFER_FROM_TYPEHASH",
      "outputs": [
        {
          "internalType": "bytes32",
          "name": "",
          "type": "bytes32"
        }
      ],
      "stateMutability": "view",
      "type": "function"
    },
    {
      "inputs": [
        {
          "internalType": "address",
          "name": "to",
          "type": "address"
        },
        {
          "internalType": "uint256",
          "name": "tokenId",
          "type": "uint256"
        }
      ],
      "name": "approve",
      "outputs": [],
      "stateMutability": "nonpayable",
      "type": "function"
    },
    {
      "inputs": [
        {
          "internalType": "address",
          "name": "owner",
          "type": "address"
        }
      ],
      "name": "balanceOf",
      "outputs": [
        {
          "internalType": "uint256",
          "name": "",
          "type": "uint256"
        }
      ],
      "stateMutability": "view",
      "type": "function"
    },
    {
      "inputs": [
        {
          "internalType": "uint256",
          "name": "tokenId",
          "type": "uint256"
        }
      ],
      "name": "burn",
      "outputs": [],
      "stateMutability": "nonpayable",
      "type": "function"
    },
    {
      "inputs": [],
      "name": "eip712Domain",
      "outputs": [
        {
          "internalType": "bytes1",
          "name": "fields",
          "type": "bytes1"
        },
        {
          "internalType": "string",
          "name": "name",
          "type": "string"
        },
        {
          "internalType": "string",
          "name": "version",
          "type": "string"
        },
        {
          "internalType": "uint256",
          "name": "chainId",
          "type": "uint256"
        },
        {
          "internalType": "address",
          "name": "verifyingContract",
          "type": "address"
        },
        {
          "internalType": "bytes32",
          "name": "salt",
          "type": "bytes32"
        },
        {
          "internalType": "uint256[]",
          "name": "extensions",
          "type": "uint256[]"
        }
      ],
      "stateMutability": "view",
      "type": "function"
    },
    {
      "inputs": [
        {
          "internalType": "uint256",
          "name": "tokenId",
          "type": "uint256"
        }
      ],
      "name": "getApproved",
      "outputs": [
        {
          "internalType": "address",
          "name": "",
          "type": "address"
        }
      ],
      "stateMutability": "view",
      "type": "function"
    },
    {
      "inputs": [
        {
          "internalType": "address",
          "name": "owner",
          "type": "address"
        },
        {
          "internalType": "address",
          "name": "operator",
          "type": "address"
        }
      ],
      "name": "isApprovedForAll",
      "outputs": [
        {
          "internalType": "bool",
          "name": "",
          "type": "bool"
        }
      ],
      "stateMutability": "view",
      "type": "function"
    },
    {
      "inputs": [
        {
          "internalType": "address",
          "name": "to",
          "type": "address"
        },
        {
          "internalType": "uint256",
          "name": "tokenId",
          "type": "uint256"
        }
      ],
      "name": "mint",
      "outputs": [],
      "stateMutability": "nonpayable",
      "type": "function"
    },
    {
      "inputs": [
        {
          "internalType": "address",
          "name": "to",
          "type": "address"
        },
        {
          "internalType": "uint256",
          "name": "tokenId",
          "type": "uint256"
        },
        {
          "internalType": "uint256",
          "name": "deadline",
          "type": "uint256"
        },
        {
          "internalType": "bytes",
          "name": "signature",
          "type": "bytes"
        }
      ],
      "name": "mint",
      "outputs": [],
      "stateMutability": "nonpayable",
      "type": "function"
    },
    {
      "inputs": [],
      "name": "name",
      "outputs": [
        {
          "internalType": "string",
          "name": "",
          "type": "string"
        }
      ],
      "stateMutability": "view",
      "type": "function"
    },
    {
      "inputs": [
        {
          "internalType": "uint256",
          "name": "",
          "type": "uint256"
        }
      ],
      "name": "nonces",
      "outputs": [
        {
          "internalType": "uint256",
          "name": "",
          "type": "uint256"
        }
      ],
      "stateMutability": "view",
      "type": "function"
    },
    {
      "inputs": [],
      "name": "owner",
      "outputs": [
        {
          "internalType": "address",
          "name": "",
          "type": "address"
        }
      ],
      "stateMutability": "view",
      "type": "function"
    },
    {
      "inputs": [
        {
          "internalType": "uint256",
          "name": "tokenId",
          "type": "uint256"
        }
      ],
      "name": "ownerOf",
      "outputs": [
        {
          "internalType": "address",
          "name": "",
          "type": "address"
        }
      ],
      "stateMutability": "view",
      "type": "function"
    },
    {
      "inputs": [],
      "name": "renounceOwnership",
      "outputs": [],
      "stateMutability": "nonpayable",
      "type": "function"
    },
    {
      "inputs": [
        {
          "internalType": "address",
          "name": "from",
          "type": "address"
        },
        {
          "internalType": "address",
          "name": "to",
          "type": "address"
        },
        {
          "internalType": "uint256",
          "name": "tokenId",
          "type": "uint256"
        }
      ],
      "name": "safeTransferFrom",
      "outputs": [],
      "stateMutability": "nonpayable",
      "type": "function"
    },
    {
      "inputs": [
        {
          "internalType": "address",
          "name": "from",
          "type": "address"
        },
        {
          "internalType": "address",
          "name": "to",
          "type": "address"
        },
        {
          "internalType": "uint256",
          "name": "tokenId",
          "type": "uint256"
        },
        {
          "internalType": "bytes",
          "name": "data",
          "type": "bytes"
        }
      ],
      "name": "safeTransferFrom",
      "outputs": [],
      "stateMutability": "nonpayable",
      "type": "function"
    },
    {
      "inputs": [
        {
          "internalType": "address",
          "name": "operator",
          "type": "address"
        },
        {
          "internalType": "bool",
          "name": "approved",
          "type": "bool"
        }
      ],
      "name": "setApprovalForAll",
      "outputs": [],
      "stateMutability": "nonpayable",
      "type": "function"
    },
    {
      "inputs": [
        {
          "internalType": "bytes4",
          "name": "interfaceId",
          "type": "bytes4"
        }
      ],
      "name": "supportsInterface",
      "outputs": [
        {
          "internalType": "bool",
          "name": "",
          "type": "bool"
        }
      ],
      "stateMutability": "view",
      "type": "function"
    },
    {
      "inputs": [],
      "name": "symbol",
      "outputs": [
        {
          "internalType": "string",
          "name": "",
          "type": "string"
        }
      ],
      "stateMutability": "view",
      "type": "function"
    },
    {
      "inputs": [
        {
          "internalType": "uint256",
          "name": "tokenId",
          "type": "uint256"
        }
      ],
      "name": "tokenURI",
      "outputs": [
        {
          "internalType": "string",
          "name": "",
          "type": "string"
        }
      ],
      "stateMutability": "view",
      "type": "function"
    },
    {
      "inputs": [
        {
          "internalType": "address",
          "name": "from",
          "type": "address"
        },
        {
          "internalType": "address",
          "name": "to",
          "type": "address"
        },
        {
          "internalType": "uint256",
          "name": "tokenId",
          "type": "uint256"
        }
      ],
      "name": "transferFrom",
      "outputs": [],
      "stateMutability": "nonpayable",
      "type": "function"
    },
    {
      "inputs": [
        {
          "internalType": "address",
          "name": "from",
          "type": "address"
        },
        {
          "internalType": "address",
          "name": "to",
          "type": "address"
        },
        {
          "internalType": "uint256",
          "name": "tokenId",
          "type": "uint256"
        },
        {
          "internalType": "uint256",
          "name": "deadline",
          "type": "uint256"
        },
        {
          "internalType": "bytes",
          "name": "signature",
          "type": "bytes"
        }
      ],
      "name": "transferFrom",
      "outputs": [],
      "stateMutability": "nonpayable",
      "type": "function"
    },
    {
      "inputs": [
        {
          "internalType": "address",
          "name": "newOwner",
          "type": "address"
        }
      ],
      "name": "transferOwnership",
      "outputs": [],
      "stateMutability": "nonpayable",
      "type": "function"
    }
  ],
  "transactionHash": "0x0300556d304ff4ade9a92f1934342328f107bdfc771496900526059d2a3f76f8",
  "args": [
    "Resolver Access Token",
    "RES",
    "1",
    "0x56E44874F624EbDE6efCc783eFD685f0FBDC6dcF"
  ],
  "numDeployments": 1,
  "bytecode": "0x6101606040818152346200048d5762002957803803809162000022828662000492565b84398201916080818403126200048d5780516001600160401b0392908381116200048d578462000054918401620004f1565b916020808201518581116200048d578662000071918401620004f1565b95838301518681116200048d576060916200008e918501620004f1565b9201516001600160a01b039690878116908190036200048d5780156200047557600080546001600160a01b03198116831782559098167f8be0079c531659141344cd1fd0a4f28419497f9722a3daafe3b4186f6b6457e08980a384519086821162000461576001918254908382811c9216801562000456575b858310146200044257601f91828111620003fa575b50808583821160011462000397578b916200038b575b50600019600383901b1c191690841b1783555b81519188831162000377576002548481811c911680156200036c575b8682101462000358578281116200030f575b5084918311600114620002a9579282939183928b946200029d575b50501b916000199060031b1c1916176002555b620001ac846200054c565b92610120938452620001be836200070a565b94610140958652828151910120928360e05282815191012096610100978089524660a0528251938401947f8b73c3c69bb8fe3d512ecc4cf759cc79239f7b179b0ffacaa9a75d522b39400f86528385015260608401524660808401523060a084015260a0835260c0830196838810908811176200028957508590525190206080523060c0526120f5938462000862853960805184611dd2015260a05184611e9e015260c05184611da3015260e05184611e2101525183611e47015251826106b8015251816106e20152f35b634e487b7160e01b81526041600452602490fd5b0151925038806200018e565b60028a52848a20919083601f1981168c5b8888838310620002f75750505010620002dd575b505050811b01600255620001a1565b015160001960f88460031b161c19169055388080620002ce565b868601518855909601959485019487935001620002ba565b60028b52858b208380860160051c8201928887106200034e575b0160051c019085905b8281106200034257505062000173565b8c815501859062000332565b9250819262000329565b634e487b7160e01b8b52602260045260248bfd5b90607f169062000161565b634e487b7160e01b8a52604160045260248afd5b90508801513862000132565b858c52868c2086935090601f1983168d5b898d838310620003e4575050508311620003ca575b5050811b01835562000145565b8a015160001960f88460031b161c191690553880620003bd565b84015185558996909401939283019201620003a8565b848b52858b208380840160051c82019288851062000438575b0160051c019085905b8281106200042c5750506200011c565b8c81550185906200041c565b9250819262000413565b634e487b7160e01b8a52602260045260248afd5b91607f169162000107565b634e487b7160e01b88526041600452602488fd5b8451631e4fbdf760e01b815260006004820152602490fd5b600080fd5b601f909101601f19168101906001600160401b03821190821017620004b657604052565b634e487b7160e01b600052604160045260246000fd5b60005b838110620004e05750506000910152565b8181015183820152602001620004cf565b81601f820112156200048d5780516001600160401b038111620004b6576040519262000528601f8301601f19166020018562000492565b818452602082840101116200048d57620005499160208085019101620004cc565b90565b805160209081811015620005ca5750601f8251116200058857808251920151908083106200057957501790565b82600019910360031b1b161790565b604490620005bc9260405193849263305a27a960e01b845280600485015282519283918260248701528686019101620004cc565b601f01601f19168101030190fd5b906001600160401b038211620004b657600754926001938481811c91168015620006ff575b83821014620006e957601f8111620006af575b5081601f841160011462000643575092829391839260009462000637575b50501b916000199060031b1c19161760075560ff90565b01519250388062000620565b919083601f198116600760005284600020946000905b888383106200069457505050106200067a575b505050811b0160075560ff90565b015160001960f88460031b161c191690553880806200066c565b85870151885590960195948501948793509081019062000659565b600760005284601f84600020920160051c820191601f860160051c015b828110620006dc57505062000602565b60008155018590620006cc565b634e487b7160e01b600052602260045260246000fd5b90607f1690620005ef565b805160209081811015620007375750601f8251116200058857808251920151908083106200057957501790565b906001600160401b038211620004b657600854926001938481811c9116801562000856575b83821014620006e957601f81116200081c575b5081601f8411600114620007b05750928293918392600094620007a4575b50501b916000199060031b1c19161760085560ff90565b0151925038806200078d565b919083601f198116600860005284600020946000905b88838310620008015750505010620007e7575b505050811b0160085560ff90565b015160001960f88460031b161c19169055388080620007d9565b858701518855909601959485019487935090810190620007c6565b600860005284601f84600020920160051c820191601f860160051c015b828110620008495750506200076f565b6000815501859062000839565b90607f16906200075c56fe608060408181526004918236101561001657600080fd5b600092833560e01c91826301ffc9a7146113245750816306fdde0314611252578163081812fc146111ec578163095ea7b314611095578163141a468c1461104f57816323b872dd1461102f57816340c10f1914610fe457816342842e0e14610fbb57816342966c6814610bfd578163605105f014610aa35781636352211e14610a4857816370a08231146109fd578163715018a614610961578163731133e9146108095781638175db48146107b057816384b0196e1461067e5781638da5cb5b1461062d57816395d89b4114610504578163a22cb46514610400578163b88d4fde14610358578163c87b56dd146102e8578163e985e9c51461026f578163f2fde38b14610188575063f76fc35e1461012d57600080fd5b3461018457817ffffffffffffffffffffffffffffffffffffffffffffffffffffffffffffffffc36011261018457602090517f5d886c76f2b9956f41dc5f7a0855f015c4d8d77370da5ce4bed466a8ea040b918152f35b5080fd5b90503461026b5760207ffffffffffffffffffffffffffffffffffffffffffffffffffffffffffffffffc36011261026b576101c161146f565b906101ca611934565b73ffffffffffffffffffffffffffffffffffffffff80921692831561023c5750508254827fffffffffffffffffffffffff00000000000000000000000000000000000000008216178455167f8be0079c531659141344cd1fd0a4f28419497f9722a3daafe3b4186f6b6457e08380a380f35b908460249251917f1e4fbdf7000000000000000000000000000000000000000000000000000000008352820152fd5b8280fd5b50503461018457807ffffffffffffffffffffffffffffffffffffffffffffffffffffffffffffffffc3601126101845760ff816020936102ad61146f565b6102b5611497565b73ffffffffffffffffffffffffffffffffffffffff91821683526006875283832091168252855220549151911615158152f35b8383346101845760207ffffffffffffffffffffffffffffffffffffffffffffffffffffffffffffffffc3601126101845761032661035493356118d3565b5081815161033381611548565b5280519161034083611548565b825251918291602083526020830190611411565b0390f35b9190503461026b5760807ffffffffffffffffffffffffffffffffffffffffffffffffffffffffffffffffc36011261026b5761039261146f565b61039a611497565b846064359467ffffffffffffffff8611610184573660238701121561018457850135946103d26103c98761160c565b955195866115cb565b858552366024878301011161018457856103fd966024602093018388013785010152604435916116f7565b80f35b9190503461026b57807ffffffffffffffffffffffffffffffffffffffffffffffffffffffffffffffffc36011261026b5761043961146f565b90602435918215158093036105005773ffffffffffffffffffffffffffffffffffffffff169283156104d2575033845260066020528084208385526020528084207fffffffffffffffffffffffffffffffffffffffffffffffffffffffffffffff0081541660ff8416179055519081527f17307eab39ab6107e8899845ad3d59bd9653f200f220920489ca2b5937696c3160203392a380f35b8360249251917f5b08ba18000000000000000000000000000000000000000000000000000000008352820152fd5b8480fd5b82843461062a57807ffffffffffffffffffffffffffffffffffffffffffffffffffffffffffffffffc36011261062a57815191828260025461054581611646565b90818452602095600191876001821691826000146105e5575050600114610589575b505050610354929161057a9103856115cb565b51928284938452830190611411565b9190869350600283527f405787fa12a823e0f2b7631cc41b3ba8828b3321ca811111fa75cd3aa3bb5ace5b8284106105cd575050508201018161057a610354610567565b8054848a0186015288955087949093019281016105b4565b7fffffffffffffffffffffffffffffffffffffffffffffffffffffffffffffff00168782015293151560051b8601909301935084925061057a91506103549050610567565b80fd5b50503461018457817ffffffffffffffffffffffffffffffffffffffffffffffffffffffffffffffffc3601126101845773ffffffffffffffffffffffffffffffffffffffff60209254169051908152f35b50503461018457817ffffffffffffffffffffffffffffffffffffffffffffffffffffffffffffffffc3601126101845790610754916106dc7f0000000000000000000000000000000000000000000000000000000000000000611ec4565b916107067f0000000000000000000000000000000000000000000000000000000000000000611fff565b61076183519361071585611548565b83855260209281519788977f0f00000000000000000000000000000000000000000000000000000000000000895260e060208a015260e0890190611411565b9187830390880152611411565b904660608601523060808601528260a086015284820360c0860152602080855193848152019401925b82811061079957505050500390f35b83518552869550938101939281019260010161078a565b50503461018457817ffffffffffffffffffffffffffffffffffffffffffffffffffffffffffffffffc36011261018457602090517f066b01d1d9822d4419c12cf2d4b5ff3277e1dc616369ba3393eba0a192a3effd8152f35b8383346101845760807ffffffffffffffffffffffffffffffffffffffffffffffffffffffffffffffffc3601126101845761084261146f565b6024359160443560643567ffffffffffffffff811161095d57610868903690880161151a565b8291924211610935576108fc9086885260096020526108f18589205493865160208101917f5d886c76f2b9956f41dc5f7a0855f015c4d8d77370da5ce4bed466a8ea040b91835273ffffffffffffffffffffffffffffffffffffffff96878b168a84015260608301528a608083015260a082015260a081526108e9816115af565b519020611ac1565b938389541694611b02565b160361090d5750906103fd91611a62565b8490517f5cd5d233000000000000000000000000000000000000000000000000000000008152fd5b8784517f0819bdcd000000000000000000000000000000000000000000000000000000008152fd5b8580fd5b833461062a57807ffffffffffffffffffffffffffffffffffffffffffffffffffffffffffffffffc36011261062a57610998611934565b8073ffffffffffffffffffffffffffffffffffffffff81547fffffffffffffffffffffffff000000000000000000000000000000000000000081168355167f8be0079c531659141344cd1fd0a4f28419497f9722a3daafe3b4186f6b6457e08280a380f35b5050346101845760207ffffffffffffffffffffffffffffffffffffffffffffffffffffffffffffffffc36011261018457602090610a41610a3c61146f565b611699565b9051908152f35b82843461062a5760207ffffffffffffffffffffffffffffffffffffffffffffffffffffffffffffffffc36011261062a575073ffffffffffffffffffffffffffffffffffffffff610a9b602093356118d3565b915191168152f35b8383346101845760a07ffffffffffffffffffffffffffffffffffffffffffffffffffffffffffffffffc36011261018457610adc61146f565b610ae4611497565b906044359260643560843567ffffffffffffffff8111610bf957610b0b903690890161151a565b8291924211610bd157610b97908789526009602052610b8c858a205493865160208101917f066b01d1d9822d4419c12cf2d4b5ff3277e1dc616369ba3393eba0a192a3effd835273ffffffffffffffffffffffffffffffffffffffff96878c168a84015260608301528b608083015260a082015260a081526108e9816115af565b93838a541694611b02565b1603610ba957506103fd939450611985565b8590517f5cd5d233000000000000000000000000000000000000000000000000000000008152fd5b8884517f0819bdcd000000000000000000000000000000000000000000000000000000008152fd5b8680fd5b9190503461026b57602090817ffffffffffffffffffffffffffffffffffffffffffffffffffffffffffffffffc360112610fb75782359173ffffffffffffffffffffffffffffffffffffffff90818654163314600014610db55783865260098152828620918254927fffffffffffffffffffffffffffffffffffffffffffffffffffffffffffffffff93848114610d8957889287949260016003930190558484528183528684205416918215958615610d3b575b50848452528482207fffffffffffffffffffffffff000000000000000000000000000000000000000081541690557fddf252ad1be2c89b69c2b068fc378daa952ba7f163c4a11628f55a4df523b3ef8280a4610d0d5750505080f35b6024935051917f7e273289000000000000000000000000000000000000000000000000000000008352820152fd5b610d7486600052600560205260406000207fffffffffffffffffffffffff00000000000000000000000000000000000000008154169055565b83855289825287852090815401905538610cb1565b60248960118a7f4e487b7100000000000000000000000000000000000000000000000000000000835252fd5b9091949383855260098252858520908154917fffffffffffffffffffffffffffffffffffffffffffffffffffffffffffffffff92838114610f8b57600101905584865260038352838787205416933315159081610ec2575b50509160039186979385979697610e74575b50508585525282207fffffffffffffffffffffffff000000000000000000000000000000000000000081541690557fddf252ad1be2c89b69c2b068fc378daa952ba7f163c4a11628f55a4df523b3ef8280a480f35b610ead88600052600560205260406000207fffffffffffffffffffffffff00000000000000000000000000000000000000008154169055565b85875282528386209081540190553880610e1f565b81610f3e575b5015610ed5573880610e0d565b94505050610f0a5760249251917f7e273289000000000000000000000000000000000000000000000000000000008352820152fd5b60449251917f177e802f00000000000000000000000000000000000000000000000000000000835233908301526024820152fd5b33861491508115610f6e575b8115610f58575b5038610ec8565b8688526005855288882054163314905038610f51565b8588526006855288882033895285528888205460ff169150610f4a565b6024886011857f4e487b7100000000000000000000000000000000000000000000000000000000835252fd5b8380fd5b505034610184576103fd90610fcf366114ba565b91925192610fdc84611548565b8584526116f7565b505034610184577ffffffffffffffffffffffffffffffffffffffffffffffffffffffffffffffffc36011261062a576103fd61101e61146f565b611026611934565b60243590611a62565b833461062a576103fd611041366114ba565b9161104a611934565b611985565b90503461026b5760207ffffffffffffffffffffffffffffffffffffffffffffffffffffffffffffffffc36011261026b5760209282913581526009845220549051908152f35b9190503461026b57807ffffffffffffffffffffffffffffffffffffffffffffffffffffffffffffffffc36011261026b576110ce61146f565b91602435906110dc826118d3565b90331515806111cc575b80611197575b6111675750819073ffffffffffffffffffffffffffffffffffffffff809516948591167f8c5be1e5ebec7d5bd14f71427d1e84f3dd0314c0f7b2291e5b200ac8c7c3b9258780a4835260056020528220907fffffffffffffffffffffffff000000000000000000000000000000000000000082541617905580f35b6024908451907fa9fbf51f0000000000000000000000000000000000000000000000000000000082523390820152fd5b5073ffffffffffffffffffffffffffffffffffffffff82168652600660205283862033875260205260ff8487205416156110ec565b503373ffffffffffffffffffffffffffffffffffffffff831614156110e6565b90503461026b5760207ffffffffffffffffffffffffffffffffffffffffffffffffffffffffffffffffc36011261026b578160209373ffffffffffffffffffffffffffffffffffffffff9235611241816118d3565b508152600585522054169051908152f35b82843461062a57807ffffffffffffffffffffffffffffffffffffffffffffffffffffffffffffffffc36011261062a5781519182826001936001549461129786611646565b91828552602096876001821691826000146105e55750506001146112c857505050610354929161057a9103856115cb565b9190869350600183527fb10e2d527612073b26eecdfd717e6a320cf44b4afac2b0732d9fcbe2b7fa0cf65b82841061130c575050508201018161057a610354610567565b8054848a0186015288955087949093019281016112f3565b84913461026b5760207ffffffffffffffffffffffffffffffffffffffffffffffffffffffffffffffffc36011261026b57357fffffffff00000000000000000000000000000000000000000000000000000000811680910361026b57602092507f80ac58cd0000000000000000000000000000000000000000000000000000000081149081156113e7575b81156113bd575b5015158152f35b7f01ffc9a700000000000000000000000000000000000000000000000000000000915014836113b6565b7f5b5e139f00000000000000000000000000000000000000000000000000000000811491506113af565b919082519283825260005b84811061145b5750507fffffffffffffffffffffffffffffffffffffffffffffffffffffffffffffffe0601f8460006020809697860101520116010190565b60208183018101518483018201520161141c565b6004359073ffffffffffffffffffffffffffffffffffffffff8216820361149257565b600080fd5b6024359073ffffffffffffffffffffffffffffffffffffffff8216820361149257565b7ffffffffffffffffffffffffffffffffffffffffffffffffffffffffffffffffc60609101126114925773ffffffffffffffffffffffffffffffffffffffff90600435828116810361149257916024359081168103611492579060443590565b9181601f840112156114925782359167ffffffffffffffff8311611492576020838186019501011161149257565b6020810190811067ffffffffffffffff82111761156457604052565b7f4e487b7100000000000000000000000000000000000000000000000000000000600052604160045260246000fd5b6040810190811067ffffffffffffffff82111761156457604052565b60c0810190811067ffffffffffffffff82111761156457604052565b90601f7fffffffffffffffffffffffffffffffffffffffffffffffffffffffffffffffe0910116810190811067ffffffffffffffff82111761156457604052565b67ffffffffffffffff811161156457601f017fffffffffffffffffffffffffffffffffffffffffffffffffffffffffffffffe01660200190565b90600182811c9216801561168f575b602083101461166057565b7f4e487b7100000000000000000000000000000000000000000000000000000000600052602260045260246000fd5b91607f1691611655565b73ffffffffffffffffffffffffffffffffffffffff1680156116c657600052600460205260406000205490565b60246040517f89c62b6400000000000000000000000000000000000000000000000000000000815260006004820152fd5b6116ff611934565b61170a838383611985565b813b611717575b50505050565b73ffffffffffffffffffffffffffffffffffffffff949192939480931693604051937f150b7a020000000000000000000000000000000000000000000000000000000092838652336004870152166024850152604484015260806064840152826117876020966084830190611411565b039285816000958187895af184918161187b575b50611813575050503d60001461180b573d6117b58161160c565b906117c360405192836115cb565b81528091843d92013e5b8051928361180657602483604051907f64a0ae920000000000000000000000000000000000000000000000000000000082526004820152fd5b019050fd5b5060606117cd565b9092507fffffffff00000000000000000000000000000000000000000000000000000000919450160361184a575038808080611711565b602490604051907f64a0ae920000000000000000000000000000000000000000000000000000000082526004820152fd5b9091508681813d83116118cc575b61189381836115cb565b8101031261050057517fffffffff000000000000000000000000000000000000000000000000000000008116810361050057903861179b565b503d611889565b80600052600360205273ffffffffffffffffffffffffffffffffffffffff60406000205416908115611903575090565b602490604051907f7e2732890000000000000000000000000000000000000000000000000000000082526004820152fd5b73ffffffffffffffffffffffffffffffffffffffff60005416330361195557565b60246040517f118cdaa7000000000000000000000000000000000000000000000000000000008152336004820152fd5b9073ffffffffffffffffffffffffffffffffffffffff9081811615611a31576119af848392611bd5565b1691826119e757602484604051907f7e2732890000000000000000000000000000000000000000000000000000000082526004820152fd5b16918282036119f557505050565b60649350604051927f64283d7b000000000000000000000000000000000000000000000000000000008452600484015260248301526044820152fd5b60246040517f64a0ae9200000000000000000000000000000000000000000000000000000000815260006004820152fd5b73ffffffffffffffffffffffffffffffffffffffff9182821615611a3157611a8991611bd5565b16611a9057565b60246040517f73c6ac6e00000000000000000000000000000000000000000000000000000000815260006004820152fd5b604290611acc611d8c565b90604051917f19010000000000000000000000000000000000000000000000000000000000008352600283015260228201522090565b9291600093600092604051928381604114611bbc5750604014611b775750829150815b611b2e57505050565b7f7fffffffffffffffffffffffffffffff5d576e7357a4501ddfe92f46681b20a1606083015110611b5e57505050565b8293945081608091602094935282805260015afa505190565b7f7fffffffffffffffffffffffffffffffffffffffffffffffffffffffffffffff8160208086940135918260ff1c601b01828601526040850137166060820152611b25565b916040809250810135861a602084015281830137611b25565b9073ffffffffffffffffffffffffffffffffffffffff8083169081151580948195611d7a575b50611d50576000838152600960205260408120918254927fffffffffffffffffffffffffffffffffffffffffffffffffffffffffffffffff93848114611d2357600101905584825260036020526040822054169485927fddf252ad1be2c89b69c2b068fc378daa952ba7f163c4a11628f55a4df523b3ef92919084611cd2575b50611cba575b848152600360205260408120847fffffffffffffffffffffffff000000000000000000000000000000000000000082541617905580a490565b83815260046020526040812060018154019055611c81565b611d0b87600052600560205260406000207fffffffffffffffffffffffff00000000000000000000000000000000000000008154169055565b84835260046020526040832090815401905538611c7b565b6024847f4e487b710000000000000000000000000000000000000000000000000000000081526011600452fd5b60046040517f6cb75e3f000000000000000000000000000000000000000000000000000000008152fd5b611d849150611699565b151538611bfb565b73ffffffffffffffffffffffffffffffffffffffff7f000000000000000000000000000000000000000000000000000000000000000016301480611e9b575b15611df4577f000000000000000000000000000000000000000000000000000000000000000090565b60405160208101907f8b73c3c69bb8fe3d512ecc4cf759cc79239f7b179b0ffacaa9a75d522b39400f82527f000000000000000000000000000000000000000000000000000000000000000060408201527f000000000000000000000000000000000000000000000000000000000000000060608201524660808201523060a082015260a0815260c0810181811067ffffffffffffffff8211176115645760405251902090565b507f00000000000000000000000000000000000000000000000000000000000000004614611dcb565b60ff8114611f1a5760ff811690601f8211611ef05760405191611ee683611593565b8252602082015290565b60046040517fb3512b0c000000000000000000000000000000000000000000000000000000008152fd5b50604051600754816000611f2d83611646565b80835292602090600190818116908115611fbc5750600114611f5b575b5050611f58925003826115cb565b90565b91509260076000527fa66cc928b5edb82af9bd49922954155ab7b0942694bea4ce44661d9a8736c688936000925b828410611fa45750611f589450505081016020013880611f4a565b85548785018301529485019486945092810192611f89565b905060209350611f589592507fffffffffffffffffffffffffffffffffffffffffffffffffffffffffffffff0091501682840152151560051b8201013880611f4a565b60ff81146120215760ff811690601f8211611ef05760405191611ee683611593565b5060405160085481600061203483611646565b80835292602090600190818116908115611fbc575060011461205e575050611f58925003826115cb565b91509260086000527ff3f7a9fe364faab93b216da50a3214154f22a0a2b415b23a84c8169e8b636ee3936000925b8284106120a75750611f589450505081016020013880611f4a565b8554878501830152948501948694509281019261208c56fea26469706673582212208be5267522e7065b484012d615afe47639199025182edfa3ae62b10c0b0186cd64736f6c63430008170033"
}