{
  "address": "0xAbD4e5fB590Aa132749bbF2A04eA57EFbaAC399E",
  "abi": [
    {
      "inputs": [
        {
          "internalType": "address",
          "name": "limitOrderProtocol",
          "type": "address"
        },
        {
          "internalType": "contract IERC20",
          "name": "accessToken",
          "type": "address"
        },
        {
          "internalType": "address",
          "name": "weth",
          "type": "address"
        },
        {
          "internalType": "address",
          "name": "owner",
          "type": "address"
        }
      ],
      "stateMutability": "nonpayable",
      "type": "constructor"
    },
    {
      "inputs": [],
      "name": "AllowedTimeViolation",
      "type": "error"
    },
    {
      "inputs": [],
      "name": "ETHTransferFailed",
      "type": "error"
    },
    {
      "inputs": [],
      "name": "EthTransferFailed",
      "type": "error"
    },
    {
      "inputs": [],
      "name": "InconsistentFee",
      "type": "error"
    },
    {
      "inputs": [],
      "name": "InsufficientBalance",
      "type": "error"
    },
    {
      "inputs": [],
      "name": "InvalidIntegratorShare",
      "type": "error"
    },
    {
      "inputs": [],
      "name": "InvalidWhitelistDiscountNumerator",
      "type": "error"
    },
    {
      "inputs": [],
      "name": "OnlyLimitOrderProtocol",
      "type": "error"
    },
    {
      "inputs": [],
      "name": "OnlyWhitelistOrAccessToken",
      "type": "error"
    },
    {
      "inputs": [
        {
          "internalType": "address",
          "name": "owner",
          "type": "address"
        }
      ],
      "name": "OwnableInvalidOwner",
      "type": "error"
    },
    {
      "inputs": [
        {
          "internalType": "address",
          "name": "account",
          "type": "address"
        }
      ],
      "name": "OwnableUnauthorizedAccount",
      "type": "error"
    },
    {
      "inputs": [],
      "name": "SafeTransferFailed",
      "type": "error"
    },
    {
      "anonymous": false,
      "inputs": [
        {
          "indexed": true,
          "internalType": "address",
          "name": "previousOwner",
          "type": "address"
        },
        {
          "indexed": true,
          "internalType": "address",
          "name": "newOwner",
          "type": "address"
        }
      ],
      "name": "OwnershipTransferred",
      "type": "event"
    },
    {
      "inputs": [
        {
          "components": [
            {
              "internalType": "uint256",
              "name": "salt",
              "type": "uint256"
            },
            {
              "internalType": "Address",
              "name": "maker",
              "type": "uint256"
            },
            {
              "internalType": "Address",
              "name": "receiver",
              "type": "uint256"
            },
            {
              "internalType": "Address",
              "name": "makerAsset",
              "type": "uint256"
            },
            {
              "internalType": "Address",
              "name": "takerAsset",
              "type": "uint256"
            },
            {
              "internalType": "uint256",
              "name": "makingAmount",
              "type": "uint256"
            },
            {
              "internalType": "uint256",
              "name": "takingAmount",
              "type": "uint256"
            },
            {
              "internalType": "MakerTraits",
              "name": "makerTraits",
              "type": "uint256"
            }
          ],
          "internalType": "struct IOrderMixin.Order",
          "name": "order",
          "type": "tuple"
        },
        {
          "internalType": "bytes",
          "name": "extension",
          "type": "bytes"
        },
        {
          "internalType": "bytes32",
          "name": "orderHash",
          "type": "bytes32"
        },
        {
          "internalType": "address",
          "name": "taker",
          "type": "address"
        },
        {
          "internalType": "uint256",
          "name": "takingAmount",
          "type": "uint256"
        },
        {
          "internalType": "uint256",
          "name": "remainingMakingAmount",
          "type": "uint256"
        },
        {
          "internalType": "bytes",
          "name": "extraData",
          "type": "bytes"
        }
      ],
      "name": "getMakingAmount",
      "outputs": [
        {
          "internalType": "uint256",
          "name": "",
          "type": "uint256"
        }
      ],
      "stateMutability": "view",
      "type": "function"
    },
    {
      "inputs": [
        {
          "components": [
            {
              "internalType": "uint256",
              "name": "salt",
              "type": "uint256"
            },
            {
              "internalType": "Address",
              "name": "maker",
              "type": "uint256"
            },
            {
              "internalType": "Address",
              "name": "receiver",
              "type": "uint256"
            },
            {
              "internalType": "Address",
              "name": "makerAsset",
              "type": "uint256"
            },
            {
              "internalType": "Address",
              "name": "takerAsset",
              "type": "uint256"
            },
            {
              "internalType": "uint256",
              "name": "makingAmount",
              "type": "uint256"
            },
            {
              "internalType": "uint256",
              "name": "takingAmount",
              "type": "uint256"
            },
            {
              "internalType": "MakerTraits",
              "name": "makerTraits",
              "type": "uint256"
            }
          ],
          "internalType": "struct IOrderMixin.Order",
          "name": "order",
          "type": "tuple"
        },
        {
          "internalType": "bytes",
          "name": "extension",
          "type": "bytes"
        },
        {
          "internalType": "bytes32",
          "name": "orderHash",
          "type": "bytes32"
        },
        {
          "internalType": "address",
          "name": "taker",
          "type": "address"
        },
        {
          "internalType": "uint256",
          "name": "makingAmount",
          "type": "uint256"
        },
        {
          "internalType": "uint256",
          "name": "remainingMakingAmount",
          "type": "uint256"
        },
        {
          "internalType": "bytes",
          "name": "extraData",
          "type": "bytes"
        }
      ],
      "name": "getTakingAmount",
      "outputs": [
        {
          "internalType": "uint256",
          "name": "",
          "type": "uint256"
        }
      ],
      "stateMutability": "view",
      "type": "function"
    },
    {
      "inputs": [],
      "name": "owner",
      "outputs": [
        {
          "internalType": "address",
          "name": "",
          "type": "address"
        }
      ],
      "stateMutability": "view",
      "type": "function"
    },
    {
      "inputs": [
        {
          "components": [
            {
              "internalType": "uint256",
              "name": "salt",
              "type": "uint256"
            },
            {
              "internalType": "Address",
              "name": "maker",
              "type": "uint256"
            },
            {
              "internalType": "Address",
              "name": "receiver",
              "type": "uint256"
            },
            {
              "internalType": "Address",
              "name": "makerAsset",
              "type": "uint256"
            },
            {
              "internalType": "Address",
              "name": "takerAsset",
              "type": "uint256"
            },
            {
              "internalType": "uint256",
              "name": "makingAmount",
              "type": "uint256"
            },
            {
              "internalType": "uint256",
              "name": "takingAmount",
              "type": "uint256"
            },
            {
              "internalType": "MakerTraits",
              "name": "makerTraits",
              "type": "uint256"
            }
          ],
          "internalType": "struct IOrderMixin.Order",
          "name": "order",
          "type": "tuple"
        },
        {
          "internalType": "bytes",
          "name": "extension",
          "type": "bytes"
        },
        {
          "internalType": "bytes32",
          "name": "orderHash",
          "type": "bytes32"
        },
        {
          "internalType": "address",
          "name": "taker",
          "type": "address"
        },
        {
          "internalType": "uint256",
          "name": "makingAmount",
          "type": "uint256"
        },
        {
          "internalType": "uint256",
          "name": "takingAmount",
          "type": "uint256"
        },
        {
          "internalType": "uint256",
          "name": "remainingMakingAmount",
          "type": "uint256"
        },
        {
          "internalType": "bytes",
          "name": "extraData",
          "type": "bytes"
        }
      ],
      "name": "postInteraction",
      "outputs": [],
      "stateMutability": "nonpayable",
      "type": "function"
    },
    {
      "inputs": [],
      "name": "renounceOwnership",
      "outputs": [],
      "stateMutability": "nonpayable",
      "type": "function"
    },
    {
      "inputs": [
        {
          "internalType": "contract IERC20",
          "name": "token",
          "type": "address"
        },
        {
          "internalType": "uint256",
          "name": "amount",
          "type": "uint256"
        }
      ],
      "name": "rescueFunds",
      "outputs": [],
      "stateMutability": "nonpayable",
      "type": "function"
    },
    {
      "inputs": [
        {
          "internalType": "address",
          "name": "newOwner",
          "type": "address"
        }
      ],
      "name": "transferOwnership",
      "outputs": [],
      "stateMutability": "nonpayable",
      "type": "function"
    },
    {
      "stateMutability": "payable",
      "type": "receive"
    }
  ],
  "transactionHash": "0xf0bce10a364139f5e3f164de04b64d594c352d8ed73649354c02f6ea619508e1",
  "args": [
    "0x111111125421ca6dc452d289314280a0f8842a65",
    "0xAccE550000863572B867E661647CD7D97b72C507",
    "0xB31f66AA3C1e785363F0875A1B74E27b85FD66c7",
    "0x56E44874F624EbDE6efCc783eFD685f0FBDC6dcF"
  ],
  "numDeployments": 1,
  "bytecode": "0x60e0346200011357601f62001f5a38819003918201601f19168301916001600160401b03831184841017620001185780849260809460405283398101031262000113576200004d816200012e565b60208201516001600160a01b0392909183831683036200011357836200008460606200007c604086016200012e565b94016200012e565b168015620000fa57600080546001600160a01b03198116831782556040519616907f8be0079c531659141344cd1fd0a4f28419497f9722a3daafe3b4186f6b6457e09080a360805260a05260c052611e169081620001448239608051816104e5015260a05181610731015260c05181610ac40152f35b604051631e4fbdf760e01b815260006004820152602490fd5b600080fd5b634e487b7160e01b600052604160045260246000fd5b51906001600160a01b0382168203620001135756fe6080604052600436101561001b575b361561001957600080fd5b005b6000803560e01c80631d9671c314610c9b578063462ebde21461042b578063715018a61461038e57806378e3214f146102685780638da5cb5b14610217578063d7ff8a80146101605763f2fde38b14610074575061000e565b3461015d5760207ffffffffffffffffffffffffffffffffffffffffffffffffffffffffffffffffc36011261015d5760043573ffffffffffffffffffffffffffffffffffffffff808216809203610158576100cd610f26565b811561012757600054827fffffffffffffffffffffffff0000000000000000000000000000000000000000821617600055167f8be0079c531659141344cd1fd0a4f28419497f9722a3daafe3b4186f6b6457e0600080a380f35b602483604051907f1e4fbdf70000000000000000000000000000000000000000000000000000000082526004820152fd5b600080fd5b80fd5b503461015d576101a36101c061018c61019561017b36610d35565b849c98999295979a9194939461100e565b909c919c611738565b99945097929b915099611d21565b91620186a0910181016101b681846112d4565b9209151590610ddf565b9162989680918201908183116101ea5760206101e28585856101b6818461135d565b604051908152f35b807f4e487b7100000000000000000000000000000000000000000000000000000000602492526011600452fd5b503461015d57807ffffffffffffffffffffffffffffffffffffffffffffffffffffffffffffffffc36011261015d5773ffffffffffffffffffffffffffffffffffffffff6020915416604051908152f35b503461015d5760407ffffffffffffffffffffffffffffffffffffffffffffffffffffffffffffffffc36011261015d5760043573ffffffffffffffffffffffffffffffffffffffff81169081810361038a57602435916102c6610f26565b826102cf578380f35b801590811561036c575b501561035b575080471061033157818080809333611388f16102f9610f77565b5015610307575b3880808380f35b60046040517fb12d13eb000000000000000000000000000000000000000000000000000000008152fd5b60046040517ff4d678b8000000000000000000000000000000000000000000000000000000008152fd5b90610367913390611854565b610300565b73eeeeeeeeeeeeeeeeeeeeeeeeeeeeeeeeeeeeeeee915014386102d9565b8280fd5b503461015d57807ffffffffffffffffffffffffffffffffffffffffffffffffffffffffffffffffc36011261015d576103c5610f26565b600073ffffffffffffffffffffffffffffffffffffffff81547fffffffffffffffffffffffff000000000000000000000000000000000000000081168355167f8be0079c531659141344cd1fd0a4f28419497f9722a3daafe3b4186f6b6457e08280a380f35b503461015d577ffffffffffffffffffffffffffffffffffffffffffffffffffffffffffffffffc36016101e08112610c97576101001361015d576101043567ffffffffffffffff8111610c9757610486903690600401610d07565b9073ffffffffffffffffffffffffffffffffffffffff6101443516610144350361038a5767ffffffffffffffff6101c4351161038a576104cc366101c435600401610d07565b919073ffffffffffffffffffffffffffffffffffffffff7f0000000000000000000000000000000000000000000000000000000000000000163303610c6d578215610c40578260151161093d578260291161093d5760298101917fffffffffffffffffffffffffffffffffffffffffffffffffffffffffffffffd784019173ffffffffffffffffffffffffffffffffffffffff60243516947f01000000000000000000000000000000000000000000000000000000000000008083351614610ba9575b5061059a838561147a565b60f01c9483600211610ba5576105d57ffffffffffffffffffffffffffffffffffffffffffffffffffffffffffffffffe8501600287016116f4565b60f81c9460648611610b7b5784600311610b77576106187ffffffffffffffffffffffffffffffffffffffffffffffffffffffffffffffffd86016003830161147a565b60f01c9085600511610b73576106537ffffffffffffffffffffffffffffffffffffffffffffffffffffffffffffffffb8701600583016116f4565b60f81c9560648711610b495780600611610b255761069b9160067ffffffffffffffffffffffffffffffffffffffffffffffffffffffffffffffffa61014435930191016114be565b9682919892610b3c575b501580610a61575b610a37576106e0886106d66106cf620186a0868f9d01018093610184356113e6565b938461123c565b93610184356113e6565b019260443573ffffffffffffffffffffffffffffffffffffffff1630036109f95773ffffffffffffffffffffffffffffffffffffffff6084351673ffffffffffffffffffffffffffffffffffffffff7f0000000000000000000000000000000000000000000000000000000000000000168114806109cd575b1561097157506107829382918261095b575b828203610941575b500390610184350303906118ee565b601482101561078f578380f35b6107998284610e33565b60601c918060141161093d57823b1561093d577fffffffffffffffffffffffffffffffffffffffffffffffffffffffffffffffec956108d6869261085a9660146040519a8b998a9889977f462ebde200000000000000000000000000000000000000000000000000000000895260043560048a015260243560248a015260443560448a015260643560648a015260843560848a015260a43560a48a015260c43560c48a015260e43560e48a01526101e06101048a01526101e4890191610ee7565b936101243561012488015273ffffffffffffffffffffffffffffffffffffffff610144351661014488015261016435610164880152610184356101848801526101a4356101a48801527ffffffffffffffffffffffffffffffffffffffffffffffffffffffffffffffffc878603016101c4880152019101610ee7565b03925af18015610932576108ed575b818180808380f35b67ffffffffffffffff811161090557604052386108e5565b6024827f4e487b710000000000000000000000000000000000000000000000000000000081526041600452fd5b6040513d84823e3d90fd5b8480fd5b61095590601584840391013560601c6118ee565b38610773565b61096c83600183013560601c6118ee565b61076b565b9291610996948192826109b6575b82820361099b575b50039061018435030391611854565b610782565b6109b090601584840391013560601c87611854565b38610987565b6109c883600183013560601c88611854565b61097f565b507e8000000000000000000000000000000000000000000000000000000000000060e435161515610759565b509295505081900301610a0d578492610782565b60046040517f679a57eb000000000000000000000000000000000000000000000000000000008152fd5b60046040517f0155201f000000000000000000000000000000000000000000000000000000008152fd5b506040517f70a0823100000000000000000000000000000000000000000000000000000000815273ffffffffffffffffffffffffffffffffffffffff6101443516600482015260208160248173ffffffffffffffffffffffffffffffffffffffff7f0000000000000000000000000000000000000000000000000000000000000000165afa908115610b31578b91610afb575b50156106ad565b90506020813d602011610b29575b81610b1660209383610e77565b81010312610b25575138610af4565b8a80fd5b3d9150610b09565b6040513d8d823e3d90fd5b60649193020491386106a5565b60046040517f3066a1f1000000000000000000000000000000000000000000000000000000008152fd5b8980fd5b8880fd5b60046040517fc5374e2d000000000000000000000000000000000000000000000000000000008152fd5b8780fd5b610be09295508094507fffffffffffffffffffffffffffffffffffffffffffffffffffffffffffffffd79193500160298301610e33565b60601c927fffffffffffffffffffffffffffffffffffffffffffffffffffffffffffffffd78301601411610c3c577fffffffffffffffffffffffffffffffffffffffffffffffffffffffffffffffc3603d83019301913861058f565b8580fd5b6024857f4e487b710000000000000000000000000000000000000000000000000000000081526032600452fd5b60046040517fd25aa106000000000000000000000000000000000000000000000000000000008152fd5b5080fd5b503461015d57610ce390610cec610ccc620186a0610cd5610cbb36610d35565b849e98999295979b9194939461100e565b909e919e611738565b99945097929c915099611c26565b920101906110e1565b90629896809283018093116101ea5760206101e284846111a3565b9181601f840112156101585782359167ffffffffffffffff8311610158576020838186019501011161015857565b907ffffffffffffffffffffffffffffffffffffffffffffffffffffffffffffffffc82016101c0811261015857610100136101585760049167ffffffffffffffff90610104358281116101585781610d8f91600401610d07565b9390939261012435926101443573ffffffffffffffffffffffffffffffffffffffff811681036101585792610164359261018435926101a43591821161015857610ddb91600401610d07565b9091565b91908201809211610dec57565b7f4e487b7100000000000000000000000000000000000000000000000000000000600052601160045260246000fd5b90939293848311610158578411610158578101920390565b7fffffffffffffffffffffffffffffffffffffffff0000000000000000000000009035818116939260148110610e6857505050565b60140360031b82901b16169150565b90601f7fffffffffffffffffffffffffffffffffffffffffffffffffffffffffffffffe0910116810190811067ffffffffffffffff821117610eb857604052565b7f4e487b7100000000000000000000000000000000000000000000000000000000600052604160045260246000fd5b601f82602094937fffffffffffffffffffffffffffffffffffffffffffffffffffffffffffffffe0938186528686013760008582860101520116010190565b73ffffffffffffffffffffffffffffffffffffffff600054163303610f4757565b60246040517f118cdaa7000000000000000000000000000000000000000000000000000000008152336004820152fd5b3d15610fd0573d9067ffffffffffffffff8211610eb85760405191610fc460207fffffffffffffffffffffffffffffffffffffffffffffffffffffffffffffffe0601f8401160184610e77565b82523d6000602084013e565b606090565b8115610fdf570490565b7f4e487b7100000000000000000000000000000000000000000000000000000000600052601260045260246000fd5b91908060031161015857823560e81c8160071161015857600384013560e01c90801580156110d9575b156110c25750506000925b81600b1161015857600781013560e01c82600e116101585782601111610158577fffffffffffffffffffffffffffffffffffffffffffffffffffffffffffffffef6110a69301916011810191600b600e83013560e81c92013560e81c810190611931565b9093909291818111156110b95703929190565b50506000929190565b620f4240916110d2914802610fd5565b0492611042565b508115611037565b90620186a090818302917fffffffffffffffffffffffffffffffffffffffffffffffffffffffffffffffff81850993838086109503948086039514611193578483111561117a579082910981600003821680920460028082600302188083028203028083028203028083028203028083028203028083028203028092029003029360018380600003040190848311900302920304170290565b82634e487b71600052156003026011186020526024601cfd5b5050906111a09250610fd5565b90565b906298968090818302917fffffffffffffffffffffffffffffffffffffffffffffffffffffffffffffffff81850993838086109503948086039514611193578483111561117a579082910981600003821680920460028082600302188083028203028083028203028083028203028083028203028083028203028092029003029360018380600003040190848311900302920304170290565b818102907fffffffffffffffffffffffffffffffffffffffffffffffffffffffffffffffff838209908280831092039180830392146112ca5781606411156112b7577f5c28f5c28f5c28f5c28f5c28f5c28f5c28f5c28f5c28f5c28f5c28f5c28f5c29936064910990828211900360fe1b910360021c170290565b634e487b7160005260116020526024601cfd5b5050606491500490565b90808202907fffffffffffffffffffffffffffffffffffffffffffffffffffffffffffffffff8184099082808310920391808303921461135157620186a090828211156112b7577f58cd20afa2f05a708ede54b48d3ae685db76b3bb83cf2cf95d4e8fb00bcbe61d940990828211900360fb1b910360051c170290565b5050620186a091500490565b90808202907fffffffffffffffffffffffffffffffffffffffffffffffffffffffffffffffff818409908280831092039180830392146113da576298968090828211156112b7577f5fb648fcc913daa857a27e44a97d3c6bc1193a63a91cc45be5032477ae8d46a5940990828211900360f91b910360071c170290565b50506298968091500490565b91818302917fffffffffffffffffffffffffffffffffffffffffffffffffffffffffffffffff81850993838086109503948086039514611193578483111561117a579082910981600003821680920460028082600302188083028203028083028203028083028203028083028203028083028203028092029003029360018380600003040190848311900302920304170290565b7fffff00000000000000000000000000000000000000000000000000000000000090358181169392600281106114af57505050565b60020360031b82901b16169150565b9260009369ffffffffffffffffffff60009416928135917fffffffff00000000000000000000000000000000000000000000000000000000808416906004948585106116e0575b505060e01c91808410156116b4578382013560f81c90600c9082600c02908160050180600511610b2557818111610b25579061154d91816005889d9c9796959801979c610e1b565b9990999880945b8486106115935750505050505050421061156b5750565b6040517f9da6e025000000000000000000000000000000000000000000000000000000008152fd5b90919293949596829c9b9a99989c5087357fffffffffffffffffffff0000000000000000000000000000000000000000000080821690600a928388106116a0575b5050824210600014611609578e6040517f9da6e025000000000000000000000000000000000000000000000000000000008152fd5b60b09e9a9b9c9d9e1c83146116905784811161168c5761164e907ffffffffffffffffffffffffffffffffffffffffffffffffffffffffffffffff68601908a0161147a565b60f01c019683851161038a578401956001019493927ffffffffffffffffffffffffffffffffffffffffffffffffffffffffffffffff4019190611554565b8380fd5b5060019c50505050505050505050565b9080925087840360031b1b161638806115d4565b6024876032867f4e487b7100000000000000000000000000000000000000000000000000000000835252fd5b9080925084860360031b1b16163880611505565b7fff00000000000000000000000000000000000000000000000000000000000000903581811693926001811061172957505050565b60010360031b82901b16169150565b91611743828461147a565b60f01c92826002116101585761177e7ffffffffffffffffffffffffffffffffffffffffffffffffffffffffffffffffe8401600283016116f4565b60f81c9260648411610b7b5780600311610158576117c17ffffffffffffffffffffffffffffffffffffffffffffffffffffffffffffffffd82016003840161147a565b60f01c9281600511610158576117fc7ffffffffffffffffffffffffffffffffffffffffffffffffffffffffffffffffb8301600585016116f4565b60f81c9260648411610b4957826006116101585760067ffffffffffffffffffffffffffffffffffffffffffffffffffffffffffffffffa61183f94019101611a9a565b919690928761184b5750565b60649194020492565b916044602092600092604051917fa9059cbb0000000000000000000000000000000000000000000000000000000083526004830152602482015282855af190816118cb575b50156118a157565b60046040517ffb7f5079000000000000000000000000000000000000000000000000000000008152fd5b90503d156118e65750600160005114601f3d11165b38611899565b3b15156118e0565b600080809381935af16118ff610f77565b501561190757565b60046040517f6d963f88000000000000000000000000000000000000000000000000000000008152fd5b94929082868615611a6b57833560f81c6001948860011161015857600101977fffffffffffffffffffffffffffffffffffffffffffffffffffffffffffffffff01600561198282848302818d610e1b565b909b909a90421161199a575050505050505050929190565b90919293949580979a999850421015611a5d579291906000915b8383106119d85750505050506119d39394955082039142900302610fd5565b929190565b909192939460039082821161015857863560e81c918385116101585787013560f01c81019788421115611a3a5750909695830194938b0192917ffffffffffffffffffffffffffffffffffffffffffffffffffffffffffffffffb0190506119b4565b955096975094505050506119d39495965082840393429003029142030201610fd5565b506000999850505050505050565b7f4e487b7100000000000000000000000000000000000000000000000000000000600052603260045260246000fd5b91909260009369ffffffffffffffffffff60009316938115611b5057803560f81c90600a82600a026001948160010180600111610b7757818111610b77576001850194611aea9291908290610e1b565b9890989780945b868610611b02575050505050505050565b838511610c9757803560b01c8314611b44577ffffffffffffffffffffffffffffffffffffffffffffffffffffffffffffffff685899201940195019492611af1565b50959950505050505050565b6024847f4e487b710000000000000000000000000000000000000000000000000000000081526032600452fd5b949073ffffffffffffffffffffffffffffffffffffffff926111a09a9895999794611bfe9260e06101c09180358b52602081013560208c0152604081013560408c0152606081013560608c0152608081013560808c015260a081013560a08c015260c081013560c08c0152013560e08a0152806101008a0152880191610ee7565b97610120860152166101408401526101608301526101808201526101a0818503910152610ee7565b9097949693959492939060148410611d0557611c428483610e33565b60601c9584601411610158576020986014987fffffffffffffffffffffffffffffffffffffffffffffffffffffffffffffffec97611cb4966040519d8e9c8d9b8c9b7f1d9671c3000000000000000000000000000000000000000000000000000000008d520198019660048b01611b7d565b03915afa908115611cf957600091611cca575090565b90506020813d602011611cf1575b81611ce560209383610e77565b81010312610158575190565b3d9150611cd8565b6040513d6000823e3d90fd5b96955050505050506111a0925060a060c08301359201356113e6565b9097949693959492939060148410611daf57611d3d8483610e33565b60601c9584601411610158576020986014987fffffffffffffffffffffffffffffffffffffffffffffffffffffffffffffffec97611cb4966040519d8e9c8d9b8c9b7fd7ff8a80000000000000000000000000000000000000000000000000000000008d520198019660048b01611b7d565b975050505050505060a060c0830135920135611dcc8183856113e6565b918115610fdf576111a09309151590610ddf56fea2646970667358221220d3ef1988418390a418e8100162b84dca397904809d34887bfd199193d4de098a64736f6c63430008170033"
}