{
  "address": "0xBe89346fE1cE1367f3d80C8522209A86511B1201",
  "abi": [
    {
      "inputs": [
        {
          "internalType": "contract WhitelistRegistry",
          "name": "_whitelistRegistry",
          "type": "address"
        }
      ],
      "stateMutability": "nonpayable",
      "type": "constructor"
    },
    {
      "inputs": [],
      "name": "ETHTransferFailed",
      "type": "error"
    },
    {
      "inputs": [],
      "name": "InsufficientBalance",
      "type": "error"
    },
    {
      "inputs": [
        {
          "internalType": "address",
          "name": "owner",
          "type": "address"
        }
      ],
      "name": "OwnableInvalidOwner",
      "type": "error"
    },
    {
      "inputs": [
        {
          "internalType": "address",
          "name": "account",
          "type": "address"
        }
      ],
      "name": "OwnableUnauthorizedAccount",
      "type": "error"
    },
    {
      "inputs": [],
      "name": "SafeTransferFailed",
      "type": "error"
    },
    {
      "inputs": [],
      "name": "SamePromotee",
      "type": "error"
    },
    {
      "anonymous": false,
      "inputs": [
        {
          "indexed": true,
          "internalType": "address",
          "name": "previousOwner",
          "type": "address"
        },
        {
          "indexed": true,
          "internalType": "address",
          "name": "newOwner",
          "type": "address"
        }
      ],
      "name": "OwnershipTransferred",
      "type": "event"
    },
    {
      "anonymous": false,
      "inputs": [
        {
          "indexed": false,
          "internalType": "address",
          "name": "promoter",
          "type": "address"
        },
        {
          "indexed": false,
          "internalType": "uint256",
          "name": "chainId",
          "type": "uint256"
        },
        {
          "indexed": false,
          "internalType": "address",
          "name": "promotee",
          "type": "address"
        }
      ],
      "name": "Promotion",
      "type": "event"
    },
    {
      "inputs": [
        {
          "internalType": "uint256",
          "name": "chainId",
          "type": "uint256"
        }
      ],
      "name": "getPromotees",
      "outputs": [
        {
          "internalType": "address[]",
          "name": "promotees",
          "type": "address[]"
        }
      ],
      "stateMutability": "view",
      "type": "function"
    },
    {
      "inputs": [],
      "name": "owner",
      "outputs": [
        {
          "internalType": "address",
          "name": "",
          "type": "address"
        }
      ],
      "stateMutability": "view",
      "type": "function"
    },
    {
      "inputs": [
        {
          "internalType": "uint256",
          "name": "chainId",
          "type": "uint256"
        },
        {
          "internalType": "address",
          "name": "promotee",
          "type": "address"
        }
      ],
      "name": "promote",
      "outputs": [],
      "stateMutability": "nonpayable",
      "type": "function"
    },
    {
      "inputs": [
        {
          "internalType": "address",
          "name": "promoter",
          "type": "address"
        },
        {
          "internalType": "uint256",
          "name": "chainId",
          "type": "uint256"
        }
      ],
      "name": "promotions",
      "outputs": [
        {
          "internalType": "address",
          "name": "promotee",
          "type": "address"
        }
      ],
      "stateMutability": "view",
      "type": "function"
    },
    {
      "inputs": [],
      "name": "renounceOwnership",
      "outputs": [],
      "stateMutability": "nonpayable",
      "type": "function"
    },
    {
      "inputs": [
        {
          "internalType": "contract IERC20",
          "name": "token_",
          "type": "address"
        },
        {
          "internalType": "uint256",
          "name": "amount",
          "type": "uint256"
        }
      ],
      "name": "rescueFunds",
      "outputs": [],
      "stateMutability": "nonpayable",
      "type": "function"
    },
    {
      "inputs": [
        {
          "internalType": "address",
          "name": "newOwner",
          "type": "address"
        }
      ],
      "name": "transferOwnership",
      "outputs": [],
      "stateMutability": "nonpayable",
      "type": "function"
    },
    {
      "inputs": [],
      "name": "whitelistRegistry",
      "outputs": [
        {
          "internalType": "contract WhitelistRegistry",
          "name": "",
          "type": "address"
        }
      ],
      "stateMutability": "view",
      "type": "function"
    }
  ],
  "transactionHash": "0x013b8367444e6e75e9d1369ec657b1d9acb55bbef71dc5286b34f365f80e9dac",
  "args": [
    "0xF55684BC536487394B423e70567413faB8e45E26"
  ],
  "numDeployments": 1,
  "solcInputHash": "bfcd11c1b234bc6d7311fe0c031f04e2",
  "bytecode": "0x6080346100c257601f610a3938819003918201601f19168301916001600160401b038311848410176100c6578084926020946040528339810103126100c257516001600160a01b0390818116908190036100c25733156100aa575f5460018060a01b03199033828216175f55604051933391167f8be0079c531659141344cd1fd0a4f28419497f9722a3daafe3b4186f6b6457e05f80a3600254161760025561095e90816100db8239f35b604051631e4fbdf760e01b81525f6004820152602490fd5b5f80fd5b634e487b7160e01b5f52604160045260245ffdfe608060409080825260049081361015610016575f80fd5b5f3560e01c9081632af051661461079a57508063715018a61461070057806378e3214f146104f05780638da5cb5b1461049f578063e5136e94146102ba578063ed95063814610268578063f204bdb91461015c5763f2fde38b14610078575f80fd5b346101585760207ffffffffffffffffffffffffffffffffffffffffffffffffffffffffffffffffc360112610158576100af610806565b906100b86108d8565b73ffffffffffffffffffffffffffffffffffffffff8092169283156101295750505f54827fffffffffffffffffffffffff00000000000000000000000000000000000000008216175f55167f8be0079c531659141344cd1fd0a4f28419497f9722a3daafe3b4186f6b6457e05f80a3005b905f60249251917f1e4fbdf7000000000000000000000000000000000000000000000000000000008352820152fd5b5f80fd5b503461015857817ffffffffffffffffffffffffffffffffffffffffffffffffffffffffffffffffc360112610158578035916024359173ffffffffffffffffffffffffffffffffffffffff808416809403610158578390335f526001602052835f20865f52602052835f20541614610241577fb863cf86b291171e4b0332ea12b59af030f98a2c74a6d51effaf1109ae4c7f1e6060858585335f526001602052805f20835f52602052805f20827fffffffffffffffffffffffff00000000000000000000000000000000000000008254161790558051923384526020840152820152a1005b90517f53645587000000000000000000000000000000000000000000000000000000008152fd5b8234610158575f7ffffffffffffffffffffffffffffffffffffffffffffffffffffffffffffffffc3601126101585760209073ffffffffffffffffffffffffffffffffffffffff600254169051908152f35b503461015857602090817ffffffffffffffffffffffffffffffffffffffffffffffffffffffffffffffffc3601126101585780359273ffffffffffffffffffffffffffffffffffffffff93825f86600254168451928380927fd01f63f50000000000000000000000000000000000000000000000000000000082525afa938415610495575f946103cd575b50508293919351905f5b828110610393575050508251928180850191818652845180935285019301915f5b82811061037d5785850386f35b8351871685529381019392810192600101610370565b80876103a460019388999799610897565b51165f52818752845f20835f52875287855f2054166103c38288610897565b520194929461034f565b909193503d805f843e6103e08184610829565b820190858383031261015857825167ffffffffffffffff9384821161015857019082601f8301121561015857815193841161046957508260051b9084519361042a88840186610829565b84528680850192820101928311610158578601905b82821061045157505050915f80610345565b8151888116810361015857815290860190860161043f565b6041907f4e487b71000000000000000000000000000000000000000000000000000000005f525260245ffd5b83513d5f823e3d90fd5b8234610158575f7ffffffffffffffffffffffffffffffffffffffffffffffffffffffffffffffffc3601126101585760209073ffffffffffffffffffffffffffffffffffffffff5f54169051908152f35b50903461015857807ffffffffffffffffffffffffffffffffffffffffffffffffffffffffffffffffc36011261015857813573ffffffffffffffffffffffffffffffffffffffff811690818103610158576024359161054d6108d8565b8261055457005b80159081156106e2575b50156106505750804710610629575f8080809333611388f13d15610624573d67ffffffffffffffff81116105f8578251906105c160207fffffffffffffffffffffffffffffffffffffffffffffffffffffffffffffffe0601f8401160183610829565b81525f60203d92013e5b156105d257005b517fb12d13eb000000000000000000000000000000000000000000000000000000008152fd5b6041847f4e487b71000000000000000000000000000000000000000000000000000000005f525260245ffd5b6105cb565b50517ff4d678b8000000000000000000000000000000000000000000000000000000008152fd5b905f60446020928551907fa9059cbb0000000000000000000000000000000000000000000000000000000082523388830152602482015282855af190816106c0575b501561069a57005b517ffb7f5079000000000000000000000000000000000000000000000000000000008152fd5b90503d156106da575060015f5114601f3d11165b5f610692565b3b15156106d4565b73eeeeeeeeeeeeeeeeeeeeeeeeeeeeeeeeeeeeeeee9150145f61055e565b34610158575f7ffffffffffffffffffffffffffffffffffffffffffffffffffffffffffffffffc360112610158576107366108d8565b5f73ffffffffffffffffffffffffffffffffffffffff81547fffffffffffffffffffffffff000000000000000000000000000000000000000081168355167f8be0079c531659141344cd1fd0a4f28419497f9722a3daafe3b4186f6b6457e08280a3005b83903461015857817ffffffffffffffffffffffffffffffffffffffffffffffffffffffffffffffffc360112610158576020916107d5610806565b9073ffffffffffffffffffffffffffffffffffffffff8092165f5260018452805f206024355f5284525f2054168152f35b6004359073ffffffffffffffffffffffffffffffffffffffff8216820361015857565b90601f7fffffffffffffffffffffffffffffffffffffffffffffffffffffffffffffffe0910116810190811067ffffffffffffffff82111761086a57604052565b7f4e487b71000000000000000000000000000000000000000000000000000000005f52604160045260245ffd5b80518210156108ab5760209160051b010190565b7f4e487b71000000000000000000000000000000000000000000000000000000005f52603260045260245ffd5b73ffffffffffffffffffffffffffffffffffffffff5f541633036108f857565b60246040517f118cdaa7000000000000000000000000000000000000000000000000000000008152336004820152fdfea2646970667358221220f57101a0eea8ba167f884ab53e1d65c16c7c3ad328e2b390afd728c5f8ae303764736f6c63430008170033",
  "devdoc": {
    "errors": {
      "OwnableInvalidOwner(address)": [
        {
          "details": "The owner is not a valid owner account. (eg. `address(0)`)"
        }
      ],
      "OwnableUnauthorizedAccount(address)": [
        {
          "details": "The caller account is not authorized to perform an operation."
        }
      ]
    },
    "kind": "dev",
    "methods": {
      "getPromotees(uint256)": {
        "params": {
          "chainId": "The chain ID to get the promoted addresses for."
        },
        "returns": {
          "promotees": "A list of worker addresses."
        }
      },
      "owner()": {
        "details": "Returns the address of the current owner."
      },
      "promote(uint256,address)": {
        "params": {
          "chainId": "The chain ID where the worker will assigned.",
          "promotee": "The worker's address."
        }
      },
      "renounceOwnership()": {
        "details": "Leaves the contract without owner. It will not be possible to call `onlyOwner` functions. Can only be called by the current owner. NOTE: Renouncing ownership will leave the contract without an owner, thereby disabling any functionality that is only available to the owner."
      },
      "rescueFunds(address,uint256)": {
        "params": {
          "amount": "The amount of tokens to recover.",
          "token_": "The token to recover."
        }
      },
      "transferOwnership(address)": {
        "details": "Transfers ownership of the contract to a new account (`newOwner`). Can only be called by the current owner."
      }
    },
    "title": "CrosschainWhitelistRegistry",
    "version": 1
  },
  "userdoc": {
    "events": {
      "Promotion(address,uint256,address)": {
        "notice": "Emitted when a new worker for a resolver is set."
      }
    },
    "kind": "user",
    "methods": {
      "getPromotees(uint256)": {
        "notice": "Returns the worker list for a particular chain ID."
      },
      "promote(uint256,address)": {
        "notice": "Registers a worker for the resolver to settle orders."
      },
      "rescueFunds(address,uint256)": {
        "notice": "Allows the contract owner to recover any tokens accidentally sent to the contract."
      }
    },
    "notice": "The contract manages a promotees for crosschain resolvers. It also includes an emergency rescue function for tokens sent to the contract accidentally.",
    "version": 1
  },
  "storageLayout": {
    "storage": [
      {
        "astId": 3050,
        "contract": "contracts/CrosschainWhitelistRegistry.sol:CrosschainWhitelistRegistry",
        "label": "_owner",
        "offset": 0,
        "slot": "0",
        "type": "t_address"
      },
      {
        "astId": 6195,
        "contract": "contracts/CrosschainWhitelistRegistry.sol:CrosschainWhitelistRegistry",
        "label": "promotions",
        "offset": 0,
        "slot": "1",
        "type": "t_mapping(t_address,t_mapping(t_uint256,t_address))"
      },
      {
        "astId": 6198,
        "contract": "contracts/CrosschainWhitelistRegistry.sol:CrosschainWhitelistRegistry",
        "label": "whitelistRegistry",
        "offset": 0,
        "slot": "2",
        "type": "t_contract(WhitelistRegistry)7716"
      }
    ],
    "types": {
      "t_address": {
        "encoding": "inplace",
        "label": "address",
        "numberOfBytes": "20"
      },
      "t_contract(WhitelistRegistry)7716": {
        "encoding": "inplace",
        "label": "contract WhitelistRegistry",
        "numberOfBytes": "20"
      },
      "t_mapping(t_address,t_mapping(t_uint256,t_address))": {
        "encoding": "mapping",
        "key": "t_address",
        "label": "mapping(address => mapping(uint256 => address))",
        "numberOfBytes": "32",
        "value": "t_mapping(t_uint256,t_address)"
      },
      "t_mapping(t_uint256,t_address)": {
        "encoding": "mapping",
        "key": "t_uint256",
        "label": "mapping(uint256 => address)",
        "numberOfBytes": "32",
        "value": "t_address"
      },
      "t_uint256": {
        "encoding": "inplace",
        "label": "uint256",
        "numberOfBytes": "32"
      }
    }
  }
}