{
  "address": "0xAccfAc2339e16DC80c50d2fa81b5c2B049B4f947",
  "abi": [
    {
      "inputs": [
        {
          "internalType": "string",
          "name": "name_",
          "type": "string"
        },
        {
          "internalType": "string",
          "name": "symbol_",
          "type": "string"
        },
        {
          "internalType": "contract St1inch",
          "name": "st1inch",
          "type": "address"
        }
      ],
      "stateMutability": "nonpayable",
      "type": "constructor"
    },
    {
      "inputs": [],
      "name": "AccessDenied",
      "type": "error"
    },
    {
      "inputs": [],
      "name": "AlreadyRegistered",
      "type": "error"
    },
    {
      "inputs": [],
      "name": "ApproveDisabled",
      "type": "error"
    },
    {
      "inputs": [],
      "name": "DefaultFarmTokenMismatch",
      "type": "error"
    },
    {
      "inputs": [],
      "name": "NotRegisteredDelegatee",
      "type": "error"
    },
    {
      "inputs": [],
      "name": "OriginInTheFuture",
      "type": "error"
    },
    {
      "inputs": [],
      "name": "TransferDisabled",
      "type": "error"
    },
    {
      "anonymous": false,
      "inputs": [
        {
          "indexed": true,
          "internalType": "address",
          "name": "owner",
          "type": "address"
        },
        {
          "indexed": true,
          "internalType": "address",
          "name": "spender",
          "type": "address"
        },
        {
          "indexed": false,
          "internalType": "uint256",
          "name": "value",
          "type": "uint256"
        }
      ],
      "name": "Approval",
      "type": "event"
    },
    {
      "anonymous": false,
      "inputs": [
        {
          "indexed": false,
          "internalType": "address",
          "name": "defaultFarm",
          "type": "address"
        }
      ],
      "name": "DefaultFarmSet",
      "type": "event"
    },
    {
      "anonymous": false,
      "inputs": [
        {
          "indexed": false,
          "internalType": "address",
          "name": "account",
          "type": "address"
        },
        {
          "indexed": false,
          "internalType": "address",
          "name": "delegatee",
          "type": "address"
        }
      ],
      "name": "Delegated",
      "type": "event"
    },
    {
      "anonymous": false,
      "inputs": [
        {
          "indexed": false,
          "internalType": "address",
          "name": "delegatee",
          "type": "address"
        }
      ],
      "name": "RegisterDelegatee",
      "type": "event"
    },
    {
      "anonymous": false,
      "inputs": [
        {
          "indexed": true,
          "internalType": "address",
          "name": "from",
          "type": "address"
        },
        {
          "indexed": true,
          "internalType": "address",
          "name": "to",
          "type": "address"
        },
        {
          "indexed": false,
          "internalType": "uint256",
          "name": "value",
          "type": "uint256"
        }
      ],
      "name": "Transfer",
      "type": "event"
    },
    {
      "inputs": [
        {
          "internalType": "address",
          "name": "owner",
          "type": "address"
        },
        {
          "internalType": "address",
          "name": "spender",
          "type": "address"
        }
      ],
      "name": "allowance",
      "outputs": [
        {
          "internalType": "uint256",
          "name": "",
          "type": "uint256"
        }
      ],
      "stateMutability": "view",
      "type": "function"
    },
    {
      "inputs": [
        {
          "internalType": "address",
          "name": "",
          "type": "address"
        },
        {
          "internalType": "uint256",
          "name": "",
          "type": "uint256"
        }
      ],
      "name": "approve",
      "outputs": [
        {
          "internalType": "bool",
          "name": "",
          "type": "bool"
        }
      ],
      "stateMutability": "pure",
      "type": "function"
    },
    {
      "inputs": [
        {
          "internalType": "address",
          "name": "account",
          "type": "address"
        }
      ],
      "name": "balanceOf",
      "outputs": [
        {
          "internalType": "uint256",
          "name": "",
          "type": "uint256"
        }
      ],
      "stateMutability": "view",
      "type": "function"
    },
    {
      "inputs": [],
      "name": "decimals",
      "outputs": [
        {
          "internalType": "uint8",
          "name": "",
          "type": "uint8"
        }
      ],
      "stateMutability": "view",
      "type": "function"
    },
    {
      "inputs": [
        {
          "internalType": "address",
          "name": "",
          "type": "address"
        },
        {
          "internalType": "uint256",
          "name": "",
          "type": "uint256"
        }
      ],
      "name": "decreaseAllowance",
      "outputs": [
        {
          "internalType": "bool",
          "name": "",
          "type": "bool"
        }
      ],
      "stateMutability": "pure",
      "type": "function"
    },
    {
      "inputs": [
        {
          "internalType": "address",
          "name": "",
          "type": "address"
        }
      ],
      "name": "defaultFarms",
      "outputs": [
        {
          "internalType": "address",
          "name": "",
          "type": "address"
        }
      ],
      "stateMutability": "view",
      "type": "function"
    },
    {
      "inputs": [
        {
          "internalType": "address",
          "name": "delegatee",
          "type": "address"
        }
      ],
      "name": "delegate",
      "outputs": [],
      "stateMutability": "nonpayable",
      "type": "function"
    },
    {
      "inputs": [
        {
          "internalType": "address",
          "name": "",
          "type": "address"
        }
      ],
      "name": "delegated",
      "outputs": [
        {
          "internalType": "address",
          "name": "",
          "type": "address"
        }
      ],
      "stateMutability": "view",
      "type": "function"
    },
    {
      "inputs": [],
      "name": "expBase",
      "outputs": [
        {
          "internalType": "uint256",
          "name": "",
          "type": "uint256"
        }
      ],
      "stateMutability": "view",
      "type": "function"
    },
    {
      "inputs": [
        {
          "internalType": "address",
          "name": "",
          "type": "address"
        },
        {
          "internalType": "uint256",
          "name": "",
          "type": "uint256"
        }
      ],
      "name": "increaseAllowance",
      "outputs": [
        {
          "internalType": "bool",
          "name": "",
          "type": "bool"
        }
      ],
      "stateMutability": "pure",
      "type": "function"
    },
    {
      "inputs": [],
      "name": "maxSharePods",
      "outputs": [
        {
          "internalType": "uint256",
          "name": "",
          "type": "uint256"
        }
      ],
      "stateMutability": "view",
      "type": "function"
    },
    {
      "inputs": [],
      "name": "name",
      "outputs": [
        {
          "internalType": "string",
          "name": "",
          "type": "string"
        }
      ],
      "stateMutability": "view",
      "type": "function"
    },
    {
      "inputs": [],
      "name": "origin",
      "outputs": [
        {
          "internalType": "uint256",
          "name": "",
          "type": "uint256"
        }
      ],
      "stateMutability": "view",
      "type": "function"
    },
    {
      "inputs": [
        {
          "internalType": "string",
          "name": "name",
          "type": "string"
        },
        {
          "internalType": "string",
          "name": "symbol",
          "type": "string"
        }
      ],
      "name": "register",
      "outputs": [
        {
          "internalType": "contract IDelegatedShare",
          "name": "shareToken",
          "type": "address"
        }
      ],
      "stateMutability": "nonpayable",
      "type": "function"
    },
    {
      "inputs": [
        {
          "internalType": "address",
          "name": "",
          "type": "address"
        }
      ],
      "name": "registration",
      "outputs": [
        {
          "internalType": "contract IDelegatedShare",
          "name": "",
          "type": "address"
        }
      ],
      "stateMutability": "view",
      "type": "function"
    },
    {
      "inputs": [
        {
          "internalType": "address",
          "name": "farm",
          "type": "address"
        }
      ],
      "name": "setDefaultFarm",
      "outputs": [],
      "stateMutability": "nonpayable",
      "type": "function"
    },
    {
      "inputs": [],
      "name": "sharePodGasLimit",
      "outputs": [
        {
          "internalType": "uint256",
          "name": "",
          "type": "uint256"
        }
      ],
      "stateMutability": "view",
      "type": "function"
    },
    {
      "inputs": [],
      "name": "symbol",
      "outputs": [
        {
          "internalType": "string",
          "name": "",
          "type": "string"
        }
      ],
      "stateMutability": "view",
      "type": "function"
    },
    {
      "inputs": [],
      "name": "token",
      "outputs": [
        {
          "internalType": "contract IERC20Pods",
          "name": "",
          "type": "address"
        }
      ],
      "stateMutability": "view",
      "type": "function"
    },
    {
      "inputs": [],
      "name": "totalSupply",
      "outputs": [
        {
          "internalType": "uint256",
          "name": "",
          "type": "uint256"
        }
      ],
      "stateMutability": "view",
      "type": "function"
    },
    {
      "inputs": [
        {
          "internalType": "address",
          "name": "",
          "type": "address"
        },
        {
          "internalType": "uint256",
          "name": "",
          "type": "uint256"
        }
      ],
      "name": "transfer",
      "outputs": [
        {
          "internalType": "bool",
          "name": "",
          "type": "bool"
        }
      ],
      "stateMutability": "pure",
      "type": "function"
    },
    {
      "inputs": [
        {
          "internalType": "address",
          "name": "",
          "type": "address"
        },
        {
          "internalType": "address",
          "name": "",
          "type": "address"
        },
        {
          "internalType": "uint256",
          "name": "",
          "type": "uint256"
        }
      ],
      "name": "transferFrom",
      "outputs": [
        {
          "internalType": "bool",
          "name": "",
          "type": "bool"
        }
      ],
      "stateMutability": "pure",
      "type": "function"
    },
    {
      "inputs": [
        {
          "internalType": "address",
          "name": "from",
          "type": "address"
        },
        {
          "internalType": "address",
          "name": "to",
          "type": "address"
        },
        {
          "internalType": "uint256",
          "name": "amount",
          "type": "uint256"
        }
      ],
      "name": "updateBalances",
      "outputs": [],
      "stateMutability": "nonpayable",
      "type": "function"
    },
    {
      "inputs": [
        {
          "internalType": "address",
          "name": "account",
          "type": "address"
        }
      ],
      "name": "votingPowerOf",
      "outputs": [
        {
          "internalType": "uint256",
          "name": "",
          "type": "uint256"
        }
      ],
      "stateMutability": "view",
      "type": "function"
    }
  ],
  "transactionHash": "0x8d41e87cffd0f27183116060d344b1a6430602320eb214d436386e68a09509b2",
  "args": [
    "Delegated st1INCH",
    "dst1INCH",
    "0x9A0C8Ff858d273f57072D714bca7411D717501D7"
  ],
  "numDeployments": 1,
  "solcInputHash": "f1ab588ded62f224db79a571d0cc8634",
  "bytecode": "0x6104e06040523480156200001257600080fd5b5060405162006ab638038062006ab68339810160408190526200003591620006dd565b806001600160a01b031663bca9c3fc6040518163ffffffff1660e01b8152600401602060405180830381865afa15801562000074573d6000803e3d6000fd5b505050506040513d601f19601f820116820180604052508101906200009a91906200076a565b816001600160a01b031663938b5f326040518163ffffffff1660e01b8152600401602060405180830381865afa158015620000d9573d6000803e3d6000fd5b505050506040513d601f19601f82011682018060405250810190620000ff91906200076a565b6001600160a01b0383166080528484846003620222e084848484848484848282866200012c838262000813565b5060046200013b828262000813565b50505060a094909452505060c0525050504287111595506200017694505050505057604051635a59719b60e01b815260040160405180910390fd5b60e0819052610100829052610120829052670de0b6b3a76400006200019c8380620008df565b620001a891906200090b565b610140819052670de0b6b3a764000090620001c49080620008df565b620001d091906200090b565b610160819052670de0b6b3a764000090620001ec9080620008df565b620001f891906200090b565b610180819052670de0b6b3a764000090620002149080620008df565b6200022091906200090b565b6101a0819052670de0b6b3a7640000906200023c9080620008df565b6200024891906200090b565b6101c0819052670de0b6b3a764000090620002649080620008df565b6200027091906200090b565b6101e0819052670de0b6b3a7640000906200028c9080620008df565b6200029891906200090b565b610200819052670de0b6b3a764000090620002b49080620008df565b620002c091906200090b565b610220819052670de0b6b3a764000090620002dc9080620008df565b620002e891906200090b565b610240819052670de0b6b3a764000090620003049080620008df565b6200031091906200090b565b610260819052670de0b6b3a7640000906200032c9080620008df565b6200033891906200090b565b610280819052670de0b6b3a764000090620003549080620008df565b6200036091906200090b565b6102a0819052670de0b6b3a7640000906200037c9080620008df565b6200038891906200090b565b6102c0819052670de0b6b3a764000090620003a49080620008df565b620003b091906200090b565b6102e0819052670de0b6b3a764000090620003cc9080620008df565b620003d891906200090b565b610300819052670de0b6b3a764000090620003f49080620008df565b6200040091906200090b565b610320819052670de0b6b3a7640000906200041c9080620008df565b6200042891906200090b565b610340819052670de0b6b3a764000090620004449080620008df565b6200045091906200090b565b610360819052670de0b6b3a7640000906200046c9080620008df565b6200047891906200090b565b610380819052670de0b6b3a764000090620004949080620008df565b620004a091906200090b565b6103a0819052670de0b6b3a764000090620004bc9080620008df565b620004c891906200090b565b6103c0819052670de0b6b3a764000090620004e49080620008df565b620004f091906200090b565b6103e0819052670de0b6b3a7640000906200050c9080620008df565b6200051891906200090b565b610400819052670de0b6b3a764000090620005349080620008df565b6200054091906200090b565b610420819052670de0b6b3a7640000906200055c9080620008df565b6200056891906200090b565b610440819052670de0b6b3a764000090620005849080620008df565b6200059091906200090b565b610460819052670de0b6b3a764000090620005ac9080620008df565b620005b891906200090b565b610480819052670de0b6b3a764000090620005d49080620008df565b620005e091906200090b565b6104a0819052670de0b6b3a764000090620005fc9080620008df565b6200060891906200090b565b6104c052506200092e9350505050565b634e487b7160e01b600052604160045260246000fd5b600082601f8301126200064057600080fd5b81516001600160401b03808211156200065d576200065d62000618565b604051601f8301601f19908116603f0116810190828211818310171562000688576200068862000618565b81604052838152602092508683858801011115620006a557600080fd5b600091505b83821015620006c95785820183015181830184015290820190620006aa565b600093810190920192909252949350505050565b600080600060608486031215620006f357600080fd5b83516001600160401b03808211156200070b57600080fd5b62000719878388016200062e565b945060208601519150808211156200073057600080fd5b506200073f868287016200062e565b604086015190935090506001600160a01b03811681146200075f57600080fd5b809150509250925092565b6000602082840312156200077d57600080fd5b5051919050565b600181811c908216806200079957607f821691505b602082108103620007ba57634e487b7160e01b600052602260045260246000fd5b50919050565b601f8211156200080e57600081815260208120601f850160051c81016020861015620007e95750805b601f850160051c820191505b818110156200080a57828155600101620007f5565b5050505b505050565b81516001600160401b038111156200082f576200082f62000618565b620008478162000840845462000784565b84620007c0565b602080601f8311600181146200087f5760008415620008665750858301515b600019600386901b1c1916600185901b1785556200080a565b600085815260208120601f198616915b82811015620008b0578886015182559484019460019091019084016200088f565b5085821015620008cf5787850151600019600388901b60f8161c191681555b5050505050600190811b01905550565b80820281158282048414176200090557634e487b7160e01b600052601160045260246000fd5b92915050565b6000826200092957634e487b7160e01b600052601260045260246000fd5b500490565b60805160a05160c05160e05161010051610120516101405161016051610180516101a0516101c0516101e05161020051610220516102405161026051610280516102a0516102c0516102e05161030051610320516103405161036051610380516103a0516103c0516103e05161040051610420516104405161046051610480516104a0516104c051615fc862000aee60003960006114be015260006114810152600061144401526000611407015260006113ca0152600061138d0152600061135001526000611314015260006112d80152600061129c0152600061126001526000611224015260006111e8015260006111ac0152600061117001526000611135015260006110fa015260006110bf01526000611084015260006110490152600061100e01526000610fd301526000610f9801526000610f5e01526000610f2401526000610eea01526000610eb001526000610e7601526000610e3c01526000610e020152600061040a01526000818161036601528181610d7601528181610da50152610dcc0152600081816103e20152610b540152600081816102d70152610b330152600081816104cb01528181610a1e01526115db0152615fc86000f3fe60806040523480156200001157600080fd5b5060043610620001b95760003560e01c80637a1f1aa911620000f5578063b74c3b301162000097578063dd62ed3e116200006e578063dd62ed3e1462000443578063f3598ad9146200048c578063fc0c546a14620004c557600080fd5b8063b74c3b3014620003dc578063bca9c3fc1462000404578063bcc3f3bd146200042c57600080fd5b8063a457c2d711620000cc578063a457c2d7146200023f578063a9059cbb1462000392578063b04807ec14620003a357600080fd5b80637a1f1aa91462000349578063938b5f32146200036057806395d89b41146200038857600080fd5b806339509351116200015f5780634d5f8b6311620001365780634d5f8b6314620002d15780635c19a95c14620002f957806370a08231146200031057600080fd5b806339509351146200023f5780633c3f3c2314620002a15780633ffbd47f14620002ba57600080fd5b806318160ddd116200019457806318160ddd146200026757806323b872dd146200027a578063313ce567146200029157600080fd5b806306fdde0314620001be5780630840605a14620001e0578063095ea7b3146200023f575b600080fd5b620001c8620004ed565b604051620001d7919062001e5e565b60405180910390f35b62000219620001f136600462001e9d565b60066020526000908152604090205473ffffffffffffffffffffffffffffffffffffffff1681565b60405173ffffffffffffffffffffffffffffffffffffffff9091168152602001620001d7565b620002566200025036600462001ebd565b62000587565b6040519015158152602001620001d7565b6002545b604051908152602001620001d7565b620002566200028b36600462001eec565b620005bb565b60405160128152602001620001d7565b620002b8620002b236600462001e9d565b620005ef565b005b62000219620002cb36600462002014565b620007ea565b6200026b7f000000000000000000000000000000000000000000000000000000000000000081565b620002b86200030a36600462001e9d565b6200092b565b6200026b6200032136600462001e9d565b73ffffffffffffffffffffffffffffffffffffffff1660009081526020819052604090205490565b620002b86200035a36600462001eec565b62000a06565b6200026b7f000000000000000000000000000000000000000000000000000000000000000081565b620001c862000a88565b620002566200028b36600462001ebd565b62000219620003b436600462001e9d565b60076020526000908152604090205473ffffffffffffffffffffffffffffffffffffffff1681565b6200026b7f000000000000000000000000000000000000000000000000000000000000000081565b6200026b7f000000000000000000000000000000000000000000000000000000000000000081565b6200026b6200043d36600462001e9d565b62000a99565b6200026b620004543660046200207f565b73ffffffffffffffffffffffffffffffffffffffff918216600090815260016020908152604080832093909416825291909152205490565b620002196200049d36600462001e9d565b60056020526000908152604090205473ffffffffffffffffffffffffffffffffffffffff1681565b620002197f000000000000000000000000000000000000000000000000000000000000000081565b606060038054620004fe90620020bd565b80601f01602080910402602001604051908101604052809291908181526020018280546200052c90620020bd565b80156200057d5780601f1062000551576101008083540402835291602001916200057d565b820191906000526020600020905b8154815290600101906020018083116200055f57829003601f168201915b5050505050905090565b60006040517feb60c2c400000000000000000000000000000000000000000000000000000000815260040160405180910390fd5b60006040517fa24e573d00000000000000000000000000000000000000000000000000000000815260040160405180910390fd5b3360009081526006602052604090205473ffffffffffffffffffffffffffffffffffffffff166200064c576040517fccd4942000000000000000000000000000000000000000000000000000000000815260040160405180910390fd5b73ffffffffffffffffffffffffffffffffffffffff8116158015906200072b5750336000908152600660209081526040918290205482517ffc0c546a000000000000000000000000000000000000000000000000000000008152925173ffffffffffffffffffffffffffffffffffffffff918216939185169263fc0c546a92600480820193918290030181865afa158015620006ec573d6000803e3d6000fd5b505050506040513d601f19601f8201168201806040525081019062000712919062002112565b73ffffffffffffffffffffffffffffffffffffffff1614155b1562000763576040517fb599ae3000000000000000000000000000000000000000000000000000000000815260040160405180910390fd5b3360009081526007602090815260409182902080547fffffffffffffffffffffffff00000000000000000000000000000000000000001673ffffffffffffffffffffffffffffffffffffffff851690811790915591519182527fdd367fa3b0132bc9c4680deca3d4565375dda9ed37c98f8321370efe4594785a910160405180910390a150565b6000620007f8838362000ad1565b905060008160036040516200080d9062001ddc565b73ffffffffffffffffffffffffffffffffffffffff90921682526020820152604001604051809103906000f0801580156200084c573d6000803e3d6000fd5b506040517ff2fde38b00000000000000000000000000000000000000000000000000000000815233600482015290915073ffffffffffffffffffffffffffffffffffffffff82169063f2fde38b90602401600060405180830381600087803b158015620008b857600080fd5b505af1158015620008cd573d6000803e3d6000fd5b505033600090815260076020526040902080547fffffffffffffffffffffffff00000000000000000000000000000000000000001673ffffffffffffffffffffffffffffffffffffffff949094169390931790925550909392505050565b620009368162000c38565b73ffffffffffffffffffffffffffffffffffffffff80821660009081526007602052604090205416801562000a025773ffffffffffffffffffffffffffffffffffffffff828116600090815260066020526040908190205490517ff70f6a9a000000000000000000000000000000000000000000000000000000008152336004820152838316602482015291169063f70f6a9a90604401600060405180830381600087803b158015620009e857600080fd5b505af1158015620009fd573d6000803e3d6000fd5b505050505b5050565b3373ffffffffffffffffffffffffffffffffffffffff7f0000000000000000000000000000000000000000000000000000000000000000161462000a76576040517f4ca8886700000000000000000000000000000000000000000000000000000000815260040160405180910390fd5b62000a8383838362000cc9565b505050565b606060048054620004fe90620020bd565b73ffffffffffffffffffffffffffffffffffffffff811660009081526020819052604081205462000acb904262000d72565b92915050565b3360009081526006602052604081205473ffffffffffffffffffffffffffffffffffffffff161562000b2f576040517f3a81d6fc00000000000000000000000000000000000000000000000000000000815260040160405180910390fd5b82827f00000000000000000000000000000000000000000000000000000000000000007f000000000000000000000000000000000000000000000000000000000000000060405162000b819062001dea565b62000b90949392919062002132565b604051809103906000f08015801562000bad573d6000803e3d6000fd5b503360008181526006602090815260409182902080547fffffffffffffffffffffffff00000000000000000000000000000000000000001673ffffffffffffffffffffffffffffffffffffffff861617905590519182529192507fb2bd819aacce2076359caf6d49d9ac5252134cffdffe026bf4ad781dc3847790910160405180910390a192915050565b73ffffffffffffffffffffffffffffffffffffffff81161580159062000c83575073ffffffffffffffffffffffffffffffffffffffff81811660009081526006602052604090205416155b1562000cbb576040517fccd4942000000000000000000000000000000000000000000000000000000000815260040160405180910390fd5b62000cc681620014ea565b50565b62000a83838373ffffffffffffffffffffffffffffffffffffffff82161562000d1a5773ffffffffffffffffffffffffffffffffffffffff8087166000908152600560205260409020541662000d1d565b60005b73ffffffffffffffffffffffffffffffffffffffff86161562000d685773ffffffffffffffffffffffffffffffffffffffff8087166000908152600560205260409020541662000d6b565b60005b8562001671565b60007f0000000000000000000000000000000000000000000000000000000000000000821062000da3578162000dc5565b7f00000000000000000000000000000000000000000000000000000000000000005b91508290507f00000000000000000000000000000000000000000000000000000000000000008203600181161562000e2757670de0b6b3a76400007f000000000000000000000000000000000000000000000000000000000000000083020491505b600281161562000e6157670de0b6b3a76400007f000000000000000000000000000000000000000000000000000000000000000083020491505b600481161562000e9b57670de0b6b3a76400007f000000000000000000000000000000000000000000000000000000000000000083020491505b600881161562000ed557670de0b6b3a76400007f000000000000000000000000000000000000000000000000000000000000000083020491505b601081161562000f0f57670de0b6b3a76400007f000000000000000000000000000000000000000000000000000000000000000083020491505b602081161562000f4957670de0b6b3a76400007f000000000000000000000000000000000000000000000000000000000000000083020491505b604081161562000f8357670de0b6b3a76400007f000000000000000000000000000000000000000000000000000000000000000083020491505b608081161562000fbd57670de0b6b3a76400007f000000000000000000000000000000000000000000000000000000000000000083020491505b61010081161562000ff857670de0b6b3a76400007f000000000000000000000000000000000000000000000000000000000000000083020491505b6102008116156200103357670de0b6b3a76400007f000000000000000000000000000000000000000000000000000000000000000083020491505b6104008116156200106e57670de0b6b3a76400007f000000000000000000000000000000000000000000000000000000000000000083020491505b610800811615620010a957670de0b6b3a76400007f000000000000000000000000000000000000000000000000000000000000000083020491505b611000811615620010e457670de0b6b3a76400007f000000000000000000000000000000000000000000000000000000000000000083020491505b6120008116156200111f57670de0b6b3a76400007f000000000000000000000000000000000000000000000000000000000000000083020491505b6140008116156200115a57670de0b6b3a76400007f000000000000000000000000000000000000000000000000000000000000000083020491505b6180008116156200119557670de0b6b3a76400007f000000000000000000000000000000000000000000000000000000000000000083020491505b62010000811615620011d157670de0b6b3a76400007f000000000000000000000000000000000000000000000000000000000000000083020491505b620200008116156200120d57670de0b6b3a76400007f000000000000000000000000000000000000000000000000000000000000000083020491505b620400008116156200124957670de0b6b3a76400007f000000000000000000000000000000000000000000000000000000000000000083020491505b620800008116156200128557670de0b6b3a76400007f000000000000000000000000000000000000000000000000000000000000000083020491505b62100000811615620012c157670de0b6b3a76400007f000000000000000000000000000000000000000000000000000000000000000083020491505b62200000811615620012fd57670de0b6b3a76400007f000000000000000000000000000000000000000000000000000000000000000083020491505b624000008116156200133957670de0b6b3a76400007f000000000000000000000000000000000000000000000000000000000000000083020491505b628000008116156200137557670de0b6b3a76400007f000000000000000000000000000000000000000000000000000000000000000083020491505b6301000000811615620013b257670de0b6b3a76400007f000000000000000000000000000000000000000000000000000000000000000083020491505b6302000000811615620013ef57670de0b6b3a76400007f000000000000000000000000000000000000000000000000000000000000000083020491505b63040000008116156200142c57670de0b6b3a76400007f000000000000000000000000000000000000000000000000000000000000000083020491505b63080000008116156200146957670de0b6b3a76400007f000000000000000000000000000000000000000000000000000000000000000083020491505b6310000000811615620014a657670de0b6b3a76400007f000000000000000000000000000000000000000000000000000000000000000083020491505b6320000000811615620014e357670de0b6b3a76400007f000000000000000000000000000000000000000000000000000000000000000083020491505b5092915050565b3360009081526005602052604090205473ffffffffffffffffffffffffffffffffffffffff908116908216811462000a02573360008181526005602090815260409182902080547fffffffffffffffffffffffff00000000000000000000000000000000000000001673ffffffffffffffffffffffffffffffffffffffff87169081179091558251938452908301527f4bc154dd35d6a5cb9206482ecb473cdbf2473006d6bce728b9cc0741bcc59ea2910160405180910390a16040517f3466a8860000000000000000000000000000000000000000000000000000000081523060048201523360248201526000907f000000000000000000000000000000000000000000000000000000000000000073ffffffffffffffffffffffffffffffffffffffff1690633466a88690604401602060405180830381865afa15801562001638573d6000803e3d6000fd5b505050506040513d601f19601f820116820180604052508101906200165e91906200216f565b9050801562000a835762000a8333338486855b620016808585858585620017fd565b73ffffffffffffffffffffffffffffffffffffffff8316156200173b5773ffffffffffffffffffffffffffffffffffffffff838116600090815260066020526040908190205490517f9dc29fac000000000000000000000000000000000000000000000000000000008152878316600482015260248101849052911690639dc29fac90604401600060405180830381600087803b1580156200172157600080fd5b505af115801562001736573d6000803e3d6000fd5b505050505b73ffffffffffffffffffffffffffffffffffffffff821615620017f65773ffffffffffffffffffffffffffffffffffffffff828116600090815260066020526040908190205490517f40c10f190000000000000000000000000000000000000000000000000000000081528683166004820152602481018490529116906340c10f1990604401600060405180830381600087803b158015620017dc57600080fd5b505af1158015620017f1573d6000803e3d6000fd5b505050505b5050505050565b8173ffffffffffffffffffffffffffffffffffffffff168373ffffffffffffffffffffffffffffffffffffffff16141580156200183a5750600081115b15620017f65773ffffffffffffffffffffffffffffffffffffffff83166200186e57620018688282620018a3565b620017f6565b73ffffffffffffffffffffffffffffffffffffffff821662001896576200186883826200199e565b620017f683838362001b66565b73ffffffffffffffffffffffffffffffffffffffff821662001926576040517f08c379a000000000000000000000000000000000000000000000000000000000815260206004820152601f60248201527f45524332303a206d696e7420746f20746865207a65726f20616464726573730060448201526064015b60405180910390fd5b80600260008282546200193a919062002189565b909155505073ffffffffffffffffffffffffffffffffffffffff8216600081815260208181526040808320805486019055518481527fddf252ad1be2c89b69c2b068fc378daa952ba7f163c4a11628f55a4df523b3ef910160405180910390a35050565b73ffffffffffffffffffffffffffffffffffffffff821662001a43576040517f08c379a000000000000000000000000000000000000000000000000000000000815260206004820152602160248201527f45524332303a206275726e2066726f6d20746865207a65726f2061646472657360448201527f730000000000000000000000000000000000000000000000000000000000000060648201526084016200191d565b73ffffffffffffffffffffffffffffffffffffffff82166000908152602081905260409020548181101562001afb576040517f08c379a000000000000000000000000000000000000000000000000000000000815260206004820152602260248201527f45524332303a206275726e20616d6f756e7420657863656564732062616c616e60448201527f636500000000000000000000000000000000000000000000000000000000000060648201526084016200191d565b73ffffffffffffffffffffffffffffffffffffffff83166000818152602081815260408083208686039055600280548790039055518581529192917fddf252ad1be2c89b69c2b068fc378daa952ba7f163c4a11628f55a4df523b3ef910160405180910390a3505050565b73ffffffffffffffffffffffffffffffffffffffff831662001c0b576040517f08c379a000000000000000000000000000000000000000000000000000000000815260206004820152602560248201527f45524332303a207472616e736665722066726f6d20746865207a65726f20616460448201527f647265737300000000000000000000000000000000000000000000000000000060648201526084016200191d565b73ffffffffffffffffffffffffffffffffffffffff821662001cb0576040517f08c379a000000000000000000000000000000000000000000000000000000000815260206004820152602360248201527f45524332303a207472616e7366657220746f20746865207a65726f206164647260448201527f657373000000000000000000000000000000000000000000000000000000000060648201526084016200191d565b73ffffffffffffffffffffffffffffffffffffffff83166000908152602081905260409020548181101562001d68576040517f08c379a000000000000000000000000000000000000000000000000000000000815260206004820152602660248201527f45524332303a207472616e7366657220616d6f756e742065786365656473206260448201527f616c616e6365000000000000000000000000000000000000000000000000000060648201526084016200191d565b73ffffffffffffffffffffffffffffffffffffffff848116600081815260208181526040808320878703905593871680835291849020805487019055925185815290927fddf252ad1be2c89b69c2b068fc378daa952ba7f163c4a11628f55a4df523b3ef910160405180910390a350505050565b611fbb80620021c583390190565b611e13806200418083390190565b6000815180845260005b8181101562001e205760208185018101518683018201520162001e02565b5060006020828601015260207fffffffffffffffffffffffffffffffffffffffffffffffffffffffffffffffe0601f83011685010191505092915050565b60208152600062001e73602083018462001df8565b9392505050565b73ffffffffffffffffffffffffffffffffffffffff8116811462000cc657600080fd5b60006020828403121562001eb057600080fd5b813562001e738162001e7a565b6000806040838503121562001ed157600080fd5b823562001ede8162001e7a565b946020939093013593505050565b60008060006060848603121562001f0257600080fd5b833562001f0f8162001e7a565b9250602084013562001f218162001e7a565b929592945050506040919091013590565b7f4e487b7100000000000000000000000000000000000000000000000000000000600052604160045260246000fd5b600082601f83011262001f7357600080fd5b813567ffffffffffffffff8082111562001f915762001f9162001f32565b604051601f83017fffffffffffffffffffffffffffffffffffffffffffffffffffffffffffffffe0908116603f0116810190828211818310171562001fda5762001fda62001f32565b8160405283815286602085880101111562001ff457600080fd5b836020870160208301376000602085830101528094505050505092915050565b600080604083850312156200202857600080fd5b823567ffffffffffffffff808211156200204157600080fd5b6200204f8683870162001f61565b935060208501359150808211156200206657600080fd5b50620020758582860162001f61565b9150509250929050565b600080604083850312156200209357600080fd5b8235620020a08162001e7a565b91506020830135620020b28162001e7a565b809150509250929050565b600181811c90821680620020d257607f821691505b6020821081036200210c577f4e487b7100000000000000000000000000000000000000000000000000000000600052602260045260246000fd5b50919050565b6000602082840312156200212557600080fd5b815162001e738162001e7a565b60808152600062002147608083018762001df8565b82810360208401526200215b818762001df8565b604084019590955250506060015292915050565b6000602082840312156200218257600080fd5b5051919050565b8082018082111562000acb577f4e487b7100000000000000000000000000000000000000000000000000000000600052601160045260246000fdfe60c06040523480156200001157600080fd5b5060405162001fbb38038062001fbb8339810160408190526200003491620000f8565b6001600160a01b0382166080526200004c33620000a8565b60058111156200007657604051632c22366560e11b81526004810182905260240160405180910390fd5b6001600160a01b0382166200009e5760405163d0af4eb760e01b815260040160405180910390fd5b60a0525062000134565b600080546001600160a01b038381166001600160a01b0319831681178455604051919092169283917f8be0079c531659141344cd1fd0a4f28419497f9722a3daafe3b4186f6b6457e09190a35050565b600080604083850312156200010c57600080fd5b82516001600160a01b03811681146200012457600080fd5b6020939093015192949293505050565b60805160a051611e37620001846000396000818161023d015261056901526000818161036b015281816103ca01528181610492015281816106250152818161085601526109080152611e376000f3fe608060405234801561001057600080fd5b506004361061011b5760003560e01c806378e3214f116100b2578063bfe1092811610081578063e6235ba711610066578063e6235ba714610340578063f2fde38b14610353578063fc0c546a1461036657600080fd5b8063bfe109281461030d578063cd00671b1461032b57600080fd5b806378e3214f146102955780637a1f1aa9146102a85780638da5cb5b146102bb578063b1bd3517146102fa57600080fd5b80634e71d92d116100ee5780634e71d92d1461025f57806366fa3e1e14610267578063715018a61461027a57806375619ab51461028257600080fd5b806318160ddd146101205780631e83409a146101375780632915cbec1461014c5780633717a68914610238575b600080fd5b6002545b6040519081526020015b60405180910390f35b61014a610145366004611ac6565b610393565b005b6101f061015a366004611ac6565b60408051606080820183526000808352602080840182905292840181905273ffffffffffffffffffffffffffffffffffffffff9490941684526003825292829020825193840183525464ffffffffff8116845265010000000000810463ffffffff16918401919091526901000000000000000000900476ffffffffffffffffffffffffffffffffffffffffffffff169082015290565b60408051825164ffffffffff16815260208084015163ffffffff16908201529181015176ffffffffffffffffffffffffffffffffffffffffffffff169082015260600161012e565b6101247f000000000000000000000000000000000000000000000000000000000000000081565b61014a61045b565b61014a610275366004611ac6565b61055f565b61014a61067d565b61014a610290366004611ac6565b610691565b61014a6102a3366004611ae3565b610788565b61014a6102b6366004611b0f565b61083e565b60005473ffffffffffffffffffffffffffffffffffffffff165b60405173ffffffffffffffffffffffffffffffffffffffff909116815260200161012e565b610124610308366004611b50565b6108b8565b60015473ffffffffffffffffffffffffffffffffffffffff166102d5565b610333610994565b60405161012e9190611b89565b61014a61034e366004611be3565b6109a5565b61014a610361366004611ac6565b610aeb565b6102d57f000000000000000000000000000000000000000000000000000000000000000081565b60025490565b6040517f3466a8860000000000000000000000000000000000000000000000000000000081523060048201523360248201526000907f000000000000000000000000000000000000000000000000000000000000000073ffffffffffffffffffffffffffffffffffffffff1690633466a88690604401602060405180830381865afa158015610426573d6000803e3d6000fd5b505050506040513d601f19601f8201168201806040525081019061044a9190611c18565b9050610457823383610ba7565b5050565b6040517f3466a8860000000000000000000000000000000000000000000000000000000081523060048201523360248201526000907f000000000000000000000000000000000000000000000000000000000000000073ffffffffffffffffffffffffffffffffffffffff1690633466a88690604401602060405180830381865afa1580156104ee573d6000803e3d6000fd5b505050506040513d601f19601f820116820180604052508101906105129190611c18565b905060006105206004610bd1565b905060005b815181101561055a5761055282828151811061054357610543611c31565b60200260200101513385610ba7565b600101610525565b505050565b610567610c3e565b7f00000000000000000000000000000000000000000000000000000000000000006105926004610cbf565b036105c9576040517f62bc61f800000000000000000000000000000000000000000000000000000000815260040160405180910390fd5b6105d4600482610cd6565b61060a576040517f4c95008300000000000000000000000000000000000000000000000000000000815260040160405180910390fd5b6040805173ffffffffffffffffffffffffffffffffffffffff7f000000000000000000000000000000000000000000000000000000000000000081168252831660208201527f6bff9ddd187ef283e9c7726f406ab27bcc3719a41b6bee3585c7447183cffcec910160405180910390a150565b610685610c3e565b61068f6000610d47565b565b610699610c3e565b60015473ffffffffffffffffffffffffffffffffffffffff9081169082168190036106f0576040517f8750ee9000000000000000000000000000000000000000000000000000000000815260040160405180910390fd5b6040805173ffffffffffffffffffffffffffffffffffffffff8084168252841660208201527fa9f739537fc57540bed0a44e33e27baa63290d865cc15f0f16cf17d38c998a4d910160405180910390a150600180547fffffffffffffffffffffffff00000000000000000000000000000000000000001673ffffffffffffffffffffffffffffffffffffffff92909216919091179055565b60015473ffffffffffffffffffffffffffffffffffffffff1633146107d9576040517f4ca8886700000000000000000000000000000000000000000000000000000000815260040160405180910390fd5b73ffffffffffffffffffffffffffffffffffffffff8216610817576001546104579073ffffffffffffffffffffffffffffffffffffffff1682610dbc565b6001546104579073ffffffffffffffffffffffffffffffffffffffff848116911683610f16565b3373ffffffffffffffffffffffffffffffffffffffff7f000000000000000000000000000000000000000000000000000000000000000016146108ad576040517f4ca8886700000000000000000000000000000000000000000000000000000000815260040160405180910390fd5b61055a838383610f78565b6040517f3466a88600000000000000000000000000000000000000000000000000000000815230600482015273ffffffffffffffffffffffffffffffffffffffff828116602483015260009182917f00000000000000000000000000000000000000000000000000000000000000001690633466a88690604401602060405180830381865afa15801561094f573d6000803e3d6000fd5b505050506040513d601f19601f820116820180604052508101906109739190611c18565b905061098a838261098387611036565b9190611086565b9150505b92915050565b60606109a06004610bd1565b905090565b60015473ffffffffffffffffffffffffffffffffffffffff1633146109f6576040517f4ca8886700000000000000000000000000000000000000000000000000000000815260040160405180910390fd5b73ffffffffffffffffffffffffffffffffffffffff8316600090815260056020526040902054610a52576040517f24060f4f00000000000000000000000000000000000000000000000000000000815260040160405180910390fd5b6000610a698383610a6287611036565b91906110ae565b6040805173ffffffffffffffffffffffffffffffffffffffff87168152602081018390529081018490529091507f6a6f77044107a33658235d41bedbbaf2fe9ccdceb313143c947a5e76e1ec84749060600160405180910390a1610ae573ffffffffffffffffffffffffffffffffffffffff8516333086611139565b50505050565b610af3610c3e565b73ffffffffffffffffffffffffffffffffffffffff8116610b9b576040517f08c379a000000000000000000000000000000000000000000000000000000000815260206004820152602660248201527f4f776e61626c653a206e6577206f776e657220697320746865207a65726f206160448201527f646472657373000000000000000000000000000000000000000000000000000060648201526084015b60405180910390fd5b610ba481610d47565b50565b6000610bbe8383610bb787611036565b91906111d6565b90508015610ae557610ae5848483611222565b60008080526020829052604090205460609060a081901c67ffffffffffffffff811115610c0057610c00611c60565b604051908082528060200260200182016040528015610c29578160200160208202803683370190505b509150610c37838383611243565b5050919050565b60005473ffffffffffffffffffffffffffffffffffffffff16331461068f576040517f08c379a000000000000000000000000000000000000000000000000000000000815260206004820181905260248201527f4f776e61626c653a2063616c6c6572206973206e6f7420746865206f776e65726044820152606401610b92565b60008080526020829052604081205460a01c61098e565b73ffffffffffffffffffffffffffffffffffffffff8116600090815260018301602052604081205415610d0b5750600061098e565b610d15838361132c565b73ffffffffffffffffffffffffffffffffffffffff929092166000908152600193840160205260409020919091555090565b6000805473ffffffffffffffffffffffffffffffffffffffff8381167fffffffffffffffffffffffff0000000000000000000000000000000000000000831681178455604051919092169283917f8be0079c531659141344cd1fd0a4f28419497f9722a3daafe3b4186f6b6457e09190a35050565b80471015610e26576040517f08c379a000000000000000000000000000000000000000000000000000000000815260206004820152601d60248201527f416464726573733a20696e73756666696369656e742062616c616e63650000006044820152606401610b92565b60008273ffffffffffffffffffffffffffffffffffffffff168260405160006040518083038185875af1925050503d8060008114610e80576040519150601f19603f3d011682016040523d82523d6000602084013e610e85565b606091505b505090508061055a576040517f08c379a000000000000000000000000000000000000000000000000000000000815260206004820152603a60248201527f416464726573733a20756e61626c6520746f2073656e642076616c75652c207260448201527f6563697069656e74206d617920686176652072657665727465640000000000006064820152608401610b92565b610f42837fa9059cbb0000000000000000000000000000000000000000000000000000000084846113f4565b61055a576040517ffb7f507900000000000000000000000000000000000000000000000000000000815260040160405180910390fd5b6000610f846004610bd1565b905060005b8151811015610fca57610fc2858585610fba868681518110610fad57610fad611c31565b6020026020010151611036565b929190611447565b600101610f89565b5073ffffffffffffffffffffffffffffffffffffffff8416610ffe578160026000828254610ff89190611cbe565b90915550505b73ffffffffffffffffffffffffffffffffffffffff8316610ae557816002600082825461102b9190611cd1565b909155505050505050565b604080518082018252611a9c81526000602080830182905273ffffffffffffffffffffffffffffffffffffffff851682526003815290839020835180850190945261038d8452908301529061098e565b60006110a6838361109687611467565b6020880151600101929190611489565b949350505050565b6000806110bc856020015190565b90506111256110ca86611467565b600183019064ffffffffff42167affffffffffffffffffffffffffffffffffffffffffffffffffffff90911665010000000000027fffffffffffffffffffffffffffffffffffffffffffffffffffffff000000000016179055565b6111308185856114d9565b95945050505050565b60006323b872dd60e01b905060006040518281528560048201528460248201528360448201526020600060648360008b5af19150508015611197573d801561118d57600160005114601f3d11169150611195565b6000873b1191505b505b806111ce576040517ff405907100000000000000000000000000000000000000000000000000000000815260040160405180910390fd5b505050505050565b6000806111e4856020015190565b905060006111f186611467565b905061120260018301868684611489565b925082156112195761121960018301868684611715565b50509392505050565b61055a73ffffffffffffffffffffffffffffffffffffffff84168383610f16565b815160609060a083901c90811115611287576040517ff9a99b2500000000000000000000000000000000000000000000000000000000815260040160405180910390fd5b80156113235782846000815181106112a1576112a1611c31565b73ffffffffffffffffffffffffffffffffffffffff9092166020928302919091019091015260015b818110156113215760008181526020879052604090205485518690839081106112f4576112f4611c31565b73ffffffffffffffffffffffffffffffffffffffff909216602092830291909101909101526001016112c9565b505b50919392505050565b60008080526020839052604081205460a081901c8083036113a157600080805260208690526040902074ffffffffffffffffffffffffffffffffffffffffff7401000000000000000000000000000000000000000073ffffffffffffffffffffffffffffffffffffffff8716011690556113e9565b6000808052602086905260408082207401000000000000000000000000000000000000000085019055828252902073ffffffffffffffffffffffffffffffffffffffff851690555b600101949350505050565b60006040518481528360048201528260248201526020600060448360008a5af191505080156110a6573d801561143657600160005114601f3d1116915061143e565b6000863b1191505b50949350505050565b610ae583838361145688611467565b60208901516001019392919061174e565b600061098e826118aa6118e461147e866020015190565b600101929190611979565b73ffffffffffffffffffffffffffffffffffffffff83166000908152600185016020526040812054670de0b6b3a7640000906114c58486611ce4565b6114cf9190611cfb565b6111309190611d51565b600081600003611515576040517f68d5686e00000000000000000000000000000000000000000000000000000000815260040160405180910390fd5b63ffffffff821115611553576040517f426a107300000000000000000000000000000000000000000000000000000000815260040160405180910390fd5b6d04ee2d6d415b85acef810000000083111561159b576040517f0625040100000000000000000000000000000000000000000000000000000000815260040160405180910390fd5b60408051606081018252855464ffffffffff811680835265010000000000820463ffffffff166020840152690100000000000000000090910476ffffffffffffffffffffffffffffffffffffffffffffff16928201929092529042101561166e57670de0b6b3a764000061162f82836020015163ffffffff1684600001516116239190611d8c565b64ffffffffff166119f9565b6116399190611d51565b816040015176ffffffffffffffffffffffffffffffffffffffffffffff166116619190611cd1565b61166b9085611cbe565b93505b6116788342611cbe565b855464ffffffffff908116690100000000000000000076ffffffffffffffffffffffffffffffffffffffffffffff8816027fffffffffffffffffffffffffffffffffffffffffffffff00000000ffffffffff16176501000000000063ffffffff9690961695909502949094177fffffffffffffffffffffffffffffffffffffffffffffffffffffff00000000001693169290921790935550919050565b61171f8183611ce4565b73ffffffffffffffffffffffffffffffffffffffff909316600090815260019094016020525050604090912055565b73ffffffffffffffffffffffffffffffffffffffff848116159084161583158015906117a657508473ffffffffffffffffffffffffffffffffffffffff168673ffffffffffffffffffffffffffffffffffffffff1614155b156118a15781806117b45750805b1561180d577fffffffffffffffffffffffffffffffffffffffffffffffffffffff0000000000650100000000007affffffffffffffffffffffffffffffffffffffffffffffffffffff851602164264ffffffffff161787555b60006118198486611ce4565b90508261185d5773ffffffffffffffffffffffffffffffffffffffff8716600090815260018901602052604081208054839290611857908490611cfb565b90915550505b8161189f5773ffffffffffffffffffffffffffffffffffffffff8616600090815260018901602052604081208054839290611899908490611daa565b90915550505b505b50505050505050565b6000806118cb8360408051808201909152611a9c8152600060208201525090565b90506118dd816000015163ffffffff16565b9392505050565b6000806119058460408051808201909152611a9c8152600060208201525090565b905061098a83611916836020015190565b60408051606081018252915464ffffffffff8116835265010000000000810463ffffffff9081166020850152690100000000000000000090910476ffffffffffffffffffffffffffffffffffffffffffffff16918301919091529091906119f916565b835460009064ffffffffff8116906501000000000090047affffffffffffffffffffffffffffffffffffffffffffffffffffff164282146119ef5760006119c3878763ffffffff16565b905080156119ed57806119da88858863ffffffff16565b816119e7576119e7611d22565b04820191505b505b9695505050505050565b602082015160009063ffffffff161561098e576000611a2383856000015164ffffffffff16611a86565b611a3842866000015164ffffffffff16611a86565b039050836020015163ffffffff16670de0b6b3a7640000856040015176ffffffffffffffffffffffffffffffffffffffffffffff1683020281611a7d57611a7d611d22565b0491505061098e565b6000818310611a9557816118dd565b5090919050565b61068f611dd2565b73ffffffffffffffffffffffffffffffffffffffff81168114610ba457600080fd5b600060208284031215611ad857600080fd5b81356118dd81611aa4565b60008060408385031215611af657600080fd5b8235611b0181611aa4565b946020939093013593505050565b600080600060608486031215611b2457600080fd5b8335611b2f81611aa4565b92506020840135611b3f81611aa4565b929592945050506040919091013590565b60008060408385031215611b6357600080fd5b8235611b6e81611aa4565b91506020830135611b7e81611aa4565b809150509250929050565b6020808252825182820181905260009190848201906040850190845b81811015611bd757835173ffffffffffffffffffffffffffffffffffffffff1683529284019291840191600101611ba5565b50909695505050505050565b600080600060608486031215611bf857600080fd5b8335611c0381611aa4565b95602085013595506040909401359392505050565b600060208284031215611c2a57600080fd5b5051919050565b7f4e487b7100000000000000000000000000000000000000000000000000000000600052603260045260246000fd5b7f4e487b7100000000000000000000000000000000000000000000000000000000600052604160045260246000fd5b7f4e487b7100000000000000000000000000000000000000000000000000000000600052601160045260246000fd5b8082018082111561098e5761098e611c8f565b8181038181111561098e5761098e611c8f565b808202811582820484141761098e5761098e611c8f565b8181036000831280158383131683831282161715611d1b57611d1b611c8f565b5092915050565b7f4e487b7100000000000000000000000000000000000000000000000000000000600052601260045260246000fd5b600082611d87577f4e487b7100000000000000000000000000000000000000000000000000000000600052601260045260246000fd5b500490565b64ffffffffff828116828216039080821115611d1b57611d1b611c8f565b8082018281126000831280158216821582161715611dca57611dca611c8f565b505092915050565b7f4e487b7100000000000000000000000000000000000000000000000000000000600052605160045260246000fdfea264697066735822122033d2e53b7d8d7fef22ac60ee554dd5c92e09220b60eab4ee92937f19f8b38d7864736f6c6343000811003360e06040523480156200001157600080fd5b5060405162001e1338038062001e13833981016040819052620000349162000178565b81818585600362000046838262000281565b50600462000055828262000281565b505050816000036200007a576040516337f1632160e11b815260040160405180910390fd5b608082905260a08190526200009c6005620000ad602090811b6200084b17901c565b50503360c052506200034d92505050565b60019055565b634e487b7160e01b600052604160045260246000fd5b600082601f830112620000db57600080fd5b81516001600160401b0380821115620000f857620000f8620000b3565b604051601f8301601f19908116603f01168101908282118183101715620001235762000123620000b3565b816040528381526020925086838588010111156200014057600080fd5b600091505b8382101562000164578582018301518183018401529082019062000145565b600093810190920192909252949350505050565b600080600080608085870312156200018f57600080fd5b84516001600160401b0380821115620001a757600080fd5b620001b588838901620000c9565b95506020870151915080821115620001cc57600080fd5b50620001db87828801620000c9565b604087015160609097015195989097509350505050565b600181811c908216806200020757607f821691505b6020821081036200022857634e487b7160e01b600052602260045260246000fd5b50919050565b601f8211156200027c57600081815260208120601f850160051c81016020861015620002575750805b601f850160051c820191505b81811015620002785782815560010162000263565b5050505b505050565b81516001600160401b038111156200029d576200029d620000b3565b620002b581620002ae8454620001f2565b846200022e565b602080601f831160018114620002ed5760008415620002d45750858301515b600019600386901b1c1916600185901b17855562000278565b600085815260208120601f198616915b828110156200031e57888601518255948401946001909101908401620002fd565b50858210156200033d5787850151600019600388901b60f8161c191681555b5050505050600190811b01905550565b60805160a05160c051611a7a62000399600039600081816105760152818161072701526107dc015260008181610318015261113d01526000818161029d0152610b180152611a7a6000f3fe608060405234801561001057600080fd5b50600436106101985760003560e01c806370a08231116100e3578063a457c2d71161008c578063dd62ed3e11610066578063dd62ed3e14610350578063f55f545c14610396578063f70f6a9a146103b657600080fd5b8063a457c2d7146101bb578063a9059cbb1461033a578063ada6f64b1461034857600080fd5b806395d89b41116100bd57806395d89b41146102f85780639dc29fac14610300578063a44282dc1461031357600080fd5b806370a08231146102bf5780637a3e60e9146102d25780638da031df146102e557600080fd5b80633466a8861161014557806340f99a941161011f57806340f99a941461024d578063538db9231461028557806366b0dede1461029857600080fd5b80633466a8861461022757806339509351146101bb57806340c10f191461023a57600080fd5b8063222d6b4d11610176578063222d6b4d146101f057806323b872dd14610205578063313ce5671461021857600080fd5b806306fdde031461019d578063095ea7b3146101bb57806318160ddd146101de575b600080fd5b6101a56103c9565b6040516101b291906117bc565b60405180910390f35b6101ce6101c9366004611851565b61045b565b60405190151581526020016101b2565b6002545b6040519081526020016101b2565b6102036101fe36600461187b565b61048f565b005b6101ce610213366004611896565b61049c565b604051601281526020016101b2565b6101e26102353660046118d2565b6104d0565b610203610248366004611851565b61055e565b61026061025b366004611851565b6105db565b60405173ffffffffffffffffffffffffffffffffffffffff90911681526020016101b2565b61020361029336600461187b565b610613565b6101e27f000000000000000000000000000000000000000000000000000000000000000081565b6101e26102cd36600461187b565b61061d565b6101e26102e036600461187b565b610692565b6101ce6102f33660046118d2565b6106c0565b6101a5610700565b61020361030e366004611851565b61070f565b6101e27f000000000000000000000000000000000000000000000000000000000000000081565b6101ce610213366004611851565b610203610788565b6101e261035e3660046118d2565b73ffffffffffffffffffffffffffffffffffffffff918216600090815260016020908152604080832093909416825291909152205490565b6103a96103a436600461187b565b610793565b6040516101b29190611905565b6102036103c43660046118d2565b6107c4565b6060600380546103d89061195f565b80601f01602080910402602001604051908101604052809291908181526020018280546104049061195f565b80156104515780601f1061042657610100808354040283529160200191610451565b820191906000526020600020905b81548152906001019060200180831161043457829003601f168201915b5050505050905090565b60006040517feb60c2c400000000000000000000000000000000000000000000000000000000815260040160405180910390fd5b6104993382610851565b50565b60006040517fa24e573d00000000000000000000000000000000000000000000000000000000815260040160405180910390fd5b600060056104df815460021490565b15610516576040517f37ed32e800000000000000000000000000000000000000000000000000000000815260040160405180910390fd5b61052083856106c0565b156105525773ffffffffffffffffffffffffffffffffffffffff83166000908152602081905260409020549150610557565b600091505b5092915050565b3373ffffffffffffffffffffffffffffffffffffffff7f000000000000000000000000000000000000000000000000000000000000000016146105cd576040517f30cd747100000000000000000000000000000000000000000000000000000000815260040160405180910390fd5b6105d7828261092b565b5050565b73ffffffffffffffffffffffffffffffffffffffff8216600090815260066020526040812061060a9083610a2b565b90505b92915050565b6104993382610a3f565b6000600561062c815460021490565b15610663576040517f37ed32e800000000000000000000000000000000000000000000000000000000815260040160405180910390fd5b73ffffffffffffffffffffffffffffffffffffffff831660009081526020819052604090205491505b50919050565b73ffffffffffffffffffffffffffffffffffffffff8116600090815260066020526040812061060d90610be9565b73ffffffffffffffffffffffffffffffffffffffff828116600090815260066020908152604080832093851683526001909301905290812054151561060a565b6060600480546103d89061195f565b3373ffffffffffffffffffffffffffffffffffffffff7f0000000000000000000000000000000000000000000000000000000000000000161461077e576040517f30cd747100000000000000000000000000000000000000000000000000000000815260040160405180910390fd5b6105d78282610c00565b61079133610dcb565b565b73ffffffffffffffffffffffffffffffffffffffff8116600090815260066020526040902060609061060d90610f53565b3373ffffffffffffffffffffffffffffffffffffffff7f00000000000000000000000000000000000000000000000000000000000000001614610833576040517f30cd747100000000000000000000000000000000000000000000000000000000815260040160405180910390fd5b61083d82826106c0565b6105d7576105d78282610a3f565b60019055565b73ffffffffffffffffffffffffffffffffffffffff821660009081526006602052604090206108809082610fc0565b6108b6576040517f826fbca300000000000000000000000000000000000000000000000000000000815260040160405180910390fd5b6040805173ffffffffffffffffffffffffffffffffffffffff8085168252831660208201527fb94b1adfafd33f45e2ba5c713871f026dc1ef0fdc3d75b4f24e954f15b9f8e64910160405180910390a160006109118361061d565b905080156109265761092682846000846110db565b505050565b73ffffffffffffffffffffffffffffffffffffffff82166109ad576040517f08c379a000000000000000000000000000000000000000000000000000000000815260206004820152601f60248201527f45524332303a206d696e7420746f20746865207a65726f20616464726573730060448201526064015b60405180910390fd5b80600260008282546109bf91906119ac565b909155505073ffffffffffffffffffffffffffffffffffffffff8216600081815260208181526040808320805486019055518481527fddf252ad1be2c89b69c2b068fc378daa952ba7f163c4a11628f55a4df523b3ef910160405180910390a36105d76000838361118a565b60008181526020839052604081205461060a565b73ffffffffffffffffffffffffffffffffffffffff8116610a8c576040517f960357e400000000000000000000000000000000000000000000000000000000815260040160405180910390fd5b73ffffffffffffffffffffffffffffffffffffffff82166000908152600660205260409020610abb90826113c6565b610af1576040517fcbdb297300000000000000000000000000000000000000000000000000000000815260040160405180910390fd5b73ffffffffffffffffffffffffffffffffffffffff821660009081526006602052604090207f000000000000000000000000000000000000000000000000000000000000000090610b4190610be9565b1115610b79576040517fc87e91a600000000000000000000000000000000000000000000000000000000815260040160405180910390fd5b6040805173ffffffffffffffffffffffffffffffffffffffff8085168252831660208201527fde03e097fdd335e4d488cd0bc9645f306e7f5569ad042d918dc75be13107c677910160405180910390a16000610bd48361061d565b905080156109265761092682600085846110db565b60008080526020829052604081205460a01c61060d565b73ffffffffffffffffffffffffffffffffffffffff8216610ca3576040517f08c379a000000000000000000000000000000000000000000000000000000000815260206004820152602160248201527f45524332303a206275726e2066726f6d20746865207a65726f2061646472657360448201527f730000000000000000000000000000000000000000000000000000000000000060648201526084016109a4565b73ffffffffffffffffffffffffffffffffffffffff821660009081526020819052604090205481811015610d59576040517f08c379a000000000000000000000000000000000000000000000000000000000815260206004820152602260248201527f45524332303a206275726e20616d6f756e7420657863656564732062616c616e60448201527f636500000000000000000000000000000000000000000000000000000000000060648201526084016109a4565b73ffffffffffffffffffffffffffffffffffffffff83166000818152602081815260408083208686039055600280548790039055518581529192917fddf252ad1be2c89b69c2b068fc378daa952ba7f163c4a11628f55a4df523b3ef910160405180910390a36109268360008461118a565b73ffffffffffffffffffffffffffffffffffffffff81166000908152600660205260408120610df990610f53565b90506000610e068361061d565b82519091505b8015610f4d57610e7f836001830381518110610e2a57610e2a6119e6565b6020026020010151600660008773ffffffffffffffffffffffffffffffffffffffff1673ffffffffffffffffffffffffffffffffffffffff168152602001908152602001600020610fc090919063ffffffff16565b507fb94b1adfafd33f45e2ba5c713871f026dc1ef0fdc3d75b4f24e954f15b9f8e6484846001840381518110610eb757610eb76119e6565b6020026020010151604051610eef92919073ffffffffffffffffffffffffffffffffffffffff92831681529116602082015260400190565b60405180910390a18115610f2657610f26836001830381518110610f1557610f156119e6565b6020026020010151856000856110db565b7fffffffffffffffffffffffffffffffffffffffffffffffffffffffffffffffff01610e0c565b50505050565b60008080526020829052604090205460609060a081901c67ffffffffffffffff811115610f8257610f82611a15565b604051908082528060200260200182016040528015610fab578160200160208202803683370190505b509150610fb9838383611437565b5050919050565b73ffffffffffffffffffffffffffffffffffffffff81166000908152600183016020526040812054808203610ff957600091505061060d565b60008080526020859052604090205460a01c8110156110a5576000808052602085905260408082205460a01c7fffffffffffffffffffffffffffffffffffffffffffffffffffffffffffffffff018252812054905061107b857fffffffffffffffffffffffffffffffffffffffffffffffffffffffffffffffff840183611520565b73ffffffffffffffffffffffffffffffffffffffff16600090815260018501602052604090208190555b6110ae846115d2565b505073ffffffffffffffffffffffffffffffffffffffff1660009081526001918201602052604081205590565b604080517f7a1f1aa900000000000000000000000000000000000000000000000000000000808252600482018690526024820185905260448201849052917f1c26714c00000000000000000000000000000000000000000000000000000000917f0000000000000000000000000000000000000000000000000000000000000000918290603f5a02041015611174578260005260046000fd5b60008060648360008c87f1505050505050505050565b600561119581611694565b6000821180156111d157508273ffffffffffffffffffffffffffffffffffffffff168473ffffffffffffffffffffffffffffffffffffffff1614155b156113bd5773ffffffffffffffffffffffffffffffffffffffff8416600090815260066020526040812061120490610f53565b73ffffffffffffffffffffffffffffffffffffffff851660009081526006602052604081209192509061123690610f53565b825181519192509060005b8281101561134357600085828151811061125d5761125d6119e6565b6020026020010151905060005b8381101561132557858181518110611284576112846119e6565b602002602001015173ffffffffffffffffffffffffffffffffffffffff168273ffffffffffffffffffffffffffffffffffffffff160361131d576112ca828c8c8c6110db565b60008682815181106112de576112de6119e6565b602002602001019073ffffffffffffffffffffffffffffffffffffffff16908173ffffffffffffffffffffffffffffffffffffffff1681525050611325565b60010161126a565b83810361133957611339828c60008c6110db565b5050600101611241565b5060005b818110156113b7576000848281518110611363576113636119e6565b60200260200101519050600073ffffffffffffffffffffffffffffffffffffffff168173ffffffffffffffffffffffffffffffffffffffff16146113ae576113ae8160008b8b6110db565b50600101611347565b50505050505b60018155610f4d565b73ffffffffffffffffffffffffffffffffffffffff81166000908152600183016020526040812054156113fb5750600061060d565b61140583836116f4565b73ffffffffffffffffffffffffffffffffffffffff929092166000908152600193840160205260409020919091555090565b815160609060a083901c9081111561147b576040517ff9a99b2500000000000000000000000000000000000000000000000000000000815260040160405180910390fd5b8015611517578284600081518110611495576114956119e6565b73ffffffffffffffffffffffffffffffffffffffff9092166020928302919091019091015260015b818110156115155760008181526020879052604090205485518690839081106114e8576114e86119e6565b73ffffffffffffffffffffffffffffffffffffffff909216602092830291909101909101526001016114bd565b505b50919392505050565b60008080526020849052604090205460a01c80831061156b576040517f4e23d03500000000000000000000000000000000000000000000000000000000815260040160405180910390fd5b826000036115a557600080805260208590526040902060a082901b73ffffffffffffffffffffffffffffffffffffffff8416179055610f4d565b600083815260208590526040902073ffffffffffffffffffffffffffffffffffffffff8316905550505050565b6000808052602082905260408120549060a082901c90819003611621576040517f06a2af9e00000000000000000000000000000000000000000000000000000000815260040160405180910390fd5b7fffffffffffffffffffffffffffffffffffffffffffffffffffffffffffffffff810160009081526020849052604081205560018111156109265760008080526020849052604090207fffffffffffffffffffffffff000000000000000000000000000000000000000083019055505050565b80547ffffffffffffffffffffffffffffffffffffffffffffffffffffffffffffffffe016116ee576040517f37ed32e800000000000000000000000000000000000000000000000000000000815260040160405180910390fd5b60029055565b60008080526020839052604081205460a081901c80830361176957600080805260208690526040902074ffffffffffffffffffffffffffffffffffffffffff7401000000000000000000000000000000000000000073ffffffffffffffffffffffffffffffffffffffff8716011690556117b1565b6000808052602086905260408082207401000000000000000000000000000000000000000085019055828252902073ffffffffffffffffffffffffffffffffffffffff851690555b600101949350505050565b600060208083528351808285015260005b818110156117e9578581018301518582016040015282016117cd565b5060006040828601015260407fffffffffffffffffffffffffffffffffffffffffffffffffffffffffffffffe0601f8301168501019250505092915050565b803573ffffffffffffffffffffffffffffffffffffffff8116811461184c57600080fd5b919050565b6000806040838503121561186457600080fd5b61186d83611828565b946020939093013593505050565b60006020828403121561188d57600080fd5b61060a82611828565b6000806000606084860312156118ab57600080fd5b6118b484611828565b92506118c260208501611828565b9150604084013590509250925092565b600080604083850312156118e557600080fd5b6118ee83611828565b91506118fc60208401611828565b90509250929050565b6020808252825182820181905260009190848201906040850190845b8181101561195357835173ffffffffffffffffffffffffffffffffffffffff1683529284019291840191600101611921565b50909695505050505050565b600181811c9082168061197357607f821691505b60208210810361068c577f4e487b7100000000000000000000000000000000000000000000000000000000600052602260045260246000fd5b8082018082111561060d577f4e487b7100000000000000000000000000000000000000000000000000000000600052601160045260246000fd5b7f4e487b7100000000000000000000000000000000000000000000000000000000600052603260045260246000fd5b7f4e487b7100000000000000000000000000000000000000000000000000000000600052604160045260246000fdfea2646970667358221220cadc776809523181702befb6128347b2f47f0d4e53d7ae0b9191e6574b758d4364736f6c63430008110033a2646970667358221220569d7109ea3faada53b173883a366537ba219820ed71958409595c7e95e030d564736f6c63430008110033",
  "devdoc": {
    "kind": "dev",
    "methods": {
      "allowance(address,address)": {
        "details": "See {IERC20-allowance}."
      },
      "balanceOf(address)": {
        "details": "See {IERC20-balanceOf}."
      },
      "decimals()": {
        "details": "Returns the number of decimals used to get its user representation. For example, if `decimals` equals `2`, a balance of `505` tokens should be displayed to a user as `5.05` (`505 / 10 ** 2`). Tokens usually opt for a value of 18, imitating the relationship between Ether and Wei. This is the value {ERC20} uses, unless this function is overridden; NOTE: This information is only used for _display_ purposes: it in no way affects any of the arithmetic of the contract, including {IERC20-balanceOf} and {IERC20-transfer}."
      },
      "name()": {
        "details": "Returns the name of the token."
      },
      "symbol()": {
        "details": "Returns the symbol of the token, usually a shorter version of the name."
      },
      "totalSupply()": {
        "details": "See {IERC20-totalSupply}."
      },
      "votingPowerOf(address)": {
        "details": "we assume that voting power is a function of balance that preserves order"
      }
    },
    "version": 1
  },
  "userdoc": {
    "kind": "user",
    "methods": {},
    "version": 1
  },
  "storageLayout": {
    "storage": [
      {
        "astId": 9349,
        "contract": "contracts/PowerPod.sol:PowerPod",
        "label": "_balances",
        "offset": 0,
        "slot": "0",
        "type": "t_mapping(t_address,t_uint256)"
      },
      {
        "astId": 9355,
        "contract": "contracts/PowerPod.sol:PowerPod",
        "label": "_allowances",
        "offset": 0,
        "slot": "1",
        "type": "t_mapping(t_address,t_mapping(t_address,t_uint256))"
      },
      {
        "astId": 9357,
        "contract": "contracts/PowerPod.sol:PowerPod",
        "label": "_totalSupply",
        "offset": 0,
        "slot": "2",
        "type": "t_uint256"
      },
      {
        "astId": 9359,
        "contract": "contracts/PowerPod.sol:PowerPod",
        "label": "_name",
        "offset": 0,
        "slot": "3",
        "type": "t_string_storage"
      },
      {
        "astId": 9361,
        "contract": "contracts/PowerPod.sol:PowerPod",
        "label": "_symbol",
        "offset": 0,
        "slot": "4",
        "type": "t_string_storage"
      },
      {
        "astId": 204,
        "contract": "contracts/PowerPod.sol:PowerPod",
        "label": "delegated",
        "offset": 0,
        "slot": "5",
        "type": "t_mapping(t_address,t_address)"
      },
      {
        "astId": 653,
        "contract": "contracts/PowerPod.sol:PowerPod",
        "label": "registration",
        "offset": 0,
        "slot": "6",
        "type": "t_mapping(t_address,t_contract(IDelegatedShare)879)"
      },
      {
        "astId": 480,
        "contract": "contracts/PowerPod.sol:PowerPod",
        "label": "defaultFarms",
        "offset": 0,
        "slot": "7",
        "type": "t_mapping(t_address,t_address)"
      }
    ],
    "types": {
      "t_address": {
        "encoding": "inplace",
        "label": "address",
        "numberOfBytes": "20"
      },
      "t_contract(IDelegatedShare)879": {
        "encoding": "inplace",
        "label": "contract IDelegatedShare",
        "numberOfBytes": "20"
      },
      "t_mapping(t_address,t_address)": {
        "encoding": "mapping",
        "key": "t_address",
        "label": "mapping(address => address)",
        "numberOfBytes": "32",
        "value": "t_address"
      },
      "t_mapping(t_address,t_contract(IDelegatedShare)879)": {
        "encoding": "mapping",
        "key": "t_address",
        "label": "mapping(address => contract IDelegatedShare)",
        "numberOfBytes": "32",
        "value": "t_contract(IDelegatedShare)879"
      },
      "t_mapping(t_address,t_mapping(t_address,t_uint256))": {
        "encoding": "mapping",
        "key": "t_address",
        "label": "mapping(address => mapping(address => uint256))",
        "numberOfBytes": "32",
        "value": "t_mapping(t_address,t_uint256)"
      },
      "t_mapping(t_address,t_uint256)": {
        "encoding": "mapping",
        "key": "t_address",
        "label": "mapping(address => uint256)",
        "numberOfBytes": "32",
        "value": "t_uint256"
      },
      "t_string_storage": {
        "encoding": "bytes",
        "label": "string",
        "numberOfBytes": "32"
      },
      "t_uint256": {
        "encoding": "inplace",
        "label": "uint256",
        "numberOfBytes": "32"
      }
    }
  }
}