{
  "address": "0xAbD4e5fB590Aa132749bbF2A04eA57EFbaAC399E",
  "abi": [
    {
      "inputs": [
        {
          "internalType": "address",
          "name": "limitOrderProtocol",
          "type": "address"
        },
        {
          "internalType": "contract IERC20",
          "name": "accessToken",
          "type": "address"
        },
        {
          "internalType": "address",
          "name": "weth",
          "type": "address"
        },
        {
          "internalType": "address",
          "name": "owner",
          "type": "address"
        }
      ],
      "stateMutability": "nonpayable",
      "type": "constructor"
    },
    {
      "inputs": [],
      "name": "AllowedTimeViolation",
      "type": "error"
    },
    {
      "inputs": [],
      "name": "ETHTransferFailed",
      "type": "error"
    },
    {
      "inputs": [],
      "name": "EthTransferFailed",
      "type": "error"
    },
    {
      "inputs": [],
      "name": "InconsistentFee",
      "type": "error"
    },
    {
      "inputs": [],
      "name": "InsufficientBalance",
      "type": "error"
    },
    {
      "inputs": [],
      "name": "InvalidIntegratorShare",
      "type": "error"
    },
    {
      "inputs": [],
      "name": "InvalidPriorityFee",
      "type": "error"
    },
    {
      "inputs": [],
      "name": "InvalidWhitelistDiscountNumerator",
      "type": "error"
    },
    {
      "inputs": [],
      "name": "OnlyLimitOrderProtocol",
      "type": "error"
    },
    {
      "inputs": [],
      "name": "OnlyWhitelistOrAccessToken",
      "type": "error"
    },
    {
      "inputs": [
        {
          "internalType": "address",
          "name": "owner",
          "type": "address"
        }
      ],
      "name": "OwnableInvalidOwner",
      "type": "error"
    },
    {
      "inputs": [
        {
          "internalType": "address",
          "name": "account",
          "type": "address"
        }
      ],
      "name": "OwnableUnauthorizedAccount",
      "type": "error"
    },
    {
      "inputs": [],
      "name": "SafeTransferFailed",
      "type": "error"
    },
    {
      "anonymous": false,
      "inputs": [
        {
          "indexed": true,
          "internalType": "address",
          "name": "previousOwner",
          "type": "address"
        },
        {
          "indexed": true,
          "internalType": "address",
          "name": "newOwner",
          "type": "address"
        }
      ],
      "name": "OwnershipTransferred",
      "type": "event"
    },
    {
      "inputs": [
        {
          "components": [
            {
              "internalType": "uint256",
              "name": "salt",
              "type": "uint256"
            },
            {
              "internalType": "Address",
              "name": "maker",
              "type": "uint256"
            },
            {
              "internalType": "Address",
              "name": "receiver",
              "type": "uint256"
            },
            {
              "internalType": "Address",
              "name": "makerAsset",
              "type": "uint256"
            },
            {
              "internalType": "Address",
              "name": "takerAsset",
              "type": "uint256"
            },
            {
              "internalType": "uint256",
              "name": "makingAmount",
              "type": "uint256"
            },
            {
              "internalType": "uint256",
              "name": "takingAmount",
              "type": "uint256"
            },
            {
              "internalType": "MakerTraits",
              "name": "makerTraits",
              "type": "uint256"
            }
          ],
          "internalType": "struct IOrderMixin.Order",
          "name": "order",
          "type": "tuple"
        },
        {
          "internalType": "bytes",
          "name": "extension",
          "type": "bytes"
        },
        {
          "internalType": "bytes32",
          "name": "orderHash",
          "type": "bytes32"
        },
        {
          "internalType": "address",
          "name": "taker",
          "type": "address"
        },
        {
          "internalType": "uint256",
          "name": "takingAmount",
          "type": "uint256"
        },
        {
          "internalType": "uint256",
          "name": "remainingMakingAmount",
          "type": "uint256"
        },
        {
          "internalType": "bytes",
          "name": "extraData",
          "type": "bytes"
        }
      ],
      "name": "getMakingAmount",
      "outputs": [
        {
          "internalType": "uint256",
          "name": "",
          "type": "uint256"
        }
      ],
      "stateMutability": "view",
      "type": "function"
    },
    {
      "inputs": [
        {
          "components": [
            {
              "internalType": "uint256",
              "name": "salt",
              "type": "uint256"
            },
            {
              "internalType": "Address",
              "name": "maker",
              "type": "uint256"
            },
            {
              "internalType": "Address",
              "name": "receiver",
              "type": "uint256"
            },
            {
              "internalType": "Address",
              "name": "makerAsset",
              "type": "uint256"
            },
            {
              "internalType": "Address",
              "name": "takerAsset",
              "type": "uint256"
            },
            {
              "internalType": "uint256",
              "name": "makingAmount",
              "type": "uint256"
            },
            {
              "internalType": "uint256",
              "name": "takingAmount",
              "type": "uint256"
            },
            {
              "internalType": "MakerTraits",
              "name": "makerTraits",
              "type": "uint256"
            }
          ],
          "internalType": "struct IOrderMixin.Order",
          "name": "order",
          "type": "tuple"
        },
        {
          "internalType": "bytes",
          "name": "extension",
          "type": "bytes"
        },
        {
          "internalType": "bytes32",
          "name": "orderHash",
          "type": "bytes32"
        },
        {
          "internalType": "address",
          "name": "taker",
          "type": "address"
        },
        {
          "internalType": "uint256",
          "name": "makingAmount",
          "type": "uint256"
        },
        {
          "internalType": "uint256",
          "name": "remainingMakingAmount",
          "type": "uint256"
        },
        {
          "internalType": "bytes",
          "name": "extraData",
          "type": "bytes"
        }
      ],
      "name": "getTakingAmount",
      "outputs": [
        {
          "internalType": "uint256",
          "name": "",
          "type": "uint256"
        }
      ],
      "stateMutability": "view",
      "type": "function"
    },
    {
      "inputs": [],
      "name": "owner",
      "outputs": [
        {
          "internalType": "address",
          "name": "",
          "type": "address"
        }
      ],
      "stateMutability": "view",
      "type": "function"
    },
    {
      "inputs": [
        {
          "components": [
            {
              "internalType": "uint256",
              "name": "salt",
              "type": "uint256"
            },
            {
              "internalType": "Address",
              "name": "maker",
              "type": "uint256"
            },
            {
              "internalType": "Address",
              "name": "receiver",
              "type": "uint256"
            },
            {
              "internalType": "Address",
              "name": "makerAsset",
              "type": "uint256"
            },
            {
              "internalType": "Address",
              "name": "takerAsset",
              "type": "uint256"
            },
            {
              "internalType": "uint256",
              "name": "makingAmount",
              "type": "uint256"
            },
            {
              "internalType": "uint256",
              "name": "takingAmount",
              "type": "uint256"
            },
            {
              "internalType": "MakerTraits",
              "name": "makerTraits",
              "type": "uint256"
            }
          ],
          "internalType": "struct IOrderMixin.Order",
          "name": "order",
          "type": "tuple"
        },
        {
          "internalType": "bytes",
          "name": "extension",
          "type": "bytes"
        },
        {
          "internalType": "bytes32",
          "name": "orderHash",
          "type": "bytes32"
        },
        {
          "internalType": "address",
          "name": "taker",
          "type": "address"
        },
        {
          "internalType": "uint256",
          "name": "makingAmount",
          "type": "uint256"
        },
        {
          "internalType": "uint256",
          "name": "takingAmount",
          "type": "uint256"
        },
        {
          "internalType": "uint256",
          "name": "remainingMakingAmount",
          "type": "uint256"
        },
        {
          "internalType": "bytes",
          "name": "extraData",
          "type": "bytes"
        }
      ],
      "name": "postInteraction",
      "outputs": [],
      "stateMutability": "nonpayable",
      "type": "function"
    },
    {
      "inputs": [],
      "name": "renounceOwnership",
      "outputs": [],
      "stateMutability": "nonpayable",
      "type": "function"
    },
    {
      "inputs": [
        {
          "internalType": "contract IERC20",
          "name": "token",
          "type": "address"
        },
        {
          "internalType": "uint256",
          "name": "amount",
          "type": "uint256"
        }
      ],
      "name": "rescueFunds",
      "outputs": [],
      "stateMutability": "nonpayable",
      "type": "function"
    },
    {
      "inputs": [
        {
          "internalType": "address",
          "name": "newOwner",
          "type": "address"
        }
      ],
      "name": "transferOwnership",
      "outputs": [],
      "stateMutability": "nonpayable",
      "type": "function"
    },
    {
      "stateMutability": "payable",
      "type": "receive"
    }
  ],
  "transactionHash": "0x9ba5ae8e04989acae663c67f0f1b443efc3d2de6d2fab57bbb6a2ccfea1b6fcd",
  "args": [
    "0x111111125421ca6dc452d289314280a0f8842a65",
    "0xAccE550000863572B867E661647CD7D97b72C507",
    "0xC02aaA39b223FE8D0A0e5C4F27eAD9083C756Cc2",
    "0x56E44874F624EbDE6efCc783eFD685f0FBDC6dcF"
  ],
  "numDeployments": 1,
  "bytecode": "0x60e0346200011157601f62001ed038819003918201601f19168301916001600160401b03831184841017620001155780849260809460405283398101031262000111576200004d8162000129565b60208201516001600160a01b0392909183831683036200011157836200008460606200007c6040860162000129565b940162000129565b168015620000f9575f80546001600160a01b03198116831782556040519616907f8be0079c531659141344cd1fd0a4f28419497f9722a3daafe3b4186f6b6457e09080a360805260a05260c052611d9190816200013f8239608051816104dc015260a05181610733015260c05181610abd0152f35b604051631e4fbdf760e01b81525f6004820152602490fd5b5f80fd5b634e487b7160e01b5f52604160045260245ffd5b51906001600160a01b0382168203620001115756fe6080604052600436101561001a575b3615610018575f80fd5b005b5f803560e01c80631d9671c314610c9a578063462ebde214610424578063715018a61461038857806378e3214f146102625780638da5cb5b14610211578063d7ff8a801461015a5763f2fde38b14610072575061000e565b346101575760207ffffffffffffffffffffffffffffffffffffffffffffffffffffffffffffffffc3601126101575760043573ffffffffffffffffffffffffffffffffffffffff808216809203610153576100cb610e15565b8115610122575f54827fffffffffffffffffffffffff00000000000000000000000000000000000000008216175f55167f8be0079c531659141344cd1fd0a4f28419497f9722a3daafe3b4186f6b6457e05f80a380f35b602483604051907f1e4fbdf70000000000000000000000000000000000000000000000000000000082526004820152fd5b5f80fd5b80fd5b50346101575761019d6101ba61018661018f61017536610d5e565b849c98999295979a91949394610f52565b909c919c611780565b99945097929b915099611c9c565b91620186a0910181016101b08184611210565b9209151590610e08565b9162989680918201908183116101e45760206101dc8585856101b08184611299565b604051908152f35b807f4e487b7100000000000000000000000000000000000000000000000000000000602492526011600452fd5b503461015757807ffffffffffffffffffffffffffffffffffffffffffffffffffffffffffffffffc3601126101575773ffffffffffffffffffffffffffffffffffffffff6020915416604051908152f35b50346101575760407ffffffffffffffffffffffffffffffffffffffffffffffffffffffffffffffffc3601126101575760043573ffffffffffffffffffffffffffffffffffffffff81169081810361038457602435916102c0610e15565b826102c9578380f35b8015908115610366575b5015610355575080471061032b57818080809333611388f16102f3610ea6565b5015610301575b5f80808380f35b60046040517fb12d13eb000000000000000000000000000000000000000000000000000000008152fd5b60046040517ff4d678b8000000000000000000000000000000000000000000000000000000008152fd5b90610361913390611478565b6102fa565b73eeeeeeeeeeeeeeeeeeeeeeeeeeeeeeeeeeeeeeee9150145f6102d3565b8280fd5b503461015757807ffffffffffffffffffffffffffffffffffffffffffffffffffffffffffffffffc360112610157576103bf610e15565b5f73ffffffffffffffffffffffffffffffffffffffff81547fffffffffffffffffffffffff000000000000000000000000000000000000000081168355167f8be0079c531659141344cd1fd0a4f28419497f9722a3daafe3b4186f6b6457e08280a380f35b5034610153577ffffffffffffffffffffffffffffffffffffffffffffffffffffffffffffffffc36016101e081126101535761010013610153576101043567ffffffffffffffff81116101535761047f903690600401610d30565b73ffffffffffffffffffffffffffffffffffffffff610144351661014435036101535767ffffffffffffffff6101c43511610153576104c4366101c435600401610d30565b9273ffffffffffffffffffffffffffffffffffffffff7f0000000000000000000000000000000000000000000000000000000000000000163303610c705761050a6113b4565b15610c46578315610c19578360151161015357836029116101535760298201917fffffffffffffffffffffffffffffffffffffffffffffffffffffffffffffffd785019473ffffffffffffffffffffffffffffffffffffffff60243516907f01000000000000000000000000000000000000000000000000000000000000008084351614610b87575b5061059e8685611510565b60f01c9386600211610153576105d97ffffffffffffffffffffffffffffffffffffffffffffffffffffffffffffffffe88016002830161173c565b60f81c60648111610b5d57876003116101535761061b7ffffffffffffffffffffffffffffffffffffffffffffffffffffffffffffffffd890160038401611510565b60f01c9188600511610153576106567ffffffffffffffffffffffffffffffffffffffffffffffffffffffffffffffffb8a016005830161173c565b60f81c9860648a11610b3357806006116101535761069e9160067ffffffffffffffffffffffffffffffffffffffffffffffffffffffffffffffffa6101443593019101611a33565b9982919892610b26575b501580610a5a575b610a3057806106d86106d1620186a0866106e2950101809361018435611322565b9384611179565b9361018435611322565b019260443573ffffffffffffffffffffffffffffffffffffffff1630036109fa5773ffffffffffffffffffffffffffffffffffffffff6084351673ffffffffffffffffffffffffffffffffffffffff7f0000000000000000000000000000000000000000000000000000000000000000168114806109ce575b1561097257506107849382918261095c575b828203610942575b50039061018435030390611c5a565b6014841015610791578480f35b61079b84836113f6565b60601c908460141161015357813b15610153575f80946108d97fffffffffffffffffffffffffffffffffffffffffffffffffffffffffffffffec9761085d9660146040519a8b998a9889977f462ebde200000000000000000000000000000000000000000000000000000000895260043560048a015260243560248a015260443560448a015260643560648a015260843560848a015260a43560a48a015260c43560c48a015260e43560e48a01526101e06101048a01526101e489019161143a565b936101243561012488015273ffffffffffffffffffffffffffffffffffffffff610144351661014488015261016435610164880152610184356101848801526101a4356101a48801527ffffffffffffffffffffffffffffffffffffffffffffffffffffffffffffffffc878603016101c488015201910161143a565b03925af18015610937576108ef575b8080808480f35b905067ffffffffffffffff811161090a576040525f806108e8565b7f4e487b71000000000000000000000000000000000000000000000000000000005f52604160045260245ffd5b6040513d5f823e3d90fd5b61095690601584840391013560601c611c5a565b5f610775565b61096d83600183013560601c611c5a565b61076d565b9291610997948192826109b7575b82820361099c575b50039061018435030391611478565b610784565b6109b190601584840391013560601c87611478565b5f610988565b6109c983600183013560601c88611478565b610980565b507e8000000000000000000000000000000000000000000000000000000000000060e43516151561075b565b50918291500301156107845760046040517f679a57eb000000000000000000000000000000000000000000000000000000008152fd5b60046040517f0155201f000000000000000000000000000000000000000000000000000000008152fd5b506040517f70a0823100000000000000000000000000000000000000000000000000000000815273ffffffffffffffffffffffffffffffffffffffff6101443516600482015260208160248173ffffffffffffffffffffffffffffffffffffffff7f0000000000000000000000000000000000000000000000000000000000000000165afa908115610937575f91610af4575b50156106b0565b90506020813d602011610b1e575b81610b0f60209383610e65565b8101031261015357515f610aed565b3d9150610b02565b606491940204925f6106a8565b60046040517f3066a1f1000000000000000000000000000000000000000000000000000000008152fd5b60046040517fc5374e2d000000000000000000000000000000000000000000000000000000008152fd5b610bbd9296508094507fffffffffffffffffffffffffffffffffffffffffffffffffffffffffffffffd7915001602986016113f6565b60601c937fffffffffffffffffffffffffffffffffffffffffffffffffffffffffffffffd78301601411610153577fffffffffffffffffffffffffffffffffffffffffffffffffffffffffffffffc3603d82019301945f610593565b7f4e487b71000000000000000000000000000000000000000000000000000000005f52603260045260245ffd5b60046040517f8c331638000000000000000000000000000000000000000000000000000000008152fd5b60046040517fd25aa106000000000000000000000000000000000000000000000000000000008152fd5b3461015357610ce0610ce9610cc9620186a0610cd2610cb836610d5e565b849d98999295979b91949394610f52565b909d919d611780565b99945097929c915099611945565b92010190611023565b62989680918201809211610d03576020916101dc916110e2565b7f4e487b71000000000000000000000000000000000000000000000000000000005f52601160045260245ffd5b9181601f840112156101535782359167ffffffffffffffff8311610153576020838186019501011161015357565b907ffffffffffffffffffffffffffffffffffffffffffffffffffffffffffffffffc82016101c0811261015357610100136101535760049167ffffffffffffffff90610104358281116101535781610db891600401610d30565b9390939261012435926101443573ffffffffffffffffffffffffffffffffffffffff811681036101535792610164359261018435926101a43591821161015357610e0491600401610d30565b9091565b91908201809211610d0357565b73ffffffffffffffffffffffffffffffffffffffff5f54163303610e3557565b60246040517f118cdaa7000000000000000000000000000000000000000000000000000000008152336004820152fd5b90601f7fffffffffffffffffffffffffffffffffffffffffffffffffffffffffffffffe0910116810190811067ffffffffffffffff82111761090a57604052565b3d15610efe573d9067ffffffffffffffff821161090a5760405191610ef360207fffffffffffffffffffffffffffffffffffffffffffffffffffffffffffffffe0601f8401160184610e65565b82523d5f602084013e565b606090565b90939293848311610153578411610153578101920390565b8115610f25570490565b7f4e487b71000000000000000000000000000000000000000000000000000000005f52601260045260245ffd5b91908060031161015357823560e81c8160071161015357600384013560e01c908015801561101b575b156110045750505f925b81600b1161015357600781013560e01c82600e116101535782601111610153577fffffffffffffffffffffffffffffffffffffffffffffffffffffffffffffffef610fe99301916011810191600b600e83013560e81c92013560e81c810190611554565b909390929181811115610ffc5703929190565b50505f929190565b620f424091611014914802610f1b565b0492610f85565b508115610f7b565b90620186a090818302917fffffffffffffffffffffffffffffffffffffffffffffffffffffffffffffffff818509938380861095039480860395146110d257848311156110ba5790829109815f038216809204600280826003021880830282030280830282030280830282030280830282030280830282030280920290030293600183805f03040190848311900302920304170290565b82634e487b715f52156003026011186020526024601cfd5b5050906110df9250610f1b565b90565b906298968090818302917fffffffffffffffffffffffffffffffffffffffffffffffffffffffffffffffff818509938380861095039480860395146110d257848311156110ba5790829109815f038216809204600280826003021880830282030280830282030280830282030280830282030280830282030280920290030293600183805f03040190848311900302920304170290565b818102907fffffffffffffffffffffffffffffffffffffffffffffffffffffffffffffffff838209908280831092039180830392146112065781606411156111f4577f5c28f5c28f5c28f5c28f5c28f5c28f5c28f5c28f5c28f5c28f5c28f5c28f5c29936064910990828211900360fe1b910360021c170290565b634e487b715f5260116020526024601cfd5b5050606491500490565b90808202907fffffffffffffffffffffffffffffffffffffffffffffffffffffffffffffffff8184099082808310920391808303921461128d57620186a090828211156111f4577f58cd20afa2f05a708ede54b48d3ae685db76b3bb83cf2cf95d4e8fb00bcbe61d940990828211900360fb1b910360051c170290565b5050620186a091500490565b90808202907fffffffffffffffffffffffffffffffffffffffffffffffffffffffffffffffff81840990828083109203918083039214611316576298968090828211156111f4577f5fb648fcc913daa857a27e44a97d3c6bc1193a63a91cc45be5032477ae8d46a5940990828211900360f91b910360071c170290565b50506298968091500490565b91818302917fffffffffffffffffffffffffffffffffffffffffffffffffffffffffffffffff818509938380861095039480860395146110d257848311156110ba5790829109815f038216809204600280826003021880830282030280830282030280830282030280830282030280830282030280920290030293600183805f03040190848311900302920304170290565b483a03640277cf2a0048105f146113d2576064604648029102111590565b64183cd7f1004811156113ec576064604148029102111590565b489060011b111590565b7fffffffffffffffffffffffffffffffffffffffff000000000000000000000000903581811693926014811061142b57505050565b60140360031b82901b16169150565b601f82602094937fffffffffffffffffffffffffffffffffffffffffffffffffffffffffffffffe093818652868601375f8582860101520116010190565b9160446020925f92604051917fa9059cbb0000000000000000000000000000000000000000000000000000000083526004830152602482015282855af190816114ee575b50156114c457565b60046040517ffb7f5079000000000000000000000000000000000000000000000000000000008152fd5b90503d15611508575060015f5114601f3d11165b5f6114bc565b3b1515611502565b7fffff000000000000000000000000000000000000000000000000000000000000903581811693926002811061154557505050565b60020360031b82901b16169150565b94929082868615610c1957833560f81c6001948860011161015357600101977fffffffffffffffffffffffffffffffffffffffffffffffffffffffffffffffff0160056115a582848302818d610f03565b909b909a9042116115bd575050505050505050929190565b90919293949580979a99985042101561167f579291905f915b8383106115fa5750505050506115f59394955082039142900302610f1b565b929190565b909192939460039082821161015357863560e81c918385116101535787013560f01c8101978842111561165c5750909695830194938b0192917ffffffffffffffffffffffffffffffffffffffffffffffffffffffffffffffffb0190506115d6565b955096975094505050506115f59495965082840393429003029142030201610f1b565b505f999850505050505050565b919269ffffffffffffffffffff5f9416918015610c1957833560f81c600a9481600a0295600193876001019081600111610153578082116101535760018401936116d892908290610f03565b979097965f935b8585106116ef5750505050505050565b82841161015357803560b01c8214611731577ffffffffffffffffffffffffffffffffffffffffffffffffffffffffffffffff6848892019301940193916116df565b509498505050505050565b7fff00000000000000000000000000000000000000000000000000000000000000903581811693926001811061177157505050565b60010360031b82901b16169150565b9161178b8284611510565b60f01c9282600211610153576117c67ffffffffffffffffffffffffffffffffffffffffffffffffffffffffffffffffe84016002830161173c565b60f81c9260648411610b5d5780600311610153576118097ffffffffffffffffffffffffffffffffffffffffffffffffffffffffffffffffd820160038401611510565b60f01c9281600511610153576118447ffffffffffffffffffffffffffffffffffffffffffffffffffffffffffffffffb83016005850161173c565b60f81c9260648411610b3357826006116101535760067ffffffffffffffffffffffffffffffffffffffffffffffffffffffffffffffffa6118879401910161168c565b91969092876118935750565b60649194020492565b949073ffffffffffffffffffffffffffffffffffffffff926110df9a989599979461191d9260e06101c09180358b52602081013560208c0152604081013560408c0152606081013560608c0152608081013560808c015260a081013560a08c015260c081013560c08c0152013560e08a0152806101008a015288019161143a565b97610120860152166101408401526101608301526101808201526101a081850391015261143a565b9097949693959492939060148410611a175761196184836113f6565b60601c9584601411610153576020986014987fffffffffffffffffffffffffffffffffffffffffffffffffffffffffffffffec976119d3966040519d8e9c8d9b8c9b7f1d9671c3000000000000000000000000000000000000000000000000000000008d520198019660048b0161189c565b03915afa908115610937575f916119e8575090565b90506020813d602011611a0f575b81611a0360209383610e65565b81010312610153575190565b3d91506119f6565b96955050505050506110df925060a060c0830135920135611322565b919269ffffffffffffffffffff5f9416918335907fffffffff0000000000000000000000000000000000000000000000000000000080831690600493848410611c46575b505060e01c9080831015611c1a578286013560f81c600c9181600c02908160050190816005116101535780821161015357611abc918160058c9796959701969b610f03565b989098975f905b838210611b01575050505050504210611ad95750565b6040517f9da6e025000000000000000000000000000000000000000000000000000000008152fd5b9091929394955f9b9a9998979b5086357fffffffffffffffffffff0000000000000000000000000000000000000000000080821690600a92838810611c06575b50508242105f14611b75578d6040517f9da6e025000000000000000000000000000000000000000000000000000000008152fd5b60b09d999a9b9c9d1c8314611bf75784811161015357611bba907ffffffffffffffffffffffffffffffffffffffffffffffffffffffffffffffff68601908901611510565b60f01c01958386116101535785019493927ffffffffffffffffffffffffffffffffffffffffffffffffffffffffffffffff4019160010190611ac3565b5060019b505050505050505050565b9080925087840360031b1b16165f80611b41565b6032837f4e487b71000000000000000000000000000000000000000000000000000000005f525260245ffd5b9080925083850360031b1b16165f80611a77565b5f80809381935af1611c6a610ea6565b5015611c7257565b60046040517f6d963f88000000000000000000000000000000000000000000000000000000008152fd5b9097949693959492939060148410611d2a57611cb884836113f6565b60601c9584601411610153576020986014987fffffffffffffffffffffffffffffffffffffffffffffffffffffffffffffffec976119d3966040519d8e9c8d9b8c9b7fd7ff8a80000000000000000000000000000000000000000000000000000000008d520198019660048b0161189c565b975050505050505060a060c0830135920135611d47818385611322565b918115610f25576110df9309151590610e0856fea26469706673582212202ec9639e6f8ddceada0713aaed5bf0a23ff0ee54efc7606343f6e2fb161f9f2764736f6c63430008170033"
}