{
  "address": "0x11cB4a28289d8104d70c14D08C5eA6f199C42cD9",
  "abi": [
    {
      "inputs": [
        {
          "internalType": "contract IOrderMixin",
          "name": "limitOrderProtocol",
          "type": "address"
        },
        {
          "internalType": "contract IERC20",
          "name": "token",
          "type": "address"
        }
      ],
      "stateMutability": "nonpayable",
      "type": "constructor"
    },
    {
      "inputs": [],
      "name": "AccessDenied",
      "type": "error"
    },
    {
      "inputs": [],
      "name": "FailedExternalCall",
      "type": "error"
    },
    {
      "inputs": [],
      "name": "ForceApproveFailed",
      "type": "error"
    },
    {
      "inputs": [],
      "name": "IncorrectCalldataParams",
      "type": "error"
    },
    {
      "inputs": [],
      "name": "NotEnoughCredit",
      "type": "error"
    },
    {
      "inputs": [],
      "name": "OnlyFeeBankAccess",
      "type": "error"
    },
    {
      "inputs": [],
      "name": "ResolverIsNotWhitelisted",
      "type": "error"
    },
    {
      "inputs": [],
      "name": "SafeTransferFailed",
      "type": "error"
    },
    {
      "inputs": [],
      "name": "WrongInteractionTarget",
      "type": "error"
    },
    {
      "inputs": [
        {
          "internalType": "address",
          "name": "account",
          "type": "address"
        }
      ],
      "name": "availableCredit",
      "outputs": [
        {
          "internalType": "uint256",
          "name": "",
          "type": "uint256"
        }
      ],
      "stateMutability": "view",
      "type": "function"
    },
    {
      "inputs": [
        {
          "internalType": "address",
          "name": "account",
          "type": "address"
        },
        {
          "internalType": "uint256",
          "name": "amount",
          "type": "uint256"
        }
      ],
      "name": "decreaseAvailableCredit",
      "outputs": [
        {
          "internalType": "uint256",
          "name": "allowance",
          "type": "uint256"
        }
      ],
      "stateMutability": "nonpayable",
      "type": "function"
    },
    {
      "inputs": [],
      "name": "feeBank",
      "outputs": [
        {
          "internalType": "address",
          "name": "",
          "type": "address"
        }
      ],
      "stateMutability": "view",
      "type": "function"
    },
    {
      "inputs": [
        {
          "internalType": "address",
          "name": "taker",
          "type": "address"
        },
        {
          "internalType": "uint256",
          "name": "",
          "type": "uint256"
        },
        {
          "internalType": "uint256",
          "name": "takingAmount",
          "type": "uint256"
        },
        {
          "internalType": "bytes",
          "name": "interactiveData",
          "type": "bytes"
        }
      ],
      "name": "fillOrderInteraction",
      "outputs": [
        {
          "internalType": "uint256",
          "name": "result",
          "type": "uint256"
        }
      ],
      "stateMutability": "nonpayable",
      "type": "function"
    },
    {
      "inputs": [
        {
          "internalType": "address",
          "name": "account",
          "type": "address"
        },
        {
          "internalType": "uint256",
          "name": "amount",
          "type": "uint256"
        }
      ],
      "name": "increaseAvailableCredit",
      "outputs": [
        {
          "internalType": "uint256",
          "name": "allowance",
          "type": "uint256"
        }
      ],
      "stateMutability": "nonpayable",
      "type": "function"
    },
    {
      "inputs": [
        {
          "internalType": "bytes",
          "name": "data",
          "type": "bytes"
        }
      ],
      "name": "settleOrders",
      "outputs": [],
      "stateMutability": "nonpayable",
      "type": "function"
    }
  ],
  "transactionHash": "0x2e2b50283ebfb137af615b54c8ba1fdffdac410f07e542359471831fd0482236",
  "args": [
    "0x1111111254EEB25477B68fb85Ed929f73A960582",
    "0x111111111117dC0aa78b770fA6A738034120C302"
  ],
  "numDeployments": 1,
  "solcInputHash": "f33e08902b582d23f593159c539ce40f",
  "bytecode": "0x60c060405234801561001057600080fd5b506040516200239f3803806200239f833981016040819052610031916100c1565b803081336040516100419061009b565b6001600160a01b03938416815291831660208301529091166040820152606001604051809103906000f08015801561007d573d6000803e3d6000fd5b506001600160a01b039081166080529290921660a052506100fb9050565b6111a680620011f983390190565b6001600160a01b03811681146100be57600080fd5b50565b600080604083850312156100d457600080fd5b82516100df816100a9565b60208401519092506100f0816100a9565b809150509250929050565b60805160a0516110bc6200013d6000396000818161035b0152818161068f015261076a01526000818161010001528181610197015261026901526110bc6000f3fe608060405234801561001057600080fd5b50600436106100725760003560e01c806385eda2de1161005057806385eda2de146100e8578063af15d786146100fb578063ccee33d71461014757600080fd5b80630965d04b146100775780633ee5ef1f1461008c5780635886216f146100b2575b600080fd5b61008a610085366004610d3d565b61015a565b005b61009f61009a366004610da8565b61017d565b6040519081526020015b60405180910390f35b61009f6100c0366004610dd2565b73ffffffffffffffffffffffffffffffffffffffff1660009081526020819052604090205490565b61009f6100f6366004610da8565b61024f565b6101227f000000000000000000000000000000000000000000000000000000000000000081565b60405173ffffffffffffffffffffffffffffffffffffffff90911681526020016100a9565b61009f610155366004610df4565b6102f1565b60408051600080825260208201909252610179918491849133916106c6565b5050565b60003373ffffffffffffffffffffffffffffffffffffffff7f000000000000000000000000000000000000000000000000000000000000000016146101ee576040517fa454419900000000000000000000000000000000000000000000000000000000815260040160405180910390fd5b5073ffffffffffffffffffffffffffffffffffffffff821660009081526020819052604090205461021f8282610eba565b73ffffffffffffffffffffffffffffffffffffffff90931660009081526020819052604090208390555090919050565b60003373ffffffffffffffffffffffffffffffffffffffff7f000000000000000000000000000000000000000000000000000000000000000016146102c0576040517fa454419900000000000000000000000000000000000000000000000000000000815260040160405180910390fd5b5073ffffffffffffffffffffffffffffffffffffffff821660009081526020819052604090205461021f8282610ed3565b60008573ffffffffffffffffffffffffffffffffffffffff81163014610343576040517f4ca8886700000000000000000000000000000000000000000000000000000000815260040160405180910390fd5b3373ffffffffffffffffffffffffffffffffffffffff7f000000000000000000000000000000000000000000000000000000000000000016146103b2576040517f4ca8886700000000000000000000000000000000000000000000000000000000815260040160405180910390fd5b8284017fffffffffffffffffffffffffffffffffffffffffffffffffffffffffffffffe081810135918290037fffffffffffffffffffffffffffffffffffffffffffffffffffffffffffffff40810192918101919060018801908881037fffffffffffffffffffffffffffffffffffffffffffffffffffffffffffffff3f01907fffffffffffffffffffffffffffffffffffffffffffffffffffffffffffffff80810135906298968090610489907fffffffffffffffffffffffffffffffffffffffffffffffffffffffffffffffa0013582610eba565b610493908d610ee6565b61049d9190610efd565b97506000633b9aca006104bd63ffffffff60808a013560a01c168b610ee6565b6104c79190610efd565b905060006104d6866040610eba565b67ffffffffffffffff8111156104ee576104ee610e5c565b6040519080825280601f01601f191660200182016040528015610518576020820181803683370190505b509050602081018688823786018381528a83016020909101527f01000000000000000000000000000000000000000000000000000000000000008c8c60008161056357610563610f38565b9050013560f81c60f81b7effffffffffffffffffffffffffffffffffffffffffffffffffffffffffffff191603610636576105a36020890135893561088e565b843560601c601486017fffffffffffffffffffffffffffffffffffffffffffffffffffffffffffffffec860182631944799f60208d01358685856040518563ffffffff1660e01b81526004016105fc9493929190610f67565b600060405180830381600087803b15801561061657600080fd5b505af115801561062a573d6000803e3d6000fd5b50505050505050610648565b610648858560208b01358b35856106c6565b81156106735761067373ffffffffffffffffffffffffffffffffffffffff841660808a013584610921565b6106b473ffffffffffffffffffffffffffffffffffffffff84167f00000000000000000000000000000000000000000000000000000000000000008c610988565b50505050505050505095945050505050565b843585016106d48185610a51565b61070a576040517f4b57606900000000000000000000000000000000000000000000000000000000815260040160405180910390fd5b600061071582610b22565b905061073266038d7ea4c6800063ffffffff843560901c16610ee6565b61073c9085610eba565b9350600061074983610b5b565b90506000845160a061075b9190610eba565b610766906020610eba565b90507f000000000000000000000000000000000000000000000000000000000000000061079c565b8281848460045afa50505050565b60408a013560208101818c0135818d013560601c308114156014831017156107e8577f5b34bf890000000000000000000000000000000000000000000000000000000060005260046000fd5b506040517fe5d7bde60000000000000000000000000000000000000000000000000000000081528c8e600483013785820160048583010152818382010193508a60048501528b602485015260408901356044850152866064850152876084850152895161085c8160208d0160a4880161078e565b84810160a40152600081878f016004018183895af161087e573d6000823e3d81fd5b5050505050505050505050505050565b80156101795773ffffffffffffffffffffffffffffffffffffffff8216600090815260208190526040902054818110156108f4576040517fa7fd379200000000000000000000000000000000000000000000000000000000815260040160405180910390fd5b73ffffffffffffffffffffffffffffffffffffffff92909216600090815260208190526040902091039055565b61094d837fa9059cbb000000000000000000000000000000000000000000000000000000008484610ca0565b610983576040517ffb7f507900000000000000000000000000000000000000000000000000000000815260040160405180910390fd5b505050565b6109b4837f095ea7b3000000000000000000000000000000000000000000000000000000008484610ca0565b610983576109e5837f095ea7b300000000000000000000000000000000000000000000000000000000846000610ca0565b1580610a1a5750610a18837f095ea7b3000000000000000000000000000000000000000000000000000000008484610ca0565b155b15610983576040517f19be9a9000000000000000000000000000000000000000000000000000000000815260040160405180910390fd5b60003681610a63610120860186611021565b91509150600181830103803560001a6004820391506080811615610a88576020820391505b813560e01c4211945060031c600f16841915610b18578060180282035b80831115610b16577fffffffffffffffffffffffffffffffffffffffffffffffffffffffffffffffe88301927fffffffffffffffffffffffffffffffffffffffffffffffffffffffffffffffec013560601c833560e01c888203610b0f574210159650610b169050565b5050610aa5565b505b5050505092915050565b60003681610b34610120850185611021565b91509150600181830103803560001a60801615610b5357602081033593505b505050919050565b600062ffffff823560b081901c82169160e082901c918491610b819160c81c1683610eba565b9050814211610b935750909392505050565b804210610ba557506000949350505050565b366000610bb6610120880188611021565b915091506001818301036000813560001a6078811660031c6007821692506080821615610be4576020840393505b6004816018020184039350505086868260050284035b80851115610c80577ffffffffffffffffffffffffffffffffffffffffffffffffffffffffffffffffb8501803560f01c9990990198947ffffffffffffffffffffffffffffffffffffffffffffffffffffffffffffffffd013560e81c428a1115610c7657828a03428481038302908c03860201049b5050610c80565b9250889150610bfa565b5089610c925780870342880383020499505b505050505050505050919050565b60006040518481528360048201528260248201526020600060448360008a5af19150508015610cec573d8015610ce257600160005114601f3d11169150610cea565b6000863b1191505b505b949350505050565b60008083601f840112610d0657600080fd5b50813567ffffffffffffffff811115610d1e57600080fd5b602083019150836020828501011115610d3657600080fd5b9250929050565b60008060208385031215610d5057600080fd5b823567ffffffffffffffff811115610d6757600080fd5b610d7385828601610cf4565b90969095509350505050565b803573ffffffffffffffffffffffffffffffffffffffff81168114610da357600080fd5b919050565b60008060408385031215610dbb57600080fd5b610dc483610d7f565b946020939093013593505050565b600060208284031215610de457600080fd5b610ded82610d7f565b9392505050565b600080600080600060808688031215610e0c57600080fd5b610e1586610d7f565b94506020860135935060408601359250606086013567ffffffffffffffff811115610e3f57600080fd5b610e4b88828901610cf4565b969995985093965092949392505050565b7f4e487b7100000000000000000000000000000000000000000000000000000000600052604160045260246000fd5b7f4e487b7100000000000000000000000000000000000000000000000000000000600052601160045260246000fd5b80820180821115610ecd57610ecd610e8b565b92915050565b81810381811115610ecd57610ecd610e8b565b8082028115828204841417610ecd57610ecd610e8b565b600082610f33577f4e487b7100000000000000000000000000000000000000000000000000000000600052601260045260246000fd5b500490565b7f4e487b7100000000000000000000000000000000000000000000000000000000600052603260045260246000fd5b73ffffffffffffffffffffffffffffffffffffffff8516815260006020606081840152855180606085015260005b81811015610fb157878101830151858201608001528201610f95565b506000608082860101527fffffffffffffffffffffffffffffffffffffffffffffffffffffffffffffffe0915081601f820116840190506080848203016040850152846080820152848660a0830137600060a0868301015260a082601f8701168201019250505095945050505050565b60008083357fffffffffffffffffffffffffffffffffffffffffffffffffffffffffffffffe184360301811261105657600080fd5b83018035915067ffffffffffffffff82111561107157600080fd5b602001915036819003821315610d3657600080fdfea2646970667358221220bf2ae985e0ee5e4fbf8ba00552a36427a12a62570693ef73b7190ca64fdd922c64736f6c6343000811003360c06040523480156200001157600080fd5b50604051620011a6380380620011a68339810160408190526200003491620001ad565b6200003f3362000066565b6001600160a01b0380841660a05282166080526200005d81620000b6565b50505062000201565b600080546001600160a01b038381166001600160a01b0319831681178455604051919092169283917f8be0079c531659141344cd1fd0a4f28419497f9722a3daafe3b4186f6b6457e09190a35050565b620000c062000139565b6001600160a01b0381166200012b5760405162461bcd60e51b815260206004820152602660248201527f4f776e61626c653a206e6577206f776e657220697320746865207a65726f206160448201526564647265737360d01b60648201526084015b60405180910390fd5b620001368162000066565b50565b6000546001600160a01b03163314620001955760405162461bcd60e51b815260206004820181905260248201527f4f776e61626c653a2063616c6c6572206973206e6f7420746865206f776e6572604482015260640162000122565b565b6001600160a01b03811681146200013657600080fd5b600080600060608486031215620001c357600080fd5b8351620001d08162000197565b6020850151909350620001e38162000197565b6040850151909250620001f68162000197565b809150509250925092565b60805160a051610f55620002516000396000818161028b015281816103270152818161064701526107fe015260008181610207015281816105020152818161070d01526107500152610f556000f3fe608060405234801561001057600080fd5b50600436106100c95760003560e01c8063715018a611610081578063b6b55f251161005b578063b6b55f2514610185578063bfe9173414610198578063f2fde38b146101ab57600080fd5b8063715018a6146101405780638da5cb5b1461014a57806397a2cb641461017257600080fd5b80632f4f21e2116100b25780632f4f21e21461010757806332d323a51461011a5780635886216f1461012d57600080fd5b8063205c2878146100ce5780632e1a7d4d146100f4575b600080fd5b6100e16100dc366004610beb565b6101be565b6040519081526020015b60405180910390f35b6100e1610102366004610c15565b6101d3565b6100e1610115366004610beb565b6101df565b6100e1610128366004610c77565b6101eb565b6100e161013b366004610cd1565b610243565b6101486102f8565b005b60005460405173ffffffffffffffffffffffffffffffffffffffff90911681526020016100eb565b6100e1610180366004610d1b565b61030c565b6100e1610193366004610c15565b61052f565b6100e16101a6366004610dfe565b61053b565b6101486101b9366004610cd1565b610553565b60006101ca838361060f565b90505b92915050565b60006101cd338361060f565b60006101ca8383610734565b600061022e73ffffffffffffffffffffffffffffffffffffffff7f000000000000000000000000000000000000000000000000000000000000000016848461086b565b6102388585610734565b90505b949350505050565b6040517f5886216f00000000000000000000000000000000000000000000000000000000815273ffffffffffffffffffffffffffffffffffffffff82811660048301526000917f000000000000000000000000000000000000000000000000000000000000000090911690635886216f90602401602060405180830381865afa1580156102d4573d6000803e3d6000fd5b505050506040513d601f19601f820116820180604052508101906101cd9190610e4a565b610300610887565b61030a6000610908565b565b6000610316610887565b815160005b818110156104e75760007f000000000000000000000000000000000000000000000000000000000000000073ffffffffffffffffffffffffffffffffffffffff16635886216f86848151811061037357610373610e63565b60200260200101516040518263ffffffff1660e01b81526004016103b3919073ffffffffffffffffffffffffffffffffffffffff91909116815260200190565b602060405180830381865afa1580156103d0573d6000803e3d6000fd5b505050506040513d601f19601f820116820180604052508101906103f49190610e4a565b6001600087858151811061040a5761040a610e63565b602002602001015173ffffffffffffffffffffffffffffffffffffffff1673ffffffffffffffffffffffffffffffffffffffff168152602001908152602001600020546104579190610ec1565b9050806001600087858151811061047057610470610e63565b602002602001015173ffffffffffffffffffffffffffffffffffffffff1673ffffffffffffffffffffffffffffffffffffffff16815260200190815260200160002060008282546104c19190610ec1565b909155506104d190508185610ed4565b93505080806104df90610ee7565b91505061031b565b5061052973ffffffffffffffffffffffffffffffffffffffff7f000000000000000000000000000000000000000000000000000000000000000016338461097d565b50919050565b60006101cd3383610734565b6000610549338585856101eb565b90505b9392505050565b61055b610887565b73ffffffffffffffffffffffffffffffffffffffff8116610603576040517f08c379a000000000000000000000000000000000000000000000000000000000815260206004820152602660248201527f4f776e61626c653a206e6577206f776e657220697320746865207a65726f206160448201527f646472657373000000000000000000000000000000000000000000000000000060648201526084015b60405180910390fd5b61060c81610908565b50565b6040517f85eda2de000000000000000000000000000000000000000000000000000000008152336004820152602481018290526000907f000000000000000000000000000000000000000000000000000000000000000073ffffffffffffffffffffffffffffffffffffffff16906385eda2de906044016020604051808303816000875af11580156106a5573d6000803e3d6000fd5b505050506040513d601f19601f820116820180604052508101906106c99190610e4a565b336000908152600160205260408120805492935084929091906106ed908490610ec1565b909155506101cd905073ffffffffffffffffffffffffffffffffffffffff7f000000000000000000000000000000000000000000000000000000000000000016848461097d565b600061077873ffffffffffffffffffffffffffffffffffffffff7f0000000000000000000000000000000000000000000000000000000000000000163330856109df565b73ffffffffffffffffffffffffffffffffffffffff8316600090815260016020526040812080548492906107ad908490610ed4565b90915550506040517f3ee5ef1f00000000000000000000000000000000000000000000000000000000815273ffffffffffffffffffffffffffffffffffffffff8481166004830152602482018490527f00000000000000000000000000000000000000000000000000000000000000001690633ee5ef1f906044016020604051808303816000875af1158015610847573d6000803e3d6000fd5b505050506040513d601f19601f820116820180604052508101906101ca9190610e4a565b610876838383610a7c565b61088257610882610b22565b505050565b60005473ffffffffffffffffffffffffffffffffffffffff16331461030a576040517f08c379a000000000000000000000000000000000000000000000000000000000815260206004820181905260248201527f4f776e61626c653a2063616c6c6572206973206e6f7420746865206f776e657260448201526064016105fa565b6000805473ffffffffffffffffffffffffffffffffffffffff8381167fffffffffffffffffffffffff0000000000000000000000000000000000000000831681178455604051919092169283917f8be0079c531659141344cd1fd0a4f28419497f9722a3daafe3b4186f6b6457e09190a35050565b6109a9837fa9059cbb000000000000000000000000000000000000000000000000000000008484610b2e565b610882576040517ffb7f507900000000000000000000000000000000000000000000000000000000815260040160405180910390fd5b60006323b872dd60e01b905060006040518281528560048201528460248201528360448201526020600060648360008b5af19150508015610a3d573d8015610a3357600160005114601f3d11169150610a3b565b6000873b1191505b505b80610a74576040517ff405907100000000000000000000000000000000000000000000000000000000815260040160405180910390fd5b505050505050565b600060e0829003610aba57610ab3847fd505accf000000000000000000000000000000000000000000000000000000008585610b81565b905061054c565b610100829003610af057610ab3847f8fcbaf0c000000000000000000000000000000000000000000000000000000008585610b81565b6040517f6827585700000000000000000000000000000000000000000000000000000000815260040160405180910390fd5b6040513d6000823e3d81fd5b60006040518481528360048201528260248201526020600060448360008a5af1915050801561023b573d8015610b7057600160005114601f3d11169150610b78565b6000863b1191505b50949350505050565b6000816004016040518581528385600483013760206000838360008b5af192505050801561023b573d8015610b7057600160005114601f3d11169150610b78565b803573ffffffffffffffffffffffffffffffffffffffff81168114610be657600080fd5b919050565b60008060408385031215610bfe57600080fd5b610c0783610bc2565b946020939093013593505050565b600060208284031215610c2757600080fd5b5035919050565b60008083601f840112610c4057600080fd5b50813567ffffffffffffffff811115610c5857600080fd5b602083019150836020828501011115610c7057600080fd5b9250929050565b60008060008060608587031215610c8d57600080fd5b610c9685610bc2565b935060208501359250604085013567ffffffffffffffff811115610cb957600080fd5b610cc587828801610c2e565b95989497509550505050565b600060208284031215610ce357600080fd5b6101ca82610bc2565b7f4e487b7100000000000000000000000000000000000000000000000000000000600052604160045260246000fd5b60006020808385031215610d2e57600080fd5b823567ffffffffffffffff80821115610d4657600080fd5b818501915085601f830112610d5a57600080fd5b813581811115610d6c57610d6c610cec565b8060051b6040517fffffffffffffffffffffffffffffffffffffffffffffffffffffffffffffffe0603f83011681018181108582111715610daf57610daf610cec565b604052918252848201925083810185019188831115610dcd57600080fd5b938501935b82851015610df257610de385610bc2565b84529385019392850192610dd2565b98975050505050505050565b600080600060408486031215610e1357600080fd5b83359250602084013567ffffffffffffffff811115610e3157600080fd5b610e3d86828701610c2e565b9497909650939450505050565b600060208284031215610e5c57600080fd5b5051919050565b7f4e487b7100000000000000000000000000000000000000000000000000000000600052603260045260246000fd5b7f4e487b7100000000000000000000000000000000000000000000000000000000600052601160045260246000fd5b818103818111156101cd576101cd610e92565b808201808211156101cd576101cd610e92565b60007fffffffffffffffffffffffffffffffffffffffffffffffffffffffffffffffff8203610f1857610f18610e92565b506001019056fea26469706673582212200acfc7c57560bd21b814295415b7f7d59d0dcff21862eb57624f60d336824f0364736f6c63430008110033",
  "devdoc": {
    "kind": "dev",
    "methods": {},
    "version": 1
  },
  "userdoc": {
    "kind": "user",
    "methods": {},
    "version": 1
  },
  "storageLayout": {
    "storage": [
      {
        "astId": 1659,
        "contract": "contracts/Settlement.sol:Settlement",
        "label": "_creditAllowance",
        "offset": 0,
        "slot": "0",
        "type": "t_mapping(t_address,t_uint256)"
      }
    ],
    "types": {
      "t_address": {
        "encoding": "inplace",
        "label": "address",
        "numberOfBytes": "20"
      },
      "t_mapping(t_address,t_uint256)": {
        "encoding": "mapping",
        "key": "t_address",
        "label": "mapping(address => uint256)",
        "numberOfBytes": "32",
        "value": "t_uint256"
      },
      "t_uint256": {
        "encoding": "inplace",
        "label": "uint256",
        "numberOfBytes": "32"
      }
    }
  }
}