{
  "address": "0x8273f37417Da37c4A6c3995E82Cf442f87a25D9c",
  "abi": [
    {
      "inputs": [
        {
          "internalType": "address",
          "name": "limitOrderProtocol",
          "type": "address"
        },
        {
          "internalType": "contract IERC20",
          "name": "token",
          "type": "address"
        }
      ],
      "stateMutability": "nonpayable",
      "type": "constructor"
    },
    {
      "inputs": [],
      "name": "InvalidPriorityFee",
      "type": "error"
    },
    {
      "inputs": [],
      "name": "MathOverflowedMulDiv",
      "type": "error"
    },
    {
      "inputs": [],
      "name": "NotEnoughCredit",
      "type": "error"
    },
    {
      "inputs": [],
      "name": "OnlyFeeBankAccess",
      "type": "error"
    },
    {
      "inputs": [],
      "name": "OnlyLimitOrderProtocol",
      "type": "error"
    },
    {
      "inputs": [],
      "name": "ResolverIsNotWhitelisted",
      "type": "error"
    },
    {
      "inputs": [],
      "name": "SafeTransferFromFailed",
      "type": "error"
    },
    {
      "inputs": [],
      "name": "FEE_BANK",
      "outputs": [
        {
          "internalType": "contract IFeeBank",
          "name": "",
          "type": "address"
        }
      ],
      "stateMutability": "view",
      "type": "function"
    },
    {
      "inputs": [
        {
          "internalType": "address",
          "name": "account",
          "type": "address"
        }
      ],
      "name": "availableCredit",
      "outputs": [
        {
          "internalType": "uint256",
          "name": "",
          "type": "uint256"
        }
      ],
      "stateMutability": "view",
      "type": "function"
    },
    {
      "inputs": [
        {
          "internalType": "address",
          "name": "account",
          "type": "address"
        },
        {
          "internalType": "uint256",
          "name": "amount",
          "type": "uint256"
        }
      ],
      "name": "decreaseAvailableCredit",
      "outputs": [
        {
          "internalType": "uint256",
          "name": "allowance",
          "type": "uint256"
        }
      ],
      "stateMutability": "nonpayable",
      "type": "function"
    },
    {
      "inputs": [
        {
          "components": [
            {
              "internalType": "uint256",
              "name": "salt",
              "type": "uint256"
            },
            {
              "internalType": "Address",
              "name": "maker",
              "type": "uint256"
            },
            {
              "internalType": "Address",
              "name": "receiver",
              "type": "uint256"
            },
            {
              "internalType": "Address",
              "name": "makerAsset",
              "type": "uint256"
            },
            {
              "internalType": "Address",
              "name": "takerAsset",
              "type": "uint256"
            },
            {
              "internalType": "uint256",
              "name": "makingAmount",
              "type": "uint256"
            },
            {
              "internalType": "uint256",
              "name": "takingAmount",
              "type": "uint256"
            },
            {
              "internalType": "MakerTraits",
              "name": "makerTraits",
              "type": "uint256"
            }
          ],
          "internalType": "struct IOrderMixin.Order",
          "name": "order",
          "type": "tuple"
        },
        {
          "internalType": "bytes",
          "name": "",
          "type": "bytes"
        },
        {
          "internalType": "bytes32",
          "name": "",
          "type": "bytes32"
        },
        {
          "internalType": "address",
          "name": "",
          "type": "address"
        },
        {
          "internalType": "uint256",
          "name": "takingAmount",
          "type": "uint256"
        },
        {
          "internalType": "uint256",
          "name": "",
          "type": "uint256"
        },
        {
          "internalType": "bytes",
          "name": "extraData",
          "type": "bytes"
        }
      ],
      "name": "getMakingAmount",
      "outputs": [
        {
          "internalType": "uint256",
          "name": "",
          "type": "uint256"
        }
      ],
      "stateMutability": "view",
      "type": "function"
    },
    {
      "inputs": [
        {
          "components": [
            {
              "internalType": "uint256",
              "name": "salt",
              "type": "uint256"
            },
            {
              "internalType": "Address",
              "name": "maker",
              "type": "uint256"
            },
            {
              "internalType": "Address",
              "name": "receiver",
              "type": "uint256"
            },
            {
              "internalType": "Address",
              "name": "makerAsset",
              "type": "uint256"
            },
            {
              "internalType": "Address",
              "name": "takerAsset",
              "type": "uint256"
            },
            {
              "internalType": "uint256",
              "name": "makingAmount",
              "type": "uint256"
            },
            {
              "internalType": "uint256",
              "name": "takingAmount",
              "type": "uint256"
            },
            {
              "internalType": "MakerTraits",
              "name": "makerTraits",
              "type": "uint256"
            }
          ],
          "internalType": "struct IOrderMixin.Order",
          "name": "order",
          "type": "tuple"
        },
        {
          "internalType": "bytes",
          "name": "",
          "type": "bytes"
        },
        {
          "internalType": "bytes32",
          "name": "",
          "type": "bytes32"
        },
        {
          "internalType": "address",
          "name": "",
          "type": "address"
        },
        {
          "internalType": "uint256",
          "name": "makingAmount",
          "type": "uint256"
        },
        {
          "internalType": "uint256",
          "name": "",
          "type": "uint256"
        },
        {
          "internalType": "bytes",
          "name": "extraData",
          "type": "bytes"
        }
      ],
      "name": "getTakingAmount",
      "outputs": [
        {
          "internalType": "uint256",
          "name": "",
          "type": "uint256"
        }
      ],
      "stateMutability": "view",
      "type": "function"
    },
    {
      "inputs": [
        {
          "internalType": "address",
          "name": "account",
          "type": "address"
        },
        {
          "internalType": "uint256",
          "name": "amount",
          "type": "uint256"
        }
      ],
      "name": "increaseAvailableCredit",
      "outputs": [
        {
          "internalType": "uint256",
          "name": "allowance",
          "type": "uint256"
        }
      ],
      "stateMutability": "nonpayable",
      "type": "function"
    },
    {
      "inputs": [
        {
          "components": [
            {
              "internalType": "uint256",
              "name": "salt",
              "type": "uint256"
            },
            {
              "internalType": "Address",
              "name": "maker",
              "type": "uint256"
            },
            {
              "internalType": "Address",
              "name": "receiver",
              "type": "uint256"
            },
            {
              "internalType": "Address",
              "name": "makerAsset",
              "type": "uint256"
            },
            {
              "internalType": "Address",
              "name": "takerAsset",
              "type": "uint256"
            },
            {
              "internalType": "uint256",
              "name": "makingAmount",
              "type": "uint256"
            },
            {
              "internalType": "uint256",
              "name": "takingAmount",
              "type": "uint256"
            },
            {
              "internalType": "MakerTraits",
              "name": "makerTraits",
              "type": "uint256"
            }
          ],
          "internalType": "struct IOrderMixin.Order",
          "name": "order",
          "type": "tuple"
        },
        {
          "internalType": "bytes",
          "name": "extension",
          "type": "bytes"
        },
        {
          "internalType": "bytes32",
          "name": "orderHash",
          "type": "bytes32"
        },
        {
          "internalType": "address",
          "name": "taker",
          "type": "address"
        },
        {
          "internalType": "uint256",
          "name": "makingAmount",
          "type": "uint256"
        },
        {
          "internalType": "uint256",
          "name": "takingAmount",
          "type": "uint256"
        },
        {
          "internalType": "uint256",
          "name": "remainingMakingAmount",
          "type": "uint256"
        },
        {
          "internalType": "bytes",
          "name": "extraData",
          "type": "bytes"
        }
      ],
      "name": "postInteraction",
      "outputs": [],
      "stateMutability": "nonpayable",
      "type": "function"
    },
    {
      "inputs": [
        {
          "components": [
            {
              "internalType": "uint256",
              "name": "salt",
              "type": "uint256"
            },
            {
              "internalType": "Address",
              "name": "maker",
              "type": "uint256"
            },
            {
              "internalType": "Address",
              "name": "receiver",
              "type": "uint256"
            },
            {
              "internalType": "Address",
              "name": "makerAsset",
              "type": "uint256"
            },
            {
              "internalType": "Address",
              "name": "takerAsset",
              "type": "uint256"
            },
            {
              "internalType": "uint256",
              "name": "makingAmount",
              "type": "uint256"
            },
            {
              "internalType": "uint256",
              "name": "takingAmount",
              "type": "uint256"
            },
            {
              "internalType": "MakerTraits",
              "name": "makerTraits",
              "type": "uint256"
            }
          ],
          "internalType": "struct IOrderMixin.Order",
          "name": "order",
          "type": "tuple"
        },
        {
          "internalType": "bytes",
          "name": "extension",
          "type": "bytes"
        },
        {
          "internalType": "bytes32",
          "name": "orderHash",
          "type": "bytes32"
        },
        {
          "internalType": "address",
          "name": "taker",
          "type": "address"
        },
        {
          "internalType": "uint256",
          "name": "makingAmount",
          "type": "uint256"
        },
        {
          "internalType": "uint256",
          "name": "takingAmount",
          "type": "uint256"
        },
        {
          "internalType": "uint256",
          "name": "remainingMakingAmount",
          "type": "uint256"
        },
        {
          "internalType": "bytes",
          "name": "extraData",
          "type": "bytes"
        }
      ],
      "name": "preInteraction",
      "outputs": [],
      "stateMutability": "nonpayable",
      "type": "function"
    }
  ],
  "transactionHash": "0x693a93c00c03dae4ec83b58349ac2915376d27196e33495f4fea6ada1235c72b",
  "args": [
    "0x111111125421ca6dc452d289314280a0f8842a65",
    "0x111111111117dC0aa78b770fA6A738034120C302"
  ],
  "numDeployments": 3,
  "solcInputHash": "9c74379c03b20aeb7b5cf769b2d48f11",
  "bytecode": "0x60c0346100f457612136906001600160401b03601f38849003908101601f1916830190828211848310176100e057808491604096879485528339810103126100f45781516001600160a01b039283821682036100f45760200151908382168092036100f45760805283519161108990818401908111848210176100e05760609284926110ad8439308252602082015233868201520301905ff080156100d6571660a05251610fb490816100f9823960805181818161033c015261096f015260a051818181610209015281816107cf01526108840152f35b82513d5f823e3d90fd5b634e487b7160e01b5f52604160045260245ffd5b5f80fdfe6080604081815260049182361015610015575f80fd5b5f3560e01c9081630986bdd51461093e575080631d9671c3146108a85780632ce26aeb1461083a5780633ee5ef1f1461077f578063462ebde21461030a5780635886216f146102a957806385eda2de146101b85763d7ff8a8014610077575f80fd5b346101b4576100979061008936610aba565b955093505096935050610bd7565b9060c08101359362989680928301908184116101885760a0916100b991610b60565b91013582810292818404149015171561015c576100d7828286610c9e565b93821561013057096100ee575b6020925051908152f35b90600181018091116101045760209250906100e4565b6011837f4e487b71000000000000000000000000000000000000000000000000000000005f525260245ffd5b6012867f4e487b71000000000000000000000000000000000000000000000000000000005f525260245ffd5b6011857f4e487b71000000000000000000000000000000000000000000000000000000005f525260245ffd5b6011877f4e487b71000000000000000000000000000000000000000000000000000000005f525260245ffd5b5f80fd5b5090346101b457817ffffffffffffffffffffffffffffffffffffffffffffffffffffffffffffffffc3601126101b4576101f06109ea565b73ffffffffffffffffffffffffffffffffffffffff90817f000000000000000000000000000000000000000000000000000000000000000016330361028157165f525f602052815f209182549160243583039283116102555750816020935551908152f35b6011907f4e487b71000000000000000000000000000000000000000000000000000000005f525260245ffd5b8284517fa4544199000000000000000000000000000000000000000000000000000000008152fd5b50346101b45760207ffffffffffffffffffffffffffffffffffffffffffffffffffffffffffffffffc3601126101b45760209073ffffffffffffffffffffffffffffffffffffffff6102f96109ea565b165f525f8252805f20549051908152f35b50346101b45761031936610a0d565b9497509297955050925073ffffffffffffffffffffffffffffffffffffffff90817f00000000000000000000000000000000000000000000000000000000000000001633036107575761036a610e2b565b1561072f5782817fffffffffffffffffffffffffffffffffffffffffffffffffffffffffffffffff95868301838111610703576103cc907f02000000000000000000000000000000000000000000000000000000000000009182918686610e6d565b3516146105f1575b505050829481978585018581116105c557610414907f01000000000000000000000000000000000000000000000000000000000000009182918887610e6d565b3516146104a9575b5050505050810181811161047d57610435908285610e6d565b3560fb1c90600c820286019081116101b45761045093610ea6565b1561045757005b517f4b576069000000000000000000000000000000000000000000000000000000008152fd5b6011867f4e487b71000000000000000000000000000000000000000000000000000000005f525260245ffd5b91939750919394508689116101b45766038d7ea4c68000833560e01c8181029391811591850414171561059957916104eb6104f09260a08c9695013592610b60565b610ba0565b9283610529575b507ffffffffffffffffffffffffffffffffffffffffffffffffffffffffffffffffc9250019301905f8080808061041c565b851692835f525f602052875f2054818110610571577ffffffffffffffffffffffffffffffffffffffffffffffffffffffffffffffffc945f525f60205203875f20555f6104f7565b8389517fa7fd3792000000000000000000000000000000000000000000000000000000008152fd5b60118a7f4e487b71000000000000000000000000000000000000000000000000000000005f525260245ffd5b60118c7f4e487b71000000000000000000000000000000000000000000000000000000005f525260245ffd5b9194509150836014116101b457836018116101b45789633b9aca0061061f8b93601486013560e01c90610b60565b0480610659575b50505060187fffffffffffffffffffffffffffffffffffffffffffffffffffffffffffffffe891019201915f80806103d4565b60646020925f928b8860808d0135169651927f23b872dd000000000000000000000000000000000000000000000000000000008452830152863560601c6024830152604482015282855af190816106e1575b50156106b95787895f610626565b8888517ff4059071000000000000000000000000000000000000000000000000000000008152fd5b90503d156106fb575060015f5114601f3d11165b5f6106ab565b3b15156106f5565b60118d7f4e487b71000000000000000000000000000000000000000000000000000000005f525260245ffd5b8888517f8c331638000000000000000000000000000000000000000000000000000000008152fd5b8888517fd25aa106000000000000000000000000000000000000000000000000000000008152fd5b50346101b457807ffffffffffffffffffffffffffffffffffffffffffffffffffffffffffffffffc3601126101b4576107b66109ea565b73ffffffffffffffffffffffffffffffffffffffff90817f00000000000000000000000000000000000000000000000000000000000000001633036108125760209350165f525f8252805f209060243582540180925551908152f35b5050517fa4544199000000000000000000000000000000000000000000000000000000008152fd5b50346101b4575f7ffffffffffffffffffffffffffffffffffffffffffffffffffffffffffffffffc3601126101b4576020905173ffffffffffffffffffffffffffffffffffffffff7f0000000000000000000000000000000000000000000000000000000000000000168152f35b50346101b4576108cb916108bb36610aba565b9550935050959497935050610bd7565b9062989680918284029380850484149015171561091257820180921161025557509261090b9160a061090360209660c0850135610b60565b920135610c9e565b9051908152f35b6011827f4e487b71000000000000000000000000000000000000000000000000000000005f525260245ffd5b8390346101b45761094e36610a0d565b5050505050505050505073ffffffffffffffffffffffffffffffffffffffff7f000000000000000000000000000000000000000000000000000000000000000016330361099757005b7fd25aa106000000000000000000000000000000000000000000000000000000008152fd5b9181601f840112156101b45782359167ffffffffffffffff83116101b457602083818601950101116101b457565b6004359073ffffffffffffffffffffffffffffffffffffffff821682036101b457565b7ffffffffffffffffffffffffffffffffffffffffffffffffffffffffffffffffc81016101e081126101b457610100136101b45760049167ffffffffffffffff610104358181116101b45783610a65916004016109bc565b9390939261012435926101443573ffffffffffffffffffffffffffffffffffffffff811681036101b45792610164359261018435926101a435926101c4359182116101b457610ab6916004016109bc565b9091565b907ffffffffffffffffffffffffffffffffffffffffffffffffffffffffffffffffc82016101c081126101b457610100136101b45760049167ffffffffffffffff90610104358281116101b45781610b14916004016109bc565b9390939261012435926101443573ffffffffffffffffffffffffffffffffffffffff811681036101b45792610164359261018435926101a4359182116101b457610ab6916004016109bc565b81810292918115918404141715610b7357565b7f4e487b71000000000000000000000000000000000000000000000000000000005f52601160045260245ffd5b8115610baa570490565b7f4e487b71000000000000000000000000000000000000000000000000000000005f52601260045260245ffd5b90806003116101b457813560e81c816007116101b457600383013560e01c9080158015610c96575b15610c7f5750505f915b81600b116101b457600781013560e01c82600e116101b457826011116101b4577fffffffffffffffffffffffffffffffffffffffffffffffffffffffffffffffef610c6d9301916011810191600b600e83013560e81c92013560e81c810190610d6a565b81811115610c79570390565b50505f90565b620f424091610c8f914802610ba0565b0491610c09565b508115610bff565b9091828202917fffffffffffffffffffffffffffffffffffffffffffffffffffffffffffffffff84820993838086109503948086039514610d5a5784831115610d3057829109815f038216809204600280826003021880830282030280830282030280830282030280830282030280830282030280920290030293600183805f03040190848311900302920304170290565b60046040517f227bc153000000000000000000000000000000000000000000000000000000008152fd5b505090610d679250610ba0565b90565b90919392814211155f14610d7f575050505090565b8293949192421015610e2257849291925b610da65750610d67935082039142900302610ba0565b906003908582116101b457823560e81c906005928784116101b45784013560f01c81019485421115610e03575050907ffffffffffffffffffffffffffffffffffffffffffffffffffffffffffffffffb9193920194019384610d90565b925093610d679650809550849193500393429003029142030201610ba0565b50505050505f90565b483a03640277cf2a0048105f14610e49576064604648029102111590565b64183cd7f100481115610e63576064604148029102111590565b489060011b111590565b90821015610e79570190565b7f4e487b71000000000000000000000000000000000000000000000000000000005f52603260045260245ffd5b92919092836004116101b4579069ffffffffffffffffffff7ffffffffffffffffffffffffffffffffffffffffffffffffffffffffffffffffc6004843560e01c940195019316925f925b828410610f01575050505050505f90565b600a908282116101b457600c918383116101b45787013560f01c0195803560b01c8603610f345750505050505042101590565b9592939495428411610f735701949360010192917ffffffffffffffffffffffffffffffffffffffffffffffffffffffffffffffff49190910190610ef0565b505050505050505f9056fea26469706673582212206c6558bc8bfa6aac1aac25958d7051fce162c82f9d89bebe48e7491710d7cdb164736f6c6343000817003360c03461013057601f61108938819003918201601f19168301916001600160401b03831184841017610134578084926060946040528339810103126101305780516001600160a01b03808216820361013057602083015192818416908185036101305760400151828116809103610130578015610118575f80546001600160a01b03198116831782556040519416907f8be0079c531659141344cd1fd0a4f28419497f9722a3daafe3b4186f6b6457e09080a315610109575060a052608052604051610f40908161014982396080518181816102e00152818161073401528181610bf90152610c78015260a0518181816102ad0152818161053d01528181610b9b0152610d4e0152f35b63d92e233d60e01b8152600490fd5b604051631e4fbdf760e01b81525f6004820152602490fd5b5f80fd5b634e487b7160e01b5f52604160045260245ffdfe604060808152600480361015610013575f80fd5b5f3560e01c8063205c28781461069a5780632e1a7d4d1461065c5780632f4f21e21461061657806332d323a5146105ad5780635886216f146104b8578063715018a61461041e5780638da5cb5b146103cd57806397a2cb641461021a578063b6b55f25146101dc578063bfe91734146101785763f2fde38b14610094575f80fd5b346101745760207ffffffffffffffffffffffffffffffffffffffffffffffffffffffffffffffffc360112610174576100cb6106e0565b906100d4610e22565b73ffffffffffffffffffffffffffffffffffffffff8092169283156101455750505f54827fffffffffffffffffffffffff00000000000000000000000000000000000000008216175f55167f8be0079c531659141344cd1fd0a4f28419497f9722a3daafe3b4186f6b6457e05f80a3005b905f60249251917f1e4fbdf7000000000000000000000000000000000000000000000000000000008352820152fd5b5f80fd5b50903461017457807ffffffffffffffffffffffffffffffffffffffffffffffffffffffffffffffffc3601126101745760243567ffffffffffffffff8111610174576020926101cd6101d59236908301610703565b913533610731565b9051908152f35b5090346101745760207ffffffffffffffffffffffffffffffffffffffffffffffffffffffffffffffffc360112610174576101d56020923533610c53565b503461017457602091827ffffffffffffffffffffffffffffffffffffffffffffffffffffffffffffffffc36011261017457813567ffffffffffffffff808211610174573660238301121561017457818401359081116101745760059360243683871b8501820111610174579490610290610e22565b5f955f9473ffffffffffffffffffffffffffffffffffffffff90817f000000000000000000000000000000000000000000000000000000000000000016945b86881061030a578a8a8a61030482337f0000000000000000000000000000000000000000000000000000000000000000610e72565b51908152f35b9091929394959698848a831b8401013590848216809203610174575f8281526001808e52908b9020548b517f5886216f000000000000000000000000000000000000000000000000000000008152808a0185905293918e858a818e5afa9283156103c3578f905f94610393575b600196505f5252818c5f205503019901969594939291906102cf565b935085813d83116103bc575b6103a98183610aee565b81010312610174578e6001955193610377565b503d61039f565b8d513d5f823e3d90fd5b8234610174575f7ffffffffffffffffffffffffffffffffffffffffffffffffffffffffffffffffc3601126101745760209073ffffffffffffffffffffffffffffffffffffffff5f54169051908152f35b34610174575f7ffffffffffffffffffffffffffffffffffffffffffffffffffffffffffffffffc36011261017457610454610e22565b5f73ffffffffffffffffffffffffffffffffffffffff81547fffffffffffffffffffffffff000000000000000000000000000000000000000081168355167f8be0079c531659141344cd1fd0a4f28419497f9722a3daafe3b4186f6b6457e08280a3005b503461017457602091827ffffffffffffffffffffffffffffffffffffffffffffffffffffffffffffffffc36011261017457826104f36106e0565b602473ffffffffffffffffffffffffffffffffffffffff9182855196879485937f5886216f00000000000000000000000000000000000000000000000000000000855216908301527f0000000000000000000000000000000000000000000000000000000000000000165afa9182156105a3575f92610574575b5051908152f35b9091508281813d831161059c575b61058c8183610aee565b810103126101745751905f61056d565b503d610582565b50513d5f823e3d90fd5b5090346101745760607ffffffffffffffffffffffffffffffffffffffffffffffffffffffffffffffffc360112610174576105e66106e0565b916044359267ffffffffffffffff84116101745761060c6101d592602095369101610703565b9160243590610731565b823461017457807ffffffffffffffffffffffffffffffffffffffffffffffffffffffffffffffffc360112610174576020906101d56106536106e0565b60243590610c53565b5090346101745760207ffffffffffffffffffffffffffffffffffffffffffffffffffffffffffffffffc360112610174576101d56020923533610b5c565b823461017457807ffffffffffffffffffffffffffffffffffffffffffffffffffffffffffffffffc360112610174576020906101d56106d76106e0565b60243590610b5c565b6004359073ffffffffffffffffffffffffffffffffffffffff8216820361017457565b9181601f840112156101745782359167ffffffffffffffff8311610174576020838186019501011161017457565b917f0000000000000000000000000000000000000000000000000000000000000000604051949081606414610a34578160481461096e578160e0146109315781610100146108f257816060146108175750610160146107b2576004847f68275857000000000000000000000000000000000000000000000000000000008152fd5b610164846101605f949596937f2b67b570000000000000000000000000000000000000000000000000000000008695526004830137826e22d473030f116ddee9f6b43ac78ba35af15b1561080c5761080991610c53565b90565b6040513d5f823e3d90fd5b610164915094602060405f9596979486957f2b67b570000000000000000000000000000000000000000000000000000000008552336004860152602485015260148160508601377fffffffffffffffffffffffffffffffffffffffffffffffffffffffffffffffff65ffffffffffff9080601484013560e01c0182166064870152601883013560e01c60848701523060a4870152601c83013560e01c011660c485015261010060e4850152816101048501528280820161012486013701610144830137826e22d473030f116ddee9f6b43ac78ba35af16107fb565b6101049150945f8094959661010082957f8fcbaf0c00000000000000000000000000000000000000000000000000000000855260048501375af16107fb565b60e49150945f8094959660e082957fd505accf00000000000000000000000000000000000000000000000000000000855260048501375af16107fb565b6101049150945f809495967f7fffffffffffffffffffffffffffffffffffffffffffffffffffffffffffffff82957f8fcbaf0c00000000000000000000000000000000000000000000000000000000855233600486015230602486015260206008602883013592803560e01c60448901527fffffffffffffffffffffffffffffffffffffffffffffffffffffffffffffffff600482013560e01c016064890152600160848901528360ff1c601b0160a48901520160c48701371660e48401525af16107fb565b60e49150945f809495967f7fffffffffffffffffffffffffffffffffffffffffffffffffffffffffffffff82957fd505accf00000000000000000000000000000000000000000000000000000000855233600486015230602486015260206024604483013592828160448a01377fffffffffffffffffffffffffffffffffffffffffffffffffffffffffffffffff8382013560e01c0160648901528360ff1c601b0160848901520160a48701371660c48401525af16107fb565b90601f7fffffffffffffffffffffffffffffffffffffffffffffffffffffffffffffffe0910116810190811067ffffffffffffffff821117610b2f57604052565b7f4e487b71000000000000000000000000000000000000000000000000000000005f52604160045260245ffd5b6040517f85eda2de000000000000000000000000000000000000000000000000000000008152336004820152602481018390529092916020826044815f7f000000000000000000000000000000000000000000000000000000000000000073ffffffffffffffffffffffffffffffffffffffff165af1801561080c575f90610c1f575b610c1d925093335f52600160205260405f208281540390557f0000000000000000000000000000000000000000000000000000000000000000610e72565b565b506020823d602011610c4b575b81610c3960209383610aee565b8101031261017457610c1d9151610bdf565b3d9150610c2c565b73ffffffffffffffffffffffffffffffffffffffff91828216908115610df8576064937f00000000000000000000000000000000000000000000000000000000000000006040517f23b872dd0000000000000000000000000000000000000000000000000000000081523360048201523060248201528360448201525f602097889282855af19081610dd6575b5015610dac575f928352600185526040808420805484019055517f3ee5ef1f00000000000000000000000000000000000000000000000000000000815273ffffffffffffffffffffffffffffffffffffffff94909416600485015260248401919091528391839160449183917f0000000000000000000000000000000000000000000000000000000000000000165af191821561080c575f92610d8257505090565b90809250813d8311610da5575b610d998183610aee565b81010312610174575190565b503d610d8f565b60046040517ff4059071000000000000000000000000000000000000000000000000000000008152fd5b90503d15610df0575060015f5114601f3d11165b5f610ce0565b3b1515610dea565b60046040517fd92e233d000000000000000000000000000000000000000000000000000000008152fd5b73ffffffffffffffffffffffffffffffffffffffff5f54163303610e4257565b60246040517f118cdaa7000000000000000000000000000000000000000000000000000000008152336004820152fd5b9160446020925f92604051917fa9059cbb0000000000000000000000000000000000000000000000000000000083526004830152602482015282855af19081610ee8575b5015610ebe57565b60046040517ffb7f5079000000000000000000000000000000000000000000000000000000008152fd5b90503d15610f02575060015f5114601f3d11165b5f610eb6565b3b1515610efc56fea26469706673582212203df85f35d844ad97a81f0f4e5bb7712061b7a5e4970448373e83703f4deb917d64736f6c63430008170033",
  "devdoc": {
    "errors": {
      "MathOverflowedMulDiv()": [
        {
          "details": "Muldiv operation overflow."
        }
      ]
    },
    "kind": "dev",
    "methods": {},
    "title": "Settlement contract",
    "version": 1
  },
  "userdoc": {
    "kind": "user",
    "methods": {
      "FEE_BANK()": {
        "notice": "See {IFeeBankCharger-feeBank}."
      },
      "availableCredit(address)": {
        "notice": "See {IFeeBankCharger-availableCredit}."
      },
      "decreaseAvailableCredit(address,uint256)": {
        "notice": "See {IFeeBankCharger-decreaseAvailableCredit}."
      },
      "getMakingAmount((uint256,uint256,uint256,uint256,uint256,uint256,uint256,uint256),bytes,bytes32,address,uint256,uint256,bytes)": {
        "notice": "See {IAmountGetter-getMakingAmount}"
      },
      "getTakingAmount((uint256,uint256,uint256,uint256,uint256,uint256,uint256,uint256),bytes,bytes32,address,uint256,uint256,bytes)": {
        "notice": "See {IAmountGetter-getTakingAmount}"
      },
      "increaseAvailableCredit(address,uint256)": {
        "notice": "See {IFeeBankCharger-increaseAvailableCredit}."
      },
      "postInteraction((uint256,uint256,uint256,uint256,uint256,uint256,uint256,uint256),bytes,bytes32,address,uint256,uint256,uint256,bytes)": {
        "notice": "See {IPostInteraction-postInteraction}"
      },
      "preInteraction((uint256,uint256,uint256,uint256,uint256,uint256,uint256,uint256),bytes,bytes32,address,uint256,uint256,uint256,bytes)": {
        "notice": "See {IPreInteraction-preInteraction}"
      }
    },
    "notice": "Contract to execute limit orders settlement on Mainnet, created by Fusion mode.",
    "version": 1
  },
  "storageLayout": {
    "storage": [
      {
        "astId": 3368,
        "contract": "contracts/Settlement.sol:Settlement",
        "label": "_creditAllowance",
        "offset": 0,
        "slot": "0",
        "type": "t_mapping(t_address,t_uint256)"
      }
    ],
    "types": {
      "t_address": {
        "encoding": "inplace",
        "label": "address",
        "numberOfBytes": "20"
      },
      "t_mapping(t_address,t_uint256)": {
        "encoding": "mapping",
        "key": "t_address",
        "label": "mapping(address => uint256)",
        "numberOfBytes": "32",
        "value": "t_uint256"
      },
      "t_uint256": {
        "encoding": "inplace",
        "label": "uint256",
        "numberOfBytes": "32"
      }
    }
  }
}