{
  "address": "0xa515E173279DFeEa375c5e24e2Da0521b2f4Cc0F",
  "abi": [
    {
      "inputs": [
        {
          "internalType": "contract IWhitelistRegistry",
          "name": "whitelist",
          "type": "address"
        },
        {
          "internalType": "address",
          "name": "limitOrderProtocol",
          "type": "address"
        }
      ],
      "stateMutability": "nonpayable",
      "type": "constructor"
    },
    {
      "inputs": [],
      "name": "AccessDenied",
      "type": "error"
    },
    {
      "inputs": [],
      "name": "FailedExternalCall",
      "type": "error"
    },
    {
      "inputs": [],
      "name": "IncorrectCalldataParams",
      "type": "error"
    },
    {
      "inputs": [],
      "name": "NotEnoughCredit",
      "type": "error"
    },
    {
      "inputs": [],
      "name": "OnlyFeeBankAccess",
      "type": "error"
    },
    {
      "anonymous": false,
      "inputs": [
        {
          "indexed": true,
          "internalType": "address",
          "name": "previousOwner",
          "type": "address"
        },
        {
          "indexed": true,
          "internalType": "address",
          "name": "newOwner",
          "type": "address"
        }
      ],
      "name": "OwnershipTransferred",
      "type": "event"
    },
    {
      "inputs": [
        {
          "internalType": "address",
          "name": "",
          "type": "address"
        }
      ],
      "name": "creditAllowance",
      "outputs": [
        {
          "internalType": "uint256",
          "name": "",
          "type": "uint256"
        }
      ],
      "stateMutability": "view",
      "type": "function"
    },
    {
      "inputs": [
        {
          "internalType": "address",
          "name": "account",
          "type": "address"
        },
        {
          "internalType": "uint256",
          "name": "amount",
          "type": "uint256"
        }
      ],
      "name": "decreaseCreditAllowance",
      "outputs": [
        {
          "internalType": "uint256",
          "name": "allowance",
          "type": "uint256"
        }
      ],
      "stateMutability": "nonpayable",
      "type": "function"
    },
    {
      "inputs": [],
      "name": "feeBank",
      "outputs": [
        {
          "internalType": "address",
          "name": "",
          "type": "address"
        }
      ],
      "stateMutability": "view",
      "type": "function"
    },
    {
      "inputs": [
        {
          "internalType": "address",
          "name": "",
          "type": "address"
        },
        {
          "internalType": "uint256",
          "name": "",
          "type": "uint256"
        },
        {
          "internalType": "uint256",
          "name": "takingAmount",
          "type": "uint256"
        },
        {
          "internalType": "bytes",
          "name": "interactiveData",
          "type": "bytes"
        }
      ],
      "name": "fillOrderInteraction",
      "outputs": [
        {
          "internalType": "uint256",
          "name": "",
          "type": "uint256"
        }
      ],
      "stateMutability": "nonpayable",
      "type": "function"
    },
    {
      "inputs": [
        {
          "internalType": "address",
          "name": "account",
          "type": "address"
        },
        {
          "internalType": "uint256",
          "name": "amount",
          "type": "uint256"
        }
      ],
      "name": "increaseCreditAllowance",
      "outputs": [
        {
          "internalType": "uint256",
          "name": "allowance",
          "type": "uint256"
        }
      ],
      "stateMutability": "nonpayable",
      "type": "function"
    },
    {
      "inputs": [
        {
          "internalType": "contract IOrderMixin",
          "name": "orderMixin",
          "type": "address"
        },
        {
          "components": [
            {
              "internalType": "uint256",
              "name": "salt",
              "type": "uint256"
            },
            {
              "internalType": "address",
              "name": "makerAsset",
              "type": "address"
            },
            {
              "internalType": "address",
              "name": "takerAsset",
              "type": "address"
            },
            {
              "internalType": "address",
              "name": "maker",
              "type": "address"
            },
            {
              "internalType": "address",
              "name": "receiver",
              "type": "address"
            },
            {
              "internalType": "address",
              "name": "allowedSender",
              "type": "address"
            },
            {
              "internalType": "uint256",
              "name": "makingAmount",
              "type": "uint256"
            },
            {
              "internalType": "uint256",
              "name": "takingAmount",
              "type": "uint256"
            },
            {
              "internalType": "uint256",
              "name": "offsets",
              "type": "uint256"
            },
            {
              "internalType": "bytes",
              "name": "interactions",
              "type": "bytes"
            }
          ],
          "internalType": "struct OrderLib.Order",
          "name": "order",
          "type": "tuple"
        },
        {
          "internalType": "bytes",
          "name": "signature",
          "type": "bytes"
        },
        {
          "internalType": "bytes",
          "name": "interaction",
          "type": "bytes"
        },
        {
          "internalType": "uint256",
          "name": "makingAmount",
          "type": "uint256"
        },
        {
          "internalType": "uint256",
          "name": "takingAmount",
          "type": "uint256"
        },
        {
          "internalType": "uint256",
          "name": "thresholdAmount",
          "type": "uint256"
        },
        {
          "internalType": "address",
          "name": "target",
          "type": "address"
        }
      ],
      "name": "matchOrders",
      "outputs": [],
      "stateMutability": "nonpayable",
      "type": "function"
    },
    {
      "inputs": [
        {
          "internalType": "contract IOrderMixin",
          "name": "orderMixin",
          "type": "address"
        },
        {
          "components": [
            {
              "internalType": "uint256",
              "name": "salt",
              "type": "uint256"
            },
            {
              "internalType": "address",
              "name": "makerAsset",
              "type": "address"
            },
            {
              "internalType": "address",
              "name": "takerAsset",
              "type": "address"
            },
            {
              "internalType": "address",
              "name": "maker",
              "type": "address"
            },
            {
              "internalType": "address",
              "name": "receiver",
              "type": "address"
            },
            {
              "internalType": "address",
              "name": "allowedSender",
              "type": "address"
            },
            {
              "internalType": "uint256",
              "name": "makingAmount",
              "type": "uint256"
            },
            {
              "internalType": "uint256",
              "name": "takingAmount",
              "type": "uint256"
            },
            {
              "internalType": "uint256",
              "name": "offsets",
              "type": "uint256"
            },
            {
              "internalType": "bytes",
              "name": "interactions",
              "type": "bytes"
            }
          ],
          "internalType": "struct OrderLib.Order",
          "name": "order",
          "type": "tuple"
        },
        {
          "internalType": "bytes",
          "name": "signature",
          "type": "bytes"
        },
        {
          "internalType": "bytes",
          "name": "interaction",
          "type": "bytes"
        },
        {
          "internalType": "uint256",
          "name": "makingAmount",
          "type": "uint256"
        },
        {
          "internalType": "uint256",
          "name": "takingAmount",
          "type": "uint256"
        },
        {
          "internalType": "uint256",
          "name": "thresholdAmount",
          "type": "uint256"
        },
        {
          "internalType": "address",
          "name": "target",
          "type": "address"
        }
      ],
      "name": "matchOrdersEOA",
      "outputs": [],
      "stateMutability": "nonpayable",
      "type": "function"
    },
    {
      "inputs": [],
      "name": "owner",
      "outputs": [
        {
          "internalType": "address",
          "name": "",
          "type": "address"
        }
      ],
      "stateMutability": "view",
      "type": "function"
    },
    {
      "inputs": [],
      "name": "renounceOwnership",
      "outputs": [],
      "stateMutability": "nonpayable",
      "type": "function"
    },
    {
      "inputs": [
        {
          "internalType": "address",
          "name": "newFeeBank",
          "type": "address"
        }
      ],
      "name": "setFeeBank",
      "outputs": [],
      "stateMutability": "nonpayable",
      "type": "function"
    },
    {
      "inputs": [
        {
          "internalType": "address",
          "name": "newOwner",
          "type": "address"
        }
      ],
      "name": "transferOwnership",
      "outputs": [],
      "stateMutability": "nonpayable",
      "type": "function"
    }
  ],
  "transactionHash": "0x9a1124be669805f586de583c274ce18588dd7e17e51457a67f888ef19e4a274c",
  "args": [
    "0x52096d540719a8577FE634624F50BADeA050eebD",
    "0x9b934b33fef7a899f502bc191e820ae655797ed3"
  ],
  "numDeployments": 4,
  "solcInputHash": "e8593314242509f4948f5b5f0ab6ea7d",
  "bytecode": "0x60a0604052600280546001600160a01b03191660011790553480156200002457600080fd5b5060405162001684380380620016848339810160408190526200004791620000e9565b8181620000543362000080565b6001600160a01b03918216608052600180546001600160a01b0319169190921617905550620001289050565b600080546001600160a01b038381166001600160a01b0319831681178455604051919092169283917f8be0079c531659141344cd1fd0a4f28419497f9722a3daafe3b4186f6b6457e09190a35050565b6001600160a01b0381168114620000e657600080fd5b50565b60008060408385031215620000fd57600080fd5b82516200010a81620000d0565b60208401519092506200011d81620000d0565b809150509250929050565b6080516115396200014b600039600081816108fd0152610c6901526115396000f3fe608060405234801561001057600080fd5b50600436106100c95760003560e01c8063af15d78611610081578063ebbd4d5e1161005b578063ebbd4d5e146101b6578063f2fde38b146101c9578063ff656d45146101dc57600080fd5b8063af15d78614610163578063ccee33d714610183578063cedf5ecf1461019657600080fd5b80636bd0d927116100b25780636bd0d92714610109578063715018a61461011c5780638da5cb5b1461012457600080fd5b80630774a852146100ce5780636231357f146100e3575b600080fd5b6100e16100dc366004610dd7565b6101ef565b005b6100f66100f1366004610dfb565b61023e565b6040519081526020015b60405180910390f35b6100e1610117366004610e89565b6102f3565b6100e16103df565b60005473ffffffffffffffffffffffffffffffffffffffff165b60405173ffffffffffffffffffffffffffffffffffffffff9091168152602001610100565b60035461013e9073ffffffffffffffffffffffffffffffffffffffff1681565b6100f6610191366004610f5b565b6103f3565b6100f66101a4366004610dd7565b60046020526000908152604090205481565b6100f66101c4366004610dfb565b6106ce565b6100e16101d7366004610dd7565b610753565b6100e16101ea366004610e89565b61080f565b6101f7610837565b600380547fffffffffffffffffffffffff00000000000000000000000000000000000000001673ffffffffffffffffffffffffffffffffffffffff92909216919091179055565b60035460009073ffffffffffffffffffffffffffffffffffffffff163314610292576040517fa454419900000000000000000000000000000000000000000000000000000000815260040160405180910390fd5b5073ffffffffffffffffffffffffffffffffffffffff82166000908152600460205260409020546102c38282610ff4565b73ffffffffffffffffffffffffffffffffffffffff90931660009081526004602052604090208390555090919050565b336102fd816108b8565b60025473ffffffffffffffffffffffffffffffffffffffff167fffffffffffffffffffffffffffffffffffffffffffffffffffffffffffffffff016103bf57600280547fffffffffffffffffffffffff00000000000000000000000000000000000000001673ffffffffffffffffffffffffffffffffffffffff831617905561038f8b8b338c8c8c8c8c8c8c8c61099e565b600280547fffffffffffffffffffffffff00000000000000000000000000000000000000001660011790556103d2565b6103d28b8b338c8c8c8c8c8c8c8c61099e565b5050505050505050505050565b6103e7610837565b6103f16000610b2d565b565b6000806103fe610ba2565b90507f010000000000000000000000000000000000000000000000000000000000000084846000816104325761043261100d565b9050013560f81c60f81b7effffffffffffffffffffffffffffffffffffffffffffffffffffffffffffff1916036105ee573660008181610493610478886001818c61103c565b50602081358201818101939035928281013501918201913590565b92965090945092509050828082146104d7576040517f969d981800000000000000000000000000000000000000000000000000000000815260040160405180910390fd5b60005b818110156105e35760008686838181106104f6576104f661100d565b905060200201602081019061050b9190610dd7565b73ffffffffffffffffffffffffffffffffffffffff168585848181106105335761053361100d565b90506020028101906105459190611066565b6040516105539291906110cb565b6000604051808303816000865af19150503d8060008114610590576040519150601f19603f3d011682016040523d82523d6000602084013e610595565b606091505b50509050806105d0576040517f1d6d30e800000000000000000000000000000000000000000000000000000000815260040160405180910390fd5b50806105db816110db565b9150506104da565b50505050505061067d565b3636600036600080600080600061064e8d8d60019080926106119392919061103c565b5080358101916020808301358301808201939035926040820135820192830192359160608101359160808201359160a08101359160c09091013590565b985098509850985098509850985098509850610673338a8c8b8b8b8b8b8b8b8b61099e565b5050505050505050505b6000848461068c602082610ff4565b61069792829061103c565b6106a091611113565b90506127106106ae82610d22565b6106b8908861114f565b6106c29190611195565b98975050505050505050565b60035460009073ffffffffffffffffffffffffffffffffffffffff163314610722576040517fa454419900000000000000000000000000000000000000000000000000000000815260040160405180910390fd5b5073ffffffffffffffffffffffffffffffffffffffff82166000908152600460205260409020546102c382826111d0565b61075b610837565b73ffffffffffffffffffffffffffffffffffffffff8116610803576040517f08c379a000000000000000000000000000000000000000000000000000000000815260206004820152602660248201527f4f776e61626c653a206e6577206f776e657220697320746865207a65726f206160448201527f646472657373000000000000000000000000000000000000000000000000000060648201526084015b60405180910390fd5b61080c81610b2d565b50565b610818326108b8565b61082b8a8a328b8b8b8b8b8b8b8b61099e565b50505050505050505050565b60005473ffffffffffffffffffffffffffffffffffffffff1633146103f1576040517f08c379a000000000000000000000000000000000000000000000000000000000815260206004820181905260248201527f4f776e61626c653a2063616c6c6572206973206e6f7420746865206f776e657260448201526064016107fa565b6040517f3af32abf00000000000000000000000000000000000000000000000000000000815273ffffffffffffffffffffffffffffffffffffffff82811660048301527f00000000000000000000000000000000000000000000000000000000000000001690633af32abf90602401602060405180830381865afa158015610944573d6000803e3d6000fd5b505050506040513d601f19601f8201168201806040525081019061096891906111e3565b61080c576040517f4ca8886700000000000000000000000000000000000000000000000000000000815260040160405180910390fd5b60006109bb66038d7ea4c6800063ffffffff8d3560901c1661114f565b73ffffffffffffffffffffffffffffffffffffffff8b1660009081526004602052604090205490915081811015610a1e576040517fa7fd379200000000000000000000000000000000000000000000000000000000815260040160405180910390fd5b818103600460008d73ffffffffffffffffffffffffffffffffffffffff1673ffffffffffffffffffffffffffffffffffffffff16815260200190815260200160002081905550600088888e60000135604051602001610a7f93929190611205565b60405160208183030381529060405290508d73ffffffffffffffffffffffffffffffffffffffff1663e5d7bde68e8d8d858c8c8c8c6040518963ffffffff1660e01b8152600401610ad7989796959493929190611328565b6060604051808303816000875af1158015610af6573d6000803e3d6000fd5b505050506040513d601f19601f82011682018060405250810190610b1a91906114d5565b5050505050505050505050505050505050565b6000805473ffffffffffffffffffffffffffffffffffffffff8381167fffffffffffffffffffffffff0000000000000000000000000000000000000000831681178455604051919092169283917f8be0079c531659141344cd1fd0a4f28419497f9722a3daafe3b4186f6b6457e09190a35050565b60015460009073ffffffffffffffffffffffffffffffffffffffff163314610bf6576040517f4ca8886700000000000000000000000000000000000000000000000000000000815260040160405180910390fd5b5060025473ffffffffffffffffffffffffffffffffffffffff167fffffffffffffffffffffffffffffffffffffffffffffffffffffffffffffffff8101610d1f57506040517f3af32abf0000000000000000000000000000000000000000000000000000000081523260048201819052907f000000000000000000000000000000000000000000000000000000000000000073ffffffffffffffffffffffffffffffffffffffff1690633af32abf90602401602060405180830381865afa158015610cc5573d6000803e3d6000fd5b505050506040513d601f19601f82011682018060405250810190610ce991906111e3565b610d1f576040517f4ca8886700000000000000000000000000000000000000000000000000000000815260040160405180910390fd5b90565b600060e082901c60c083901c63ffffffff1661ffff60b085901c16818403610d4a5761070891505b80600003610d5757506103e85b82421115610d995742839003828110610d7257612710610d8f565b82818403830281610d8557610d85611166565b0461271061ffff16015b9695505050505050565b61271001949350505050565b73ffffffffffffffffffffffffffffffffffffffff8116811461080c57600080fd5b8035610dd281610da5565b919050565b600060208284031215610de957600080fd5b8135610df481610da5565b9392505050565b60008060408385031215610e0e57600080fd5b8235610e1981610da5565b946020939093013593505050565b60006101408284031215610e3a57600080fd5b50919050565b60008083601f840112610e5257600080fd5b50813567ffffffffffffffff811115610e6a57600080fd5b602083019150836020828501011115610e8257600080fd5b9250929050565b6000806000806000806000806000806101008b8d031215610ea957600080fd5b610eb28b610dc7565b995060208b013567ffffffffffffffff80821115610ecf57600080fd5b610edb8e838f01610e27565b9a5060408d0135915080821115610ef157600080fd5b610efd8e838f01610e40565b909a50985060608d0135915080821115610f1657600080fd5b50610f238d828e01610e40565b90975095505060808b0135935060a08b0135925060c08b01359150610f4a60e08c01610dc7565b90509295989b9194979a5092959850565b600080600080600060808688031215610f7357600080fd5b8535610f7e81610da5565b94506020860135935060408601359250606086013567ffffffffffffffff811115610fa857600080fd5b610fb488828901610e40565b969995985093965092949392505050565b7f4e487b7100000000000000000000000000000000000000000000000000000000600052601160045260246000fd5b8181038181111561100757611007610fc5565b92915050565b7f4e487b7100000000000000000000000000000000000000000000000000000000600052603260045260246000fd5b6000808585111561104c57600080fd5b8386111561105957600080fd5b5050820193919092039150565b60008083357fffffffffffffffffffffffffffffffffffffffffffffffffffffffffffffffe184360301811261109b57600080fd5b83018035915067ffffffffffffffff8211156110b657600080fd5b602001915036819003821315610e8257600080fd5b8183823760009101908152919050565b60007fffffffffffffffffffffffffffffffffffffffffffffffffffffffffffffffff820361110c5761110c610fc5565b5060010190565b80356020831015611007577fffffffffffffffffffffffffffffffffffffffffffffffffffffffffffffffff602084900360031b1b1692915050565b808202811582820484141761100757611007610fc5565b7f4e487b7100000000000000000000000000000000000000000000000000000000600052601260045260246000fd5b6000826111cb577f4e487b7100000000000000000000000000000000000000000000000000000000600052601260045260246000fd5b500490565b8082018082111561100757611007610fc5565b6000602082840312156111f557600080fd5b81518015158114610df457600080fd5b82848237909101908152602001919050565b60008083357fffffffffffffffffffffffffffffffffffffffffffffffffffffffffffffffe184360301811261124c57600080fd5b830160208101925035905067ffffffffffffffff81111561126c57600080fd5b803603821315610e8257600080fd5b8183528181602085013750600060208284010152600060207fffffffffffffffffffffffffffffffffffffffffffffffffffffffffffffffe0601f840116840101905092915050565b6000815180845260005b818110156112ea576020818501810151868301820152016112ce565b5060006020828601015260207fffffffffffffffffffffffffffffffffffffffffffffffffffffffffffffffe0601f83011685010191505092915050565b60e08152883560e0820152600061134160208b01610dc7565b6101006113658185018373ffffffffffffffffffffffffffffffffffffffff169052565b61137160408d01610dc7565b91506101206113978186018473ffffffffffffffffffffffffffffffffffffffff169052565b6113a360608e01610dc7565b92506101406113c98187018573ffffffffffffffffffffffffffffffffffffffff169052565b6113d560808f01610dc7565b73ffffffffffffffffffffffffffffffffffffffff8116610160880152935061140060a08f01610dc7565b73ffffffffffffffffffffffffffffffffffffffff8116610180880152935060c08e01356101a087015260e08e01356101c0870152828e01356101e087015261144b828f018f611217565b945092508061020087015250506114676102208501838361127b565b915050828103602084015261147d818a8c61127b565b9050828103604084015261149181896112c4565b9150508560608301528460808301528360a08301526114c860c083018473ffffffffffffffffffffffffffffffffffffffff169052565b9998505050505050505050565b6000806000606084860312156114ea57600080fd5b835192506020840151915060408401519050925092509256fea2646970667358221220dc30bbdbe4430254314c4117342a023932c7f39986de57974d741c2d3a5bc56964736f6c63430008110033",
  "devdoc": {
    "kind": "dev",
    "methods": {
      "owner()": {
        "details": "Returns the address of the current owner."
      },
      "renounceOwnership()": {
        "details": "Leaves the contract without owner. It will not be possible to call `onlyOwner` functions anymore. Can only be called by the current owner. NOTE: Renouncing ownership will leave the contract without an owner, thereby removing any functionality that is only available to the owner."
      },
      "transferOwnership(address)": {
        "details": "Transfers ownership of the contract to a new account (`newOwner`). Can only be called by the current owner."
      }
    },
    "version": 1
  },
  "userdoc": {
    "kind": "user",
    "methods": {},
    "version": 1
  },
  "storageLayout": {
    "storage": [
      {
        "astId": 7292,
        "contract": "contracts/Settlement.sol:Settlement",
        "label": "_owner",
        "offset": 0,
        "slot": "0",
        "type": "t_address"
      },
      {
        "astId": 12782,
        "contract": "contracts/Settlement.sol:Settlement",
        "label": "_limitOrderProtocol",
        "offset": 0,
        "slot": "1",
        "type": "t_address"
      },
      {
        "astId": 12785,
        "contract": "contracts/Settlement.sol:Settlement",
        "label": "_checked",
        "offset": 0,
        "slot": "2",
        "type": "t_address"
      },
      {
        "astId": 10015,
        "contract": "contracts/Settlement.sol:Settlement",
        "label": "feeBank",
        "offset": 0,
        "slot": "3",
        "type": "t_address"
      },
      {
        "astId": 10019,
        "contract": "contracts/Settlement.sol:Settlement",
        "label": "creditAllowance",
        "offset": 0,
        "slot": "4",
        "type": "t_mapping(t_address,t_uint256)"
      }
    ],
    "types": {
      "t_address": {
        "encoding": "inplace",
        "label": "address",
        "numberOfBytes": "20"
      },
      "t_mapping(t_address,t_uint256)": {
        "encoding": "mapping",
        "key": "t_address",
        "label": "mapping(address => uint256)",
        "numberOfBytes": "32",
        "value": "t_uint256"
      },
      "t_uint256": {
        "encoding": "inplace",
        "label": "uint256",
        "numberOfBytes": "32"
      }
    }
  }
}