{
  "address": "0x722E140f1222D404916B8d0A8Fd2F6233d446905",
  "abi": [
    {
      "inputs": [
        {
          "internalType": "contract St1inch",
          "name": "st1INCH_",
          "type": "address"
        }
      ],
      "stateMutability": "nonpayable",
      "type": "constructor"
    },
    {
      "inputs": [],
      "name": "OriginInTheFuture",
      "type": "error"
    },
    {
      "anonymous": false,
      "inputs": [
        {
          "indexed": true,
          "internalType": "address",
          "name": "previousOwner",
          "type": "address"
        },
        {
          "indexed": true,
          "internalType": "address",
          "name": "newOwner",
          "type": "address"
        }
      ],
      "name": "OwnershipTransferred",
      "type": "event"
    },
    {
      "inputs": [],
      "name": "durationUntilMaxAllowedLoss",
      "outputs": [
        {
          "internalType": "uint256",
          "name": "",
          "type": "uint256"
        }
      ],
      "stateMutability": "view",
      "type": "function"
    },
    {
      "inputs": [],
      "name": "expBase",
      "outputs": [
        {
          "internalType": "uint256",
          "name": "",
          "type": "uint256"
        }
      ],
      "stateMutability": "view",
      "type": "function"
    },
    {
      "inputs": [],
      "name": "origin",
      "outputs": [
        {
          "internalType": "uint256",
          "name": "",
          "type": "uint256"
        }
      ],
      "stateMutability": "view",
      "type": "function"
    },
    {
      "inputs": [],
      "name": "owner",
      "outputs": [
        {
          "internalType": "address",
          "name": "",
          "type": "address"
        }
      ],
      "stateMutability": "view",
      "type": "function"
    },
    {
      "inputs": [
        {
          "internalType": "address",
          "name": "account",
          "type": "address"
        },
        {
          "internalType": "uint256",
          "name": "amount",
          "type": "uint256"
        },
        {
          "internalType": "uint256",
          "name": "duration",
          "type": "uint256"
        }
      ],
      "name": "previewBalance",
      "outputs": [
        {
          "internalType": "uint256",
          "name": "",
          "type": "uint256"
        }
      ],
      "stateMutability": "view",
      "type": "function"
    },
    {
      "inputs": [
        {
          "internalType": "address",
          "name": "account",
          "type": "address"
        },
        {
          "internalType": "uint256",
          "name": "amount",
          "type": "uint256"
        },
        {
          "internalType": "uint256",
          "name": "duration",
          "type": "uint256"
        }
      ],
      "name": "previewPowerOf",
      "outputs": [
        {
          "internalType": "uint256",
          "name": "",
          "type": "uint256"
        }
      ],
      "stateMutability": "view",
      "type": "function"
    },
    {
      "inputs": [
        {
          "internalType": "address",
          "name": "account",
          "type": "address"
        },
        {
          "internalType": "uint256",
          "name": "amount",
          "type": "uint256"
        },
        {
          "internalType": "uint256",
          "name": "duration",
          "type": "uint256"
        },
        {
          "internalType": "uint256",
          "name": "timestamp",
          "type": "uint256"
        }
      ],
      "name": "previewPowerOfAtTime",
      "outputs": [
        {
          "internalType": "uint256",
          "name": "",
          "type": "uint256"
        }
      ],
      "stateMutability": "view",
      "type": "function"
    },
    {
      "inputs": [
        {
          "internalType": "address",
          "name": "account",
          "type": "address"
        }
      ],
      "name": "previewUnlockTime",
      "outputs": [
        {
          "internalType": "uint256",
          "name": "allowedExitTime",
          "type": "uint256"
        }
      ],
      "stateMutability": "view",
      "type": "function"
    },
    {
      "inputs": [],
      "name": "renounceOwnership",
      "outputs": [],
      "stateMutability": "nonpayable",
      "type": "function"
    },
    {
      "inputs": [
        {
          "internalType": "uint256",
          "name": "duration",
          "type": "uint256"
        }
      ],
      "name": "setDurationUntilMaxAllowedLoss",
      "outputs": [],
      "stateMutability": "nonpayable",
      "type": "function"
    },
    {
      "inputs": [],
      "name": "st1INCH",
      "outputs": [
        {
          "internalType": "contract St1inch",
          "name": "",
          "type": "address"
        }
      ],
      "stateMutability": "view",
      "type": "function"
    },
    {
      "inputs": [
        {
          "internalType": "address",
          "name": "newOwner",
          "type": "address"
        }
      ],
      "name": "transferOwnership",
      "outputs": [],
      "stateMutability": "nonpayable",
      "type": "function"
    }
  ],
  "transactionHash": "0xf727b51e7859267575f52f53b1fa9d9b78cd30072663ae7c5faa541468c585fa",
  "args": [
    "0x9A0C8Ff858d273f57072D714bca7411D717501D7"
  ],
  "numDeployments": 1,
  "solcInputHash": "8bca122d35e4c5967b2a4611c88a9091",
  "bytecode": "0x6104a06040523480156200001257600080fd5b506040516200241a3803806200241a833981016040819052620000359162000625565b806001600160a01b031663bca9c3fc6040518163ffffffff1660e01b8152600401602060405180830381865afa15801562000074573d6000803e3d6000fd5b505050506040513d601f19601f820116820180604052508101906200009a919062000657565b816001600160a01b031663938b5f326040518163ffffffff1660e01b8152600401602060405180830381865afa158015620000d9573d6000803e3d6000fd5b505050506040513d601f19601f82011682018060405250810190620000ff919062000657565b428111156200012157604051635a59719b60e01b815260040160405180910390fd5b608081905260a082905260c0829052670de0b6b3a764000062000145838062000671565b6200015191906200069d565b60e0819052670de0b6b3a7640000906200016c908062000671565b6200017891906200069d565b610100819052670de0b6b3a76400009062000194908062000671565b620001a091906200069d565b610120819052670de0b6b3a764000090620001bc908062000671565b620001c891906200069d565b610140819052670de0b6b3a764000090620001e4908062000671565b620001f091906200069d565b610160819052670de0b6b3a7640000906200020c908062000671565b6200021891906200069d565b610180819052670de0b6b3a76400009062000234908062000671565b6200024091906200069d565b6101a0819052670de0b6b3a7640000906200025c908062000671565b6200026891906200069d565b6101c0819052670de0b6b3a76400009062000284908062000671565b6200029091906200069d565b6101e0819052670de0b6b3a764000090620002ac908062000671565b620002b891906200069d565b610200819052670de0b6b3a764000090620002d4908062000671565b620002e091906200069d565b610220819052670de0b6b3a764000090620002fc908062000671565b6200030891906200069d565b610240819052670de0b6b3a76400009062000324908062000671565b6200033091906200069d565b610260819052670de0b6b3a7640000906200034c908062000671565b6200035891906200069d565b610280819052670de0b6b3a76400009062000374908062000671565b6200038091906200069d565b6102a0819052670de0b6b3a7640000906200039c908062000671565b620003a891906200069d565b6102c0819052670de0b6b3a764000090620003c4908062000671565b620003d091906200069d565b6102e0819052670de0b6b3a764000090620003ec908062000671565b620003f891906200069d565b610300819052670de0b6b3a76400009062000414908062000671565b6200042091906200069d565b610320819052670de0b6b3a7640000906200043c908062000671565b6200044891906200069d565b610340819052670de0b6b3a76400009062000464908062000671565b6200047091906200069d565b610360819052670de0b6b3a7640000906200048c908062000671565b6200049891906200069d565b610380819052670de0b6b3a764000090620004b4908062000671565b620004c091906200069d565b6103a0819052670de0b6b3a764000090620004dc908062000671565b620004e891906200069d565b6103c0819052670de0b6b3a76400009062000504908062000671565b6200051091906200069d565b6103e0819052670de0b6b3a7640000906200052c908062000671565b6200053891906200069d565b610400819052670de0b6b3a76400009062000554908062000671565b6200056091906200069d565b610420819052670de0b6b3a7640000906200057c908062000671565b6200058891906200069d565b610440819052670de0b6b3a764000090620005a4908062000671565b620005b091906200069d565b6104605250620005c2905033620005d5565b6001600160a01b031661048052620006c0565b600080546001600160a01b038381166001600160a01b0319831681178455604051919092169283917f8be0079c531659141344cd1fd0a4f28419497f9722a3daafe3b4186f6b6457e09190a35050565b6000602082840312156200063857600080fd5b81516001600160a01b03811681146200065057600080fd5b9392505050565b6000602082840312156200066a57600080fd5b5051919050565b80820281158282048414176200069757634e487b7160e01b600052601160045260246000fd5b92915050565b600082620006bb57634e487b7160e01b600052601260045260246000fd5b500490565b60805160a05160c05160e05161010051610120516101405161016051610180516101a0516101c0516101e05161020051610220516102405161026051610280516102a0516102c0516102e05161030051610320516103405161036051610380516103a0516103c0516103e0516104005161042051610440516104605161048051611ac9620009516000396000818161020301528181610271015281816102ea01528181610430015261056e015260008181610fcf015261173d015260008181610f860152611701015260008181610f3d01526116c5015260008181610ef40152611689015260008181610eab015261164d015260008181610e620152611611015260008181610e1901526115d5015260008181610dd1015261159a015260008181610d89015261155f015260008181610d410152611524015260008181610cf901526114e9015260008181610cb101526114ae015260008181610c690152611473015260008181610c210152611438015260008181610bd901526113fd015260008181610b9201526113c3015260008181610b4b0152611389015260008181610b04015261134f015260008181610abd0152611315015260008181610a7601526112db015260008181610a2f01526112a10152600081816109e801526112670152600081816109a1015261122d01526000818161095b01526111f401526000818161091501526111bb0152600081816108cf0152611182015260008181610889015261114901526000818161084301526111100152600081816107fd01526110d70152600081816107b7015261109e015260006101b601526000818161017c01528181610737015281816107640152818161078b015281816110150152818161104201526110690152611ac96000f3fe608060405234801561001057600080fd5b50600436106100d45760003560e01c8063938b5f3211610081578063de91dd581161005b578063de91dd58146101d8578063f2fde38b146101eb578063ff512cd2146101fe57600080fd5b8063938b5f3214610177578063bbca1c8d1461019e578063bca9c3fc146101b157600080fd5b8063715018a6116100b2578063715018a61461011b57806379f29ded146101255780638da5cb5b1461013857600080fd5b806323393a70146100d9578063371d1a22146100f55780634e8d040f14610108575b600080fd5b6100e260015481565b6040519081526020015b60405180910390f35b6100e2610103366004611882565b610225565b6100e261011636600461189d565b6103e4565b61012361050e565b005b6100e26101333660046118d6565b610522565b60005473ffffffffffffffffffffffffffffffffffffffff165b60405173ffffffffffffffffffffffffffffffffffffffff90911681526020016100ec565b6100e27f000000000000000000000000000000000000000000000000000000000000000081565b6100e26101ac3660046118d6565b610642565b6100e27f000000000000000000000000000000000000000000000000000000000000000081565b6101236101e6366004611909565b610650565b6101236101f9366004611882565b61065d565b6101527f000000000000000000000000000000000000000000000000000000000000000081565b6040517feed75f6d00000000000000000000000000000000000000000000000000000000815273ffffffffffffffffffffffffffffffffffffffff8281166004830152600091829182917f00000000000000000000000000000000000000000000000000000000000000009091169063eed75f6d90602401606060405180830381865afa1580156102ba573d6000803e3d6000fd5b505050506040513d601f19601f820116820180604052508101906102de9190611937565b5091509150633b9aca007f000000000000000000000000000000000000000000000000000000000000000073ffffffffffffffffffffffffffffffffffffffff16632e6e10df6040518163ffffffff1660e01b8152600401602060405180830381865afa158015610353573d6000803e3d6000fd5b505050506040513d601f19601f820116820180604052508101906103779190611999565b61038184846119e1565b64ffffffffff1661039291906119ff565b61039c9190611a45565b6103ad9064ffffffffff8416611a80565b92506103dc836001546303c26700846103c691906119e1565b64ffffffffff166103d79190611a80565b610719565b949350505050565b6040517feed75f6d00000000000000000000000000000000000000000000000000000000815273ffffffffffffffffffffffffffffffffffffffff8581166004830152600091829182917f00000000000000000000000000000000000000000000000000000000000000009091169063eed75f6d90602401606060405180830381865afa158015610479573d6000803e3d6000fd5b505050506040513d601f19601f8201168201806040525081019061049d9190611937565b92509250506000856104b68464ffffffffff1642610719565b6104c09190611a80565b905061050260146104f26104ec8a75ffffffffffffffffffffffffffffffffffffffffffff8716611a80565b84610733565b6104fc9190611a45565b86611011565b98975050505050505050565b610516611763565b61052060006117e4565b565b6040517feed75f6d00000000000000000000000000000000000000000000000000000000815273ffffffffffffffffffffffffffffffffffffffff8481166004830152600091829182917f00000000000000000000000000000000000000000000000000000000000000009091169063eed75f6d90602401606060405180830381865afa1580156105b7573d6000803e3d6000fd5b505050506040513d601f19601f820116820180604052508101906105db9190611937565b92509250506000846105f48464ffffffffff1642610719565b6105fe9190611a80565b9050601461062d6106278875ffffffffffffffffffffffffffffffffffffffffffff8616611a80565b83610733565b6106379190611a45565b979650505050505050565b60006103dc848484426103e4565b610658611763565b600155565b610665611763565b73ffffffffffffffffffffffffffffffffffffffff811661070d576040517f08c379a000000000000000000000000000000000000000000000000000000000815260206004820152602660248201527f4f776e61626c653a206e6577206f776e657220697320746865207a65726f206160448201527f646472657373000000000000000000000000000000000000000000000000000060648201526084015b60405180910390fd5b610716816117e4565b50565b6000818311610728578161072a565b825b90505b92915050565b60007f000000000000000000000000000000000000000000000000000000000000000082106107625781610784565b7f00000000000000000000000000000000000000000000000000000000000000005b91508290507f0000000000000000000000000000000000000000000000000000000000000000820360018116156107f2577f0000000000000000000000000000000000000000000000000000000000000000670de0b6b3a76400008302816107ee576107ee611a16565b0491505b6002811615610838577f0000000000000000000000000000000000000000000000000000000000000000670de0b6b3a764000083028161083457610834611a16565b0491505b600481161561087e577f0000000000000000000000000000000000000000000000000000000000000000670de0b6b3a764000083028161087a5761087a611a16565b0491505b60088116156108c4577f0000000000000000000000000000000000000000000000000000000000000000670de0b6b3a76400008302816108c0576108c0611a16565b0491505b601081161561090a577f0000000000000000000000000000000000000000000000000000000000000000670de0b6b3a764000083028161090657610906611a16565b0491505b6020811615610950577f0000000000000000000000000000000000000000000000000000000000000000670de0b6b3a764000083028161094c5761094c611a16565b0491505b6040811615610996577f0000000000000000000000000000000000000000000000000000000000000000670de0b6b3a764000083028161099257610992611a16565b0491505b60808116156109dc577f0000000000000000000000000000000000000000000000000000000000000000670de0b6b3a76400008302816109d8576109d8611a16565b0491505b610100811615610a23577f0000000000000000000000000000000000000000000000000000000000000000670de0b6b3a7640000830281610a1f57610a1f611a16565b0491505b610200811615610a6a577f0000000000000000000000000000000000000000000000000000000000000000670de0b6b3a7640000830281610a6657610a66611a16565b0491505b610400811615610ab1577f0000000000000000000000000000000000000000000000000000000000000000670de0b6b3a7640000830281610aad57610aad611a16565b0491505b610800811615610af8577f0000000000000000000000000000000000000000000000000000000000000000670de0b6b3a7640000830281610af457610af4611a16565b0491505b611000811615610b3f577f0000000000000000000000000000000000000000000000000000000000000000670de0b6b3a7640000830281610b3b57610b3b611a16565b0491505b612000811615610b86577f0000000000000000000000000000000000000000000000000000000000000000670de0b6b3a7640000830281610b8257610b82611a16565b0491505b614000811615610bcd577f0000000000000000000000000000000000000000000000000000000000000000670de0b6b3a7640000830281610bc957610bc9611a16565b0491505b618000811615610c14577f0000000000000000000000000000000000000000000000000000000000000000670de0b6b3a7640000830281610c1057610c10611a16565b0491505b62010000811615610c5c577f0000000000000000000000000000000000000000000000000000000000000000670de0b6b3a7640000830281610c5857610c58611a16565b0491505b62020000811615610ca4577f0000000000000000000000000000000000000000000000000000000000000000670de0b6b3a7640000830281610ca057610ca0611a16565b0491505b62040000811615610cec577f0000000000000000000000000000000000000000000000000000000000000000670de0b6b3a7640000830281610ce857610ce8611a16565b0491505b62080000811615610d34577f0000000000000000000000000000000000000000000000000000000000000000670de0b6b3a7640000830281610d3057610d30611a16565b0491505b62100000811615610d7c577f0000000000000000000000000000000000000000000000000000000000000000670de0b6b3a7640000830281610d7857610d78611a16565b0491505b62200000811615610dc4577f0000000000000000000000000000000000000000000000000000000000000000670de0b6b3a7640000830281610dc057610dc0611a16565b0491505b62400000811615610e0c577f0000000000000000000000000000000000000000000000000000000000000000670de0b6b3a7640000830281610e0857610e08611a16565b0491505b62800000811615610e54577f0000000000000000000000000000000000000000000000000000000000000000670de0b6b3a7640000830281610e5057610e50611a16565b0491505b6301000000811615610e9d577f0000000000000000000000000000000000000000000000000000000000000000670de0b6b3a7640000830281610e9957610e99611a16565b0491505b6302000000811615610ee6577f0000000000000000000000000000000000000000000000000000000000000000670de0b6b3a7640000830281610ee257610ee2611a16565b0491505b6304000000811615610f2f577f0000000000000000000000000000000000000000000000000000000000000000670de0b6b3a7640000830281610f2b57610f2b611a16565b0491505b6308000000811615610f78577f0000000000000000000000000000000000000000000000000000000000000000670de0b6b3a7640000830281610f7457610f74611a16565b0491505b6310000000811615610fc1577f0000000000000000000000000000000000000000000000000000000000000000670de0b6b3a7640000830281610fbd57610fbd611a16565b0491505b632000000081161561100a577f0000000000000000000000000000000000000000000000000000000000000000670de0b6b3a764000083028161100657611006611a16565b0491505b5092915050565b60007f000000000000000000000000000000000000000000000000000000000000000082106110405781611062565b7f00000000000000000000000000000000000000000000000000000000000000005b91508290507f0000000000000000000000000000000000000000000000000000000000000000820360018116156110c357670de0b6b3a76400007f000000000000000000000000000000000000000000000000000000000000000083020491505b60028116156110fc57670de0b6b3a76400007f000000000000000000000000000000000000000000000000000000000000000083020491505b600481161561113557670de0b6b3a76400007f000000000000000000000000000000000000000000000000000000000000000083020491505b600881161561116e57670de0b6b3a76400007f000000000000000000000000000000000000000000000000000000000000000083020491505b60108116156111a757670de0b6b3a76400007f000000000000000000000000000000000000000000000000000000000000000083020491505b60208116156111e057670de0b6b3a76400007f000000000000000000000000000000000000000000000000000000000000000083020491505b604081161561121957670de0b6b3a76400007f000000000000000000000000000000000000000000000000000000000000000083020491505b608081161561125257670de0b6b3a76400007f000000000000000000000000000000000000000000000000000000000000000083020491505b61010081161561128c57670de0b6b3a76400007f000000000000000000000000000000000000000000000000000000000000000083020491505b6102008116156112c657670de0b6b3a76400007f000000000000000000000000000000000000000000000000000000000000000083020491505b61040081161561130057670de0b6b3a76400007f000000000000000000000000000000000000000000000000000000000000000083020491505b61080081161561133a57670de0b6b3a76400007f000000000000000000000000000000000000000000000000000000000000000083020491505b61100081161561137457670de0b6b3a76400007f000000000000000000000000000000000000000000000000000000000000000083020491505b6120008116156113ae57670de0b6b3a76400007f000000000000000000000000000000000000000000000000000000000000000083020491505b6140008116156113e857670de0b6b3a76400007f000000000000000000000000000000000000000000000000000000000000000083020491505b61800081161561142257670de0b6b3a76400007f000000000000000000000000000000000000000000000000000000000000000083020491505b6201000081161561145d57670de0b6b3a76400007f000000000000000000000000000000000000000000000000000000000000000083020491505b6202000081161561149857670de0b6b3a76400007f000000000000000000000000000000000000000000000000000000000000000083020491505b620400008116156114d357670de0b6b3a76400007f000000000000000000000000000000000000000000000000000000000000000083020491505b6208000081161561150e57670de0b6b3a76400007f000000000000000000000000000000000000000000000000000000000000000083020491505b6210000081161561154957670de0b6b3a76400007f000000000000000000000000000000000000000000000000000000000000000083020491505b6220000081161561158457670de0b6b3a76400007f000000000000000000000000000000000000000000000000000000000000000083020491505b624000008116156115bf57670de0b6b3a76400007f000000000000000000000000000000000000000000000000000000000000000083020491505b628000008116156115fa57670de0b6b3a76400007f000000000000000000000000000000000000000000000000000000000000000083020491505b630100000081161561163657670de0b6b3a76400007f000000000000000000000000000000000000000000000000000000000000000083020491505b630200000081161561167257670de0b6b3a76400007f000000000000000000000000000000000000000000000000000000000000000083020491505b63040000008116156116ae57670de0b6b3a76400007f000000000000000000000000000000000000000000000000000000000000000083020491505b63080000008116156116ea57670de0b6b3a76400007f000000000000000000000000000000000000000000000000000000000000000083020491505b631000000081161561172657670de0b6b3a76400007f000000000000000000000000000000000000000000000000000000000000000083020491505b632000000081161561100a57670de0b6b3a76400007f00000000000000000000000000000000000000000000000000000000000000008302611006565b60005473ffffffffffffffffffffffffffffffffffffffff163314610520576040517f08c379a000000000000000000000000000000000000000000000000000000000815260206004820181905260248201527f4f776e61626c653a2063616c6c6572206973206e6f7420746865206f776e65726044820152606401610704565b6000805473ffffffffffffffffffffffffffffffffffffffff8381167fffffffffffffffffffffffff0000000000000000000000000000000000000000831681178455604051919092169283917f8be0079c531659141344cd1fd0a4f28419497f9722a3daafe3b4186f6b6457e09190a35050565b803573ffffffffffffffffffffffffffffffffffffffff8116811461187d57600080fd5b919050565b60006020828403121561189457600080fd5b61072a82611859565b600080600080608085870312156118b357600080fd5b6118bc85611859565b966020860135965060408601359560600135945092505050565b6000806000606084860312156118eb57600080fd5b6118f484611859565b95602085013595506040909401359392505050565b60006020828403121561191b57600080fd5b5035919050565b805164ffffffffff8116811461187d57600080fd5b60008060006060848603121561194c57600080fd5b61195584611922565b925061196360208501611922565b9150604084015175ffffffffffffffffffffffffffffffffffffffffffff8116811461198e57600080fd5b809150509250925092565b6000602082840312156119ab57600080fd5b5051919050565b7f4e487b7100000000000000000000000000000000000000000000000000000000600052601160045260246000fd5b64ffffffffff82811682821603908082111561100a5761100a6119b2565b808202811582820484141761072d5761072d6119b2565b7f4e487b7100000000000000000000000000000000000000000000000000000000600052601260045260246000fd5b600082611a7b577f4e487b7100000000000000000000000000000000000000000000000000000000600052601260045260246000fd5b500490565b8082018082111561072d5761072d6119b256fea2646970667358221220baeb8531edd4624d29641fa320dbb686d3dd0418a18ded7ff639b2bda42e59ef64736f6c63430008110033",
  "devdoc": {
    "kind": "dev",
    "methods": {
      "owner()": {
        "details": "Returns the address of the current owner."
      },
      "renounceOwnership()": {
        "details": "Leaves the contract without owner. It will not be possible to call `onlyOwner` functions anymore. Can only be called by the current owner. NOTE: Renouncing ownership will leave the contract without an owner, thereby removing any functionality that is only available to the owner."
      },
      "transferOwnership(address)": {
        "details": "Transfers ownership of the contract to a new account (`newOwner`). Can only be called by the current owner."
      }
    },
    "version": 1
  },
  "userdoc": {
    "kind": "user",
    "methods": {},
    "version": 1
  },
  "storageLayout": {
    "storage": [
      {
        "astId": 1786,
        "contract": "contracts/helpers/St1inchPreview.sol:St1inchPreview",
        "label": "_owner",
        "offset": 0,
        "slot": "0",
        "type": "t_address"
      },
      {
        "astId": 4936,
        "contract": "contracts/helpers/St1inchPreview.sol:St1inchPreview",
        "label": "durationUntilMaxAllowedLoss",
        "offset": 0,
        "slot": "1",
        "type": "t_uint256"
      }
    ],
    "types": {
      "t_address": {
        "encoding": "inplace",
        "label": "address",
        "numberOfBytes": "20"
      },
      "t_uint256": {
        "encoding": "inplace",
        "label": "uint256",
        "numberOfBytes": "32"
      }
    }
  }
}