{
  "address": "0x4ac3906b0a2198Cb1fB7c1D3Cf59109CE9Ef61A2",
  "abi": [
    {
      "inputs": [
        {
          "internalType": "contract St1inch",
          "name": "st1INCH_",
          "type": "address"
        }
      ],
      "stateMutability": "nonpayable",
      "type": "constructor"
    },
    {
      "inputs": [],
      "name": "expBase",
      "outputs": [
        {
          "internalType": "uint256",
          "name": "",
          "type": "uint256"
        }
      ],
      "stateMutability": "view",
      "type": "function"
    },
    {
      "inputs": [],
      "name": "origin",
      "outputs": [
        {
          "internalType": "uint256",
          "name": "",
          "type": "uint256"
        }
      ],
      "stateMutability": "view",
      "type": "function"
    },
    {
      "inputs": [
        {
          "internalType": "address",
          "name": "account",
          "type": "address"
        },
        {
          "internalType": "uint256",
          "name": "amount",
          "type": "uint256"
        },
        {
          "internalType": "uint256",
          "name": "duration",
          "type": "uint256"
        }
      ],
      "name": "previewBalance",
      "outputs": [
        {
          "internalType": "uint256",
          "name": "",
          "type": "uint256"
        }
      ],
      "stateMutability": "view",
      "type": "function"
    },
    {
      "inputs": [
        {
          "internalType": "address",
          "name": "account",
          "type": "address"
        },
        {
          "internalType": "uint256",
          "name": "amount",
          "type": "uint256"
        },
        {
          "internalType": "uint256",
          "name": "duration",
          "type": "uint256"
        }
      ],
      "name": "previewPowerOf",
      "outputs": [
        {
          "internalType": "uint256",
          "name": "",
          "type": "uint256"
        }
      ],
      "stateMutability": "view",
      "type": "function"
    },
    {
      "inputs": [
        {
          "internalType": "address",
          "name": "account",
          "type": "address"
        },
        {
          "internalType": "uint256",
          "name": "amount",
          "type": "uint256"
        },
        {
          "internalType": "uint256",
          "name": "duration",
          "type": "uint256"
        },
        {
          "internalType": "uint256",
          "name": "timestamp",
          "type": "uint256"
        }
      ],
      "name": "previewPowerOfAtTime",
      "outputs": [
        {
          "internalType": "uint256",
          "name": "",
          "type": "uint256"
        }
      ],
      "stateMutability": "view",
      "type": "function"
    },
    {
      "inputs": [],
      "name": "st1INCH",
      "outputs": [
        {
          "internalType": "contract St1inch",
          "name": "",
          "type": "address"
        }
      ],
      "stateMutability": "view",
      "type": "function"
    }
  ],
  "transactionHash": "0x6732a03aa39760d917fa47d83ed418b2928a860f1fee48bdd732c46c9d2a9dac",
  "args": [
    "0xF93cc6F5ac8E3071519b2c0b90FFb76a49073E3e"
  ],
  "numDeployments": 1,
  "solcInputHash": "b4a440d3718e7885b71b3385abda46a8",
  "bytecode": "0x6104a06040523480156200001257600080fd5b5060405162001ddd38038062001ddd8339810160408190526200003591620005a7565b806001600160a01b031663bca9c3fc6040518163ffffffff1660e01b8152600401602060405180830381865afa15801562000074573d6000803e3d6000fd5b505050506040513d601f19601f820116820180604052508101906200009a9190620005d9565b816001600160a01b031663938b5f326040518163ffffffff1660e01b8152600401602060405180830381865afa158015620000d9573d6000803e3d6000fd5b505050506040513d601f19601f82011682018060405250810190620000ff9190620005d9565b608081905260a082905260c0829052670de0b6b3a7640000620001238380620005f3565b6200012f91906200061f565b60e0819052670de0b6b3a7640000906200014a9080620005f3565b6200015691906200061f565b610100819052670de0b6b3a764000090620001729080620005f3565b6200017e91906200061f565b610120819052670de0b6b3a7640000906200019a9080620005f3565b620001a691906200061f565b610140819052670de0b6b3a764000090620001c29080620005f3565b620001ce91906200061f565b610160819052670de0b6b3a764000090620001ea9080620005f3565b620001f691906200061f565b610180819052670de0b6b3a764000090620002129080620005f3565b6200021e91906200061f565b6101a0819052670de0b6b3a7640000906200023a9080620005f3565b6200024691906200061f565b6101c0819052670de0b6b3a764000090620002629080620005f3565b6200026e91906200061f565b6101e0819052670de0b6b3a7640000906200028a9080620005f3565b6200029691906200061f565b610200819052670de0b6b3a764000090620002b29080620005f3565b620002be91906200061f565b610220819052670de0b6b3a764000090620002da9080620005f3565b620002e691906200061f565b610240819052670de0b6b3a764000090620003029080620005f3565b6200030e91906200061f565b610260819052670de0b6b3a7640000906200032a9080620005f3565b6200033691906200061f565b610280819052670de0b6b3a764000090620003529080620005f3565b6200035e91906200061f565b6102a0819052670de0b6b3a7640000906200037a9080620005f3565b6200038691906200061f565b6102c0819052670de0b6b3a764000090620003a29080620005f3565b620003ae91906200061f565b6102e0819052670de0b6b3a764000090620003ca9080620005f3565b620003d691906200061f565b610300819052670de0b6b3a764000090620003f29080620005f3565b620003fe91906200061f565b610320819052670de0b6b3a7640000906200041a9080620005f3565b6200042691906200061f565b610340819052670de0b6b3a764000090620004429080620005f3565b6200044e91906200061f565b610360819052670de0b6b3a7640000906200046a9080620005f3565b6200047691906200061f565b610380819052670de0b6b3a764000090620004929080620005f3565b6200049e91906200061f565b6103a0819052670de0b6b3a764000090620004ba9080620005f3565b620004c691906200061f565b6103c0819052670de0b6b3a764000090620004e29080620005f3565b620004ee91906200061f565b6103e0819052670de0b6b3a7640000906200050a9080620005f3565b6200051691906200061f565b610400819052670de0b6b3a764000090620005329080620005f3565b6200053e91906200061f565b610420819052670de0b6b3a7640000906200055a9080620005f3565b6200056691906200061f565b610440819052670de0b6b3a764000090620005829080620005f3565b6200058e91906200061f565b6104605250506001600160a01b03166104805262000642565b600060208284031215620005ba57600080fd5b81516001600160a01b0381168114620005d257600080fd5b9392505050565b600060208284031215620005ec57600080fd5b5051919050565b80820281158282048414176200061957634e487b7160e01b600052601160045260246000fd5b92915050565b6000826200063d57634e487b7160e01b600052601260045260246000fd5b500490565b60805160a05160c05160e05161010051610120516101405161016051610180516101a0516101c0516101e05161020051610220516102405161026051610280516102a0516102c0516102e05161030051610320516103405161036051610380516103a0516103c0516103e0516104005161042051610440516104605161048051611536620008a760003960008181610116015281816101a901526102d6015260008181610c24015261133d015260008181610bdb0152611301015260008181610b9201526112c5015260008181610b490152611289015260008181610b00015261124d015260008181610ab70152611211015260008181610a6e01526111d5015260008181610a26015261119a0152600081816109de015261115f015260008181610996015261112401526000818161094e01526110e901526000818161090601526110ae0152600081816108be0152611073015260008181610876015261103801526000818161082e0152610ffd0152600081816107e70152610fc30152600081816107a00152610f890152600081816107590152610f4f0152600081816107120152610f150152600081816106cb0152610edb0152600081816106840152610ea101526000818161063d0152610e670152600081816105f60152610e2d0152600081816105b00152610df401526000818161056a0152610dbb0152600081816105240152610d820152600081816104de0152610d490152600081816104980152610d100152600081816104520152610cd701526000818161040c0152610c9e0152600060ef01526000818160b5015281816103e00152610c6901526115366000f3fe608060405234801561001057600080fd5b50600436106100725760003560e01c8063bbca1c8d11610050578063bbca1c8d146100d7578063bca9c3fc146100ea578063ff512cd21461011157600080fd5b80634e8d040f1461007757806379f29ded1461009d578063938b5f32146100b0575b600080fd5b61008a61008536600461138c565b61015d565b6040519081526020015b60405180910390f35b61008a6100ab3660046113c5565b61028a565b61008a7f000000000000000000000000000000000000000000000000000000000000000081565b61008a6100e53660046113c5565b6103ad565b61008a7f000000000000000000000000000000000000000000000000000000000000000081565b6101387f000000000000000000000000000000000000000000000000000000000000000081565b60405173ffffffffffffffffffffffffffffffffffffffff9091168152602001610094565b6040517feed75f6d00000000000000000000000000000000000000000000000000000000815273ffffffffffffffffffffffffffffffffffffffff8581166004830152600091829182917f00000000000000000000000000000000000000000000000000000000000000009091169063eed75f6d906024016040805180830381865afa1580156101f1573d6000803e3d6000fd5b505050506040513d601f19601f8201168201806040525081019061021591906113f8565b9150915060008561022d8464ffffffffff16426103c3565b610237919061145c565b905061027e600a61026e6102688a7affffffffffffffffffffffffffffffffffffffffffffffffffffff871661145c565b846103dd565b61027891906114c5565b86610c66565b98975050505050505050565b6040517feed75f6d00000000000000000000000000000000000000000000000000000000815273ffffffffffffffffffffffffffffffffffffffff8481166004830152600091829182917f00000000000000000000000000000000000000000000000000000000000000009091169063eed75f6d906024016040805180830381865afa15801561031e573d6000803e3d6000fd5b505050506040513d601f19601f8201168201806040525081019061034291906113f8565b9150915060008461035a8464ffffffffff16426103c3565b610364919061145c565b9050600a610398610392887affffffffffffffffffffffffffffffffffffffffffffffffffffff861661145c565b836103dd565b6103a291906114c5565b979650505050505050565b60006103bb8484844261015d565b949350505050565b60008183116103d257816103d4565b825b90505b92915050565b817f000000000000000000000000000000000000000000000000000000000000000082036001811615610447577f000000000000000000000000000000000000000000000000000000000000000082670de0b6b3a7640000028161044357610443611496565b0491505b600281161561048d577f000000000000000000000000000000000000000000000000000000000000000082670de0b6b3a7640000028161048957610489611496565b0491505b60048116156104d3577f000000000000000000000000000000000000000000000000000000000000000082670de0b6b3a764000002816104cf576104cf611496565b0491505b6008811615610519577f000000000000000000000000000000000000000000000000000000000000000082670de0b6b3a7640000028161051557610515611496565b0491505b601081161561055f577f000000000000000000000000000000000000000000000000000000000000000082670de0b6b3a7640000028161055b5761055b611496565b0491505b60208116156105a5577f000000000000000000000000000000000000000000000000000000000000000082670de0b6b3a764000002816105a1576105a1611496565b0491505b60408116156105eb577f000000000000000000000000000000000000000000000000000000000000000082670de0b6b3a764000002816105e7576105e7611496565b0491505b6080811615610631577f000000000000000000000000000000000000000000000000000000000000000082670de0b6b3a7640000028161062d5761062d611496565b0491505b610100811615610678577f000000000000000000000000000000000000000000000000000000000000000082670de0b6b3a7640000028161067457610674611496565b0491505b6102008116156106bf577f000000000000000000000000000000000000000000000000000000000000000082670de0b6b3a764000002816106bb576106bb611496565b0491505b610400811615610706577f000000000000000000000000000000000000000000000000000000000000000082670de0b6b3a7640000028161070257610702611496565b0491505b61080081161561074d577f000000000000000000000000000000000000000000000000000000000000000082670de0b6b3a7640000028161074957610749611496565b0491505b611000811615610794577f000000000000000000000000000000000000000000000000000000000000000082670de0b6b3a7640000028161079057610790611496565b0491505b6120008116156107db577f000000000000000000000000000000000000000000000000000000000000000082670de0b6b3a764000002816107d7576107d7611496565b0491505b614000811615610822577f000000000000000000000000000000000000000000000000000000000000000082670de0b6b3a7640000028161081e5761081e611496565b0491505b618000811615610869577f000000000000000000000000000000000000000000000000000000000000000082670de0b6b3a7640000028161086557610865611496565b0491505b620100008116156108b1577f000000000000000000000000000000000000000000000000000000000000000082670de0b6b3a764000002816108ad576108ad611496565b0491505b620200008116156108f9577f000000000000000000000000000000000000000000000000000000000000000082670de0b6b3a764000002816108f5576108f5611496565b0491505b62040000811615610941577f000000000000000000000000000000000000000000000000000000000000000082670de0b6b3a7640000028161093d5761093d611496565b0491505b62080000811615610989577f000000000000000000000000000000000000000000000000000000000000000082670de0b6b3a7640000028161098557610985611496565b0491505b621000008116156109d1577f000000000000000000000000000000000000000000000000000000000000000082670de0b6b3a764000002816109cd576109cd611496565b0491505b62200000811615610a19577f000000000000000000000000000000000000000000000000000000000000000082670de0b6b3a76400000281610a1557610a15611496565b0491505b62400000811615610a61577f000000000000000000000000000000000000000000000000000000000000000082670de0b6b3a76400000281610a5d57610a5d611496565b0491505b62800000811615610aa9577f000000000000000000000000000000000000000000000000000000000000000082670de0b6b3a76400000281610aa557610aa5611496565b0491505b6301000000811615610af2577f000000000000000000000000000000000000000000000000000000000000000082670de0b6b3a76400000281610aee57610aee611496565b0491505b6302000000811615610b3b577f000000000000000000000000000000000000000000000000000000000000000082670de0b6b3a76400000281610b3757610b37611496565b0491505b6304000000811615610b84577f000000000000000000000000000000000000000000000000000000000000000082670de0b6b3a76400000281610b8057610b80611496565b0491505b6308000000811615610bcd577f000000000000000000000000000000000000000000000000000000000000000082670de0b6b3a76400000281610bc957610bc9611496565b0491505b6310000000811615610c16577f000000000000000000000000000000000000000000000000000000000000000082670de0b6b3a76400000281610c1257610c12611496565b0491505b6320000000811615610c5f577f000000000000000000000000000000000000000000000000000000000000000082670de0b6b3a76400000281610c5b57610c5b611496565b0491505b5092915050565b817f000000000000000000000000000000000000000000000000000000000000000082036001811615610cc357670de0b6b3a76400007f000000000000000000000000000000000000000000000000000000000000000083020491505b6002811615610cfc57670de0b6b3a76400007f000000000000000000000000000000000000000000000000000000000000000083020491505b6004811615610d3557670de0b6b3a76400007f000000000000000000000000000000000000000000000000000000000000000083020491505b6008811615610d6e57670de0b6b3a76400007f000000000000000000000000000000000000000000000000000000000000000083020491505b6010811615610da757670de0b6b3a76400007f000000000000000000000000000000000000000000000000000000000000000083020491505b6020811615610de057670de0b6b3a76400007f000000000000000000000000000000000000000000000000000000000000000083020491505b6040811615610e1957670de0b6b3a76400007f000000000000000000000000000000000000000000000000000000000000000083020491505b6080811615610e5257670de0b6b3a76400007f000000000000000000000000000000000000000000000000000000000000000083020491505b610100811615610e8c57670de0b6b3a76400007f000000000000000000000000000000000000000000000000000000000000000083020491505b610200811615610ec657670de0b6b3a76400007f000000000000000000000000000000000000000000000000000000000000000083020491505b610400811615610f0057670de0b6b3a76400007f000000000000000000000000000000000000000000000000000000000000000083020491505b610800811615610f3a57670de0b6b3a76400007f000000000000000000000000000000000000000000000000000000000000000083020491505b611000811615610f7457670de0b6b3a76400007f000000000000000000000000000000000000000000000000000000000000000083020491505b612000811615610fae57670de0b6b3a76400007f000000000000000000000000000000000000000000000000000000000000000083020491505b614000811615610fe857670de0b6b3a76400007f000000000000000000000000000000000000000000000000000000000000000083020491505b61800081161561102257670de0b6b3a76400007f000000000000000000000000000000000000000000000000000000000000000083020491505b6201000081161561105d57670de0b6b3a76400007f000000000000000000000000000000000000000000000000000000000000000083020491505b6202000081161561109857670de0b6b3a76400007f000000000000000000000000000000000000000000000000000000000000000083020491505b620400008116156110d357670de0b6b3a76400007f000000000000000000000000000000000000000000000000000000000000000083020491505b6208000081161561110e57670de0b6b3a76400007f000000000000000000000000000000000000000000000000000000000000000083020491505b6210000081161561114957670de0b6b3a76400007f000000000000000000000000000000000000000000000000000000000000000083020491505b6220000081161561118457670de0b6b3a76400007f000000000000000000000000000000000000000000000000000000000000000083020491505b624000008116156111bf57670de0b6b3a76400007f000000000000000000000000000000000000000000000000000000000000000083020491505b628000008116156111fa57670de0b6b3a76400007f000000000000000000000000000000000000000000000000000000000000000083020491505b630100000081161561123657670de0b6b3a76400007f000000000000000000000000000000000000000000000000000000000000000083020491505b630200000081161561127257670de0b6b3a76400007f000000000000000000000000000000000000000000000000000000000000000083020491505b63040000008116156112ae57670de0b6b3a76400007f000000000000000000000000000000000000000000000000000000000000000083020491505b63080000008116156112ea57670de0b6b3a76400007f000000000000000000000000000000000000000000000000000000000000000083020491505b631000000081161561132657670de0b6b3a76400007f000000000000000000000000000000000000000000000000000000000000000083020491505b6320000000811615610c5f57670de0b6b3a76400007f00000000000000000000000000000000000000000000000000000000000000008302610c5b565b803573ffffffffffffffffffffffffffffffffffffffff8116811461138757600080fd5b919050565b600080600080608085870312156113a257600080fd5b6113ab85611363565b966020860135965060408601359560600135945092505050565b6000806000606084860312156113da57600080fd5b6113e384611363565b95602085013595506040909401359392505050565b6000806040838503121561140b57600080fd5b825164ffffffffff8116811461142057600080fd5b60208401519092507affffffffffffffffffffffffffffffffffffffffffffffffffffff8116811461145157600080fd5b809150509250929050565b808201808211156103d7577f4e487b7100000000000000000000000000000000000000000000000000000000600052601160045260246000fd5b7f4e487b7100000000000000000000000000000000000000000000000000000000600052601260045260246000fd5b6000826114fb577f4e487b7100000000000000000000000000000000000000000000000000000000600052601260045260246000fd5b50049056fea264697066735822122079e4ff6c34bbdaedc3712d7a1686ddf2f158a72a5710f71a59d36b32cc38580764736f6c63430008110033",
  "devdoc": {
    "kind": "dev",
    "methods": {},
    "version": 1
  },
  "userdoc": {
    "kind": "user",
    "methods": {},
    "version": 1
  },
  "storageLayout": {
    "storage": [],
    "types": null
  }
}