{
  "address": "0x9A0C8Ff858d273f57072D714bca7411D717501D7",
  "abi": [
    {
      "inputs": [
        {
          "internalType": "contract IERC20",
          "name": "oneInch_",
          "type": "address"
        },
        {
          "internalType": "uint256",
          "name": "expBase_",
          "type": "uint256"
        }
      ],
      "stateMutability": "nonpayable",
      "type": "constructor"
    },
    {
      "inputs": [],
      "name": "ApproveDisabled",
      "type": "error"
    },
    {
      "inputs": [],
      "name": "DefaultFarmTokenMismatch",
      "type": "error"
    },
    {
      "inputs": [],
      "name": "DepositsDisabled",
      "type": "error"
    },
    {
      "inputs": [],
      "name": "ExpBaseTooBig",
      "type": "error"
    },
    {
      "inputs": [],
      "name": "ExpBaseTooSmall",
      "type": "error"
    },
    {
      "inputs": [],
      "name": "IndexOutOfBounds",
      "type": "error"
    },
    {
      "inputs": [],
      "name": "InsufficientGas",
      "type": "error"
    },
    {
      "inputs": [],
      "name": "InvalidPodAddress",
      "type": "error"
    },
    {
      "inputs": [],
      "name": "LockTimeLessMinLock",
      "type": "error"
    },
    {
      "inputs": [],
      "name": "LockTimeMoreMaxLock",
      "type": "error"
    },
    {
      "inputs": [],
      "name": "LossIsTooBig",
      "type": "error"
    },
    {
      "inputs": [],
      "name": "MaxLossIsNotMet",
      "type": "error"
    },
    {
      "inputs": [],
      "name": "MaxLossOverflow",
      "type": "error"
    },
    {
      "inputs": [],
      "name": "MinLockPeriodRatioNotReached",
      "type": "error"
    },
    {
      "inputs": [],
      "name": "MinReturnIsNotMet",
      "type": "error"
    },
    {
      "inputs": [],
      "name": "OriginInTheFuture",
      "type": "error"
    },
    {
      "inputs": [],
      "name": "OutputArrayTooSmall",
      "type": "error"
    },
    {
      "inputs": [],
      "name": "PodAlreadyAdded",
      "type": "error"
    },
    {
      "inputs": [],
      "name": "PodNotFound",
      "type": "error"
    },
    {
      "inputs": [],
      "name": "PodsLimitReachedForAccount",
      "type": "error"
    },
    {
      "inputs": [],
      "name": "PopFromEmptyArray",
      "type": "error"
    },
    {
      "inputs": [],
      "name": "ReentrantCall",
      "type": "error"
    },
    {
      "inputs": [],
      "name": "RescueAmountIsTooLarge",
      "type": "error"
    },
    {
      "inputs": [],
      "name": "SafePermitBadLength",
      "type": "error"
    },
    {
      "inputs": [],
      "name": "SafeTransferFailed",
      "type": "error"
    },
    {
      "inputs": [],
      "name": "SafeTransferFromFailed",
      "type": "error"
    },
    {
      "inputs": [],
      "name": "StakeUnlocked",
      "type": "error"
    },
    {
      "inputs": [],
      "name": "TransferDisabled",
      "type": "error"
    },
    {
      "inputs": [],
      "name": "UnlockTimeHasNotCome",
      "type": "error"
    },
    {
      "inputs": [],
      "name": "ZeroAddress",
      "type": "error"
    },
    {
      "inputs": [],
      "name": "ZeroPodsLimit",
      "type": "error"
    },
    {
      "anonymous": false,
      "inputs": [
        {
          "indexed": true,
          "internalType": "address",
          "name": "owner",
          "type": "address"
        },
        {
          "indexed": true,
          "internalType": "address",
          "name": "spender",
          "type": "address"
        },
        {
          "indexed": false,
          "internalType": "uint256",
          "name": "value",
          "type": "uint256"
        }
      ],
      "name": "Approval",
      "type": "event"
    },
    {
      "anonymous": false,
      "inputs": [
        {
          "indexed": false,
          "internalType": "address",
          "name": "defaultFarm",
          "type": "address"
        }
      ],
      "name": "DefaultFarmSet",
      "type": "event"
    },
    {
      "anonymous": false,
      "inputs": [
        {
          "indexed": false,
          "internalType": "bool",
          "name": "status",
          "type": "bool"
        }
      ],
      "name": "EmergencyExitSet",
      "type": "event"
    },
    {
      "anonymous": false,
      "inputs": [
        {
          "indexed": false,
          "internalType": "address",
          "name": "receiver",
          "type": "address"
        }
      ],
      "name": "FeeReceiverSet",
      "type": "event"
    },
    {
      "anonymous": false,
      "inputs": [
        {
          "indexed": false,
          "internalType": "uint256",
          "name": "ratio",
          "type": "uint256"
        }
      ],
      "name": "MaxLossRatioSet",
      "type": "event"
    },
    {
      "anonymous": false,
      "inputs": [
        {
          "indexed": false,
          "internalType": "uint256",
          "name": "ratio",
          "type": "uint256"
        }
      ],
      "name": "MinLockPeriodRatioSet",
      "type": "event"
    },
    {
      "anonymous": false,
      "inputs": [
        {
          "indexed": true,
          "internalType": "address",
          "name": "previousOwner",
          "type": "address"
        },
        {
          "indexed": true,
          "internalType": "address",
          "name": "newOwner",
          "type": "address"
        }
      ],
      "name": "OwnershipTransferred",
      "type": "event"
    },
    {
      "anonymous": false,
      "inputs": [
        {
          "indexed": false,
          "internalType": "address",
          "name": "account",
          "type": "address"
        },
        {
          "indexed": false,
          "internalType": "address",
          "name": "pod",
          "type": "address"
        }
      ],
      "name": "PodAdded",
      "type": "event"
    },
    {
      "anonymous": false,
      "inputs": [
        {
          "indexed": false,
          "internalType": "address",
          "name": "account",
          "type": "address"
        },
        {
          "indexed": false,
          "internalType": "address",
          "name": "pod",
          "type": "address"
        }
      ],
      "name": "PodRemoved",
      "type": "event"
    },
    {
      "anonymous": false,
      "inputs": [
        {
          "indexed": true,
          "internalType": "address",
          "name": "from",
          "type": "address"
        },
        {
          "indexed": true,
          "internalType": "address",
          "name": "to",
          "type": "address"
        },
        {
          "indexed": false,
          "internalType": "uint256",
          "name": "value",
          "type": "uint256"
        }
      ],
      "name": "Transfer",
      "type": "event"
    },
    {
      "inputs": [],
      "name": "MAX_LOCK_PERIOD",
      "outputs": [
        {
          "internalType": "uint256",
          "name": "",
          "type": "uint256"
        }
      ],
      "stateMutability": "view",
      "type": "function"
    },
    {
      "inputs": [],
      "name": "MIN_LOCK_PERIOD",
      "outputs": [
        {
          "internalType": "uint256",
          "name": "",
          "type": "uint256"
        }
      ],
      "stateMutability": "view",
      "type": "function"
    },
    {
      "inputs": [
        {
          "internalType": "address",
          "name": "pod",
          "type": "address"
        }
      ],
      "name": "addPod",
      "outputs": [],
      "stateMutability": "nonpayable",
      "type": "function"
    },
    {
      "inputs": [
        {
          "internalType": "address",
          "name": "owner",
          "type": "address"
        },
        {
          "internalType": "address",
          "name": "spender",
          "type": "address"
        }
      ],
      "name": "allowance",
      "outputs": [
        {
          "internalType": "uint256",
          "name": "",
          "type": "uint256"
        }
      ],
      "stateMutability": "view",
      "type": "function"
    },
    {
      "inputs": [
        {
          "internalType": "address",
          "name": "",
          "type": "address"
        },
        {
          "internalType": "uint256",
          "name": "",
          "type": "uint256"
        }
      ],
      "name": "approve",
      "outputs": [
        {
          "internalType": "bool",
          "name": "",
          "type": "bool"
        }
      ],
      "stateMutability": "pure",
      "type": "function"
    },
    {
      "inputs": [
        {
          "internalType": "address",
          "name": "account",
          "type": "address"
        }
      ],
      "name": "balanceOf",
      "outputs": [
        {
          "internalType": "uint256",
          "name": "",
          "type": "uint256"
        }
      ],
      "stateMutability": "view",
      "type": "function"
    },
    {
      "inputs": [],
      "name": "decimals",
      "outputs": [
        {
          "internalType": "uint8",
          "name": "",
          "type": "uint8"
        }
      ],
      "stateMutability": "view",
      "type": "function"
    },
    {
      "inputs": [
        {
          "internalType": "address",
          "name": "",
          "type": "address"
        },
        {
          "internalType": "uint256",
          "name": "",
          "type": "uint256"
        }
      ],
      "name": "decreaseAllowance",
      "outputs": [
        {
          "internalType": "bool",
          "name": "",
          "type": "bool"
        }
      ],
      "stateMutability": "pure",
      "type": "function"
    },
    {
      "inputs": [],
      "name": "defaultFarm",
      "outputs": [
        {
          "internalType": "address",
          "name": "",
          "type": "address"
        }
      ],
      "stateMutability": "view",
      "type": "function"
    },
    {
      "inputs": [
        {
          "internalType": "uint256",
          "name": "amount",
          "type": "uint256"
        },
        {
          "internalType": "uint256",
          "name": "duration",
          "type": "uint256"
        }
      ],
      "name": "deposit",
      "outputs": [],
      "stateMutability": "nonpayable",
      "type": "function"
    },
    {
      "inputs": [
        {
          "internalType": "address",
          "name": "account",
          "type": "address"
        },
        {
          "internalType": "uint256",
          "name": "amount",
          "type": "uint256"
        }
      ],
      "name": "depositFor",
      "outputs": [],
      "stateMutability": "nonpayable",
      "type": "function"
    },
    {
      "inputs": [
        {
          "internalType": "address",
          "name": "account",
          "type": "address"
        },
        {
          "internalType": "uint256",
          "name": "amount",
          "type": "uint256"
        },
        {
          "internalType": "bytes",
          "name": "permit",
          "type": "bytes"
        }
      ],
      "name": "depositForWithPermit",
      "outputs": [],
      "stateMutability": "nonpayable",
      "type": "function"
    },
    {
      "inputs": [
        {
          "internalType": "uint256",
          "name": "amount",
          "type": "uint256"
        },
        {
          "internalType": "uint256",
          "name": "duration",
          "type": "uint256"
        },
        {
          "internalType": "bytes",
          "name": "permit",
          "type": "bytes"
        }
      ],
      "name": "depositWithPermit",
      "outputs": [],
      "stateMutability": "nonpayable",
      "type": "function"
    },
    {
      "inputs": [
        {
          "internalType": "address",
          "name": "",
          "type": "address"
        }
      ],
      "name": "depositors",
      "outputs": [
        {
          "internalType": "uint40",
          "name": "lockTime",
          "type": "uint40"
        },
        {
          "internalType": "uint40",
          "name": "unlockTime",
          "type": "uint40"
        },
        {
          "internalType": "uint176",
          "name": "amount",
          "type": "uint176"
        }
      ],
      "stateMutability": "view",
      "type": "function"
    },
    {
      "inputs": [
        {
          "internalType": "uint256",
          "name": "minReturn",
          "type": "uint256"
        },
        {
          "internalType": "uint256",
          "name": "maxLoss",
          "type": "uint256"
        }
      ],
      "name": "earlyWithdraw",
      "outputs": [],
      "stateMutability": "nonpayable",
      "type": "function"
    },
    {
      "inputs": [
        {
          "internalType": "address",
          "name": "account",
          "type": "address"
        }
      ],
      "name": "earlyWithdrawLoss",
      "outputs": [
        {
          "internalType": "uint256",
          "name": "loss",
          "type": "uint256"
        },
        {
          "internalType": "uint256",
          "name": "ret",
          "type": "uint256"
        },
        {
          "internalType": "bool",
          "name": "canWithdraw",
          "type": "bool"
        }
      ],
      "stateMutability": "view",
      "type": "function"
    },
    {
      "inputs": [
        {
          "internalType": "address",
          "name": "to",
          "type": "address"
        },
        {
          "internalType": "uint256",
          "name": "minReturn",
          "type": "uint256"
        },
        {
          "internalType": "uint256",
          "name": "maxLoss",
          "type": "uint256"
        }
      ],
      "name": "earlyWithdrawTo",
      "outputs": [],
      "stateMutability": "nonpayable",
      "type": "function"
    },
    {
      "inputs": [],
      "name": "emergencyExit",
      "outputs": [
        {
          "internalType": "bool",
          "name": "",
          "type": "bool"
        }
      ],
      "stateMutability": "view",
      "type": "function"
    },
    {
      "inputs": [],
      "name": "expBase",
      "outputs": [
        {
          "internalType": "uint256",
          "name": "",
          "type": "uint256"
        }
      ],
      "stateMutability": "view",
      "type": "function"
    },
    {
      "inputs": [],
      "name": "feeReceiver",
      "outputs": [
        {
          "internalType": "address",
          "name": "",
          "type": "address"
        }
      ],
      "stateMutability": "view",
      "type": "function"
    },
    {
      "inputs": [
        {
          "internalType": "address",
          "name": "account",
          "type": "address"
        },
        {
          "internalType": "address",
          "name": "pod",
          "type": "address"
        }
      ],
      "name": "hasPod",
      "outputs": [
        {
          "internalType": "bool",
          "name": "",
          "type": "bool"
        }
      ],
      "stateMutability": "view",
      "type": "function"
    },
    {
      "inputs": [
        {
          "internalType": "address",
          "name": "",
          "type": "address"
        },
        {
          "internalType": "uint256",
          "name": "",
          "type": "uint256"
        }
      ],
      "name": "increaseAllowance",
      "outputs": [
        {
          "internalType": "bool",
          "name": "",
          "type": "bool"
        }
      ],
      "stateMutability": "pure",
      "type": "function"
    },
    {
      "inputs": [],
      "name": "maxLossRatio",
      "outputs": [
        {
          "internalType": "uint256",
          "name": "",
          "type": "uint256"
        }
      ],
      "stateMutability": "view",
      "type": "function"
    },
    {
      "inputs": [],
      "name": "minLockPeriodRatio",
      "outputs": [
        {
          "internalType": "uint256",
          "name": "",
          "type": "uint256"
        }
      ],
      "stateMutability": "view",
      "type": "function"
    },
    {
      "inputs": [],
      "name": "name",
      "outputs": [
        {
          "internalType": "string",
          "name": "",
          "type": "string"
        }
      ],
      "stateMutability": "view",
      "type": "function"
    },
    {
      "inputs": [],
      "name": "oneInch",
      "outputs": [
        {
          "internalType": "contract IERC20",
          "name": "",
          "type": "address"
        }
      ],
      "stateMutability": "view",
      "type": "function"
    },
    {
      "inputs": [],
      "name": "origin",
      "outputs": [
        {
          "internalType": "uint256",
          "name": "",
          "type": "uint256"
        }
      ],
      "stateMutability": "view",
      "type": "function"
    },
    {
      "inputs": [],
      "name": "owner",
      "outputs": [
        {
          "internalType": "address",
          "name": "",
          "type": "address"
        }
      ],
      "stateMutability": "view",
      "type": "function"
    },
    {
      "inputs": [
        {
          "internalType": "address",
          "name": "account",
          "type": "address"
        },
        {
          "internalType": "uint256",
          "name": "index",
          "type": "uint256"
        }
      ],
      "name": "podAt",
      "outputs": [
        {
          "internalType": "address",
          "name": "",
          "type": "address"
        }
      ],
      "stateMutability": "view",
      "type": "function"
    },
    {
      "inputs": [
        {
          "internalType": "address",
          "name": "pod",
          "type": "address"
        },
        {
          "internalType": "address",
          "name": "account",
          "type": "address"
        }
      ],
      "name": "podBalanceOf",
      "outputs": [
        {
          "internalType": "uint256",
          "name": "",
          "type": "uint256"
        }
      ],
      "stateMutability": "view",
      "type": "function"
    },
    {
      "inputs": [],
      "name": "podCallGasLimit",
      "outputs": [
        {
          "internalType": "uint256",
          "name": "",
          "type": "uint256"
        }
      ],
      "stateMutability": "view",
      "type": "function"
    },
    {
      "inputs": [
        {
          "internalType": "address",
          "name": "account",
          "type": "address"
        }
      ],
      "name": "pods",
      "outputs": [
        {
          "internalType": "address[]",
          "name": "",
          "type": "address[]"
        }
      ],
      "stateMutability": "view",
      "type": "function"
    },
    {
      "inputs": [
        {
          "internalType": "address",
          "name": "account",
          "type": "address"
        }
      ],
      "name": "podsCount",
      "outputs": [
        {
          "internalType": "uint256",
          "name": "",
          "type": "uint256"
        }
      ],
      "stateMutability": "view",
      "type": "function"
    },
    {
      "inputs": [],
      "name": "podsLimit",
      "outputs": [
        {
          "internalType": "uint256",
          "name": "",
          "type": "uint256"
        }
      ],
      "stateMutability": "view",
      "type": "function"
    },
    {
      "inputs": [],
      "name": "removeAllPods",
      "outputs": [],
      "stateMutability": "nonpayable",
      "type": "function"
    },
    {
      "inputs": [
        {
          "internalType": "address",
          "name": "pod",
          "type": "address"
        }
      ],
      "name": "removePod",
      "outputs": [],
      "stateMutability": "nonpayable",
      "type": "function"
    },
    {
      "inputs": [],
      "name": "renounceOwnership",
      "outputs": [],
      "stateMutability": "nonpayable",
      "type": "function"
    },
    {
      "inputs": [
        {
          "internalType": "contract IERC20",
          "name": "token",
          "type": "address"
        },
        {
          "internalType": "uint256",
          "name": "amount",
          "type": "uint256"
        }
      ],
      "name": "rescueFunds",
      "outputs": [],
      "stateMutability": "nonpayable",
      "type": "function"
    },
    {
      "inputs": [
        {
          "internalType": "address",
          "name": "defaultFarm_",
          "type": "address"
        }
      ],
      "name": "setDefaultFarm",
      "outputs": [],
      "stateMutability": "nonpayable",
      "type": "function"
    },
    {
      "inputs": [
        {
          "internalType": "bool",
          "name": "emergencyExit_",
          "type": "bool"
        }
      ],
      "name": "setEmergencyExit",
      "outputs": [],
      "stateMutability": "nonpayable",
      "type": "function"
    },
    {
      "inputs": [
        {
          "internalType": "address",
          "name": "feeReceiver_",
          "type": "address"
        }
      ],
      "name": "setFeeReceiver",
      "outputs": [],
      "stateMutability": "nonpayable",
      "type": "function"
    },
    {
      "inputs": [
        {
          "internalType": "uint256",
          "name": "maxLossRatio_",
          "type": "uint256"
        }
      ],
      "name": "setMaxLossRatio",
      "outputs": [],
      "stateMutability": "nonpayable",
      "type": "function"
    },
    {
      "inputs": [
        {
          "internalType": "uint256",
          "name": "minLockPeriodRatio_",
          "type": "uint256"
        }
      ],
      "name": "setMinLockPeriodRatio",
      "outputs": [],
      "stateMutability": "nonpayable",
      "type": "function"
    },
    {
      "inputs": [],
      "name": "symbol",
      "outputs": [
        {
          "internalType": "string",
          "name": "",
          "type": "string"
        }
      ],
      "stateMutability": "view",
      "type": "function"
    },
    {
      "inputs": [],
      "name": "totalDeposits",
      "outputs": [
        {
          "internalType": "uint256",
          "name": "",
          "type": "uint256"
        }
      ],
      "stateMutability": "view",
      "type": "function"
    },
    {
      "inputs": [],
      "name": "totalSupply",
      "outputs": [
        {
          "internalType": "uint256",
          "name": "",
          "type": "uint256"
        }
      ],
      "stateMutability": "view",
      "type": "function"
    },
    {
      "inputs": [
        {
          "internalType": "address",
          "name": "",
          "type": "address"
        },
        {
          "internalType": "uint256",
          "name": "",
          "type": "uint256"
        }
      ],
      "name": "transfer",
      "outputs": [
        {
          "internalType": "bool",
          "name": "",
          "type": "bool"
        }
      ],
      "stateMutability": "pure",
      "type": "function"
    },
    {
      "inputs": [
        {
          "internalType": "address",
          "name": "",
          "type": "address"
        },
        {
          "internalType": "address",
          "name": "",
          "type": "address"
        },
        {
          "internalType": "uint256",
          "name": "",
          "type": "uint256"
        }
      ],
      "name": "transferFrom",
      "outputs": [
        {
          "internalType": "bool",
          "name": "",
          "type": "bool"
        }
      ],
      "stateMutability": "pure",
      "type": "function"
    },
    {
      "inputs": [
        {
          "internalType": "address",
          "name": "newOwner",
          "type": "address"
        }
      ],
      "name": "transferOwnership",
      "outputs": [],
      "stateMutability": "nonpayable",
      "type": "function"
    },
    {
      "inputs": [
        {
          "internalType": "uint256",
          "name": "balance",
          "type": "uint256"
        }
      ],
      "name": "votingPower",
      "outputs": [
        {
          "internalType": "uint256",
          "name": "",
          "type": "uint256"
        }
      ],
      "stateMutability": "view",
      "type": "function"
    },
    {
      "inputs": [
        {
          "internalType": "uint256",
          "name": "balance",
          "type": "uint256"
        },
        {
          "internalType": "uint256",
          "name": "timestamp",
          "type": "uint256"
        }
      ],
      "name": "votingPowerAt",
      "outputs": [
        {
          "internalType": "uint256",
          "name": "",
          "type": "uint256"
        }
      ],
      "stateMutability": "view",
      "type": "function"
    },
    {
      "inputs": [
        {
          "internalType": "address",
          "name": "account",
          "type": "address"
        }
      ],
      "name": "votingPowerOf",
      "outputs": [
        {
          "internalType": "uint256",
          "name": "",
          "type": "uint256"
        }
      ],
      "stateMutability": "view",
      "type": "function"
    },
    {
      "inputs": [
        {
          "internalType": "address",
          "name": "account",
          "type": "address"
        },
        {
          "internalType": "uint256",
          "name": "timestamp",
          "type": "uint256"
        }
      ],
      "name": "votingPowerOfAt",
      "outputs": [
        {
          "internalType": "uint256",
          "name": "",
          "type": "uint256"
        }
      ],
      "stateMutability": "view",
      "type": "function"
    },
    {
      "inputs": [],
      "name": "withdraw",
      "outputs": [],
      "stateMutability": "nonpayable",
      "type": "function"
    },
    {
      "inputs": [
        {
          "internalType": "address",
          "name": "to",
          "type": "address"
        }
      ],
      "name": "withdrawTo",
      "outputs": [],
      "stateMutability": "nonpayable",
      "type": "function"
    }
  ],
  "transactionHash": "0xd6d5097d1c2e25c23dc2521b7e686637c3289acbaa8c7f41939f1b584898ad71",
  "args": [
    "0x111111111117dC0aa78b770fA6A738034120C302",
    "999999952502977513"
  ],
  "numDeployments": 1,
  "solcInputHash": "86da68a9592199f6e73936133c0409c0",
  "bytecode": "0x6104e06040523480156200001257600080fd5b506040516200573e3803806200573e833981016040819052620000359162000c66565b804260056207a1206040518060400160405280601081526020016f29ba30b5b4b7339018a4a721a4103b1960811b815250604051806040016040528060078152602001660e6e862929c86960cb1b815250816003908162000097919062000d47565b506004620000a6828262000d47565b50505081600003620000cb576040516337f1632160e11b815260040160405180910390fd5b608082905260a0819052620000ed600562000674602090811b6200176217901c565b50620000fb9050336200067a565b428111156200011d57604051635a59719b60e01b815260040160405180910390fd5b60c081905260e0829052610100829052670de0b6b3a764000062000142838062000e29565b6200014e919062000e59565b610120819052670de0b6b3a7640000906200016a908062000e29565b62000176919062000e59565b610140819052670de0b6b3a76400009062000192908062000e29565b6200019e919062000e59565b610160819052670de0b6b3a764000090620001ba908062000e29565b620001c6919062000e59565b610180819052670de0b6b3a764000090620001e2908062000e29565b620001ee919062000e59565b6101a0819052670de0b6b3a7640000906200020a908062000e29565b62000216919062000e59565b6101c0819052670de0b6b3a76400009062000232908062000e29565b6200023e919062000e59565b6101e0819052670de0b6b3a7640000906200025a908062000e29565b62000266919062000e59565b610200819052670de0b6b3a76400009062000282908062000e29565b6200028e919062000e59565b610220819052670de0b6b3a764000090620002aa908062000e29565b620002b6919062000e59565b610240819052670de0b6b3a764000090620002d2908062000e29565b620002de919062000e59565b610260819052670de0b6b3a764000090620002fa908062000e29565b62000306919062000e59565b610280819052670de0b6b3a76400009062000322908062000e29565b6200032e919062000e59565b6102a0819052670de0b6b3a7640000906200034a908062000e29565b62000356919062000e59565b6102c0819052670de0b6b3a76400009062000372908062000e29565b6200037e919062000e59565b6102e0819052670de0b6b3a7640000906200039a908062000e29565b620003a6919062000e59565b610300819052670de0b6b3a764000090620003c2908062000e29565b620003ce919062000e59565b610320819052670de0b6b3a764000090620003ea908062000e29565b620003f6919062000e59565b610340819052670de0b6b3a76400009062000412908062000e29565b6200041e919062000e59565b610360819052670de0b6b3a7640000906200043a908062000e29565b62000446919062000e59565b610380819052670de0b6b3a76400009062000462908062000e29565b6200046e919062000e59565b6103a0819052670de0b6b3a7640000906200048a908062000e29565b62000496919062000e59565b6103c0819052670de0b6b3a764000090620004b2908062000e29565b620004be919062000e59565b6103e0819052670de0b6b3a764000090620004da908062000e29565b620004e6919062000e59565b610400819052670de0b6b3a76400009062000502908062000e29565b6200050e919062000e59565b610420819052670de0b6b3a7640000906200052a908062000e29565b62000536919062000e59565b610440819052670de0b6b3a76400009062000552908062000e29565b6200055e919062000e59565b610460819052670de0b6b3a7640000906200057a908062000e29565b62000586919062000e59565b610480819052670de0b6b3a764000090620005a2908062000e29565b620005ae919062000e59565b6104a05250670de0b6b3a764000090506014620005db82620005d56303c267004262000e7c565b620006cc565b620005e7919062000e29565b1015620006075760405163296c644f60e11b815260040160405180910390fd5b670de0b6b3a764000060146200063482620006276303c267004262000e7c565b620005d590600162000e7c565b62000640919062000e29565b11156200066057604051631f92e21f60e31b815260040160405180910390fd5b506001600160a01b03166104c05262000e92565b60019055565b600780546001600160a01b038381166001600160a01b0319831681179093556040519116919082907f8be0079c531659141344cd1fd0a4f28419497f9722a3daafe3b4186f6b6457e090600090a35050565b600060c0518210620006df5781620006e3565b60c0515b60c051909250839150820360018116156200071b57670de0b6b3a76400006101005183028162000717576200071762000e43565b0491505b60028116156200074857670de0b6b3a76400006101205183028162000744576200074462000e43565b0491505b60048116156200077557670de0b6b3a76400006101405183028162000771576200077162000e43565b0491505b6008811615620007a257670de0b6b3a7640000610160518302816200079e576200079e62000e43565b0491505b6010811615620007cf57670de0b6b3a764000061018051830281620007cb57620007cb62000e43565b0491505b6020811615620007fc57670de0b6b3a76400006101a051830281620007f857620007f862000e43565b0491505b60408116156200082957670de0b6b3a76400006101c05183028162000825576200082562000e43565b0491505b60808116156200085657670de0b6b3a76400006101e05183028162000852576200085262000e43565b0491505b6101008116156200088457670de0b6b3a76400006102005183028162000880576200088062000e43565b0491505b610200811615620008b257670de0b6b3a764000061022051830281620008ae57620008ae62000e43565b0491505b610400811615620008e057670de0b6b3a764000061024051830281620008dc57620008dc62000e43565b0491505b6108008116156200090e57670de0b6b3a7640000610260518302816200090a576200090a62000e43565b0491505b6110008116156200093c57670de0b6b3a76400006102805183028162000938576200093862000e43565b0491505b6120008116156200096a57670de0b6b3a76400006102a05183028162000966576200096662000e43565b0491505b6140008116156200099857670de0b6b3a76400006102c05183028162000994576200099462000e43565b0491505b618000811615620009c657670de0b6b3a76400006102e051830281620009c257620009c262000e43565b0491505b62010000811615620009f557670de0b6b3a764000061030051830281620009f157620009f162000e43565b0491505b6202000081161562000a2457670de0b6b3a76400006103205183028162000a205762000a2062000e43565b0491505b6204000081161562000a5357670de0b6b3a76400006103405183028162000a4f5762000a4f62000e43565b0491505b6208000081161562000a8257670de0b6b3a76400006103605183028162000a7e5762000a7e62000e43565b0491505b6210000081161562000ab157670de0b6b3a76400006103805183028162000aad5762000aad62000e43565b0491505b6220000081161562000ae057670de0b6b3a76400006103a05183028162000adc5762000adc62000e43565b0491505b6240000081161562000b0f57670de0b6b3a76400006103c05183028162000b0b5762000b0b62000e43565b0491505b6280000081161562000b3e57670de0b6b3a76400006103e05183028162000b3a5762000b3a62000e43565b0491505b630100000081161562000b6e57670de0b6b3a76400006104005183028162000b6a5762000b6a62000e43565b0491505b630200000081161562000b9e57670de0b6b3a76400006104205183028162000b9a5762000b9a62000e43565b0491505b630400000081161562000bce57670de0b6b3a76400006104405183028162000bca5762000bca62000e43565b0491505b630800000081161562000bfe57670de0b6b3a76400006104605183028162000bfa5762000bfa62000e43565b0491505b631000000081161562000c2e57670de0b6b3a76400006104805183028162000c2a5762000c2a62000e43565b0491505b632000000081161562000c5e57670de0b6b3a76400006104a05183028162000c5a5762000c5a62000e43565b0491505b505b92915050565b6000806040838503121562000c7a57600080fd5b82516001600160a01b038116811462000c9257600080fd5b6020939093015192949293505050565b634e487b7160e01b600052604160045260246000fd5b600181811c9082168062000ccd57607f821691505b60208210810362000cee57634e487b7160e01b600052602260045260246000fd5b50919050565b601f82111562000d4257600081815260208120601f850160051c8101602086101562000d1d5750805b601f850160051c820191505b8181101562000d3e5782815560010162000d29565b5050505b505050565b81516001600160401b0381111562000d635762000d6362000ca2565b62000d7b8162000d74845462000cb8565b8462000cf4565b602080601f83116001811462000db3576000841562000d9a5750858301515b600019600386901b1c1916600185901b17855562000d3e565b600085815260208120601f198616915b8281101562000de45788860151825594840194600190910190840162000dc3565b508582101562000e035787850151600019600388901b60f8161c191681555b5050505050600190811b01905550565b634e487b7160e01b600052601160045260246000fd5b808202811582820484141762000c605762000c6062000e13565b634e487b7160e01b600052601260045260246000fd5b60008262000e7757634e487b7160e01b600052601260045260246000fd5b500490565b8082018082111562000c605762000c6062000e13565b60805160a05160c05160e05161010051610120516101405161016051610180516101a0516101c0516101e05161020051610220516102405161026051610280516102a0516102c0516102e05161030051610320516103405161036051610380516103a0516103c0516103e05161040051610420516104405161046051610480516104a0516104c0516145db620011636000396000818161037701528181610ace01528181610fdc01528181611043015281816110c501528181611248015281816116e80152818161172d0152611ba501526000818161275c0152613563015260008181612720015261351a0152600081816126e401526134d10152600081816126a8015261348801526000818161266c015261343f01526000818161263001526133f60152600081816125f401526133ad0152600081816125b9015261336501526000818161257e015261331d01526000818161254301526132d5015260008181612508015261328d0152600081816124cd015261324501526000818161249201526131fd01526000818161245701526131b501526000818161241c015261316d0152600081816123e201526131260152600081816123a801526130df01526000818161236e015261309801526000818161233401526130510152600081816122fa015261300a0152600081816122c00152612fc30152600081816122860152612f7c01526000818161224c0152612f350152600081816122130152612eef0152600081816121da0152612ea90152600081816121a10152612e630152600081816121680152612e1d01526000818161212f0152612dd70152600081816120f60152612d910152600081816120bd0152612d4b0152600061070201526000818161067601528181612034015281816120610152818161208801528181612ccb01528181612cf80152612d1f0152600081816106a50152612c6401526000818161056c0152611d8e01526145db6000f3fe608060405234801561001057600080fd5b506004361061036d5760003560e01c806372b0d90c116101d3578063a9059cbb11610104578063eed75f6d116100a2578063f55401621161007c578063f55401621461084f578063f55f545c1461085a578063f9a92d821461087a578063fe8f8a001461088d57600080fd5b8063eed75f6d14610790578063efdcd97414610829578063f2fde38b1461083c57600080fd5b8063bca9c3fc116100de578063bca9c3fc146106fd578063bcc3f3bd14610724578063dd62ed3e14610737578063e2bbb1581461077d57600080fd5b8063a9059cbb146106c7578063ada6f64b146106d5578063b3f00674146106dd57600080fd5b80638da031df11610171578063938b5f321161014b578063938b5f321461067157806395d89b4114610698578063a44282dc146106a0578063a457c2d7146103f857600080fd5b80638da031df1461062d5780638da5cb5b1461064057806391cc59611461065e57600080fd5b80637a3e60e9116101ad5780637a3e60e9146105eb5780637aebdce6146105fe5780637d88209714610611578063893c37f21461061a57600080fd5b806372b0d90c146105b257806372c4a927146105c557806378e3214f146105d857600080fd5b80633466a886116102ad57806345ee07551161024b57806366b0dede1161022557806366b0dede146105675780636ee93d5b1461058e57806370a0823114610597578063715018a6146105aa57600080fd5b806345ee075514610534578063538db923146105475780635641ec031461055a57600080fd5b80633c3f3c23116102875780633c3f3c23146104d65780633ccfd60b146104e957806340f99a94146104f1578063457b3d021461050457600080fd5b80633466a886146104b9578063385dc3df146104cc57806339509351146103f857600080fd5b806323b872dd1161031a5780632e6e10df116102f45780632e6e10df1461047b5780632f4f21e214610484578063313ce5671461049757806332d323a5146104a657600080fd5b806323b872dd146104425780632a827ac1146104555780632bf3c4421461046857600080fd5b8063095ea7b31161034b578063095ea7b3146103f857806318160ddd1461041b578063222d6b4d1461042d57600080fd5b8063045c08d51461037257806306fdde03146103c357806307d6686a146103d8575b600080fd5b6103997f000000000000000000000000000000000000000000000000000000000000000081565b60405173ffffffffffffffffffffffffffffffffffffffff90911681526020015b60405180910390f35b6103cb6108a0565b6040516103ba9190614084565b600e546103999073ffffffffffffffffffffffffffffffffffffffff1681565b61040b610406366004614112565b610932565b60405190151581526020016103ba565b6002545b6040519081526020016103ba565b61044061043b36600461413e565b610966565b005b61040b61045036600461415b565b610973565b61044061046336600461419c565b6109a7565b61044061047636600461419c565b610a29565b61041f600c5481565b610440610492366004614112565b610aa4565b604051601281526020016103ba565b6104406104b43660046141fe565b610ab4565b61041f6104c736600461425a565b610b07565b61041f62278d0081565b6104406104e436600461413e565b610b95565b610440610d06565b6103996104ff366004614112565b610d11565b61051761051236600461413e565b610d49565b6040805193845260208401929092521515908201526060016103ba565b610440610542366004614293565b610dda565b61044061055536600461413e565b610e41565b600a5461040b9060ff1681565b61041f7f000000000000000000000000000000000000000000000000000000000000000081565b61041f600b5481565b61041f6105a536600461413e565b610e4b565b610440610ec0565b6104406105c036600461413e565b610ed2565b61041f6105d336600461419c565b611008565b6104406105e6366004614112565b611014565b61041f6105f936600461413e565b6111a9565b61044061060c3660046142b5565b6111d7565b61041f60095481565b61041f6106283660046142b5565b6111e2565b61040b61063b36600461425a565b6111ee565b60075473ffffffffffffffffffffffffffffffffffffffff16610399565b61044061066c3660046142d7565b61122e565b61041f7f000000000000000000000000000000000000000000000000000000000000000081565b6103cb61127a565b61041f7f000000000000000000000000000000000000000000000000000000000000000081565b61040b610450366004614112565b610440611289565b600d546103999073ffffffffffffffffffffffffffffffffffffffff1681565b61041f7f000000000000000000000000000000000000000000000000000000000000000081565b61041f61073236600461413e565b611292565b61041f61074536600461425a565b73ffffffffffffffffffffffffffffffffffffffff918216600090815260016020908152604080832093909416825291909152205490565b61044061078b3660046142b5565b6112a6565b6107ed61079e36600461413e565b60086020526000908152604090205464ffffffffff80821691650100000000008104909116906a0100000000000000000000900475ffffffffffffffffffffffffffffffffffffffffffff1683565b6040805164ffffffffff948516815293909216602084015275ffffffffffffffffffffffffffffffffffffffffffff16908201526060016103ba565b61044061083736600461413e565b6112b1565b61044061084a36600461413e565b611379565b61041f6303c2670081565b61086d61086836600461413e565b611432565b6040516103ba9190614312565b61041f610888366004614112565b611463565b61044061089b36600461436c565b611477565b6060600380546108af906143a1565b80601f01602080910402602001604051908101604052809291908181526020018280546108db906143a1565b80156109285780601f106108fd57610100808354040283529160200191610928565b820191906000526020600020905b81548152906001019060200180831161090b57829003601f168201915b5050505050905090565b60006040517feb60c2c400000000000000000000000000000000000000000000000000000000815260040160405180910390fd5b6109703382611768565b50565b60006040517fa24e573d00000000000000000000000000000000000000000000000000000000815260040160405180910390fd5b6109af61183d565b633b9aca008111156109ed576040517f127187c400000000000000000000000000000000000000000000000000000000815260040160405180910390fd5b600c8190556040518181527fdb6b01a24cc5f7701045e9788991e7ad859966a5e3d48cad224f5991fd29cdac906020015b60405180910390a150565b610a3161183d565b633b9aca00811115610a6f576040517f127187c400000000000000000000000000000000000000000000000000000000815260040160405180910390fd5b600b8190556040518181527fb7ef30419c4279919b88c08358f54054ad06e4887402f596cade1f36366b3dc090602001610a1e565b610ab0828260006118be565b5050565b610af573ffffffffffffffffffffffffffffffffffffffff7f0000000000000000000000000000000000000000000000000000000000000000168383611c47565b610b01848460006118be565b50505050565b60006005610b16815460021490565b15610b4d576040517f37ed32e800000000000000000000000000000000000000000000000000000000815260040160405180910390fd5b610b5783856111ee565b15610b895773ffffffffffffffffffffffffffffffffffffffff83166000908152602081905260409020549150610b8e565b600091505b5092915050565b610b9d61183d565b73ffffffffffffffffffffffffffffffffffffffff811615801590610c5c57503073ffffffffffffffffffffffffffffffffffffffff168173ffffffffffffffffffffffffffffffffffffffff1663fc0c546a6040518163ffffffff1660e01b8152600401602060405180830381865afa158015610c1f573d6000803e3d6000fd5b505050506040513d601f19601f82011682018060405250810190610c4391906143ee565b73ffffffffffffffffffffffffffffffffffffffff1614155b15610c93576040517fb599ae3000000000000000000000000000000000000000000000000000000000815260040160405180910390fd5b600e80547fffffffffffffffffffffffff00000000000000000000000000000000000000001673ffffffffffffffffffffffffffffffffffffffff83169081179091556040519081527fdd367fa3b0132bc9c4680deca3d4565375dda9ed37c98f8321370efe4594785a90602001610a1e565b610d0f33610ed2565b565b73ffffffffffffffffffffffffffffffffffffffff82166000908152600660205260408120610d409083611c5e565b90505b92915050565b73ffffffffffffffffffffffffffffffffffffffff8116600090815260086020526040812054819081906a0100000000000000000000900475ffffffffffffffffffffffffffffffffffffffffffff16610dab81610da687610e4b565b611c72565b600b549195509350633b9aca0090610dc3908361443a565b610dcd9190614480565b8411159150509193909250565b610de261183d565b600a80547fffffffffffffffffffffffffffffffffffffffffffffffffffffffffffffff00168215159081179091556040519081527fd08802d021f2c722117c801562fe018651ae10fc4e9d8ae97f1041028c1f992690602001610a1e565b6109703382611cb5565b60006005610e5a815460021490565b15610e91576040517f37ed32e800000000000000000000000000000000000000000000000000000000815260040160405180910390fd5b73ffffffffffffffffffffffffffffffffffffffff831660009081526020819052604090205491505b50919050565b610ec861183d565b610d0f6000611e5f565b336000908152600860209081526040918290208251606081018452905464ffffffffff808216835265010000000000820416928201929092526a010000000000000000000090910475ffffffffffffffffffffffffffffffffffffffffffff1691810191909152600a5460ff16158015610f565750806020015164ffffffffff1642105b15610f8d576040517fa379d44200000000000000000000000000000000000000000000000000000000815260040160405180910390fd5b604081015175ffffffffffffffffffffffffffffffffffffffffffff16801561100357610fc282610fbd33610e4b565b611ed6565b61100373ffffffffffffffffffffffffffffffffffffffff7f0000000000000000000000000000000000000000000000000000000000000000168483611fce565b505050565b6000610d438242612030565b61101c61183d565b73ffffffffffffffffffffffffffffffffffffffff821661104157610ab03382612787565b7f000000000000000000000000000000000000000000000000000000000000000073ffffffffffffffffffffffffffffffffffffffff168273ffffffffffffffffffffffffffffffffffffffff1603611188576009546040517f70a082310000000000000000000000000000000000000000000000000000000081523060048201527f000000000000000000000000000000000000000000000000000000000000000073ffffffffffffffffffffffffffffffffffffffff16906370a0823190602401602060405180830381865afa158015611121573d6000803e3d6000fd5b505050506040513d601f19601f8201168201806040525081019061114591906144bb565b61114f91906144d4565b811115611188576040517f0a86380300000000000000000000000000000000000000000000000000000000815260040160405180910390fd5b610ab073ffffffffffffffffffffffffffffffffffffffff83163383611fce565b73ffffffffffffffffffffffffffffffffffffffff81166000908152600660205260408120610d43906128e1565b610ab0338383611477565b6000610d408383612030565b73ffffffffffffffffffffffffffffffffffffffff8281166000908152600660209081526040808320938516835260019093019052908120541515610d40565b61126f73ffffffffffffffffffffffffffffffffffffffff7f0000000000000000000000000000000000000000000000000000000000000000168383611c47565b610b013385856118be565b6060600480546108af906143a1565b610d0f336128f8565b6000610d436112a083610e4b565b42612030565b610ab03383836118be565b6112b961183d565b73ffffffffffffffffffffffffffffffffffffffff8116611306576040517fd92e233d00000000000000000000000000000000000000000000000000000000815260040160405180910390fd5b600d80547fffffffffffffffffffffffff00000000000000000000000000000000000000001673ffffffffffffffffffffffffffffffffffffffff83169081179091556040519081527fbdf37c276f641820b141429d245add2552b4118c0866e5a78638e3de5ef18d9d90602001610a1e565b61138161183d565b73ffffffffffffffffffffffffffffffffffffffff8116611429576040517f08c379a000000000000000000000000000000000000000000000000000000000815260206004820152602660248201527f4f776e61626c653a206e6577206f776e657220697320746865207a65726f206160448201527f646472657373000000000000000000000000000000000000000000000000000060648201526084015b60405180910390fd5b61097081611e5f565b73ffffffffffffffffffffffffffffffffffffffff81166000908152600660205260409020606090610d4390612a7a565b6000610d4061147184610e4b565b83612030565b336000908152600860209081526040918290208251606081018452905464ffffffffff808216835265010000000000820416928201929092526a010000000000000000000090910475ffffffffffffffffffffffffffffffffffffffffffff1691810191909152600a5460ff16806114fa5750806020015164ffffffffff164210155b15611531576040517f6717a45500000000000000000000000000000000000000000000000000000000815260040160405180910390fd5b6000633b9aca00600c548360000151846020015161154f91906144e7565b64ffffffffff16611560919061443a565b61156a9190614480565b825161157d919064ffffffffff16614505565b9050804210156115b9576040517f1906330000000000000000000000000000000000000000000000000000000000815260040160405180910390fd5b604082015175ffffffffffffffffffffffffffffffffffffffffffff16801561175a5760006115e733610e4b565b90506000806115f68484611c72565b9150915087811015611634576040517f0169e60f00000000000000000000000000000000000000000000000000000000815260040160405180910390fd5b8682111561166e576040517fa7f1d0c200000000000000000000000000000000000000000000000000000000815260040160405180910390fd5b633b9aca00600b5485611681919061443a565b61168b9190614480565b8211156116c4576040517f1a5ffec600000000000000000000000000000000000000000000000000000000815260040160405180910390fd5b6116ce8684611ed6565b61170f73ffffffffffffffffffffffffffffffffffffffff7f0000000000000000000000000000000000000000000000000000000000000000168a83611fce565b600d546117569073ffffffffffffffffffffffffffffffffffffffff7f00000000000000000000000000000000000000000000000000000000000000008116911684611fce565b5050505b505050505050565b60019055565b73ffffffffffffffffffffffffffffffffffffffff821660009081526006602052604090206117979082612ae7565b6117cd576040517f826fbca300000000000000000000000000000000000000000000000000000000815260040160405180910390fd5b6040805173ffffffffffffffffffffffffffffffffffffffff8085168252831660208201527fb94b1adfafd33f45e2ba5c713871f026dc1ef0fdc3d75b4f24e954f15b9f8e64910160405180910390a1600061182883610e4b565b90508015611003576110038284600084612c02565b60075473ffffffffffffffffffffffffffffffffffffffff163314610d0f576040517f08c379a000000000000000000000000000000000000000000000000000000000815260206004820181905260248201527f4f776e61626c653a2063616c6c6572206973206e6f7420746865206f776e65726044820152606401611420565b600a5460ff16156118fb576040517f717a164800000000000000000000000000000000000000000000000000000000815260040160405180910390fd5b73ffffffffffffffffffffffffffffffffffffffff831660009081526008602090815260408083208151606081018352905464ffffffffff8082168352650100000000008204169382018490526a0100000000000000000000900475ffffffffffffffffffffffffffffffffffffffffffff1691810191909152919083906119839042612cb1565b61198d9190614505565b9050600061199b42836144d4565b905062278d008110156119da576040517f2639cc7700000000000000000000000000000000000000000000000000000000815260040160405180910390fd5b6303c26700811115611a18576040517f2f5cdab600000000000000000000000000000000000000000000000000000000815260040160405180910390fd5b6000611a2387610e4b565b6014611a5688876040015175ffffffffffffffffffffffffffffffffffffffffffff16611a509190614505565b86612cc7565b611a609190614480565b611a6a91906144d4565b90508415611a785742611a82565b835164ffffffffff165b64ffffffffff908116855283166020850152604084018051879190611aa8908390614518565b75ffffffffffffffffffffffffffffffffffffffffffff90811690915273ffffffffffffffffffffffffffffffffffffffff8916600090815260086020908152604080832089518154938b0151928b01519095166a01000000000000000000000269ffffffffffffffffffff64ffffffffff93841665010000000000027fffffffffffffffffffffffffffffffffffffffffffff00000000000000000000909516939096169290921792909217939093169290921790915560098054899350909190611b75908490614505565b90915550611b859050878261359a565b8515611bcd57611bcd73ffffffffffffffffffffffffffffffffffffffff7f000000000000000000000000000000000000000000000000000000000000000016333089613695565b600e5473ffffffffffffffffffffffffffffffffffffffff1615801590611c155750600e54611c1390889073ffffffffffffffffffffffffffffffffffffffff166111ee565b155b15611c3e57600e54611c3e90889073ffffffffffffffffffffffffffffffffffffffff16611cb5565b50505050505050565b611c5283838361372a565b611003576110036137d7565b600081815260208390526040812054610d40565b600080605f611c818442612030565b611c8b90866144d4565b611c9690606461443a565b611ca09190614480565b9050611cac81856144d4565b91509250929050565b73ffffffffffffffffffffffffffffffffffffffff8116611d02576040517f960357e400000000000000000000000000000000000000000000000000000000815260040160405180910390fd5b73ffffffffffffffffffffffffffffffffffffffff82166000908152600660205260409020611d3190826137e3565b611d67576040517fcbdb297300000000000000000000000000000000000000000000000000000000815260040160405180910390fd5b73ffffffffffffffffffffffffffffffffffffffff821660009081526006602052604090207f000000000000000000000000000000000000000000000000000000000000000090611db7906128e1565b1115611def576040517fc87e91a600000000000000000000000000000000000000000000000000000000815260040160405180910390fd5b6040805173ffffffffffffffffffffffffffffffffffffffff8085168252831660208201527fde03e097fdd335e4d488cd0bc9645f306e7f5569ad042d918dc75be13107c677910160405180910390a16000611e4a83610e4b565b90508015611003576110038260008584612c02565b6007805473ffffffffffffffffffffffffffffffffffffffff8381167fffffffffffffffffffffffff0000000000000000000000000000000000000000831681179093556040519116919082907f8be0079c531659141344cd1fd0a4f28419497f9722a3daafe3b4186f6b6457e090600090a35050565b816040015175ffffffffffffffffffffffffffffffffffffffffffff1660096000828254611f0491906144d4565b9091555050600060408301526020820151611f269064ffffffffff1642613854565b64ffffffffff908116602080850191825233600081815260089092526040918290208651815494519388015175ffffffffffffffffffffffffffffffffffffffffffff166a01000000000000000000000269ffffffffffffffffffff94871665010000000000027fffffffffffffffffffffffffffffffffffffffffffff0000000000000000000090961691909616179390931791909116929092179055610ab09082613863565b611ffa837fa9059cbb000000000000000000000000000000000000000000000000000000008484613a2e565b611003576040517ffb7f507900000000000000000000000000000000000000000000000000000000815260040160405180910390fd5b60007f0000000000000000000000000000000000000000000000000000000000000000821061205f5781612081565b7f00000000000000000000000000000000000000000000000000000000000000005b91508290507f0000000000000000000000000000000000000000000000000000000000000000820360018116156120e257670de0b6b3a76400007f000000000000000000000000000000000000000000000000000000000000000083020491505b600281161561211b57670de0b6b3a76400007f000000000000000000000000000000000000000000000000000000000000000083020491505b600481161561215457670de0b6b3a76400007f000000000000000000000000000000000000000000000000000000000000000083020491505b600881161561218d57670de0b6b3a76400007f000000000000000000000000000000000000000000000000000000000000000083020491505b60108116156121c657670de0b6b3a76400007f000000000000000000000000000000000000000000000000000000000000000083020491505b60208116156121ff57670de0b6b3a76400007f000000000000000000000000000000000000000000000000000000000000000083020491505b604081161561223857670de0b6b3a76400007f000000000000000000000000000000000000000000000000000000000000000083020491505b608081161561227157670de0b6b3a76400007f000000000000000000000000000000000000000000000000000000000000000083020491505b6101008116156122ab57670de0b6b3a76400007f000000000000000000000000000000000000000000000000000000000000000083020491505b6102008116156122e557670de0b6b3a76400007f000000000000000000000000000000000000000000000000000000000000000083020491505b61040081161561231f57670de0b6b3a76400007f000000000000000000000000000000000000000000000000000000000000000083020491505b61080081161561235957670de0b6b3a76400007f000000000000000000000000000000000000000000000000000000000000000083020491505b61100081161561239357670de0b6b3a76400007f000000000000000000000000000000000000000000000000000000000000000083020491505b6120008116156123cd57670de0b6b3a76400007f000000000000000000000000000000000000000000000000000000000000000083020491505b61400081161561240757670de0b6b3a76400007f000000000000000000000000000000000000000000000000000000000000000083020491505b61800081161561244157670de0b6b3a76400007f000000000000000000000000000000000000000000000000000000000000000083020491505b6201000081161561247c57670de0b6b3a76400007f000000000000000000000000000000000000000000000000000000000000000083020491505b620200008116156124b757670de0b6b3a76400007f000000000000000000000000000000000000000000000000000000000000000083020491505b620400008116156124f257670de0b6b3a76400007f000000000000000000000000000000000000000000000000000000000000000083020491505b6208000081161561252d57670de0b6b3a76400007f000000000000000000000000000000000000000000000000000000000000000083020491505b6210000081161561256857670de0b6b3a76400007f000000000000000000000000000000000000000000000000000000000000000083020491505b622000008116156125a357670de0b6b3a76400007f000000000000000000000000000000000000000000000000000000000000000083020491505b624000008116156125de57670de0b6b3a76400007f000000000000000000000000000000000000000000000000000000000000000083020491505b6280000081161561261957670de0b6b3a76400007f000000000000000000000000000000000000000000000000000000000000000083020491505b630100000081161561265557670de0b6b3a76400007f000000000000000000000000000000000000000000000000000000000000000083020491505b630200000081161561269157670de0b6b3a76400007f000000000000000000000000000000000000000000000000000000000000000083020491505b63040000008116156126cd57670de0b6b3a76400007f000000000000000000000000000000000000000000000000000000000000000083020491505b630800000081161561270957670de0b6b3a76400007f000000000000000000000000000000000000000000000000000000000000000083020491505b631000000081161561274557670de0b6b3a76400007f000000000000000000000000000000000000000000000000000000000000000083020491505b6320000000811615610b8e57670de0b6b3a76400007f000000000000000000000000000000000000000000000000000000000000000083025b04949350505050565b804710156127f1576040517f08c379a000000000000000000000000000000000000000000000000000000000815260206004820152601d60248201527f416464726573733a20696e73756666696369656e742062616c616e63650000006044820152606401611420565b60008273ffffffffffffffffffffffffffffffffffffffff168260405160006040518083038185875af1925050503d806000811461284b576040519150601f19603f3d011682016040523d82523d6000602084013e612850565b606091505b5050905080611003576040517f08c379a000000000000000000000000000000000000000000000000000000000815260206004820152603a60248201527f416464726573733a20756e61626c6520746f2073656e642076616c75652c207260448201527f6563697069656e74206d617920686176652072657665727465640000000000006064820152608401611420565b60008080526020829052604081205460a01c610d43565b73ffffffffffffffffffffffffffffffffffffffff8116600090815260066020526040812061292690612a7a565b9050600061293383610e4b565b82519091505b8015610b01576129ac83600183038151811061295757612957614547565b6020026020010151600660008773ffffffffffffffffffffffffffffffffffffffff1673ffffffffffffffffffffffffffffffffffffffff168152602001908152602001600020612ae790919063ffffffff16565b507fb94b1adfafd33f45e2ba5c713871f026dc1ef0fdc3d75b4f24e954f15b9f8e64848460018403815181106129e4576129e4614547565b6020026020010151604051612a1c92919073ffffffffffffffffffffffffffffffffffffffff92831681529116602082015260400190565b60405180910390a18115612a5357612a53836001830381518110612a4257612a42614547565b602002602001015185600085612c02565b7fffffffffffffffffffffffffffffffffffffffffffffffffffffffffffffffff01612939565b60008080526020829052604090205460609060a081901c67ffffffffffffffff811115612aa957612aa9614576565b604051908082528060200260200182016040528015612ad2578160200160208202803683370190505b509150612ae0838383613a82565b5050919050565b73ffffffffffffffffffffffffffffffffffffffff81166000908152600183016020526040812054808203612b20576000915050610d43565b60008080526020859052604090205460a01c811015612bcc576000808052602085905260408082205460a01c7fffffffffffffffffffffffffffffffffffffffffffffffffffffffffffffffff0182528120549050612ba2857fffffffffffffffffffffffffffffffffffffffffffffffffffffffffffffffff840183613b6b565b73ffffffffffffffffffffffffffffffffffffffff16600090815260018501602052604090208190555b612bd584613c1d565b505073ffffffffffffffffffffffffffffffffffffffff1660009081526001918201602052604081205590565b604080517f7a1f1aa900000000000000000000000000000000000000000000000000000000808252600482018690526024820185905260448201849052917f1c26714c00000000000000000000000000000000000000000000000000000000917f0000000000000000000000000000000000000000000000000000000000000000918290603f5a02041015612c9b578260005260046000fd5b60008060648360008c87f1505050505050505050565b6000818311612cc05781610d40565b5090919050565b60007f00000000000000000000000000000000000000000000000000000000000000008210612cf65781612d18565b7f00000000000000000000000000000000000000000000000000000000000000005b91508290507f000000000000000000000000000000000000000000000000000000000000000082036001811615612d86577f0000000000000000000000000000000000000000000000000000000000000000670de0b6b3a7640000830281612d8257612d82614451565b0491505b6002811615612dcc577f0000000000000000000000000000000000000000000000000000000000000000670de0b6b3a7640000830281612dc857612dc8614451565b0491505b6004811615612e12577f0000000000000000000000000000000000000000000000000000000000000000670de0b6b3a7640000830281612e0e57612e0e614451565b0491505b6008811615612e58577f0000000000000000000000000000000000000000000000000000000000000000670de0b6b3a7640000830281612e5457612e54614451565b0491505b6010811615612e9e577f0000000000000000000000000000000000000000000000000000000000000000670de0b6b3a7640000830281612e9a57612e9a614451565b0491505b6020811615612ee4577f0000000000000000000000000000000000000000000000000000000000000000670de0b6b3a7640000830281612ee057612ee0614451565b0491505b6040811615612f2a577f0000000000000000000000000000000000000000000000000000000000000000670de0b6b3a7640000830281612f2657612f26614451565b0491505b6080811615612f70577f0000000000000000000000000000000000000000000000000000000000000000670de0b6b3a7640000830281612f6c57612f6c614451565b0491505b610100811615612fb7577f0000000000000000000000000000000000000000000000000000000000000000670de0b6b3a7640000830281612fb357612fb3614451565b0491505b610200811615612ffe577f0000000000000000000000000000000000000000000000000000000000000000670de0b6b3a7640000830281612ffa57612ffa614451565b0491505b610400811615613045577f0000000000000000000000000000000000000000000000000000000000000000670de0b6b3a764000083028161304157613041614451565b0491505b61080081161561308c577f0000000000000000000000000000000000000000000000000000000000000000670de0b6b3a764000083028161308857613088614451565b0491505b6110008116156130d3577f0000000000000000000000000000000000000000000000000000000000000000670de0b6b3a76400008302816130cf576130cf614451565b0491505b61200081161561311a577f0000000000000000000000000000000000000000000000000000000000000000670de0b6b3a764000083028161311657613116614451565b0491505b614000811615613161577f0000000000000000000000000000000000000000000000000000000000000000670de0b6b3a764000083028161315d5761315d614451565b0491505b6180008116156131a8577f0000000000000000000000000000000000000000000000000000000000000000670de0b6b3a76400008302816131a4576131a4614451565b0491505b620100008116156131f0577f0000000000000000000000000000000000000000000000000000000000000000670de0b6b3a76400008302816131ec576131ec614451565b0491505b62020000811615613238577f0000000000000000000000000000000000000000000000000000000000000000670de0b6b3a764000083028161323457613234614451565b0491505b62040000811615613280577f0000000000000000000000000000000000000000000000000000000000000000670de0b6b3a764000083028161327c5761327c614451565b0491505b620800008116156132c8577f0000000000000000000000000000000000000000000000000000000000000000670de0b6b3a76400008302816132c4576132c4614451565b0491505b62100000811615613310577f0000000000000000000000000000000000000000000000000000000000000000670de0b6b3a764000083028161330c5761330c614451565b0491505b62200000811615613358577f0000000000000000000000000000000000000000000000000000000000000000670de0b6b3a764000083028161335457613354614451565b0491505b624000008116156133a0577f0000000000000000000000000000000000000000000000000000000000000000670de0b6b3a764000083028161339c5761339c614451565b0491505b628000008116156133e8577f0000000000000000000000000000000000000000000000000000000000000000670de0b6b3a76400008302816133e4576133e4614451565b0491505b6301000000811615613431577f0000000000000000000000000000000000000000000000000000000000000000670de0b6b3a764000083028161342d5761342d614451565b0491505b630200000081161561347a577f0000000000000000000000000000000000000000000000000000000000000000670de0b6b3a764000083028161347657613476614451565b0491505b63040000008116156134c3577f0000000000000000000000000000000000000000000000000000000000000000670de0b6b3a76400008302816134bf576134bf614451565b0491505b630800000081161561350c577f0000000000000000000000000000000000000000000000000000000000000000670de0b6b3a764000083028161350857613508614451565b0491505b6310000000811615613555577f0000000000000000000000000000000000000000000000000000000000000000670de0b6b3a764000083028161355157613551614451565b0491505b6320000000811615610b8e577f0000000000000000000000000000000000000000000000000000000000000000670de0b6b3a764000083028161277e5761277e614451565b73ffffffffffffffffffffffffffffffffffffffff8216613617576040517f08c379a000000000000000000000000000000000000000000000000000000000815260206004820152601f60248201527f45524332303a206d696e7420746f20746865207a65726f2061646472657373006044820152606401611420565b80600260008282546136299190614505565b909155505073ffffffffffffffffffffffffffffffffffffffff8216600081815260208181526040808320805486019055518481527fddf252ad1be2c89b69c2b068fc378daa952ba7f163c4a11628f55a4df523b3ef910160405180910390a3610ab060008383613cdf565b60006323b872dd60e01b905060006040518281528560048201528460248201528360448201526020600060648360008b5af191505080156136f3573d80156136e957600160005114601f3d111691506136f1565b6000873b1191505b505b8061175a576040517ff405907100000000000000000000000000000000000000000000000000000000815260040160405180910390fd5b600060e082900361376857613761847fd505accf000000000000000000000000000000000000000000000000000000008585613f1b565b90506137d0565b61010082900361379e57613761847f8fcbaf0c000000000000000000000000000000000000000000000000000000008585613f1b565b6040517f6827585700000000000000000000000000000000000000000000000000000000815260040160405180910390fd5b9392505050565b6040513d6000823e3d81fd5b73ffffffffffffffffffffffffffffffffffffffff811660009081526001830160205260408120541561381857506000610d43565b6138228383613f5c565b73ffffffffffffffffffffffffffffffffffffffff929092166000908152600193840160205260409020919091555090565b6000818310612cc05781610d40565b73ffffffffffffffffffffffffffffffffffffffff8216613906576040517f08c379a000000000000000000000000000000000000000000000000000000000815260206004820152602160248201527f45524332303a206275726e2066726f6d20746865207a65726f2061646472657360448201527f73000000000000000000000000000000000000000000000000000000000000006064820152608401611420565b73ffffffffffffffffffffffffffffffffffffffff8216600090815260208190526040902054818110156139bc576040517f08c379a000000000000000000000000000000000000000000000000000000000815260206004820152602260248201527f45524332303a206275726e20616d6f756e7420657863656564732062616c616e60448201527f63650000000000000000000000000000000000000000000000000000000000006064820152608401611420565b73ffffffffffffffffffffffffffffffffffffffff83166000818152602081815260408083208686039055600280548790039055518581529192917fddf252ad1be2c89b69c2b068fc378daa952ba7f163c4a11628f55a4df523b3ef910160405180910390a361100383600084613cdf565b60006040518481528360048201528260248201526020600060448360008a5af19150508015613a7a573d8015613a7057600160005114601f3d11169150613a78565b6000863b1191505b505b949350505050565b815160609060a083901c90811115613ac6576040517ff9a99b2500000000000000000000000000000000000000000000000000000000815260040160405180910390fd5b8015613b62578284600081518110613ae057613ae0614547565b73ffffffffffffffffffffffffffffffffffffffff9092166020928302919091019091015260015b81811015613b60576000818152602087905260409020548551869083908110613b3357613b33614547565b73ffffffffffffffffffffffffffffffffffffffff90921660209283029190910190910152600101613b08565b505b50919392505050565b60008080526020849052604090205460a01c808310613bb6576040517f4e23d03500000000000000000000000000000000000000000000000000000000815260040160405180910390fd5b82600003613bf057600080805260208590526040902060a082901b73ffffffffffffffffffffffffffffffffffffffff8416179055610b01565b600083815260208590526040902073ffffffffffffffffffffffffffffffffffffffff8316905550505050565b6000808052602082905260408120549060a082901c90819003613c6c576040517f06a2af9e00000000000000000000000000000000000000000000000000000000815260040160405180910390fd5b7fffffffffffffffffffffffffffffffffffffffffffffffffffffffffffffffff810160009081526020849052604081205560018111156110035760008080526020849052604090207fffffffffffffffffffffffff000000000000000000000000000000000000000083019055505050565b6005613cea81614024565b600082118015613d2657508273ffffffffffffffffffffffffffffffffffffffff168473ffffffffffffffffffffffffffffffffffffffff1614155b15613f125773ffffffffffffffffffffffffffffffffffffffff84166000908152600660205260408120613d5990612a7a565b73ffffffffffffffffffffffffffffffffffffffff8516600090815260066020526040812091925090613d8b90612a7a565b825181519192509060005b82811015613e98576000858281518110613db257613db2614547565b6020026020010151905060005b83811015613e7a57858181518110613dd957613dd9614547565b602002602001015173ffffffffffffffffffffffffffffffffffffffff168273ffffffffffffffffffffffffffffffffffffffff1603613e7257613e1f828c8c8c612c02565b6000868281518110613e3357613e33614547565b602002602001019073ffffffffffffffffffffffffffffffffffffffff16908173ffffffffffffffffffffffffffffffffffffffff1681525050613e7a565b600101613dbf565b838103613e8e57613e8e828c60008c612c02565b5050600101613d96565b5060005b81811015613f0c576000848281518110613eb857613eb8614547565b60200260200101519050600073ffffffffffffffffffffffffffffffffffffffff168173ffffffffffffffffffffffffffffffffffffffff1614613f0357613f038160008b8b612c02565b50600101613e9c565b50505050505b60018155610b01565b6000816004016040518581528385600483013760206000838360008b5af1925050508015613a7a573d8015613a7057600160005114601f3d11169150613a78565b60008080526020839052604081205460a081901c808303613fd157600080805260208690526040902074ffffffffffffffffffffffffffffffffffffffffff7401000000000000000000000000000000000000000073ffffffffffffffffffffffffffffffffffffffff871601169055614019565b6000808052602086905260408082207401000000000000000000000000000000000000000085019055828252902073ffffffffffffffffffffffffffffffffffffffff851690555b600101949350505050565b80547ffffffffffffffffffffffffffffffffffffffffffffffffffffffffffffffffe0161407e576040517f37ed32e800000000000000000000000000000000000000000000000000000000815260040160405180910390fd5b60029055565b600060208083528351808285015260005b818110156140b157858101830151858201604001528201614095565b5060006040828601015260407fffffffffffffffffffffffffffffffffffffffffffffffffffffffffffffffe0601f8301168501019250505092915050565b73ffffffffffffffffffffffffffffffffffffffff8116811461097057600080fd5b6000806040838503121561412557600080fd5b8235614130816140f0565b946020939093013593505050565b60006020828403121561415057600080fd5b81356137d0816140f0565b60008060006060848603121561417057600080fd5b833561417b816140f0565b9250602084013561418b816140f0565b929592945050506040919091013590565b6000602082840312156141ae57600080fd5b5035919050565b60008083601f8401126141c757600080fd5b50813567ffffffffffffffff8111156141df57600080fd5b6020830191508360208285010111156141f757600080fd5b9250929050565b6000806000806060858703121561421457600080fd5b843561421f816140f0565b935060208501359250604085013567ffffffffffffffff81111561424257600080fd5b61424e878288016141b5565b95989497509550505050565b6000806040838503121561426d57600080fd5b8235614278816140f0565b91506020830135614288816140f0565b809150509250929050565b6000602082840312156142a557600080fd5b813580151581146137d057600080fd5b600080604083850312156142c857600080fd5b50508035926020909101359150565b600080600080606085870312156142ed57600080fd5b8435935060208501359250604085013567ffffffffffffffff81111561424257600080fd5b6020808252825182820181905260009190848201906040850190845b8181101561436057835173ffffffffffffffffffffffffffffffffffffffff168352928401929184019160010161432e565b50909695505050505050565b60008060006060848603121561438157600080fd5b833561438c816140f0565b95602085013595506040909401359392505050565b600181811c908216806143b557607f821691505b602082108103610eba577f4e487b7100000000000000000000000000000000000000000000000000000000600052602260045260246000fd5b60006020828403121561440057600080fd5b81516137d0816140f0565b7f4e487b7100000000000000000000000000000000000000000000000000000000600052601160045260246000fd5b8082028115828204841417610d4357610d4361440b565b7f4e487b7100000000000000000000000000000000000000000000000000000000600052601260045260246000fd5b6000826144b6577f4e487b7100000000000000000000000000000000000000000000000000000000600052601260045260246000fd5b500490565b6000602082840312156144cd57600080fd5b5051919050565b81810381811115610d4357610d4361440b565b64ffffffffff828116828216039080821115610b8e57610b8e61440b565b80820180821115610d4357610d4361440b565b75ffffffffffffffffffffffffffffffffffffffffffff818116838216019080821115610b8e57610b8e61440b565b7f4e487b7100000000000000000000000000000000000000000000000000000000600052603260045260246000fd5b7f4e487b7100000000000000000000000000000000000000000000000000000000600052604160045260246000fdfea2646970667358221220ce8ef8224b730d9e9a9153cc31c55a8a5c28957444df04147130d04ef413d1bf64736f6c63430008110033",
  "devdoc": {
    "kind": "dev",
    "methods": {
      "allowance(address,address)": {
        "details": "See {IERC20-allowance}."
      },
      "constructor": {
        "params": {
          "expBase_": "The rate for the voting power decrease over time",
          "oneInch_": "The token to be staked"
        }
      },
      "decimals()": {
        "details": "Returns the number of decimals used to get its user representation. For example, if `decimals` equals `2`, a balance of `505` tokens should be displayed to a user as `5.05` (`505 / 10 ** 2`). Tokens usually opt for a value of 18, imitating the relationship between Ether and Wei. This is the value {ERC20} uses, unless this function is overridden; NOTE: This information is only used for _display_ purposes: it in no way affects any of the arithmetic of the contract, including {IERC20-balanceOf} and {IERC20-transfer}."
      },
      "deposit(uint256,uint256)": {
        "params": {
          "amount": "The amount of tokens to stake",
          "duration": "The lock period in seconds. If there is a stake locked then the lock period is extended by the duration. To keep the current lock period unchanged pass 0 for the duration."
        }
      },
      "depositFor(address,uint256)": {
        "params": {
          "account": "The account to stake for",
          "amount": "The amount to stake"
        }
      },
      "depositForWithPermit(address,uint256,bytes)": {
        "params": {
          "account": "The account to stake for",
          "amount": "The amount to stake",
          "permit": "Permit given by the caller"
        }
      },
      "depositWithPermit(uint256,uint256,bytes)": {
        "params": {
          "amount": "The amount of tokens to stake",
          "duration": "The lock period in seconds. If there is a stake locked then the lock period is extended by the duration. To keep the current lock period unchanged pass 0 for the duration",
          "permit": "Permit given by the staker"
        }
      },
      "earlyWithdraw(uint256,uint256)": {
        "params": {
          "maxLoss": "The maximum amount of loss acceptable. If actual loss is bigger then the transaction is reverted",
          "minReturn": "The minumum amount of stake acceptable for return. If actual amount is less then the transaction is reverted"
        }
      },
      "earlyWithdrawLoss(address)": {
        "params": {
          "account": "The account to calculate early withdrawal loss for"
        },
        "returns": {
          "canWithdraw": " True if the staker can withdraw without penalty, false otherwise",
          "loss": "The loss amount amount",
          "ret": "The return amount"
        }
      },
      "earlyWithdrawTo(address,uint256,uint256)": {
        "params": {
          "maxLoss": "The maximum amount of loss acceptable. If actual loss is bigger then the transaction is reverted",
          "minReturn": "The minumum amount of stake acceptable for return. If actual amount is less then the transaction is reverted",
          "to": "The account to withdraw the stake to"
        }
      },
      "name()": {
        "details": "Returns the name of the token."
      },
      "owner()": {
        "details": "Returns the address of the current owner."
      },
      "renounceOwnership()": {
        "details": "Leaves the contract without owner. It will not be possible to call `onlyOwner` functions anymore. Can only be called by the current owner. NOTE: Renouncing ownership will leave the contract without an owner, thereby removing any functionality that is only available to the owner."
      },
      "rescueFunds(address,uint256)": {
        "params": {
          "amount": "The amount of funds to transfer",
          "token": "The token to retrieve"
        }
      },
      "setDefaultFarm(address)": {
        "params": {
          "defaultFarm_": "The farm contract address"
        }
      },
      "setEmergencyExit(bool)": {
        "params": {
          "emergencyExit_": "set `true` to enter emergency exit mode and `false` to return to normal operations"
        }
      },
      "setFeeReceiver(address)": {
        "params": {
          "feeReceiver_": "The receiver contract address"
        }
      },
      "setMaxLossRatio(uint256)": {
        "params": {
          "maxLossRatio_": "The maximum loss allowed (9 decimals)."
        }
      },
      "setMinLockPeriodRatio(uint256)": {
        "params": {
          "minLockPeriodRatio_": "The maximum loss allowed (9 decimals)."
        }
      },
      "symbol()": {
        "details": "Returns the symbol of the token, usually a shorter version of the name."
      },
      "totalSupply()": {
        "details": "See {IERC20-totalSupply}."
      },
      "transferOwnership(address)": {
        "details": "Transfers ownership of the contract to a new account (`newOwner`). Can only be called by the current owner."
      },
      "votingPower(uint256)": {
        "params": {
          "balance": "The balance for the maximum lock time"
        },
        "returns": {
          "_0": "votingPower The voting power available at the block timestamp"
        }
      },
      "votingPowerAt(uint256,uint256)": {
        "params": {
          "balance": "The balance for the maximum lock time",
          "timestamp": "The timestamp to calculate the voting power at"
        },
        "returns": {
          "_0": "votingPower The voting power available at the block timestamp"
        }
      },
      "votingPowerOf(address)": {
        "params": {
          "account": "The address of an account to get voting power for"
        },
        "returns": {
          "_0": "votingPower The voting power available at the block timestamp"
        }
      },
      "votingPowerOfAt(address,uint256)": {
        "details": "To calculate voting power at any timestamp provided the contract stores each balance as it was staked for the maximum lock time. If a staker locks its stake for less than the maximum then at the moment of deposit its balance is recorded as it was staked for the maximum but time equal to `max lock period-lock time` has passed. It makes available voting power calculation available at any point in time within the maximum lock period.",
        "params": {
          "account": "The address of an account to get voting power for",
          "timestamp": "The timestamp to calculate voting power at"
        },
        "returns": {
          "_0": "votingPower The voting power available at the moment of `timestamp`"
        }
      }
    },
    "stateVariables": {
      "MAX_LOCK_PERIOD": {
        "details": "WARNING: It is not enough to change the constant only but voting power decrease curve should be revised also"
      },
      "_VOTING_POWER_DIVIDER": {
        "details": "WARNING: It is not enough to change the constant only but voting power decrease curve should be revised also"
      }
    },
    "title": "1inch staking contract",
    "version": 1
  },
  "userdoc": {
    "kind": "user",
    "methods": {
      "MAX_LOCK_PERIOD()": {
        "notice": "The maximum allowed staking period"
      },
      "MIN_LOCK_PERIOD()": {
        "notice": "The minimum allowed staking period"
      },
      "constructor": {
        "notice": "Initializes the contract"
      },
      "deposit(uint256,uint256)": {
        "notice": "Stakes given amount and locks it for the given duration"
      },
      "depositFor(address,uint256)": {
        "notice": "Stakes given amount on behalf of provided account without locking or extending lock"
      },
      "depositForWithPermit(address,uint256,bytes)": {
        "notice": "Stakes given amount on behalf of provided account without locking or extending lock with permit"
      },
      "depositWithPermit(uint256,uint256,bytes)": {
        "notice": "Stakes given amount and locks it for the given duration with permit"
      },
      "earlyWithdraw(uint256,uint256)": {
        "notice": "Withdraw stake before lock period expires at the cost of losing part of a stake. The stake loss is proportional to the time passed from the maximum lock period to the lock expiration and voting power. The more time is passed the less would be the loss. Formula to calculate return amount = (deposit - voting power)) / 0.95"
      },
      "earlyWithdrawLoss(address)": {
        "notice": "Gets the loss amount if the staker do early withdrawal at the current block"
      },
      "earlyWithdrawTo(address,uint256,uint256)": {
        "notice": "Withdraw stake before lock period expires at the cost of losing part of a stake to the specified account The stake loss is proportional to the time passed from the maximum lock period to the lock expiration and voting power. The more time is passed the less would be the loss. Formula to calculate return amount = (deposit - voting power)) / 0.95"
      },
      "rescueFunds(address,uint256)": {
        "notice": "Retrieves funds from the contract in emergency situations"
      },
      "setDefaultFarm(address)": {
        "notice": "Sets the new farm that all staking users will automatically join after staking for reward farming"
      },
      "setEmergencyExit(bool)": {
        "notice": "Sets the emergency exit mode. In emergency mode any stake may withdraw its stake regardless of lock. The mode is intended to use only for migration to a new version of staking contract."
      },
      "setFeeReceiver(address)": {
        "notice": "Sets the new contract that would recieve early withdrawal fees"
      },
      "setMaxLossRatio(uint256)": {
        "notice": "Sets the maximum allowed loss ratio for early withdrawal. If the ratio is not met, actual is more than allowed, then early withdrawal will revert. Example: maxLossRatio = 90% and 1000 staked 1inch tokens means that a user can execute early withdrawal only if his loss is less than or equals 90% of his stake, which is 900 tokens. Thus, if a user loses 900 tokens he is allowed to do early withdrawal and not if the loss is greater."
      },
      "setMinLockPeriodRatio(uint256)": {
        "notice": "Sets the minimum allowed lock period ratio for early withdrawal. If the ratio is not met, actual is more than allowed, then early withdrawal will revert."
      },
      "votingPower(uint256)": {
        "notice": "Gets the voting power for the provided balance at the current timestamp assuming that the balance is a balance at the moment of the maximum lock time"
      },
      "votingPowerAt(uint256,uint256)": {
        "notice": "Gets the voting power for the provided balance at the current timestamp assuming that the balance is a balance at the moment of the maximum lock time"
      },
      "votingPowerOf(address)": {
        "notice": "Gets the voting power of the provided account"
      },
      "votingPowerOfAt(address,uint256)": {
        "notice": "Gets the voting power of the provided account at the given timestamp"
      },
      "withdraw()": {
        "notice": "Withdraws stake if lock period expired"
      },
      "withdrawTo(address)": {
        "notice": "Withdraws stake if lock period expired to the given address"
      }
    },
    "notice": "The contract provides the following features: staking, delegation, farming How lock period works: - balances and voting power - Lock min and max - Add lock - earlyWithdrawal - penalty math",
    "version": 1
  },
  "storageLayout": {
    "storage": [
      {
        "astId": 4215,
        "contract": "contracts/St1inch.sol:St1inch",
        "label": "_balances",
        "offset": 0,
        "slot": "0",
        "type": "t_mapping(t_address,t_uint256)"
      },
      {
        "astId": 4221,
        "contract": "contracts/St1inch.sol:St1inch",
        "label": "_allowances",
        "offset": 0,
        "slot": "1",
        "type": "t_mapping(t_address,t_mapping(t_address,t_uint256))"
      },
      {
        "astId": 4223,
        "contract": "contracts/St1inch.sol:St1inch",
        "label": "_totalSupply",
        "offset": 0,
        "slot": "2",
        "type": "t_uint256"
      },
      {
        "astId": 4225,
        "contract": "contracts/St1inch.sol:St1inch",
        "label": "_name",
        "offset": 0,
        "slot": "3",
        "type": "t_string_storage"
      },
      {
        "astId": 4227,
        "contract": "contracts/St1inch.sol:St1inch",
        "label": "_symbol",
        "offset": 0,
        "slot": "4",
        "type": "t_string_storage"
      },
      {
        "astId": 982,
        "contract": "contracts/St1inch.sol:St1inch",
        "label": "_guard",
        "offset": 0,
        "slot": "5",
        "type": "t_struct(Data)1712_storage"
      },
      {
        "astId": 987,
        "contract": "contracts/St1inch.sol:St1inch",
        "label": "_pods",
        "offset": 0,
        "slot": "6",
        "type": "t_mapping(t_address,t_struct(Data)3601_storage)"
      },
      {
        "astId": 4094,
        "contract": "contracts/St1inch.sol:St1inch",
        "label": "_owner",
        "offset": 0,
        "slot": "7",
        "type": "t_address"
      },
      {
        "astId": 6320,
        "contract": "contracts/St1inch.sol:St1inch",
        "label": "depositors",
        "offset": 0,
        "slot": "8",
        "type": "t_mapping(t_address,t_struct(Depositor)6315_storage)"
      },
      {
        "astId": 6322,
        "contract": "contracts/St1inch.sol:St1inch",
        "label": "totalDeposits",
        "offset": 0,
        "slot": "9",
        "type": "t_uint256"
      },
      {
        "astId": 6324,
        "contract": "contracts/St1inch.sol:St1inch",
        "label": "emergencyExit",
        "offset": 0,
        "slot": "10",
        "type": "t_bool"
      },
      {
        "astId": 6326,
        "contract": "contracts/St1inch.sol:St1inch",
        "label": "maxLossRatio",
        "offset": 0,
        "slot": "11",
        "type": "t_uint256"
      },
      {
        "astId": 6328,
        "contract": "contracts/St1inch.sol:St1inch",
        "label": "minLockPeriodRatio",
        "offset": 0,
        "slot": "12",
        "type": "t_uint256"
      },
      {
        "astId": 6330,
        "contract": "contracts/St1inch.sol:St1inch",
        "label": "feeReceiver",
        "offset": 0,
        "slot": "13",
        "type": "t_address"
      },
      {
        "astId": 6332,
        "contract": "contracts/St1inch.sol:St1inch",
        "label": "defaultFarm",
        "offset": 0,
        "slot": "14",
        "type": "t_address"
      }
    ],
    "types": {
      "t_address": {
        "encoding": "inplace",
        "label": "address",
        "numberOfBytes": "20"
      },
      "t_bool": {
        "encoding": "inplace",
        "label": "bool",
        "numberOfBytes": "1"
      },
      "t_mapping(t_address,t_mapping(t_address,t_uint256))": {
        "encoding": "mapping",
        "key": "t_address",
        "label": "mapping(address => mapping(address => uint256))",
        "numberOfBytes": "32",
        "value": "t_mapping(t_address,t_uint256)"
      },
      "t_mapping(t_address,t_struct(Data)3601_storage)": {
        "encoding": "mapping",
        "key": "t_address",
        "label": "mapping(address => struct AddressSet.Data)",
        "numberOfBytes": "32",
        "value": "t_struct(Data)3601_storage"
      },
      "t_mapping(t_address,t_struct(Depositor)6315_storage)": {
        "encoding": "mapping",
        "key": "t_address",
        "label": "mapping(address => struct St1inch.Depositor)",
        "numberOfBytes": "32",
        "value": "t_struct(Depositor)6315_storage"
      },
      "t_mapping(t_address,t_uint256)": {
        "encoding": "mapping",
        "key": "t_address",
        "label": "mapping(address => uint256)",
        "numberOfBytes": "32",
        "value": "t_uint256"
      },
      "t_mapping(t_uint256,t_uint256)": {
        "encoding": "mapping",
        "key": "t_uint256",
        "label": "mapping(uint256 => uint256)",
        "numberOfBytes": "32",
        "value": "t_uint256"
      },
      "t_string_storage": {
        "encoding": "bytes",
        "label": "string",
        "numberOfBytes": "32"
      },
      "t_struct(Data)1712_storage": {
        "encoding": "inplace",
        "label": "struct ReentrancyGuardLib.Data",
        "members": [
          {
            "astId": 1711,
            "contract": "contracts/St1inch.sol:St1inch",
            "label": "_status",
            "offset": 0,
            "slot": "0",
            "type": "t_uint256"
          }
        ],
        "numberOfBytes": "32"
      },
      "t_struct(Data)3219_storage": {
        "encoding": "inplace",
        "label": "struct AddressArray.Data",
        "members": [
          {
            "astId": 3218,
            "contract": "contracts/St1inch.sol:St1inch",
            "label": "_raw",
            "offset": 0,
            "slot": "0",
            "type": "t_mapping(t_uint256,t_uint256)"
          }
        ],
        "numberOfBytes": "32"
      },
      "t_struct(Data)3601_storage": {
        "encoding": "inplace",
        "label": "struct AddressSet.Data",
        "members": [
          {
            "astId": 3596,
            "contract": "contracts/St1inch.sol:St1inch",
            "label": "items",
            "offset": 0,
            "slot": "0",
            "type": "t_struct(Data)3219_storage"
          },
          {
            "astId": 3600,
            "contract": "contracts/St1inch.sol:St1inch",
            "label": "lookup",
            "offset": 0,
            "slot": "1",
            "type": "t_mapping(t_address,t_uint256)"
          }
        ],
        "numberOfBytes": "64"
      },
      "t_struct(Depositor)6315_storage": {
        "encoding": "inplace",
        "label": "struct St1inch.Depositor",
        "members": [
          {
            "astId": 6310,
            "contract": "contracts/St1inch.sol:St1inch",
            "label": "lockTime",
            "offset": 0,
            "slot": "0",
            "type": "t_uint40"
          },
          {
            "astId": 6312,
            "contract": "contracts/St1inch.sol:St1inch",
            "label": "unlockTime",
            "offset": 5,
            "slot": "0",
            "type": "t_uint40"
          },
          {
            "astId": 6314,
            "contract": "contracts/St1inch.sol:St1inch",
            "label": "amount",
            "offset": 10,
            "slot": "0",
            "type": "t_uint176"
          }
        ],
        "numberOfBytes": "32"
      },
      "t_uint176": {
        "encoding": "inplace",
        "label": "uint176",
        "numberOfBytes": "22"
      },
      "t_uint256": {
        "encoding": "inplace",
        "label": "uint256",
        "numberOfBytes": "32"
      },
      "t_uint40": {
        "encoding": "inplace",
        "label": "uint40",
        "numberOfBytes": "5"
      }
    }
  }
}