{
  "address": "0x1A87c0F9CCA2f0926A155640e8958a8A6B0260bE",
  "abi": [
    {
      "inputs": [
        {
          "internalType": "contract ISt1inch",
          "name": "st1inch_",
          "type": "address"
        }
      ],
      "stateMutability": "nonpayable",
      "type": "constructor"
    },
    {
      "inputs": [],
      "name": "AccessDenied",
      "type": "error"
    },
    {
      "inputs": [],
      "name": "AmountTooLarge",
      "type": "error"
    },
    {
      "inputs": [],
      "name": "DurationTooLarge",
      "type": "error"
    },
    {
      "inputs": [],
      "name": "SafeTransferFailed",
      "type": "error"
    },
    {
      "inputs": [],
      "name": "SafeTransferFromFailed",
      "type": "error"
    },
    {
      "inputs": [],
      "name": "SameDistributor",
      "type": "error"
    },
    {
      "inputs": [],
      "name": "ZeroDuration",
      "type": "error"
    },
    {
      "inputs": [],
      "name": "ZeroFarmableTokenAddress",
      "type": "error"
    },
    {
      "inputs": [],
      "name": "ZeroRewardsTokenAddress",
      "type": "error"
    },
    {
      "anonymous": false,
      "inputs": [
        {
          "indexed": false,
          "internalType": "address",
          "name": "oldDistributor",
          "type": "address"
        },
        {
          "indexed": false,
          "internalType": "address",
          "name": "newDistributor",
          "type": "address"
        }
      ],
      "name": "DistributorChanged",
      "type": "event"
    },
    {
      "anonymous": false,
      "inputs": [
        {
          "indexed": false,
          "internalType": "address",
          "name": "token",
          "type": "address"
        },
        {
          "indexed": false,
          "internalType": "address",
          "name": "reward",
          "type": "address"
        }
      ],
      "name": "FarmCreated",
      "type": "event"
    },
    {
      "anonymous": false,
      "inputs": [
        {
          "indexed": true,
          "internalType": "address",
          "name": "previousOwner",
          "type": "address"
        },
        {
          "indexed": true,
          "internalType": "address",
          "name": "newOwner",
          "type": "address"
        }
      ],
      "name": "OwnershipTransferred",
      "type": "event"
    },
    {
      "anonymous": false,
      "inputs": [
        {
          "indexed": false,
          "internalType": "uint256",
          "name": "reward",
          "type": "uint256"
        },
        {
          "indexed": false,
          "internalType": "uint256",
          "name": "duration",
          "type": "uint256"
        }
      ],
      "name": "RewardAdded",
      "type": "event"
    },
    {
      "inputs": [],
      "name": "claim",
      "outputs": [],
      "stateMutability": "nonpayable",
      "type": "function"
    },
    {
      "inputs": [],
      "name": "distributor",
      "outputs": [
        {
          "internalType": "address",
          "name": "",
          "type": "address"
        }
      ],
      "stateMutability": "view",
      "type": "function"
    },
    {
      "inputs": [],
      "name": "farmInfo",
      "outputs": [
        {
          "components": [
            {
              "internalType": "uint40",
              "name": "finished",
              "type": "uint40"
            },
            {
              "internalType": "uint32",
              "name": "duration",
              "type": "uint32"
            },
            {
              "internalType": "uint184",
              "name": "reward",
              "type": "uint184"
            }
          ],
          "internalType": "struct FarmAccounting.Info",
          "name": "",
          "type": "tuple"
        }
      ],
      "stateMutability": "view",
      "type": "function"
    },
    {
      "inputs": [
        {
          "internalType": "address",
          "name": "account",
          "type": "address"
        }
      ],
      "name": "farmed",
      "outputs": [
        {
          "internalType": "uint256",
          "name": "",
          "type": "uint256"
        }
      ],
      "stateMutability": "view",
      "type": "function"
    },
    {
      "inputs": [],
      "name": "owner",
      "outputs": [
        {
          "internalType": "address",
          "name": "",
          "type": "address"
        }
      ],
      "stateMutability": "view",
      "type": "function"
    },
    {
      "inputs": [],
      "name": "renounceOwnership",
      "outputs": [],
      "stateMutability": "nonpayable",
      "type": "function"
    },
    {
      "inputs": [
        {
          "internalType": "contract IERC20",
          "name": "token",
          "type": "address"
        },
        {
          "internalType": "uint256",
          "name": "amount",
          "type": "uint256"
        }
      ],
      "name": "rescueFunds",
      "outputs": [],
      "stateMutability": "nonpayable",
      "type": "function"
    },
    {
      "inputs": [],
      "name": "rewardsToken",
      "outputs": [
        {
          "internalType": "contract IERC20",
          "name": "",
          "type": "address"
        }
      ],
      "stateMutability": "view",
      "type": "function"
    },
    {
      "inputs": [
        {
          "internalType": "address",
          "name": "distributor_",
          "type": "address"
        }
      ],
      "name": "setDistributor",
      "outputs": [],
      "stateMutability": "nonpayable",
      "type": "function"
    },
    {
      "inputs": [],
      "name": "st1inch",
      "outputs": [
        {
          "internalType": "contract ISt1inch",
          "name": "",
          "type": "address"
        }
      ],
      "stateMutability": "view",
      "type": "function"
    },
    {
      "inputs": [
        {
          "internalType": "uint256",
          "name": "amount",
          "type": "uint256"
        },
        {
          "internalType": "uint256",
          "name": "period",
          "type": "uint256"
        }
      ],
      "name": "startFarming",
      "outputs": [],
      "stateMutability": "nonpayable",
      "type": "function"
    },
    {
      "inputs": [],
      "name": "token",
      "outputs": [
        {
          "internalType": "contract IERC20Pods",
          "name": "",
          "type": "address"
        }
      ],
      "stateMutability": "view",
      "type": "function"
    },
    {
      "inputs": [],
      "name": "totalSupply",
      "outputs": [
        {
          "internalType": "uint256",
          "name": "",
          "type": "uint256"
        }
      ],
      "stateMutability": "view",
      "type": "function"
    },
    {
      "inputs": [
        {
          "internalType": "address",
          "name": "newOwner",
          "type": "address"
        }
      ],
      "name": "transferOwnership",
      "outputs": [],
      "stateMutability": "nonpayable",
      "type": "function"
    },
    {
      "inputs": [
        {
          "internalType": "address",
          "name": "from",
          "type": "address"
        },
        {
          "internalType": "address",
          "name": "to",
          "type": "address"
        },
        {
          "internalType": "uint256",
          "name": "amount",
          "type": "uint256"
        }
      ],
      "name": "updateBalances",
      "outputs": [],
      "stateMutability": "nonpayable",
      "type": "function"
    }
  ],
  "transactionHash": "0x139f6e2e5e17dd12ff38fa55238d0b87f1734a0a2f280290d45dbfe0869b068c",
  "args": [
    "0x9A0C8Ff858d273f57072D714bca7411D717501D7"
  ],
  "numDeployments": 1,
  "solcInputHash": "471adf4fc7e903fa1f1aae7570f90759",
  "bytecode": "0x60e06040523480156200001157600080fd5b5060405162001b7838038062001b788339810160408190526200003491620001cb565b80816001600160a01b031663045c08d56040518163ffffffff1660e01b8152600401602060405180830381865afa15801562000074573d6000803e3d6000fd5b505050506040513d601f19601f820116820180604052508101906200009a9190620001cb565b6001600160a01b038216608052620000b23362000162565b6001600160a01b038216620000da5760405163d0af4eb760e01b815260040160405180910390fd5b6001600160a01b03811662000102576040516330c1035b60e21b815260040160405180910390fd5b6001600160a01b0381811660a081905260408051928516835260208301919091527f6bff9ddd187ef283e9c7726f406ab27bcc3719a41b6bee3585c7447183cffcec910160405180910390a150506001600160a01b031660c052620001f2565b600080546001600160a01b038381166001600160a01b0319831681178455604051919092169283917f8be0079c531659141344cd1fd0a4f28419497f9722a3daafe3b4186f6b6457e09190a35050565b6001600160a01b0381168114620001c857600080fd5b50565b600060208284031215620001de57600080fd5b8151620001eb81620001b2565b9392505050565b60805160a05160c05161192562000253600039600081816101f7015281816109df0152610ade0152600081816102d301528181610537015261064501526000818161030d015281816103850152818161046b015261084b01526119256000f3fe608060405234801561001057600080fd5b50600436106100f55760003560e01c806375619ab511610097578063bfe1092811610066578063bfe10928146102b0578063d1af0c7d146102ce578063f2fde38b146102f5578063fc0c546a1461030857600080fd5b806375619ab51461025957806378e3214f1461026c5780637a1f1aa91461027f5780638da5cb5b1461029257600080fd5b80634e71d92d116100d35780634e71d92d146101e857806357425508146101f2578063702612221461023e578063715018a61461025157600080fd5b806318160ddd146100fa5780631d49d66c146101115780634216f972146101d5575b600080fd5b6002545b6040519081526020015b60405180910390f35b61018d6040805160608101825260008082526020820181905291810191909152506040805160608101825260035464ffffffffff8116825265010000000000810463ffffffff1660208301526901000000000000000000900476ffffffffffffffffffffffffffffffffffffffffffffff169181019190915290565b60408051825164ffffffffff16815260208084015163ffffffff16908201529181015176ffffffffffffffffffffffffffffffffffffffffffffff1690820152606001610108565b6100fe6101e3366004611696565b610335565b6101f0610434565b005b6102197f000000000000000000000000000000000000000000000000000000000000000081565b60405173ffffffffffffffffffffffffffffffffffffffff9091168152602001610108565b6101f061024c3660046116b3565b610561565b6101f0610672565b6101f0610267366004611696565b610686565b6101f061027a3660046116d5565b61077d565b6101f061028d366004611701565b610833565b60005473ffffffffffffffffffffffffffffffffffffffff16610219565b60015473ffffffffffffffffffffffffffffffffffffffff16610219565b6102197f000000000000000000000000000000000000000000000000000000000000000081565b6101f0610303366004611696565b6108ad565b6102197f000000000000000000000000000000000000000000000000000000000000000081565b60025490565b6040517f3466a88600000000000000000000000000000000000000000000000000000000815230600482015273ffffffffffffffffffffffffffffffffffffffff828116602483015260009182917f00000000000000000000000000000000000000000000000000000000000000001690633466a88690604401602060405180830381865afa1580156103cc573d6000803e3d6000fd5b505050506040513d601f19601f820116820180604052508101906103f09190611742565b905061042d838261042660408051808201825261166c81526000602091820152815180830190925261032f825260039082015290565b9190610969565b9392505050565b6040517f3466a8860000000000000000000000000000000000000000000000000000000081523060048201523360248201526000907f000000000000000000000000000000000000000000000000000000000000000073ffffffffffffffffffffffffffffffffffffffff1690633466a88690604401602060405180830381865afa1580156104c7573d6000803e3d6000fd5b505050506040513d601f19601f820116820180604052508101906104eb9190611742565b9050600061052a338361052360408051808201825261166c81526000602091820152815180830190925261032f825260039082015290565b9190610991565b9050801561055d5761055d7f000000000000000000000000000000000000000000000000000000000000000033836109dd565b5050565b60015473ffffffffffffffffffffffffffffffffffffffff1633146105b2576040517f4ca8886700000000000000000000000000000000000000000000000000000000815260040160405180910390fd5b60006105ef83836105e860408051808201825261166c81526000602091820152815180830190925261032f825260039082015290565b9190610b3f565b60408051828152602081018590529192507f6c07ee05dcf262f13abf9d87b846ee789d2f90fe991d495acd7d7fc109ee1f55910160405180910390a161066d73ffffffffffffffffffffffffffffffffffffffff7f000000000000000000000000000000000000000000000000000000000000000016333086610bca565b505050565b61067a610c67565b6106846000610ce8565b565b61068e610c67565b60015473ffffffffffffffffffffffffffffffffffffffff9081169082168190036106e5576040517f8750ee9000000000000000000000000000000000000000000000000000000000815260040160405180910390fd5b6040805173ffffffffffffffffffffffffffffffffffffffff8084168252841660208201527fa9f739537fc57540bed0a44e33e27baa63290d865cc15f0f16cf17d38c998a4d910160405180910390a150600180547fffffffffffffffffffffffff00000000000000000000000000000000000000001673ffffffffffffffffffffffffffffffffffffffff92909216919091179055565b60015473ffffffffffffffffffffffffffffffffffffffff1633146107ce576040517f4ca8886700000000000000000000000000000000000000000000000000000000815260040160405180910390fd5b73ffffffffffffffffffffffffffffffffffffffff821661080c5760015461055d9073ffffffffffffffffffffffffffffffffffffffff1682610d5d565b60015461055d9073ffffffffffffffffffffffffffffffffffffffff848116911683610eb7565b3373ffffffffffffffffffffffffffffffffffffffff7f000000000000000000000000000000000000000000000000000000000000000016146108a2576040517f4ca8886700000000000000000000000000000000000000000000000000000000815260040160405180910390fd5b61066d838383610f19565b6108b5610c67565b73ffffffffffffffffffffffffffffffffffffffff811661095d576040517f08c379a000000000000000000000000000000000000000000000000000000000815260206004820152602660248201527f4f776e61626c653a206e6577206f776e657220697320746865207a65726f206160448201527f646472657373000000000000000000000000000000000000000000000000000060648201526084015b60405180910390fd5b61096681610ce8565b50565b6000610989838361097987610fc0565b6020880151600101929190610fe8565b949350505050565b60008061099f856020015190565b905060006109ac86610fc0565b90506109bd60018301868684610fe8565b925082156109d4576109d460018301868684611038565b50509392505050565b7f000000000000000000000000000000000000000000000000000000000000000073ffffffffffffffffffffffffffffffffffffffff16635641ec036040518163ffffffff1660e01b8152600401602060405180830381865afa158015610a48573d6000803e3d6000fd5b505050506040513d601f19601f82011682018060405250810190610a6c919061175b565b15610a925761066d73ffffffffffffffffffffffffffffffffffffffff84168383610eb7565b6040517f2f4f21e200000000000000000000000000000000000000000000000000000000815273ffffffffffffffffffffffffffffffffffffffff8381166004830152602482018390527f00000000000000000000000000000000000000000000000000000000000000001690632f4f21e290604401600060405180830381600087803b158015610b2257600080fd5b505af1158015610b36573d6000803e3d6000fd5b50505050505050565b600080610b4d856020015190565b9050610bb6610b5b86610fc0565b600183019064ffffffffff42167affffffffffffffffffffffffffffffffffffffffffffffffffffff90911665010000000000027fffffffffffffffffffffffffffffffffffffffffffffffffffffff000000000016179055565b610bc1818585611071565b95945050505050565b60006323b872dd60e01b905060006040518281528560048201528460248201528360448201526020600060648360008b5af19150508015610c28573d8015610c1e57600160005114601f3d11169150610c26565b6000873b1191505b505b80610c5f576040517ff405907100000000000000000000000000000000000000000000000000000000815260040160405180910390fd5b505050505050565b60005473ffffffffffffffffffffffffffffffffffffffff163314610684576040517f08c379a000000000000000000000000000000000000000000000000000000000815260206004820181905260248201527f4f776e61626c653a2063616c6c6572206973206e6f7420746865206f776e65726044820152606401610954565b6000805473ffffffffffffffffffffffffffffffffffffffff8381167fffffffffffffffffffffffff0000000000000000000000000000000000000000831681178455604051919092169283917f8be0079c531659141344cd1fd0a4f28419497f9722a3daafe3b4186f6b6457e09190a35050565b80471015610dc7576040517f08c379a000000000000000000000000000000000000000000000000000000000815260206004820152601d60248201527f416464726573733a20696e73756666696369656e742062616c616e63650000006044820152606401610954565b60008273ffffffffffffffffffffffffffffffffffffffff168260405160006040518083038185875af1925050503d8060008114610e21576040519150601f19603f3d011682016040523d82523d6000602084013e610e26565b606091505b505090508061066d576040517f08c379a000000000000000000000000000000000000000000000000000000000815260206004820152603a60248201527f416464726573733a20756e61626c6520746f2073656e642076616c75652c207260448201527f6563697069656e74206d617920686176652072657665727465640000000000006064820152608401610954565b610ee3837fa9059cbb0000000000000000000000000000000000000000000000000000000084846112ad565b61066d576040517ffb7f507900000000000000000000000000000000000000000000000000000000815260040160405180910390fd5b610f56838383610f4e60408051808201825261166c81526000602091820152815180830190925261032f825260039082015290565b929190611300565b73ffffffffffffffffffffffffffffffffffffffff8316610f89578060026000828254610f8391906117ac565b90915550505b73ffffffffffffffffffffffffffffffffffffffff821661066d578060026000828254610fb691906117bf565b9091555050505050565b6000610fe282611326611359610fd7866020015190565b6001019291906113ee565b92915050565b73ffffffffffffffffffffffffffffffffffffffff83166000908152600185016020526040812054670de0b6b3a76400009061102484866117d2565b61102e91906117e9565b610bc1919061183f565b61104281836117d2565b73ffffffffffffffffffffffffffffffffffffffff909316600090815260019094016020525050604090912055565b6000816000036110ad576040517f68d5686e00000000000000000000000000000000000000000000000000000000815260040160405180910390fd5b63ffffffff8211156110eb576040517f426a107300000000000000000000000000000000000000000000000000000000815260040160405180910390fd5b6d04ee2d6d415b85acef8100000000831115611133576040517f0625040100000000000000000000000000000000000000000000000000000000815260040160405180910390fd5b60408051606081018252855464ffffffffff811680835265010000000000820463ffffffff166020840152690100000000000000000090910476ffffffffffffffffffffffffffffffffffffffffffffff16928201929092529042101561120657670de0b6b3a76400006111c782836020015163ffffffff1684600001516111bb919061187a565b64ffffffffff1661146e565b6111d1919061183f565b816040015176ffffffffffffffffffffffffffffffffffffffffffffff166111f991906117bf565b61120390856117ac565b93505b61121083426117ac565b855464ffffffffff908116690100000000000000000076ffffffffffffffffffffffffffffffffffffffffffffff8816027fffffffffffffffffffffffffffffffffffffffffffffff00000000ffffffffff16176501000000000063ffffffff9690961695909502949094177fffffffffffffffffffffffffffffffffffffffffffffffffffffff00000000001693169290921790935550919050565b60006040518481528360048201528260248201526020600060448360008a5af19150508015610989573d80156112ef57600160005114601f3d111691506112f7565b6000863b1191505b50949350505050565b61132083838361130f88610fc0565b6020890151600101939291906114fb565b50505050565b600080611347836040805180820190915261166c8152600060208201525090565b905061042d816000015163ffffffff16565b60008061137a846040805180820190915261166c8152600060208201525090565b90506109898361138b836020015190565b60408051606081018252915464ffffffffff8116835265010000000000810463ffffffff9081166020850152690100000000000000000090910476ffffffffffffffffffffffffffffffffffffffffffffff169183019190915290919061146e16565b835460009064ffffffffff8116906501000000000090047affffffffffffffffffffffffffffffffffffffffffffffffffffff16428214611464576000611438878763ffffffff16565b90508015611462578061144f88858863ffffffff16565b8161145c5761145c611810565b04820191505b505b9695505050505050565b602082015160009063ffffffff1615610fe257600061149883856000015164ffffffffff16611656565b6114ad42866000015164ffffffffff16611656565b039050836020015163ffffffff16670de0b6b3a7640000856040015176ffffffffffffffffffffffffffffffffffffffffffffff16830202816114f2576114f2611810565b04915050610fe2565b73ffffffffffffffffffffffffffffffffffffffff8481161590841615831580159061155357508473ffffffffffffffffffffffffffffffffffffffff168673ffffffffffffffffffffffffffffffffffffffff1614155b15610b365781806115615750805b156115ba577fffffffffffffffffffffffffffffffffffffffffffffffffffffff0000000000650100000000007affffffffffffffffffffffffffffffffffffffffffffffffffffff851602164264ffffffffff161787555b60006115c684866117d2565b90508261160a5773ffffffffffffffffffffffffffffffffffffffff87166000908152600189016020526040812080548392906116049084906117e9565b90915550505b8161164c5773ffffffffffffffffffffffffffffffffffffffff8616600090815260018901602052604081208054839290611646908490611898565b90915550505b5050505050505050565b6000818310611665578161042d565b5090919050565b6106846118c0565b73ffffffffffffffffffffffffffffffffffffffff8116811461096657600080fd5b6000602082840312156116a857600080fd5b813561042d81611674565b600080604083850312156116c657600080fd5b50508035926020909101359150565b600080604083850312156116e857600080fd5b82356116f381611674565b946020939093013593505050565b60008060006060848603121561171657600080fd5b833561172181611674565b9250602084013561173181611674565b929592945050506040919091013590565b60006020828403121561175457600080fd5b5051919050565b60006020828403121561176d57600080fd5b8151801515811461042d57600080fd5b7f4e487b7100000000000000000000000000000000000000000000000000000000600052601160045260246000fd5b80820180821115610fe257610fe261177d565b81810381811115610fe257610fe261177d565b8082028115828204841417610fe257610fe261177d565b81810360008312801583831316838312821617156118095761180961177d565b5092915050565b7f4e487b7100000000000000000000000000000000000000000000000000000000600052601260045260246000fd5b600082611875577f4e487b7100000000000000000000000000000000000000000000000000000000600052601260045260246000fd5b500490565b64ffffffffff8281168282160390808211156118095761180961177d565b80820182811260008312801582168215821617156118b8576118b861177d565b505092915050565b7f4e487b7100000000000000000000000000000000000000000000000000000000600052605160045260246000fdfea264697066735822122034466a7444fbfe72c0ad864e9d1e30cf4dfc6176b03de945f641f740b8a4824b64736f6c63430008110033",
  "devdoc": {
    "kind": "dev",
    "methods": {
      "owner()": {
        "details": "Returns the address of the current owner."
      },
      "renounceOwnership()": {
        "details": "Leaves the contract without owner. It will not be possible to call `onlyOwner` functions anymore. Can only be called by the current owner. NOTE: Renouncing ownership will leave the contract without an owner, thereby removing any functionality that is only available to the owner."
      },
      "transferOwnership(address)": {
        "details": "Transfers ownership of the contract to a new account (`newOwner`). Can only be called by the current owner."
      }
    },
    "version": 1
  },
  "userdoc": {
    "kind": "user",
    "methods": {},
    "version": 1
  },
  "storageLayout": {
    "storage": [
      {
        "astId": 9190,
        "contract": "contracts/StakingFarmingPod.sol:StakingFarmingPod",
        "label": "_owner",
        "offset": 0,
        "slot": "0",
        "type": "t_address"
      },
      {
        "astId": 2332,
        "contract": "contracts/StakingFarmingPod.sol:StakingFarmingPod",
        "label": "_distributor",
        "offset": 0,
        "slot": "1",
        "type": "t_address"
      },
      {
        "astId": 2334,
        "contract": "contracts/StakingFarmingPod.sol:StakingFarmingPod",
        "label": "_totalSupply",
        "offset": 0,
        "slot": "2",
        "type": "t_uint256"
      },
      {
        "astId": 2337,
        "contract": "contracts/StakingFarmingPod.sol:StakingFarmingPod",
        "label": "_farm",
        "offset": 0,
        "slot": "3",
        "type": "t_struct(Data)2010_storage"
      }
    ],
    "types": {
      "t_address": {
        "encoding": "inplace",
        "label": "address",
        "numberOfBytes": "20"
      },
      "t_int256": {
        "encoding": "inplace",
        "label": "int256",
        "numberOfBytes": "32"
      },
      "t_mapping(t_address,t_int256)": {
        "encoding": "mapping",
        "key": "t_address",
        "label": "mapping(address => int256)",
        "numberOfBytes": "32",
        "value": "t_int256"
      },
      "t_struct(Data)2010_storage": {
        "encoding": "inplace",
        "label": "struct FarmingLib.Data",
        "members": [
          {
            "astId": 2006,
            "contract": "contracts/StakingFarmingPod.sol:StakingFarmingPod",
            "label": "farmInfo",
            "offset": 0,
            "slot": "0",
            "type": "t_struct(Info)3244_storage"
          },
          {
            "astId": 2009,
            "contract": "contracts/StakingFarmingPod.sol:StakingFarmingPod",
            "label": "userInfo",
            "offset": 0,
            "slot": "1",
            "type": "t_struct(Info)3403_storage"
          }
        ],
        "numberOfBytes": "96"
      },
      "t_struct(Info)3244_storage": {
        "encoding": "inplace",
        "label": "struct FarmAccounting.Info",
        "members": [
          {
            "astId": 3239,
            "contract": "contracts/StakingFarmingPod.sol:StakingFarmingPod",
            "label": "finished",
            "offset": 0,
            "slot": "0",
            "type": "t_uint40"
          },
          {
            "astId": 3241,
            "contract": "contracts/StakingFarmingPod.sol:StakingFarmingPod",
            "label": "duration",
            "offset": 5,
            "slot": "0",
            "type": "t_uint32"
          },
          {
            "astId": 3243,
            "contract": "contracts/StakingFarmingPod.sol:StakingFarmingPod",
            "label": "reward",
            "offset": 9,
            "slot": "0",
            "type": "t_uint184"
          }
        ],
        "numberOfBytes": "32"
      },
      "t_struct(Info)3403_storage": {
        "encoding": "inplace",
        "label": "struct UserAccounting.Info",
        "members": [
          {
            "astId": 3396,
            "contract": "contracts/StakingFarmingPod.sol:StakingFarmingPod",
            "label": "checkpoint",
            "offset": 0,
            "slot": "0",
            "type": "t_uint40"
          },
          {
            "astId": 3398,
            "contract": "contracts/StakingFarmingPod.sol:StakingFarmingPod",
            "label": "farmedPerTokenStored",
            "offset": 5,
            "slot": "0",
            "type": "t_uint216"
          },
          {
            "astId": 3402,
            "contract": "contracts/StakingFarmingPod.sol:StakingFarmingPod",
            "label": "corrections",
            "offset": 0,
            "slot": "1",
            "type": "t_mapping(t_address,t_int256)"
          }
        ],
        "numberOfBytes": "64"
      },
      "t_uint184": {
        "encoding": "inplace",
        "label": "uint184",
        "numberOfBytes": "23"
      },
      "t_uint216": {
        "encoding": "inplace",
        "label": "uint216",
        "numberOfBytes": "27"
      },
      "t_uint256": {
        "encoding": "inplace",
        "label": "uint256",
        "numberOfBytes": "32"
      },
      "t_uint32": {
        "encoding": "inplace",
        "label": "uint32",
        "numberOfBytes": "4"
      },
      "t_uint40": {
        "encoding": "inplace",
        "label": "uint40",
        "numberOfBytes": "5"
      }
    }
  }
}