{
  "address": "0x52096d540719a8577FE634624F50BADeA050eebD",
  "abi": [
    {
      "inputs": [],
      "name": "ArraysLengthsDoNotMatch",
      "type": "error"
    },
    {
      "inputs": [],
      "name": "InsufficientBalance",
      "type": "error"
    },
    {
      "inputs": [],
      "name": "SafeTransferFailed",
      "type": "error"
    },
    {
      "inputs": [],
      "name": "SameStatus",
      "type": "error"
    },
    {
      "anonymous": false,
      "inputs": [
        {
          "indexed": true,
          "internalType": "address",
          "name": "previousOwner",
          "type": "address"
        },
        {
          "indexed": true,
          "internalType": "address",
          "name": "newOwner",
          "type": "address"
        }
      ],
      "name": "OwnershipTransferred",
      "type": "event"
    },
    {
      "anonymous": false,
      "inputs": [
        {
          "indexed": true,
          "internalType": "address",
          "name": "addr",
          "type": "address"
        },
        {
          "indexed": false,
          "internalType": "bool",
          "name": "status",
          "type": "bool"
        }
      ],
      "name": "StatusUpdate",
      "type": "event"
    },
    {
      "inputs": [
        {
          "internalType": "address[]",
          "name": "addresses",
          "type": "address[]"
        },
        {
          "internalType": "bool[]",
          "name": "statuses",
          "type": "bool[]"
        }
      ],
      "name": "batchSetStatus",
      "outputs": [],
      "stateMutability": "nonpayable",
      "type": "function"
    },
    {
      "inputs": [
        {
          "internalType": "address",
          "name": "",
          "type": "address"
        }
      ],
      "name": "isWhitelisted",
      "outputs": [
        {
          "internalType": "bool",
          "name": "",
          "type": "bool"
        }
      ],
      "stateMutability": "view",
      "type": "function"
    },
    {
      "inputs": [],
      "name": "owner",
      "outputs": [
        {
          "internalType": "address",
          "name": "",
          "type": "address"
        }
      ],
      "stateMutability": "view",
      "type": "function"
    },
    {
      "inputs": [],
      "name": "renounceOwnership",
      "outputs": [],
      "stateMutability": "nonpayable",
      "type": "function"
    },
    {
      "inputs": [
        {
          "internalType": "contract IERC20",
          "name": "token",
          "type": "address"
        },
        {
          "internalType": "uint256",
          "name": "amount",
          "type": "uint256"
        }
      ],
      "name": "rescueFunds",
      "outputs": [],
      "stateMutability": "nonpayable",
      "type": "function"
    },
    {
      "inputs": [
        {
          "internalType": "address",
          "name": "_address",
          "type": "address"
        },
        {
          "internalType": "bool",
          "name": "_status",
          "type": "bool"
        }
      ],
      "name": "setStatus",
      "outputs": [],
      "stateMutability": "nonpayable",
      "type": "function"
    },
    {
      "inputs": [
        {
          "internalType": "address",
          "name": "newOwner",
          "type": "address"
        }
      ],
      "name": "transferOwnership",
      "outputs": [],
      "stateMutability": "nonpayable",
      "type": "function"
    }
  ],
  "transactionHash": "0x4be1e9c30a74adadb823bc7fbba53afdfd1060936b0a9e62a122c2cbcd884343",
  "args": [],
  "numDeployments": 1,
  "solcInputHash": "3bfb0c42d3b3eb2517077fc6473a3ced",
  "bytecode": "0x608060405234801561001057600080fd5b5061001a3361001f565b61006f565b600080546001600160a01b038381166001600160a01b0319831681178455604051919092169283917f8be0079c531659141344cd1fd0a4f28419497f9722a3daafe3b4186f6b6457e09190a35050565b6109038061007e6000396000f3fe608060405234801561001057600080fd5b506004361061007d5760003560e01c806378e3214f1161005b57806378e3214f146100d75780638da5cb5b146100ea578063b304f21c14610112578063f2fde38b1461012557600080fd5b80633af32abf1461008257806340faf32c146100ba578063715018a6146100cf575b600080fd5b6100a56100903660046106d2565b60016020526000908152604090205460ff1681565b60405190151581526020015b60405180910390f35b6100cd6100c8366004610742565b610138565b005b6100cd6101f3565b6100cd6100e53660046107ae565b610207565b60005460405173ffffffffffffffffffffffffffffffffffffffff90911681526020016100b1565b6100cd6101203660046107ef565b610234565b6100cd6101333660046106d2565b610246565b610140610302565b8281811461017a576040517f9f0513c400000000000000000000000000000000000000000000000000000000815260040160405180910390fd5b60005b818110156101eb576101db86868381811061019a5761019a610824565b90506020020160208101906101af91906106d2565b8585848181106101c1576101c1610824565b90506020020160208101906101d69190610853565b610383565b6101e48161086e565b905061017d565b505050505050565b6101fb610302565b6102056000610474565b565b61020f610302565b61023073ffffffffffffffffffffffffffffffffffffffff831633836104e9565b5050565b61023c610302565b6102308282610383565b61024e610302565b73ffffffffffffffffffffffffffffffffffffffff81166102f6576040517f08c379a000000000000000000000000000000000000000000000000000000000815260206004820152602660248201527f4f776e61626c653a206e6577206f776e657220697320746865207a65726f206160448201527f646472657373000000000000000000000000000000000000000000000000000060648201526084015b60405180910390fd5b6102ff81610474565b50565b60005473ffffffffffffffffffffffffffffffffffffffff163314610205576040517f08c379a000000000000000000000000000000000000000000000000000000000815260206004820181905260248201527f4f776e61626c653a2063616c6c6572206973206e6f7420746865206f776e657260448201526064016102ed565b73ffffffffffffffffffffffffffffffffffffffff821660009081526001602052604090205481151560ff9091161515036103ea576040517f24904fe500000000000000000000000000000000000000000000000000000000815260040160405180910390fd5b73ffffffffffffffffffffffffffffffffffffffff821660008181526001602090815260409182902080547fffffffffffffffffffffffffffffffffffffffffffffffffffffffffffffff001685151590811790915591519182527fed2767fb6072eed701bd9068813762521f067d7f870d6e36a4dd4b2bd1a8c0ce910160405180910390a25050565b6000805473ffffffffffffffffffffffffffffffffffffffff8381167fffffffffffffffffffffffff0000000000000000000000000000000000000000831681178455604051919092169283917f8be0079c531659141344cd1fd0a4f28419497f9722a3daafe3b4186f6b6457e09190a35050565b80156105a1576104f8836105a6565b156105805780471015610537576040517ff4d678b800000000000000000000000000000000000000000000000000000000815260040160405180910390fd5b60405173ffffffffffffffffffffffffffffffffffffffff83169082156108fc029083906000818181858888f1935050505015801561057a573d6000803e3d6000fd5b50505050565b6105a173ffffffffffffffffffffffffffffffffffffffff841683836105fa565b505050565b600073ffffffffffffffffffffffffffffffffffffffff821615806105f4575073ffffffffffffffffffffffffffffffffffffffff821673eeeeeeeeeeeeeeeeeeeeeeeeeeeeeeeeeeeeeeee145b92915050565b610626837fa9059cbb00000000000000000000000000000000000000000000000000000000848461065c565b6105a1576040517ffb7f507900000000000000000000000000000000000000000000000000000000815260040160405180910390fd5b60006040518481528360048201528260248201526020600060448360008a5af191505080156106a8573d801561069e57600160005114601f3d111691506106a6565b6000863b1191505b505b949350505050565b73ffffffffffffffffffffffffffffffffffffffff811681146102ff57600080fd5b6000602082840312156106e457600080fd5b81356106ef816106b0565b9392505050565b60008083601f84011261070857600080fd5b50813567ffffffffffffffff81111561072057600080fd5b6020830191508360208260051b850101111561073b57600080fd5b9250929050565b6000806000806040858703121561075857600080fd5b843567ffffffffffffffff8082111561077057600080fd5b61077c888389016106f6565b9096509450602087013591508082111561079557600080fd5b506107a2878288016106f6565b95989497509550505050565b600080604083850312156107c157600080fd5b82356107cc816106b0565b946020939093013593505050565b803580151581146107ea57600080fd5b919050565b6000806040838503121561080257600080fd5b823561080d816106b0565b915061081b602084016107da565b90509250929050565b7f4e487b7100000000000000000000000000000000000000000000000000000000600052603260045260246000fd5b60006020828403121561086557600080fd5b6106ef826107da565b60007fffffffffffffffffffffffffffffffffffffffffffffffffffffffffffffffff82036108c6577f4e487b7100000000000000000000000000000000000000000000000000000000600052601160045260246000fd5b506001019056fea26469706673582212203e4f7e874adf6f91d718900d2231010b5f81a7069e4d555e4b891aa22c82f73c64736f6c63430008110033",
  "devdoc": {
    "kind": "dev",
    "methods": {
      "owner()": {
        "details": "Returns the address of the current owner."
      },
      "renounceOwnership()": {
        "details": "Leaves the contract without owner. It will not be possible to call `onlyOwner` functions anymore. Can only be called by the current owner. NOTE: Renouncing ownership will leave the contract without an owner, thereby removing any functionality that is only available to the owner."
      },
      "transferOwnership(address)": {
        "details": "Transfers ownership of the contract to a new account (`newOwner`). Can only be called by the current owner."
      }
    },
    "title": "Contract with simple whitelist",
    "version": 1
  },
  "userdoc": {
    "kind": "user",
    "methods": {},
    "version": 1
  },
  "storageLayout": {
    "storage": [
      {
        "astId": 7366,
        "contract": "contracts/WhitelistRegistrySimple.sol:WhitelistRegistrySimple",
        "label": "_owner",
        "offset": 0,
        "slot": "0",
        "type": "t_address"
      },
      {
        "astId": 12724,
        "contract": "contracts/WhitelistRegistrySimple.sol:WhitelistRegistrySimple",
        "label": "isWhitelisted",
        "offset": 0,
        "slot": "1",
        "type": "t_mapping(t_address,t_bool)"
      }
    ],
    "types": {
      "t_address": {
        "encoding": "inplace",
        "label": "address",
        "numberOfBytes": "20"
      },
      "t_bool": {
        "encoding": "inplace",
        "label": "bool",
        "numberOfBytes": "1"
      },
      "t_mapping(t_address,t_bool)": {
        "encoding": "mapping",
        "key": "t_address",
        "label": "mapping(address => bool)",
        "numberOfBytes": "32",
        "value": "t_bool"
      }
    }
  }
}