{
  "address": "0xF55684BC536487394B423e70567413faB8e45E26",
  "abi": [
    {
      "inputs": [
        {
          "internalType": "contract IVotable",
          "name": "token_",
          "type": "address"
        },
        {
          "internalType": "uint256",
          "name": "resolverPercentageThreshold_",
          "type": "uint256"
        }
      ],
      "stateMutability": "nonpayable",
      "type": "constructor"
    },
    {
      "inputs": [],
      "name": "AlreadyRegistered",
      "type": "error"
    },
    {
      "inputs": [],
      "name": "BalanceLessThanThreshold",
      "type": "error"
    },
    {
      "inputs": [],
      "name": "ETHTransferFailed",
      "type": "error"
    },
    {
      "inputs": [],
      "name": "IndexOutOfBounds",
      "type": "error"
    },
    {
      "inputs": [],
      "name": "InsufficientBalance",
      "type": "error"
    },
    {
      "inputs": [],
      "name": "NotWhitelisted",
      "type": "error"
    },
    {
      "inputs": [],
      "name": "OutputArrayTooSmall",
      "type": "error"
    },
    {
      "inputs": [],
      "name": "PopFromEmptyArray",
      "type": "error"
    },
    {
      "inputs": [],
      "name": "SafeTransferFailed",
      "type": "error"
    },
    {
      "inputs": [],
      "name": "SamePromotee",
      "type": "error"
    },
    {
      "anonymous": false,
      "inputs": [
        {
          "indexed": true,
          "internalType": "address",
          "name": "previousOwner",
          "type": "address"
        },
        {
          "indexed": true,
          "internalType": "address",
          "name": "newOwner",
          "type": "address"
        }
      ],
      "name": "OwnershipTransferred",
      "type": "event"
    },
    {
      "anonymous": false,
      "inputs": [
        {
          "indexed": false,
          "internalType": "address",
          "name": "promoter",
          "type": "address"
        },
        {
          "indexed": false,
          "internalType": "uint256",
          "name": "chainId",
          "type": "uint256"
        },
        {
          "indexed": false,
          "internalType": "address",
          "name": "promotee",
          "type": "address"
        }
      ],
      "name": "Promotion",
      "type": "event"
    },
    {
      "anonymous": false,
      "inputs": [
        {
          "indexed": false,
          "internalType": "address",
          "name": "addr",
          "type": "address"
        }
      ],
      "name": "Registered",
      "type": "event"
    },
    {
      "anonymous": false,
      "inputs": [
        {
          "indexed": false,
          "internalType": "uint256",
          "name": "resolverPercentageThreshold",
          "type": "uint256"
        }
      ],
      "name": "ResolverPercentageThresholdSet",
      "type": "event"
    },
    {
      "anonymous": false,
      "inputs": [
        {
          "indexed": false,
          "internalType": "address",
          "name": "addr",
          "type": "address"
        }
      ],
      "name": "Unregistered",
      "type": "event"
    },
    {
      "inputs": [],
      "name": "BASIS_POINTS",
      "outputs": [
        {
          "internalType": "uint256",
          "name": "",
          "type": "uint256"
        }
      ],
      "stateMutability": "view",
      "type": "function"
    },
    {
      "inputs": [],
      "name": "clean",
      "outputs": [],
      "stateMutability": "nonpayable",
      "type": "function"
    },
    {
      "inputs": [
        {
          "internalType": "uint256",
          "name": "chainId",
          "type": "uint256"
        }
      ],
      "name": "getPromotees",
      "outputs": [
        {
          "internalType": "address[]",
          "name": "promotees",
          "type": "address[]"
        }
      ],
      "stateMutability": "view",
      "type": "function"
    },
    {
      "inputs": [],
      "name": "getWhitelist",
      "outputs": [
        {
          "internalType": "address[]",
          "name": "",
          "type": "address[]"
        }
      ],
      "stateMutability": "view",
      "type": "function"
    },
    {
      "inputs": [],
      "name": "owner",
      "outputs": [
        {
          "internalType": "address",
          "name": "",
          "type": "address"
        }
      ],
      "stateMutability": "view",
      "type": "function"
    },
    {
      "inputs": [
        {
          "internalType": "uint256",
          "name": "chainId",
          "type": "uint256"
        },
        {
          "internalType": "address",
          "name": "promotee",
          "type": "address"
        }
      ],
      "name": "promote",
      "outputs": [],
      "stateMutability": "nonpayable",
      "type": "function"
    },
    {
      "inputs": [
        {
          "internalType": "address",
          "name": "",
          "type": "address"
        },
        {
          "internalType": "uint256",
          "name": "",
          "type": "uint256"
        }
      ],
      "name": "promotions",
      "outputs": [
        {
          "internalType": "address",
          "name": "",
          "type": "address"
        }
      ],
      "stateMutability": "view",
      "type": "function"
    },
    {
      "inputs": [],
      "name": "register",
      "outputs": [],
      "stateMutability": "nonpayable",
      "type": "function"
    },
    {
      "inputs": [],
      "name": "renounceOwnership",
      "outputs": [],
      "stateMutability": "nonpayable",
      "type": "function"
    },
    {
      "inputs": [
        {
          "internalType": "contract IERC20",
          "name": "token_",
          "type": "address"
        },
        {
          "internalType": "uint256",
          "name": "amount",
          "type": "uint256"
        }
      ],
      "name": "rescueFunds",
      "outputs": [],
      "stateMutability": "nonpayable",
      "type": "function"
    },
    {
      "inputs": [],
      "name": "resolverPercentageThreshold",
      "outputs": [
        {
          "internalType": "uint256",
          "name": "",
          "type": "uint256"
        }
      ],
      "stateMutability": "view",
      "type": "function"
    },
    {
      "inputs": [
        {
          "internalType": "uint256",
          "name": "resolverPercentageThreshold_",
          "type": "uint256"
        }
      ],
      "name": "setResolverPercentageThreshold",
      "outputs": [],
      "stateMutability": "nonpayable",
      "type": "function"
    },
    {
      "inputs": [],
      "name": "token",
      "outputs": [
        {
          "internalType": "contract IVotable",
          "name": "",
          "type": "address"
        }
      ],
      "stateMutability": "view",
      "type": "function"
    },
    {
      "inputs": [
        {
          "internalType": "address",
          "name": "newOwner",
          "type": "address"
        }
      ],
      "name": "transferOwnership",
      "outputs": [],
      "stateMutability": "nonpayable",
      "type": "function"
    }
  ],
  "transactionHash": "0x52f0728fad778a12d63e0d92ae510c2307d7a7612864a3579c8cb8014d735d80",
  "args": [
    "0xAccfAc2339e16DC80c50d2fa81b5c2B049B4f947",
    "1000"
  ],
  "numDeployments": 1,
  "solcInputHash": "ea04810f406bb6f3d5088c06db1e2354",
  "bytecode": "0x60a0346100ef57601f61146d38819003918201601f19168301916001600160401b038311848410176100f45780849260409485528339810103126100ef578051906001600160a01b0380831683036100ef577fcbcd22f10b3a748cd1a2d091ce0b2108352aa00351115f173e159e24d97d280e92602080930151906000543360018060a01b0319821617600055604051933391167f8be0079c531659141344cd1fd0a4f28419497f9722a3daafe3b4186f6b6457e0600080a3608052806002558152a1604051611362908161010b8239608051818181610130015281816101fb01528181610a0b01526110110152f35b600080fd5b634e487b7160e01b600052604160045260246000fdfe608060408181526004908136101561001657600080fd5b600092833560e01c9081631aa3a008146109be575080632af0516614610950578063715018a6146108b157806378e3214f1461068d5780638da5cb5b1461063c578063960462d1146105ff578063cfaa095114610593578063d01f63f51461054c578063e1f1c4a714610511578063e5136e941461046d578063f204bdb91461035a578063f2fde38b14610223578063fc0c546a146101b05763fc4333cd146100be57600080fd5b3461019b57827ffffffffffffffffffffffffffffffffffffffffffffffffffffffffffffffffc36011261019b576002546020825180947f18160ddd0000000000000000000000000000000000000000000000000000000082528173ffffffffffffffffffffffffffffffffffffffff7f0000000000000000000000000000000000000000000000000000000000000000165afa9182156101a75750839161016e575b61016b9250610fdc565b80f35b90506020823d821161019f575b8161018860209383610cb1565b8101031261019b5761016b915190610161565b8280fd5b3d915061017b565b513d85823e3d90fd5b83823461021f57817ffffffffffffffffffffffffffffffffffffffffffffffffffffffffffffffffc36011261021f576020905173ffffffffffffffffffffffffffffffffffffffff7f0000000000000000000000000000000000000000000000000000000000000000168152f35b5080fd5b50903461019b5760207ffffffffffffffffffffffffffffffffffffffffffffffffffffffffffffffffc36011261019b5761025c610bb9565b90610265610c32565b73ffffffffffffffffffffffffffffffffffffffff8092169283156102d75750508254827fffffffffffffffffffffffff00000000000000000000000000000000000000008216178455167f8be0079c531659141344cd1fd0a4f28419497f9722a3daafe3b4186f6b6457e08380a380f35b90602060849251917f08c379a0000000000000000000000000000000000000000000000000000000008352820152602660248201527f4f776e61626c653a206e6577206f776e657220697320746865207a65726f206160448201527f64647265737300000000000000000000000000000000000000000000000000006064820152fd5b50903461019b57817ffffffffffffffffffffffffffffffffffffffffffffffffffffffffffffffffc36011261019b578035916024359173ffffffffffffffffffffffffffffffffffffffff80841680940361046957839033875260016020528387208688526020528387205416146104425750916060917fb863cf86b291171e4b0332ea12b59af030f98a2c74a6d51effaf1109ae4c7f1e933386526001602052808620838752602052808620827fffffffffffffffffffffffff00000000000000000000000000000000000000008254161790558051923384526020840152820152a180f35b90517f53645587000000000000000000000000000000000000000000000000000000008152fd5b8580fd5b5091903461021f57602090817ffffffffffffffffffffffffffffffffffffffffffffffffffffffffffffffffc36011261019b5735906104ab610dfd565b92835192815b8481106104c9578651806104c58882610be1565b0390f35b60019073ffffffffffffffffffffffffffffffffffffffff806104ec838a610f26565b511685528286528885208486528652888520541661050a8289610f26565b52016104b1565b83823461021f57817ffffffffffffffffffffffffffffffffffffffffffffffffffffffffffffffffc36011261021f57602090516127108152f35b83823461021f57817ffffffffffffffffffffffffffffffffffffffffffffffffffffffffffffffffc36011261021f576104c590610588610dfd565b905191829182610be1565b50903461019b5760207ffffffffffffffffffffffffffffffffffffffffffffffffffffffffffffffffc36011261019b577fcbcd22f10b3a748cd1a2d091ce0b2108352aa00351115f173e159e24d97d280e9160209135906105f3610c32565b8160025551908152a180f35b83823461021f57817ffffffffffffffffffffffffffffffffffffffffffffffffffffffffffffffffc36011261021f576020906002549051908152f35b83823461021f57817ffffffffffffffffffffffffffffffffffffffffffffffffffffffffffffffffc36011261021f5773ffffffffffffffffffffffffffffffffffffffff60209254169051908152f35b503461019b57807ffffffffffffffffffffffffffffffffffffffffffffffffffffffffffffffffc36011261019b57813573ffffffffffffffffffffffffffffffffffffffff8116908181036108ad5784602435926106ea610c32565b836106f3575080f35b801590811561088f575b50156107f95750508047106107d257838080809333611388f13d156107cd573d67ffffffffffffffff81116107a15782519061076160207fffffffffffffffffffffffffffffffffffffffffffffffffffffffffffffffe0601f8401160183610cb1565b81528460203d92013e5b1561077b5750505b388080808480f35b517fb12d13eb000000000000000000000000000000000000000000000000000000008152fd5b6024856041867f4e487b7100000000000000000000000000000000000000000000000000000000835252fd5b61076b565b50517ff4d678b8000000000000000000000000000000000000000000000000000000008152fd5b6044602092938551907fa9059cbb0000000000000000000000000000000000000000000000000000000082523388830152602482015282855af1908161086d575b5015610847575050610773565b517ffb7f5079000000000000000000000000000000000000000000000000000000008152fd5b90503d1561088757506001835114601f3d11165b3861083a565b3b1515610881565b73eeeeeeeeeeeeeeeeeeeeeeeeeeeeeeeeeeeeeeee915014386106fd565b8480fd5b833461094d57807ffffffffffffffffffffffffffffffffffffffffffffffffffffffffffffffffc36011261094d576108e8610c32565b8073ffffffffffffffffffffffffffffffffffffffff81547fffffffffffffffffffffffff000000000000000000000000000000000000000081168355167f8be0079c531659141344cd1fd0a4f28419497f9722a3daafe3b4186f6b6457e08280a380f35b80fd5b83823461021f57807ffffffffffffffffffffffffffffffffffffffffffffffffffffffffffffffffc36011261021f576020918173ffffffffffffffffffffffffffffffffffffffff91826109a3610bb9565b16815260018552818120602435825285522054169051908152f35b905083913461019b57827ffffffffffffffffffffffffffffffffffffffffffffffffffffffffffffffffc36011261019b576002549073ffffffffffffffffffffffffffffffffffffffff7f000000000000000000000000000000000000000000000000000000000000000016947f18160ddd00000000000000000000000000000000000000000000000000000000845260209586858381845afa948515610b7d579087918796610b87575b50906024918451928380927f70a0823100000000000000000000000000000000000000000000000000000000825233878301525afa8015610b7d5785908790610b4c575b610ab9925085610f69565b15610b2557610ac733610d21565b15610afe575061016b93947f2d3734a8e47ac8316e500ac231c90a6e1848ca2285f40d07eaa52005e4b3a0e99151338152a1610fdc565b90517f3a81d6fc000000000000000000000000000000000000000000000000000000008152fd5b90517f63bd63ba000000000000000000000000000000000000000000000000000000008152fd5b50508681813d8311610b76575b610b638183610cb1565b810103126104695784610ab99151610aae565b503d610b59565b83513d88823e3d90fd5b8281939297503d8311610bb2575b610b9f8183610cb1565b8101031261046957519386906024610a6a565b503d610b95565b6004359073ffffffffffffffffffffffffffffffffffffffff82168203610bdc57565b600080fd5b6020908160408183019282815285518094520193019160005b828110610c08575050505090565b835173ffffffffffffffffffffffffffffffffffffffff1685529381019392810192600101610bfa565b73ffffffffffffffffffffffffffffffffffffffff600054163303610c5357565b60646040517f08c379a000000000000000000000000000000000000000000000000000000000815260206004820152602060248201527f4f776e61626c653a2063616c6c6572206973206e6f7420746865206f776e65726044820152fd5b90601f7fffffffffffffffffffffffffffffffffffffffffffffffffffffffffffffffe0910116810190811067ffffffffffffffff821117610cf257604052565b7f4e487b7100000000000000000000000000000000000000000000000000000000600052604160045260246000fd5b73ffffffffffffffffffffffffffffffffffffffff1660009080825260046020526040822054610de15760016040918380526003602052828420908154918260a01c928315600014610dbb575050848052600360205274ffffffffffffffffffffffffffffffffffffffffff81740100000000000000000000000000000000000000000116848620555b8452600460205201912055600190565b740100000000000000000000000000000000000000000190558185528084862055610dab565b5090565b67ffffffffffffffff8111610cf25760051b60200190565b600090818052600391602090838252604090818120548060a01c92610e2184610de5565b92610e2e82519485610cb1565b848452610e3a85610de5565b977fffffffffffffffffffffffffffffffffffffffffffffffffffffffffffffffe08786019901368a37849885518711610efd5786610e7e575b5050505050505050565b855115610ed05773ffffffffffffffffffffffffffffffffffffffff8095169052600196875b878110610eb15750610e74565b8089918552838352868686205416610ec9828a610f26565b5201610ea4565b6024837f4e487b710000000000000000000000000000000000000000000000000000000081526032600452fd5b600484517ff9a99b25000000000000000000000000000000000000000000000000000000008152fd5b8051821015610f3a5760209160051b010190565b7f4e487b7100000000000000000000000000000000000000000000000000000000600052603260045260246000fd5b9080159283159384610f7d575b5050505090565b9091929350612710808402938404141715610fad57828102928184041490151715610fad57101538808080610f76565b7f4e487b7100000000000000000000000000000000000000000000000000000000600052601160045260246000fd5b906000908180526003916020938385526040918281205460a01c93819273ffffffffffffffffffffffffffffffffffffffff807f000000000000000000000000000000000000000000000000000000000000000016965b8086106110465750505050505050505050565b858552888a5281878620541687517f70a082310000000000000000000000000000000000000000000000000000000081528160048201528b816024818d5afa90811561114e578c929187918991611113575b50906110a49187610f69565b611106577fffffffffffffffffffffffffffffffffffffffffffffffffffffffffffffffff9291816110f67f75cd6de711483e11488a1cd9b66172abccb9e5c19572f92015a7880f0c8c0edc93611158565b508a51908152a101975b97611033565b5050979460010194611100565b92938092508391503d8311611147575b61112d8183610cb1565b8101031261114357518b919086906110a4611098565b8680fd5b503d611123565b89513d89823e3d90fd5b73ffffffffffffffffffffffffffffffffffffffff80911690600091808352602090600482526040928385205490811561132457858052600384528486205460a01c9081831061125c575b50505083805260038252828420548060a01c801561123357906001827fffffffffffffffffffffffffffffffffffffffffffffffffffffffffffffffff600496959401885260038552878781205511611203575b50845252812055600190565b7fffffffffffffffffffffffff0000000000000000000000000000000000000000908680520184862055386111f7565b600485517f06a2af9e000000000000000000000000000000000000000000000000000000008152fd5b7fffffffffffffffffffffffffffffffffffffffffffffffffffffffffffffffff8092018752858720541690820186805285872054908160a01c8110156112fb57829190806112e857507fffffffffffffffffffffffff000000000000000000000000000000000000000090888052600387521617858720555b855260048352838520553880806111a3565b91505086526003845280858720556112d6565b600487517f4e23d035000000000000000000000000000000000000000000000000000000008152fd5b50505050509056fea2646970667358221220e87881068d133097e15aecadd3bd09d2297669edb899658203bb5f7d2a32c71164736f6c63430008130033",
  "devdoc": {
    "kind": "dev",
    "methods": {
      "getPromotees(uint256)": {
        "params": {
          "chainId": "The chain ID to get the promoted addresses for."
        },
        "returns": {
          "promotees": "A list of worker addresses."
        }
      },
      "getWhitelist()": {
        "returns": {
          "_0": "whitelist A list of whitelisted addresses."
        }
      },
      "owner()": {
        "details": "Returns the address of the current owner."
      },
      "promote(uint256,address)": {
        "params": {
          "chainId": "The chain ID where the worker will assigned.",
          "promotee": "The worker's address."
        }
      },
      "register()": {
        "details": "Reverts if the caller's total supply percentage is below the resolver threshold."
      },
      "renounceOwnership()": {
        "details": "Leaves the contract without owner. It will not be possible to call `onlyOwner` functions anymore. Can only be called by the current owner. NOTE: Renouncing ownership will leave the contract without an owner, thereby removing any functionality that is only available to the owner."
      },
      "rescueFunds(address,uint256)": {
        "params": {
          "amount": "The amount of tokens to recover.",
          "token_": "The token to recover."
        }
      },
      "setResolverPercentageThreshold(uint256)": {
        "params": {
          "resolverPercentageThreshold_": "The new resolver threshold."
        }
      },
      "transferOwnership(address)": {
        "details": "Transfers ownership of the contract to a new account (`newOwner`). Can only be called by the current owner."
      }
    },
    "title": "WhitelistRegistry",
    "version": 1
  },
  "userdoc": {
    "events": {
      "Promotion(address,uint256,address)": {
        "notice": "Emitted when a new worker for a resolver is set."
      },
      "Registered(address)": {
        "notice": "Emitted after a new resolver is registered."
      },
      "ResolverPercentageThresholdSet(uint256)": {
        "notice": "Emitted when the new minimum total supply percentage to get into the whitelist is set."
      },
      "Unregistered(address)": {
        "notice": "Emitted when a resolver is pushed out of whitelist."
      }
    },
    "kind": "user",
    "methods": {
      "clean()": {
        "notice": "Cleans the whitelist by removing addresses that fall below the resolver threshold."
      },
      "getPromotees(uint256)": {
        "notice": "Returns the worker list for a particular chain ID."
      },
      "getWhitelist()": {
        "notice": "Returns the addresses in the whitelist."
      },
      "promote(uint256,address)": {
        "notice": "Registers a worker for the resolver to settle orders."
      },
      "register()": {
        "notice": "Attempts to register the caller in the whitelist."
      },
      "rescueFunds(address,uint256)": {
        "notice": "Allows the contract owner to recover any tokens accidentally sent to the contract."
      },
      "setResolverPercentageThreshold(uint256)": {
        "notice": "Allows the contract owner to set a new resolver threshold. The resolver threshold is the minimum total supply percentage required to get into the whitelist."
      }
    },
    "notice": "The contract manages a whitelist for trading resolvers, providing functions to register, promote and remove addresses, as well as setting various thresholds and limits. It also includes an emergency rescue function for tokens sent to the contract accidentally.",
    "version": 1
  },
  "storageLayout": {
    "storage": [
      {
        "astId": 12046,
        "contract": "contracts/WhitelistRegistry.sol:WhitelistRegistry",
        "label": "_owner",
        "offset": 0,
        "slot": "0",
        "type": "t_address"
      },
      {
        "astId": 16247,
        "contract": "contracts/WhitelistRegistry.sol:WhitelistRegistry",
        "label": "promotions",
        "offset": 0,
        "slot": "1",
        "type": "t_mapping(t_address,t_mapping(t_uint256,t_address))"
      },
      {
        "astId": 16249,
        "contract": "contracts/WhitelistRegistry.sol:WhitelistRegistry",
        "label": "resolverPercentageThreshold",
        "offset": 0,
        "slot": "2",
        "type": "t_uint256"
      },
      {
        "astId": 16252,
        "contract": "contracts/WhitelistRegistry.sol:WhitelistRegistry",
        "label": "_whitelist",
        "offset": 0,
        "slot": "3",
        "type": "t_struct(Data)7952_storage"
      }
    ],
    "types": {
      "t_address": {
        "encoding": "inplace",
        "label": "address",
        "numberOfBytes": "20"
      },
      "t_mapping(t_address,t_mapping(t_uint256,t_address))": {
        "encoding": "mapping",
        "key": "t_address",
        "label": "mapping(address => mapping(uint256 => address))",
        "numberOfBytes": "32",
        "value": "t_mapping(t_uint256,t_address)"
      },
      "t_mapping(t_address,t_uint256)": {
        "encoding": "mapping",
        "key": "t_address",
        "label": "mapping(address => uint256)",
        "numberOfBytes": "32",
        "value": "t_uint256"
      },
      "t_mapping(t_uint256,t_address)": {
        "encoding": "mapping",
        "key": "t_uint256",
        "label": "mapping(uint256 => address)",
        "numberOfBytes": "32",
        "value": "t_address"
      },
      "t_mapping(t_uint256,t_uint256)": {
        "encoding": "mapping",
        "key": "t_uint256",
        "label": "mapping(uint256 => uint256)",
        "numberOfBytes": "32",
        "value": "t_uint256"
      },
      "t_struct(Data)7473_storage": {
        "encoding": "inplace",
        "label": "struct AddressArray.Data",
        "members": [
          {
            "astId": 7472,
            "contract": "contracts/WhitelistRegistry.sol:WhitelistRegistry",
            "label": "_raw",
            "offset": 0,
            "slot": "0",
            "type": "t_mapping(t_uint256,t_uint256)"
          }
        ],
        "numberOfBytes": "32"
      },
      "t_struct(Data)7952_storage": {
        "encoding": "inplace",
        "label": "struct AddressSet.Data",
        "members": [
          {
            "astId": 7947,
            "contract": "contracts/WhitelistRegistry.sol:WhitelistRegistry",
            "label": "items",
            "offset": 0,
            "slot": "0",
            "type": "t_struct(Data)7473_storage"
          },
          {
            "astId": 7951,
            "contract": "contracts/WhitelistRegistry.sol:WhitelistRegistry",
            "label": "lookup",
            "offset": 0,
            "slot": "1",
            "type": "t_mapping(t_address,t_uint256)"
          }
        ],
        "numberOfBytes": "64"
      },
      "t_uint256": {
        "encoding": "inplace",
        "label": "uint256",
        "numberOfBytes": "32"
      }
    }
  }
}