{
  "address": "0xF779bdde38C39138Dcaf1514B8a6b8a6C165642D",
  "abi": [
    {
      "inputs": [
        {
          "internalType": "contract WhitelistRegistry",
          "name": "whitelistRegistry_",
          "type": "address"
        }
      ],
      "stateMutability": "nonpayable",
      "type": "constructor"
    },
    {
      "inputs": [],
      "name": "delegation",
      "outputs": [
        {
          "internalType": "contract IERC20",
          "name": "",
          "type": "address"
        }
      ],
      "stateMutability": "view",
      "type": "function"
    },
    {
      "inputs": [],
      "name": "getMinAmountForWhitelisted",
      "outputs": [
        {
          "internalType": "uint256",
          "name": "",
          "type": "uint256"
        }
      ],
      "stateMutability": "view",
      "type": "function"
    },
    {
      "inputs": [],
      "name": "whitelistRegistry",
      "outputs": [
        {
          "internalType": "contract WhitelistRegistry",
          "name": "",
          "type": "address"
        }
      ],
      "stateMutability": "view",
      "type": "function"
    }
  ],
  "transactionHash": "0x8e46303ba3c004dae17109fa955fc205b13e858d38a72ee46f6777f6fc3a88b0",
  "args": [
    "0xcb8308fcB7BC2f84ed1bEa2C016991D34de5cc77"
  ],
  "numDeployments": 1,
  "solcInputHash": "24ad851cd7c951afcfb0e5b3aaf4143b",
  "bytecode": "0x60c060405234801561001057600080fd5b5060405161081d38038061081d83398101604081905261002f916100c7565b6001600160a01b038116608081905260408051637e062a3560e11b8152905163fc0c546a916004808201926020929091908290030181865afa158015610079573d6000803e3d6000fd5b505050506040513d601f19601f8201168201806040525081019061009d91906100c7565b6001600160a01b031660a052506100eb565b6001600160a01b03811681146100c457600080fd5b50565b6000602082840312156100d957600080fd5b81516100e4816100af565b9392505050565b60805160a0516106ed610130600039600081816066015281816102c401526103a301526000818160b20152818160d901528181610194015261022501526106ed6000f3fe608060405234801561001057600080fd5b50600436106100415760003560e01c8063ccacbaa714610046578063df5cf72314610061578063ed950638146100ad575b600080fd5b61004e6100d4565b6040519081526020015b60405180910390f35b6100887f000000000000000000000000000000000000000000000000000000000000000081565b60405173ffffffffffffffffffffffffffffffffffffffff9091168152602001610058565b6100887f000000000000000000000000000000000000000000000000000000000000000081565b6000807f000000000000000000000000000000000000000000000000000000000000000073ffffffffffffffffffffffffffffffffffffffff1663d01f63f56040518163ffffffff1660e01b8152600401600060405180830381865afa158015610142573d6000803e3d6000fd5b505050506040513d6000823e601f3d9081017fffffffffffffffffffffffffffffffffffffffffffffffffffffffffffffffe0168201604052610188919081019061050c565b905060008151905060007f000000000000000000000000000000000000000000000000000000000000000073ffffffffffffffffffffffffffffffffffffffff16632c01097a6040518163ffffffff1660e01b8152600401602060405180830381865afa1580156101fd573d6000803e3d6000fd5b505050506040513d601f19601f8201168201806040525081019061022191906105ef565b90507f000000000000000000000000000000000000000000000000000000000000000073ffffffffffffffffffffffffffffffffffffffff1663302150e56040518163ffffffff1660e01b8152600401602060405180830381865afa15801561028e573d6000803e3d6000fd5b505050506040513d601f19601f820116820180604052508101906102b291906105ef565b8210156102c0579392505050565b60007f000000000000000000000000000000000000000000000000000000000000000073ffffffffffffffffffffffffffffffffffffffff166370a082318560008151811061031157610311610608565b60200260200101516040518263ffffffff1660e01b8152600401610351919073ffffffffffffffffffffffffffffffffffffffff91909116815260200190565b602060405180830381865afa15801561036e573d6000803e3d6000fd5b505050506040513d601f19601f8201168201806040525081019061039291906105ef565b905060015b8381101561048f5760007f000000000000000000000000000000000000000000000000000000000000000073ffffffffffffffffffffffffffffffffffffffff166370a082318784815181106103ef576103ef610608565b60200260200101516040518263ffffffff1660e01b815260040161042f919073ffffffffffffffffffffffffffffffffffffffff91909116815260200190565b602060405180830381865afa15801561044c573d6000803e3d6000fd5b505050506040513d601f19601f8201168201806040525081019061047091906105ef565b90508281101561047e578092505b5061048881610666565b9050610397565b50818110156104a057509392505050565b6104ab81600161069e565b94505050505090565b7f4e487b7100000000000000000000000000000000000000000000000000000000600052604160045260246000fd5b805173ffffffffffffffffffffffffffffffffffffffff8116811461050757600080fd5b919050565b6000602080838503121561051f57600080fd5b825167ffffffffffffffff8082111561053757600080fd5b818501915085601f83011261054b57600080fd5b81518181111561055d5761055d6104b4565b8060051b6040517fffffffffffffffffffffffffffffffffffffffffffffffffffffffffffffffe0603f830116810181811085821117156105a0576105a06104b4565b6040529182528482019250838101850191888311156105be57600080fd5b938501935b828510156105e3576105d4856104e3565b845293850193928501926105c3565b98975050505050505050565b60006020828403121561060157600080fd5b5051919050565b7f4e487b7100000000000000000000000000000000000000000000000000000000600052603260045260246000fd5b7f4e487b7100000000000000000000000000000000000000000000000000000000600052601160045260246000fd5b60007fffffffffffffffffffffffffffffffffffffffffffffffffffffffffffffffff820361069757610697610637565b5060010190565b808201808211156106b1576106b1610637565b9291505056fea264697066735822122067bd65dc8f97eacfda9aea93ef75e3dc5bc4ed60fb230406aeef9acd7f4dbc4464736f6c63430008110033",
  "devdoc": {
    "kind": "dev",
    "methods": {},
    "version": 1
  },
  "userdoc": {
    "kind": "user",
    "methods": {},
    "version": 1
  },
  "storageLayout": {
    "storage": [],
    "types": null
  }
}